{"abi":[{"inputs":[],"stateMutability":"nonpayable","type":"constructor"},{"inputs":[{"internalType":"address payable","name":"account","type":"address"},{"internalType":"uint256","name":"salary","type":"uint256"},{"internalType":"uint256","name":"payStartDate","type":"uint256"},{"internalType":"uint256","name":"payEndDate","type":"uint256"}],"name":"addEmployee","outputs":[],"stateMutability":"nonpayable","type":"function"},{"inputs":[],"name":"checkBalance","outputs":[{"internalType":"uint256","name":"","type":"uint256"}],"stateMutability":"view","type":"function"},{"inputs":[],"name":"depositFunds","outputs":[],"stateMutability":"payable","type":"function"},{"inputs":[],"name":"employeeManagement","outputs":[{"internalType":"contract EmployeeManagement","name":"","type":"address"}],"stateMutability":"view","type":"function"},{"inputs":[],"name":"financeManagement","outputs":[{"internalType":"contract FinanceManagement","name":"","type":"address"}],"stateMutability":"view","type":"function"},{"inputs":[{"internalType":"address","name":"account","type":"address"}],"name":"getEmployeeDetails","outputs":[{"internalType":"address","name":"","type":"address"},{"internalType":"uint256","name":"","type":"uint256"},{"internalType":"uint256","name":"","type":"uint256"},{"internalType":"uint256","name":"","type":"uint256"}],"stateMutability":"view","type":"function"},{"inputs":[{"internalType":"address","name":"account","type":"address"}],"name":"getHistory","outputs":[{"internalType":"uint256[]","name":"","type":"uint256[]"}],"stateMutability":"view","type":"function"},{"inputs":[],"name":"historyManagement","outputs":[{"internalType":"contract HistoryManagement","name":"","type":"address"}],"stateMutability":"view","type":"function"},{"inputs":[],"name":"owner","outputs":[{"internalType":"address","name":"","type":"address"}],"stateMutability":"view","type":"function"},{"inputs":[],"name":"payAllEmployees","outputs":[],"stateMutability":"nonpayable","type":"function"},{"inputs":[{"internalType":"address","name":"account","type":"address"}],"name":"removeEmployee","outputs":[],"stateMutability":"nonpayable","type":"function"},{"inputs":[],"name":"totalSalaryToBePaid","outputs":[{"internalType":"uint256","name":"","type":"uint256"}],"stateMutability":"view","type":"function"},{"inputs":[{"internalType":"address","name":"account","type":"address"},{"internalType":"uint256","name":"newSalary","type":"uint256"},{"internalType":"uint256","name":"newPayStartDate","type":"uint256"},{"internalType":"uint256","name":"newPayEndDate","type":"uint256"}],"name":"updateEmployee","outputs":[],"stateMutability":"nonpayable","type":"function"}],"devdoc":{"kind":"dev","methods":{},"version":1},"evm":{"assembly":"    /* \"BlockPay.sol\":161:1957  contract BlockPay {... */\n  mstore(0x40, 0x80)\n    /* \"BlockPay.sol\":359:605  constructor() {... */\n  callvalue\n  dup1\n  iszero\n  tag_1\n  jumpi\n  0x00\n  dup1\n  revert\ntag_1:\n  pop\n    /* \"BlockPay.sol\":391:401  msg.sender */\n  caller\n    /* \"BlockPay.sol\":383:388  owner */\n  0x00\n  dup1\n    /* \"BlockPay.sol\":383:401  owner = msg.sender */\n  0x0100\n  exp\n  dup2\n  sload\n  dup2\n  0xffffffffffffffffffffffffffffffffffffffff\n  mul\n  not\n  and\n  swap1\n  dup4\n  0xffffffffffffffffffffffffffffffffffffffff\n  and\n  mul\n  or\n  swap1\n  sstore\n  pop\n    /* \"BlockPay.sol\":431:454  new FinanceManagement() */\n  mload(0x40)\n  tag_4\n  swap1\n  tag_5\n  jump\t// in\ntag_4:\n  mload(0x40)\n  dup1\n  swap2\n  sub\n  swap1\n  0x00\n  create\n  dup1\n  iszero\n  dup1\n  iszero\n  tag_6\n  jumpi\n  returndatasize\n  0x00\n  dup1\n  returndatacopy\n  revert(0x00, returndatasize)\ntag_6:\n  pop\n    /* \"BlockPay.sol\":411:428  financeManagement */\n  0x01\n  0x00\n    /* \"BlockPay.sol\":411:454  financeManagement = new FinanceManagement() */\n  0x0100\n  exp\n  dup2\n  sload\n  dup2\n  0xffffffffffffffffffffffffffffffffffffffff\n  mul\n  not\n  and\n  swap1\n  dup4\n  0xffffffffffffffffffffffffffffffffffffffff\n  and\n  mul\n  or\n  swap1\n  sstore\n  pop\n    /* \"BlockPay.sol\":484:507  new HistoryManagement() */\n  mload(0x40)\n  tag_7\n  swap1\n  tag_8\n  jump\t// in\ntag_7:\n  mload(0x40)\n  dup1\n  swap2\n  sub\n  swap1\n  0x00\n  create\n  dup1\n  iszero\n  dup1\n  iszero\n  tag_9\n  jumpi\n  returndatasize\n  0x00\n  dup1\n  returndatacopy\n  revert(0x00, returndatasize)\ntag_9:\n  pop\n    /* \"BlockPay.sol\":464:481  historyManagement */\n  0x03\n  0x00\n    /* \"BlockPay.sol\":464:507  historyManagement = new HistoryManagement() */\n  0x0100\n  exp\n  dup2\n  sload\n  dup2\n  0xffffffffffffffffffffffffffffffffffffffff\n  mul\n  not\n  and\n  swap1\n  dup4\n  0xffffffffffffffffffffffffffffffffffffffff\n  and\n  mul\n  or\n  swap1\n  sstore\n  pop\n    /* \"BlockPay.sol\":561:578  financeManagement */\n  0x01\n  0x00\n  swap1\n  sload\n  swap1\n  0x0100\n  exp\n  swap1\n  div\n  0xffffffffffffffffffffffffffffffffffffffff\n  and\n    /* \"BlockPay.sol\":580:597  historyManagement */\n  0x03\n  0x00\n  swap1\n  sload\n  swap1\n  0x0100\n  exp\n  swap1\n  div\n  0xffffffffffffffffffffffffffffffffffffffff\n  and\n    /* \"BlockPay.sol\":538:598  new EmployeeManagement(financeManagement, historyManagement) */\n  mload(0x40)\n  tag_10\n  swap1\n  tag_11\n  jump\t// in\ntag_10:\n  tag_12\n  swap3\n  swap2\n  swap1\n  tag_13\n  jump\t// in\ntag_12:\n  mload(0x40)\n  dup1\n  swap2\n  sub\n  swap1\n  0x00\n  create\n  dup1\n  iszero\n  dup1\n  iszero\n  tag_14\n  jumpi\n  returndatasize\n  0x00\n  dup1\n  returndatacopy\n  revert(0x00, returndatasize)\ntag_14:\n  pop\n    /* \"BlockPay.sol\":517:535  employeeManagement */\n  0x02\n  0x00\n    /* \"BlockPay.sol\":517:598  employeeManagement = new EmployeeManagement(financeManagement, historyManagement) */\n  0x0100\n  exp\n  dup2\n  sload\n  dup2\n  0xffffffffffffffffffffffffffffffffffffffff\n  mul\n  not\n  and\n  swap1\n  dup4\n  0xffffffffffffffffffffffffffffffffffffffff\n  and\n  mul\n  or\n  swap1\n  sstore\n  pop\n    /* \"BlockPay.sol\":161:1957  contract BlockPay {... */\n  jump(tag_15)\ntag_5:\n  dataSize(sub_1)\n  dup1\n  dataOffset(sub_1)\n  dup4\n  codecopy\n  add\n  swap1\n  jump\t// out\ntag_8:\n  dataSize(sub_2)\n  dup1\n  dataOffset(sub_2)\n  dup4\n  codecopy\n  add\n  swap1\n  jump\t// out\ntag_11:\n  dataSize(sub_3)\n  dup1\n  dataOffset(sub_3)\n  dup4\n  codecopy\n  add\n  swap1\n  jump\t// out\n    /* \"#utility.yul\":7:133   */\ntag_16:\n    /* \"#utility.yul\":44:51   */\n  0x00\n    /* \"#utility.yul\":84:126   */\n  0xffffffffffffffffffffffffffffffffffffffff\n    /* \"#utility.yul\":77:82   */\n  dup3\n    /* \"#utility.yul\":73:127   */\n  and\n    /* \"#utility.yul\":62:127   */\n  swap1\n  pop\n    /* \"#utility.yul\":7:133   */\n  swap2\n  swap1\n  pop\n  jump\t// out\n    /* \"#utility.yul\":139:199   */\ntag_17:\n    /* \"#utility.yul\":167:170   */\n  0x00\n    /* \"#utility.yul\":188:193   */\n  dup2\n    /* \"#utility.yul\":181:193   */\n  swap1\n  pop\n    /* \"#utility.yul\":139:199   */\n  swap2\n  swap1\n  pop\n  jump\t// out\n    /* \"#utility.yul\":205:347   */\ntag_18:\n    /* \"#utility.yul\":255:264   */\n  0x00\n    /* \"#utility.yul\":288:341   */\n  tag_28\n    /* \"#utility.yul\":306:340   */\n  tag_29\n    /* \"#utility.yul\":315:339   */\n  tag_30\n    /* \"#utility.yul\":333:338   */\n  dup5\n    /* \"#utility.yul\":315:339   */\n  tag_16\n  jump\t// in\ntag_30:\n    /* \"#utility.yul\":306:340   */\n  tag_17\n  jump\t// in\ntag_29:\n    /* \"#utility.yul\":288:341   */\n  tag_16\n  jump\t// in\ntag_28:\n    /* \"#utility.yul\":275:341   */\n  swap1\n  pop\n    /* \"#utility.yul\":205:347   */\n  swap2\n  swap1\n  pop\n  jump\t// out\n    /* \"#utility.yul\":353:479   */\ntag_19:\n    /* \"#utility.yul\":403:412   */\n  0x00\n    /* \"#utility.yul\":436:473   */\n  tag_32\n    /* \"#utility.yul\":467:472   */\n  dup3\n    /* \"#utility.yul\":436:473   */\n  tag_18\n  jump\t// in\ntag_32:\n    /* \"#utility.yul\":423:473   */\n  swap1\n  pop\n    /* \"#utility.yul\":353:479   */\n  swap2\n  swap1\n  pop\n  jump\t// out\n    /* \"#utility.yul\":485:636   */\ntag_20:\n    /* \"#utility.yul\":560:569   */\n  0x00\n    /* \"#utility.yul\":593:630   */\n  tag_34\n    /* \"#utility.yul\":624:629   */\n  dup3\n    /* \"#utility.yul\":593:630   */\n  tag_19\n  jump\t// in\ntag_34:\n    /* \"#utility.yul\":580:630   */\n  swap1\n  pop\n    /* \"#utility.yul\":485:636   */\n  swap2\n  swap1\n  pop\n  jump\t// out\n    /* \"#utility.yul\":642:823   */\ntag_21:\n    /* \"#utility.yul\":754:816   */\n  tag_36\n    /* \"#utility.yul\":810:815   */\n  dup2\n    /* \"#utility.yul\":754:816   */\n  tag_20\n  jump\t// in\ntag_36:\n    /* \"#utility.yul\":749:752   */\n  dup3\n    /* \"#utility.yul\":742:817   */\n  mstore\n    /* \"#utility.yul\":642:823   */\n  pop\n  pop\n  jump\t// out\n    /* \"#utility.yul\":829:980   */\ntag_22:\n    /* \"#utility.yul\":904:913   */\n  0x00\n    /* \"#utility.yul\":937:974   */\n  tag_38\n    /* \"#utility.yul\":968:973   */\n  dup3\n    /* \"#utility.yul\":937:974   */\n  tag_19\n  jump\t// in\ntag_38:\n    /* \"#utility.yul\":924:974   */\n  swap1\n  pop\n    /* \"#utility.yul\":829:980   */\n  swap2\n  swap1\n  pop\n  jump\t// out\n    /* \"#utility.yul\":986:1167   */\ntag_23:\n    /* \"#utility.yul\":1098:1160   */\n  tag_40\n    /* \"#utility.yul\":1154:1159   */\n  dup2\n    /* \"#utility.yul\":1098:1160   */\n  tag_22\n  jump\t// in\ntag_40:\n    /* \"#utility.yul\":1093:1096   */\n  dup3\n    /* \"#utility.yul\":1086:1161   */\n  mstore\n    /* \"#utility.yul\":986:1167   */\n  pop\n  pop\n  jump\t// out\n    /* \"#utility.yul\":1173:1605   */\ntag_13:\n    /* \"#utility.yul\":1344:1348   */\n  0x00\n    /* \"#utility.yul\":1382:1384   */\n  0x40\n    /* \"#utility.yul\":1371:1380   */\n  dup3\n    /* \"#utility.yul\":1367:1385   */\n  add\n    /* \"#utility.yul\":1359:1385   */\n  swap1\n  pop\n    /* \"#utility.yul\":1395:1491   */\n  tag_42\n    /* \"#utility.yul\":1488:1489   */\n  0x00\n    /* \"#utility.yul\":1477:1486   */\n  dup4\n    /* \"#utility.yul\":1473:1490   */\n  add\n    /* \"#utility.yul\":1464:1470   */\n  dup6\n    /* \"#utility.yul\":1395:1491   */\n  tag_21\n  jump\t// in\ntag_42:\n    /* \"#utility.yul\":1501:1598   */\n  tag_43\n    /* \"#utility.yul\":1594:1596   */\n  0x20\n    /* \"#utility.yul\":1583:1592   */\n  dup4\n    /* \"#utility.yul\":1579:1597   */\n  add\n    /* \"#utility.yul\":1570:1576   */\n  dup5\n    /* \"#utility.yul\":1501:1598   */\n  tag_23\n  jump\t// in\ntag_43:\n    /* \"#utility.yul\":1173:1605   */\n  swap4\n  swap3\n  pop\n  pop\n  pop\n  jump\t// out\n    /* \"BlockPay.sol\":161:1957  contract BlockPay {... */\ntag_15:\n  dataSize(sub_0)\n  dup1\n  dataOffset(sub_0)\n  0x00\n  codecopy\n  0x00\n  return\nstop\n\nsub_0: assembly {\n        /* \"BlockPay.sol\":161:1957  contract BlockPay {... */\n      mstore(0x40, 0x80)\n      jumpi(tag_1, lt(calldatasize, 0x04))\n      shr(0xe0, calldataload(0x00))\n      dup1\n      0xa84cffd9\n      gt\n      tag_15\n      jumpi\n      dup1\n      0xccff137a\n      gt\n      tag_16\n      jumpi\n      dup1\n      0xccff137a\n      eq\n      tag_11\n      jumpi\n      dup1\n      0xd108177a\n      eq\n      tag_12\n      jumpi\n      dup1\n      0xdf47a353\n      eq\n      tag_13\n      jumpi\n      dup1\n      0xe2c41dbc\n      eq\n      tag_14\n      jumpi\n      jump(tag_1)\n    tag_16:\n      dup1\n      0xa84cffd9\n      eq\n      tag_8\n      jumpi\n      dup1\n      0xc0571ea5\n      eq\n      tag_9\n      jumpi\n      dup1\n      0xc71daccb\n      eq\n      tag_10\n      jumpi\n      jump(tag_1)\n    tag_15:\n      dup1\n      0x1caafcf1\n      eq\n      tag_2\n      jumpi\n      dup1\n      0x4a4247d9\n      eq\n      tag_3\n      jumpi\n      dup1\n      0x64ca0981\n      eq\n      tag_4\n      jumpi\n      dup1\n      0x80396811\n      eq\n      tag_5\n      jumpi\n      dup1\n      0x809e9ef5\n      eq\n      tag_6\n      jumpi\n      dup1\n      0x8da5cb5b\n      eq\n      tag_7\n      jumpi\n    tag_1:\n      0x00\n      dup1\n      revert\n        /* \"BlockPay.sol\":1409:1572  function getEmployeeDetails(address account) public view returns (address, uint, uint, uint) {... */\n    tag_2:\n      callvalue\n      dup1\n      iszero\n      tag_17\n      jumpi\n      0x00\n      dup1\n      revert\n    tag_17:\n      pop\n      tag_18\n      0x04\n      dup1\n      calldatasize\n      sub\n      dup2\n      add\n      swap1\n      tag_19\n      swap2\n      swap1\n      tag_20\n      jump\t// in\n    tag_19:\n      tag_21\n      jump\t// in\n    tag_18:\n      mload(0x40)\n      tag_22\n      swap5\n      swap4\n      swap3\n      swap2\n      swap1\n      tag_23\n      jump\t// in\n    tag_22:\n      mload(0x40)\n      dup1\n      swap2\n      sub\n      swap1\n      return\n        /* \"BlockPay.sol\":880:1072  function addEmployee(address payable account, uint salary, uint payStartDate, uint payEndDate) public {... */\n    tag_3:\n      callvalue\n      dup1\n      iszero\n      tag_24\n      jumpi\n      0x00\n      dup1\n      revert\n    tag_24:\n      pop\n      tag_25\n      0x04\n      dup1\n      calldatasize\n      sub\n      dup2\n      add\n      swap1\n      tag_26\n      swap2\n      swap1\n      tag_27\n      jump\t// in\n    tag_26:\n      tag_28\n      jump\t// in\n    tag_25:\n      stop\n        /* \"BlockPay.sol\":211:253  FinanceManagement public financeManagement */\n    tag_4:\n      callvalue\n      dup1\n      iszero\n      tag_29\n      jumpi\n      0x00\n      dup1\n      revert\n    tag_29:\n      pop\n      tag_30\n      tag_31\n      jump\t// in\n    tag_30:\n      mload(0x40)\n      tag_32\n      swap2\n      swap1\n      tag_33\n      jump\t// in\n    tag_32:\n      mload(0x40)\n      dup1\n      swap2\n      sub\n      swap1\n      return\n        /* \"BlockPay.sol\":1821:1955  function getHistory(address account) public view returns (uint[] memory) {... */\n    tag_5:\n      callvalue\n      dup1\n      iszero\n      tag_34\n      jumpi\n      0x00\n      dup1\n      revert\n    tag_34:\n      pop\n      tag_35\n      0x04\n      dup1\n      calldatasize\n      sub\n      dup2\n      add\n      swap1\n      tag_36\n      swap2\n      swap1\n      tag_20\n      jump\t// in\n    tag_36:\n      tag_37\n      jump\t// in\n    tag_35:\n      mload(0x40)\n      tag_38\n      swap2\n      swap1\n      tag_39\n      jump\t// in\n    tag_38:\n      mload(0x40)\n      dup1\n      swap2\n      sub\n      swap1\n      return\n        /* \"BlockPay.sol\":1706:1794  function payAllEmployees() public  {... */\n    tag_6:\n      callvalue\n      dup1\n      iszero\n      tag_40\n      jumpi\n      0x00\n      dup1\n      revert\n    tag_40:\n      pop\n      tag_41\n      tag_42\n      jump\t// in\n    tag_41:\n      stop\n        /* \"BlockPay.sol\":185:205  address public owner */\n    tag_7:\n      callvalue\n      dup1\n      iszero\n      tag_43\n      jumpi\n      0x00\n      dup1\n      revert\n    tag_43:\n      pop\n      tag_44\n      tag_45\n      jump\t// in\n    tag_44:\n      mload(0x40)\n      tag_46\n      swap2\n      swap1\n      tag_47\n      jump\t// in\n    tag_46:\n      mload(0x40)\n      dup1\n      swap2\n      sub\n      swap1\n      return\n        /* \"BlockPay.sol\":1578:1700  function totalSalaryToBePaid() public view returns (uint) {... */\n    tag_8:\n      callvalue\n      dup1\n      iszero\n      tag_48\n      jumpi\n      0x00\n      dup1\n      revert\n    tag_48:\n      pop\n      tag_49\n      tag_50\n      jump\t// in\n    tag_49:\n      mload(0x40)\n      tag_51\n      swap2\n      swap1\n      tag_52\n      jump\t// in\n    tag_51:\n      mload(0x40)\n      dup1\n      swap2\n      sub\n      swap1\n      return\n        /* \"BlockPay.sol\":309:352  HistoryManagement public  historyManagement */\n    tag_9:\n      callvalue\n      dup1\n      iszero\n      tag_53\n      jumpi\n      0x00\n      dup1\n      revert\n    tag_53:\n      pop\n      tag_54\n      tag_55\n      jump\t// in\n    tag_54:\n      mload(0x40)\n      tag_56\n      swap2\n      swap1\n      tag_57\n      jump\t// in\n    tag_56:\n      mload(0x40)\n      dup1\n      swap2\n      sub\n      swap1\n      return\n        /* \"BlockPay.sol\":745:852  function checkBalance() public view returns (uint) {... */\n    tag_10:\n      callvalue\n      dup1\n      iszero\n      tag_58\n      jumpi\n      0x00\n      dup1\n      revert\n    tag_58:\n      pop\n      tag_59\n      tag_60\n      jump\t// in\n    tag_59:\n      mload(0x40)\n      tag_61\n      swap2\n      swap1\n      tag_52\n      jump\t// in\n    tag_61:\n      mload(0x40)\n      dup1\n      swap2\n      sub\n      swap1\n      return\n        /* \"BlockPay.sol\":259:303  EmployeeManagement public employeeManagement */\n    tag_11:\n      callvalue\n      dup1\n      iszero\n      tag_62\n      jumpi\n      0x00\n      dup1\n      revert\n    tag_62:\n      pop\n      tag_63\n      tag_64\n      jump\t// in\n    tag_63:\n      mload(0x40)\n      tag_65\n      swap2\n      swap1\n      tag_66\n      jump\t// in\n    tag_65:\n      mload(0x40)\n      dup1\n      swap2\n      sub\n      swap1\n      return\n        /* \"BlockPay.sol\":1078:1185  function removeEmployee(address account) public {... */\n    tag_12:\n      callvalue\n      dup1\n      iszero\n      tag_67\n      jumpi\n      0x00\n      dup1\n      revert\n    tag_67:\n      pop\n      tag_68\n      0x04\n      dup1\n      calldatasize\n      sub\n      dup2\n      add\n      swap1\n      tag_69\n      swap2\n      swap1\n      tag_20\n      jump\t// in\n    tag_69:\n      tag_70\n      jump\t// in\n    tag_68:\n      stop\n        /* \"BlockPay.sol\":1195:1403  function updateEmployee(address account, uint newSalary, uint newPayStartDate, uint newPayEndDate) public {... */\n    tag_13:\n      callvalue\n      dup1\n      iszero\n      tag_71\n      jumpi\n      0x00\n      dup1\n      revert\n    tag_71:\n      pop\n      tag_72\n      0x04\n      dup1\n      calldatasize\n      sub\n      dup2\n      add\n      swap1\n      tag_73\n      swap2\n      swap1\n      tag_74\n      jump\t// in\n    tag_73:\n      tag_75\n      jump\t// in\n    tag_72:\n      stop\n        /* \"BlockPay.sol\":632:738  function depositFunds() public payable {... */\n    tag_14:\n      tag_76\n      tag_77\n      jump\t// in\n    tag_76:\n      stop\n        /* \"BlockPay.sol\":1409:1572  function getEmployeeDetails(address account) public view returns (address, uint, uint, uint) {... */\n    tag_21:\n        /* \"BlockPay.sol\":1475:1482  address */\n      0x00\n        /* \"BlockPay.sol\":1484:1488  uint */\n      dup1\n        /* \"BlockPay.sol\":1490:1494  uint */\n      0x00\n        /* \"BlockPay.sol\":1496:1500  uint */\n      dup1\n        /* \"BlockPay.sol\":1519:1537  employeeManagement */\n      0x02\n      0x00\n      swap1\n      sload\n      swap1\n      0x0100\n      exp\n      swap1\n      div\n      0xffffffffffffffffffffffffffffffffffffffff\n      and\n        /* \"BlockPay.sol\":1519:1556  employeeManagement.getEmployeeDetails */\n      0xffffffffffffffffffffffffffffffffffffffff\n      and\n      0x1caafcf1\n        /* \"BlockPay.sol\":1557:1564  account */\n      dup7\n        /* \"BlockPay.sol\":1519:1565  employeeManagement.getEmployeeDetails(account) */\n      mload(0x40)\n      dup3\n      0xffffffff\n      and\n      0xe0\n      shl\n      dup2\n      mstore\n      0x04\n      add\n      tag_79\n      swap2\n      swap1\n      tag_47\n      jump\t// in\n    tag_79:\n      0x80\n      mload(0x40)\n      dup1\n      dup4\n      sub\n      dup2\n      dup7\n      gas\n      staticcall\n      iszero\n      dup1\n      iszero\n      tag_81\n      jumpi\n      returndatasize\n      0x00\n      dup1\n      returndatacopy\n      revert(0x00, returndatasize)\n    tag_81:\n      pop\n      pop\n      pop\n      pop\n      mload(0x40)\n      returndatasize\n      not(0x1f)\n      0x1f\n      dup3\n      add\n      and\n      dup3\n      add\n      dup1\n      0x40\n      mstore\n      pop\n      dup2\n      add\n      swap1\n      tag_82\n      swap2\n      swap1\n      tag_83\n      jump\t// in\n    tag_82:\n        /* \"BlockPay.sol\":1512:1565  return employeeManagement.getEmployeeDetails(account) */\n      swap4\n      pop\n      swap4\n      pop\n      swap4\n      pop\n      swap4\n      pop\n        /* \"BlockPay.sol\":1409:1572  function getEmployeeDetails(address account) public view returns (address, uint, uint, uint) {... */\n      swap2\n      swap4\n      pop\n      swap2\n      swap4\n      jump\t// out\n        /* \"BlockPay.sol\":880:1072  function addEmployee(address payable account, uint salary, uint payStartDate, uint payEndDate) public {... */\n    tag_28:\n        /* \"BlockPay.sol\":992:1010  employeeManagement */\n      0x02\n      0x00\n      swap1\n      sload\n      swap1\n      0x0100\n      exp\n      swap1\n      div\n      0xffffffffffffffffffffffffffffffffffffffff\n      and\n        /* \"BlockPay.sol\":992:1022  employeeManagement.addEmployee */\n      0xffffffffffffffffffffffffffffffffffffffff\n      and\n      0x4a4247d9\n        /* \"BlockPay.sol\":1023:1030  account */\n      dup6\n        /* \"BlockPay.sol\":1032:1038  salary */\n      dup6\n        /* \"BlockPay.sol\":1040:1052  payStartDate */\n      dup6\n        /* \"BlockPay.sol\":1054:1064  payEndDate */\n      dup6\n        /* \"BlockPay.sol\":992:1065  employeeManagement.addEmployee(account, salary, payStartDate, payEndDate) */\n      mload(0x40)\n      dup6\n      0xffffffff\n      and\n      0xe0\n      shl\n      dup2\n      mstore\n      0x04\n      add\n      tag_85\n      swap5\n      swap4\n      swap3\n      swap2\n      swap1\n      tag_86\n      jump\t// in\n    tag_85:\n      0x00\n      mload(0x40)\n      dup1\n      dup4\n      sub\n      dup2\n      0x00\n      dup8\n      dup1\n      extcodesize\n      iszero\n      dup1\n      iszero\n      tag_87\n      jumpi\n      0x00\n      dup1\n      revert\n    tag_87:\n      pop\n      gas\n      call\n      iszero\n      dup1\n      iszero\n      tag_89\n      jumpi\n      returndatasize\n      0x00\n      dup1\n      returndatacopy\n      revert(0x00, returndatasize)\n    tag_89:\n      pop\n      pop\n      pop\n      pop\n        /* \"BlockPay.sol\":880:1072  function addEmployee(address payable account, uint salary, uint payStartDate, uint payEndDate) public {... */\n      pop\n      pop\n      pop\n      pop\n      jump\t// out\n        /* \"BlockPay.sol\":211:253  FinanceManagement public financeManagement */\n    tag_31:\n      0x01\n      0x00\n      swap1\n      sload\n      swap1\n      0x0100\n      exp\n      swap1\n      div\n      0xffffffffffffffffffffffffffffffffffffffff\n      and\n      dup2\n      jump\t// out\n        /* \"BlockPay.sol\":1821:1955  function getHistory(address account) public view returns (uint[] memory) {... */\n    tag_37:\n        /* \"BlockPay.sol\":1879:1892  uint[] memory */\n      0x60\n        /* \"BlockPay.sol\":1911:1928  historyManagement */\n      0x03\n      0x00\n      swap1\n      sload\n      swap1\n      0x0100\n      exp\n      swap1\n      div\n      0xffffffffffffffffffffffffffffffffffffffff\n      and\n        /* \"BlockPay.sol\":1911:1939  historyManagement.getHistory */\n      0xffffffffffffffffffffffffffffffffffffffff\n      and\n      0x80396811\n        /* \"BlockPay.sol\":1940:1947  account */\n      dup4\n        /* \"BlockPay.sol\":1911:1948  historyManagement.getHistory(account) */\n      mload(0x40)\n      dup3\n      0xffffffff\n      and\n      0xe0\n      shl\n      dup2\n      mstore\n      0x04\n      add\n      tag_91\n      swap2\n      swap1\n      tag_47\n      jump\t// in\n    tag_91:\n      0x00\n      mload(0x40)\n      dup1\n      dup4\n      sub\n      dup2\n      dup7\n      gas\n      staticcall\n      iszero\n      dup1\n      iszero\n      tag_93\n      jumpi\n      returndatasize\n      0x00\n      dup1\n      returndatacopy\n      revert(0x00, returndatasize)\n    tag_93:\n      pop\n      pop\n      pop\n      pop\n      mload(0x40)\n      returndatasize\n      0x00\n      dup3\n      returndatacopy\n      returndatasize\n      not(0x1f)\n      0x1f\n      dup3\n      add\n      and\n      dup3\n      add\n      dup1\n      0x40\n      mstore\n      pop\n      dup2\n      add\n      swap1\n      tag_94\n      swap2\n      swap1\n      tag_95\n      jump\t// in\n    tag_94:\n        /* \"BlockPay.sol\":1904:1948  return historyManagement.getHistory(account) */\n      swap1\n      pop\n        /* \"BlockPay.sol\":1821:1955  function getHistory(address account) public view returns (uint[] memory) {... */\n      swap2\n      swap1\n      pop\n      jump\t// out\n        /* \"BlockPay.sol\":1706:1794  function payAllEmployees() public  {... */\n    tag_42:\n        /* \"BlockPay.sol\":1751:1769  employeeManagement */\n      0x02\n      0x00\n      swap1\n      sload\n      swap1\n      0x0100\n      exp\n      swap1\n      div\n      0xffffffffffffffffffffffffffffffffffffffff\n      and\n        /* \"BlockPay.sol\":1751:1785  employeeManagement.payAllEmployees */\n      0xffffffffffffffffffffffffffffffffffffffff\n      and\n      0x809e9ef5\n        /* \"BlockPay.sol\":1751:1787  employeeManagement.payAllEmployees() */\n      mload(0x40)\n      dup2\n      0xffffffff\n      and\n      0xe0\n      shl\n      dup2\n      mstore\n      0x04\n      add\n      0x00\n      mload(0x40)\n      dup1\n      dup4\n      sub\n      dup2\n      0x00\n      dup8\n      dup1\n      extcodesize\n      iszero\n      dup1\n      iszero\n      tag_97\n      jumpi\n      0x00\n      dup1\n      revert\n    tag_97:\n      pop\n      gas\n      call\n      iszero\n      dup1\n      iszero\n      tag_99\n      jumpi\n      returndatasize\n      0x00\n      dup1\n      returndatacopy\n      revert(0x00, returndatasize)\n    tag_99:\n      pop\n      pop\n      pop\n      pop\n        /* \"BlockPay.sol\":1706:1794  function payAllEmployees() public  {... */\n      jump\t// out\n        /* \"BlockPay.sol\":185:205  address public owner */\n    tag_45:\n      0x00\n      dup1\n      sload\n      swap1\n      0x0100\n      exp\n      swap1\n      div\n      0xffffffffffffffffffffffffffffffffffffffff\n      and\n      dup2\n      jump\t// out\n        /* \"BlockPay.sol\":1578:1700  function totalSalaryToBePaid() public view returns (uint) {... */\n    tag_50:\n        /* \"BlockPay.sol\":1630:1634  uint */\n      0x00\n        /* \"BlockPay.sol\":1653:1671  employeeManagement */\n      0x02\n      0x00\n      swap1\n      sload\n      swap1\n      0x0100\n      exp\n      swap1\n      div\n      0xffffffffffffffffffffffffffffffffffffffff\n      and\n        /* \"BlockPay.sol\":1653:1691  employeeManagement.totalSalaryToBePaid */\n      0xffffffffffffffffffffffffffffffffffffffff\n      and\n      0xa84cffd9\n        /* \"BlockPay.sol\":1653:1693  employeeManagement.totalSalaryToBePaid() */\n      mload(0x40)\n      dup2\n      0xffffffff\n      and\n      0xe0\n      shl\n      dup2\n      mstore\n      0x04\n      add\n      0x20\n      mload(0x40)\n      dup1\n      dup4\n      sub\n      dup2\n      dup7\n      gas\n      staticcall\n      iszero\n      dup1\n      iszero\n      tag_102\n      jumpi\n      returndatasize\n      0x00\n      dup1\n      returndatacopy\n      revert(0x00, returndatasize)\n    tag_102:\n      pop\n      pop\n      pop\n      pop\n      mload(0x40)\n      returndatasize\n      not(0x1f)\n      0x1f\n      dup3\n      add\n      and\n      dup3\n      add\n      dup1\n      0x40\n      mstore\n      pop\n      dup2\n      add\n      swap1\n      tag_103\n      swap2\n      swap1\n      tag_104\n      jump\t// in\n    tag_103:\n        /* \"BlockPay.sol\":1646:1693  return employeeManagement.totalSalaryToBePaid() */\n      swap1\n      pop\n        /* \"BlockPay.sol\":1578:1700  function totalSalaryToBePaid() public view returns (uint) {... */\n      swap1\n      jump\t// out\n        /* \"BlockPay.sol\":309:352  HistoryManagement public  historyManagement */\n    tag_55:\n      0x03\n      0x00\n      swap1\n      sload\n      swap1\n      0x0100\n      exp\n      swap1\n      div\n      0xffffffffffffffffffffffffffffffffffffffff\n      and\n      dup2\n      jump\t// out\n        /* \"BlockPay.sol\":745:852  function checkBalance() public view returns (uint) {... */\n    tag_60:\n        /* \"BlockPay.sol\":790:794  uint */\n      0x00\n        /* \"BlockPay.sol\":813:830  financeManagement */\n      0x01\n      0x00\n      swap1\n      sload\n      swap1\n      0x0100\n      exp\n      swap1\n      div\n      0xffffffffffffffffffffffffffffffffffffffff\n      and\n        /* \"BlockPay.sol\":813:843  financeManagement.checkBalance */\n      0xffffffffffffffffffffffffffffffffffffffff\n      and\n      0xc71daccb\n        /* \"BlockPay.sol\":813:845  financeManagement.checkBalance() */\n      mload(0x40)\n      dup2\n      0xffffffff\n      and\n      0xe0\n      shl\n      dup2\n      mstore\n      0x04\n      add\n      0x20\n      mload(0x40)\n      dup1\n      dup4\n      sub\n      dup2\n      dup7\n      gas\n      staticcall\n      iszero\n      dup1\n      iszero\n      tag_107\n      jumpi\n      returndatasize\n      0x00\n      dup1\n      returndatacopy\n      revert(0x00, returndatasize)\n    tag_107:\n      pop\n      pop\n      pop\n      pop\n      mload(0x40)\n      returndatasize\n      not(0x1f)\n      0x1f\n      dup3\n      add\n      and\n      dup3\n      add\n      dup1\n      0x40\n      mstore\n      pop\n      dup2\n      add\n      swap1\n      tag_108\n      swap2\n      swap1\n      tag_104\n      jump\t// in\n    tag_108:\n        /* \"BlockPay.sol\":806:845  return financeManagement.checkBalance() */\n      swap1\n      pop\n        /* \"BlockPay.sol\":745:852  function checkBalance() public view returns (uint) {... */\n      swap1\n      jump\t// out\n        /* \"BlockPay.sol\":259:303  EmployeeManagement public employeeManagement */\n    tag_64:\n      0x02\n      0x00\n      swap1\n      sload\n      swap1\n      0x0100\n      exp\n      swap1\n      div\n      0xffffffffffffffffffffffffffffffffffffffff\n      and\n      dup2\n      jump\t// out\n        /* \"BlockPay.sol\":1078:1185  function removeEmployee(address account) public {... */\n    tag_70:\n        /* \"BlockPay.sol\":1136:1154  employeeManagement */\n      0x02\n      0x00\n      swap1\n      sload\n      swap1\n      0x0100\n      exp\n      swap1\n      div\n      0xffffffffffffffffffffffffffffffffffffffff\n      and\n        /* \"BlockPay.sol\":1136:1169  employeeManagement.removeEmployee */\n      0xffffffffffffffffffffffffffffffffffffffff\n      and\n      0xd108177a\n        /* \"BlockPay.sol\":1170:1177  account */\n      dup3\n        /* \"BlockPay.sol\":1136:1178  employeeManagement.removeEmployee(account) */\n      mload(0x40)\n      dup3\n      0xffffffff\n      and\n      0xe0\n      shl\n      dup2\n      mstore\n      0x04\n      add\n      tag_110\n      swap2\n      swap1\n      tag_47\n      jump\t// in\n    tag_110:\n      0x00\n      mload(0x40)\n      dup1\n      dup4\n      sub\n      dup2\n      0x00\n      dup8\n      dup1\n      extcodesize\n      iszero\n      dup1\n      iszero\n      tag_111\n      jumpi\n      0x00\n      dup1\n      revert\n    tag_111:\n      pop\n      gas\n      call\n      iszero\n      dup1\n      iszero\n      tag_113\n      jumpi\n      returndatasize\n      0x00\n      dup1\n      returndatacopy\n      revert(0x00, returndatasize)\n    tag_113:\n      pop\n      pop\n      pop\n      pop\n        /* \"BlockPay.sol\":1078:1185  function removeEmployee(address account) public {... */\n      pop\n      jump\t// out\n        /* \"BlockPay.sol\":1195:1403  function updateEmployee(address account, uint newSalary, uint newPayStartDate, uint newPayEndDate) public {... */\n    tag_75:\n        /* \"BlockPay.sol\":1311:1329  employeeManagement */\n      0x02\n      0x00\n      swap1\n      sload\n      swap1\n      0x0100\n      exp\n      swap1\n      div\n      0xffffffffffffffffffffffffffffffffffffffff\n      and\n        /* \"BlockPay.sol\":1311:1344  employeeManagement.updateEmployee */\n      0xffffffffffffffffffffffffffffffffffffffff\n      and\n      0xdf47a353\n        /* \"BlockPay.sol\":1345:1352  account */\n      dup6\n        /* \"BlockPay.sol\":1354:1363  newSalary */\n      dup6\n        /* \"BlockPay.sol\":1365:1380  newPayStartDate */\n      dup6\n        /* \"BlockPay.sol\":1382:1395  newPayEndDate */\n      dup6\n        /* \"BlockPay.sol\":1311:1396  employeeManagement.updateEmployee(account, newSalary, newPayStartDate, newPayEndDate) */\n      mload(0x40)\n      dup6\n      0xffffffff\n      and\n      0xe0\n      shl\n      dup2\n      mstore\n      0x04\n      add\n      tag_115\n      swap5\n      swap4\n      swap3\n      swap2\n      swap1\n      tag_23\n      jump\t// in\n    tag_115:\n      0x00\n      mload(0x40)\n      dup1\n      dup4\n      sub\n      dup2\n      0x00\n      dup8\n      dup1\n      extcodesize\n      iszero\n      dup1\n      iszero\n      tag_116\n      jumpi\n      0x00\n      dup1\n      revert\n    tag_116:\n      pop\n      gas\n      call\n      iszero\n      dup1\n      iszero\n      tag_118\n      jumpi\n      returndatasize\n      0x00\n      dup1\n      returndatacopy\n      revert(0x00, returndatasize)\n    tag_118:\n      pop\n      pop\n      pop\n      pop\n        /* \"BlockPay.sol\":1195:1403  function updateEmployee(address account, uint newSalary, uint newPayStartDate, uint newPayEndDate) public {... */\n      pop\n      pop\n      pop\n      pop\n      jump\t// out\n        /* \"BlockPay.sol\":632:738  function depositFunds() public payable {... */\n    tag_77:\n        /* \"BlockPay.sol\":681:698  financeManagement */\n      0x01\n      0x00\n      swap1\n      sload\n      swap1\n      0x0100\n      exp\n      swap1\n      div\n      0xffffffffffffffffffffffffffffffffffffffff\n      and\n        /* \"BlockPay.sol\":681:711  financeManagement.depositFunds */\n      0xffffffffffffffffffffffffffffffffffffffff\n      and\n      0xe2c41dbc\n        /* \"BlockPay.sol\":719:728  msg.value */\n      callvalue\n        /* \"BlockPay.sol\":681:731  financeManagement.depositFunds{value: msg.value}() */\n      mload(0x40)\n      dup3\n      0xffffffff\n      and\n      0xe0\n      shl\n      dup2\n      mstore\n      0x04\n      add\n      0x00\n      mload(0x40)\n      dup1\n      dup4\n      sub\n      dup2\n      dup6\n      dup9\n      dup1\n      extcodesize\n      iszero\n      dup1\n      iszero\n      tag_120\n      jumpi\n      0x00\n      dup1\n      revert\n    tag_120:\n      pop\n      gas\n      call\n      iszero\n      dup1\n      iszero\n      tag_122\n      jumpi\n      returndatasize\n      0x00\n      dup1\n      returndatacopy\n      revert(0x00, returndatasize)\n    tag_122:\n      pop\n      pop\n      pop\n      pop\n      pop\n        /* \"BlockPay.sol\":632:738  function depositFunds() public payable {... */\n      jump\t// out\n        /* \"#utility.yul\":7:82   */\n    tag_123:\n        /* \"#utility.yul\":40:46   */\n      0x00\n        /* \"#utility.yul\":73:75   */\n      0x40\n        /* \"#utility.yul\":67:76   */\n      mload\n        /* \"#utility.yul\":57:76   */\n      swap1\n      pop\n        /* \"#utility.yul\":7:82   */\n      swap1\n      jump\t// out\n        /* \"#utility.yul\":88:205   */\n    tag_124:\n        /* \"#utility.yul\":197:198   */\n      0x00\n        /* \"#utility.yul\":194:195   */\n      dup1\n        /* \"#utility.yul\":187:199   */\n      revert\n        /* \"#utility.yul\":211:328   */\n    tag_125:\n        /* \"#utility.yul\":320:321   */\n      0x00\n        /* \"#utility.yul\":317:318   */\n      dup1\n        /* \"#utility.yul\":310:322   */\n      revert\n        /* \"#utility.yul\":334:460   */\n    tag_126:\n        /* \"#utility.yul\":371:378   */\n      0x00\n        /* \"#utility.yul\":411:453   */\n      0xffffffffffffffffffffffffffffffffffffffff\n        /* \"#utility.yul\":404:409   */\n      dup3\n        /* \"#utility.yul\":400:454   */\n      and\n        /* \"#utility.yul\":389:454   */\n      swap1\n      pop\n        /* \"#utility.yul\":334:460   */\n      swap2\n      swap1\n      pop\n      jump\t// out\n        /* \"#utility.yul\":466:562   */\n    tag_127:\n        /* \"#utility.yul\":503:510   */\n      0x00\n        /* \"#utility.yul\":532:556   */\n      tag_172\n        /* \"#utility.yul\":550:555   */\n      dup3\n        /* \"#utility.yul\":532:556   */\n      tag_126\n      jump\t// in\n    tag_172:\n        /* \"#utility.yul\":521:556   */\n      swap1\n      pop\n        /* \"#utility.yul\":466:562   */\n      swap2\n      swap1\n      pop\n      jump\t// out\n        /* \"#utility.yul\":568:690   */\n    tag_128:\n        /* \"#utility.yul\":641:665   */\n      tag_174\n        /* \"#utility.yul\":659:664   */\n      dup2\n        /* \"#utility.yul\":641:665   */\n      tag_127\n      jump\t// in\n    tag_174:\n        /* \"#utility.yul\":634:639   */\n      dup2\n        /* \"#utility.yul\":631:666   */\n      eq\n        /* \"#utility.yul\":621:684   */\n      tag_175\n      jumpi\n        /* \"#utility.yul\":680:681   */\n      0x00\n        /* \"#utility.yul\":677:678   */\n      dup1\n        /* \"#utility.yul\":670:682   */\n      revert\n        /* \"#utility.yul\":621:684   */\n    tag_175:\n        /* \"#utility.yul\":568:690   */\n      pop\n      jump\t// out\n        /* \"#utility.yul\":696:835   */\n    tag_129:\n        /* \"#utility.yul\":742:747   */\n      0x00\n        /* \"#utility.yul\":780:786   */\n      dup2\n        /* \"#utility.yul\":767:787   */\n      calldataload\n        /* \"#utility.yul\":758:787   */\n      swap1\n      pop\n        /* \"#utility.yul\":796:829   */\n      tag_177\n        /* \"#utility.yul\":823:828   */\n      dup2\n        /* \"#utility.yul\":796:829   */\n      tag_128\n      jump\t// in\n    tag_177:\n        /* \"#utility.yul\":696:835   */\n      swap3\n      swap2\n      pop\n      pop\n      jump\t// out\n        /* \"#utility.yul\":841:1170   */\n    tag_20:\n        /* \"#utility.yul\":900:906   */\n      0x00\n        /* \"#utility.yul\":949:951   */\n      0x20\n        /* \"#utility.yul\":937:946   */\n      dup3\n        /* \"#utility.yul\":928:935   */\n      dup5\n        /* \"#utility.yul\":924:947   */\n      sub\n        /* \"#utility.yul\":920:952   */\n      slt\n        /* \"#utility.yul\":917:1036   */\n      iszero\n      tag_179\n      jumpi\n        /* \"#utility.yul\":955:1034   */\n      tag_180\n      tag_124\n      jump\t// in\n    tag_180:\n        /* \"#utility.yul\":917:1036   */\n    tag_179:\n        /* \"#utility.yul\":1075:1076   */\n      0x00\n        /* \"#utility.yul\":1100:1153   */\n      tag_181\n        /* \"#utility.yul\":1145:1152   */\n      dup5\n        /* \"#utility.yul\":1136:1142   */\n      dup3\n        /* \"#utility.yul\":1125:1134   */\n      dup6\n        /* \"#utility.yul\":1121:1143   */\n      add\n        /* \"#utility.yul\":1100:1153   */\n      tag_129\n      jump\t// in\n    tag_181:\n        /* \"#utility.yul\":1090:1153   */\n      swap2\n      pop\n        /* \"#utility.yul\":1046:1163   */\n      pop\n        /* \"#utility.yul\":841:1170   */\n      swap3\n      swap2\n      pop\n      pop\n      jump\t// out\n        /* \"#utility.yul\":1176:1294   */\n    tag_130:\n        /* \"#utility.yul\":1263:1287   */\n      tag_183\n        /* \"#utility.yul\":1281:1286   */\n      dup2\n        /* \"#utility.yul\":1263:1287   */\n      tag_127\n      jump\t// in\n    tag_183:\n        /* \"#utility.yul\":1258:1261   */\n      dup3\n        /* \"#utility.yul\":1251:1288   */\n      mstore\n        /* \"#utility.yul\":1176:1294   */\n      pop\n      pop\n      jump\t// out\n        /* \"#utility.yul\":1300:1377   */\n    tag_131:\n        /* \"#utility.yul\":1337:1344   */\n      0x00\n        /* \"#utility.yul\":1366:1371   */\n      dup2\n        /* \"#utility.yul\":1355:1371   */\n      swap1\n      pop\n        /* \"#utility.yul\":1300:1377   */\n      swap2\n      swap1\n      pop\n      jump\t// out\n        /* \"#utility.yul\":1383:1501   */\n    tag_132:\n        /* \"#utility.yul\":1470:1494   */\n      tag_186\n        /* \"#utility.yul\":1488:1493   */\n      dup2\n        /* \"#utility.yul\":1470:1494   */\n      tag_131\n      jump\t// in\n    tag_186:\n        /* \"#utility.yul\":1465:1468   */\n      dup3\n        /* \"#utility.yul\":1458:1495   */\n      mstore\n        /* \"#utility.yul\":1383:1501   */\n      pop\n      pop\n      jump\t// out\n        /* \"#utility.yul\":1507:2060   */\n    tag_23:\n        /* \"#utility.yul\":1684:1688   */\n      0x00\n        /* \"#utility.yul\":1722:1725   */\n      0x80\n        /* \"#utility.yul\":1711:1720   */\n      dup3\n        /* \"#utility.yul\":1707:1726   */\n      add\n        /* \"#utility.yul\":1699:1726   */\n      swap1\n      pop\n        /* \"#utility.yul\":1736:1807   */\n      tag_188\n        /* \"#utility.yul\":1804:1805   */\n      0x00\n        /* \"#utility.yul\":1793:1802   */\n      dup4\n        /* \"#utility.yul\":1789:1806   */\n      add\n        /* \"#utility.yul\":1780:1786   */\n      dup8\n        /* \"#utility.yul\":1736:1807   */\n      tag_130\n      jump\t// in\n    tag_188:\n        /* \"#utility.yul\":1817:1889   */\n      tag_189\n        /* \"#utility.yul\":1885:1887   */\n      0x20\n        /* \"#utility.yul\":1874:1883   */\n      dup4\n        /* \"#utility.yul\":1870:1888   */\n      add\n        /* \"#utility.yul\":1861:1867   */\n      dup7\n        /* \"#utility.yul\":1817:1889   */\n      tag_132\n      jump\t// in\n    tag_189:\n        /* \"#utility.yul\":1899:1971   */\n      tag_190\n        /* \"#utility.yul\":1967:1969   */\n      0x40\n        /* \"#utility.yul\":1956:1965   */\n      dup4\n        /* \"#utility.yul\":1952:1970   */\n      add\n        /* \"#utility.yul\":1943:1949   */\n      dup6\n        /* \"#utility.yul\":1899:1971   */\n      tag_132\n      jump\t// in\n    tag_190:\n        /* \"#utility.yul\":1981:2053   */\n      tag_191\n        /* \"#utility.yul\":2049:2051   */\n      0x60\n        /* \"#utility.yul\":2038:2047   */\n      dup4\n        /* \"#utility.yul\":2034:2052   */\n      add\n        /* \"#utility.yul\":2025:2031   */\n      dup5\n        /* \"#utility.yul\":1981:2053   */\n      tag_132\n      jump\t// in\n    tag_191:\n        /* \"#utility.yul\":1507:2060   */\n      swap6\n      swap5\n      pop\n      pop\n      pop\n      pop\n      pop\n      jump\t// out\n        /* \"#utility.yul\":2066:2170   */\n    tag_133:\n        /* \"#utility.yul\":2111:2118   */\n      0x00\n        /* \"#utility.yul\":2140:2164   */\n      tag_193\n        /* \"#utility.yul\":2158:2163   */\n      dup3\n        /* \"#utility.yul\":2140:2164   */\n      tag_126\n      jump\t// in\n    tag_193:\n        /* \"#utility.yul\":2129:2164   */\n      swap1\n      pop\n        /* \"#utility.yul\":2066:2170   */\n      swap2\n      swap1\n      pop\n      jump\t// out\n        /* \"#utility.yul\":2176:2314   */\n    tag_134:\n        /* \"#utility.yul\":2257:2289   */\n      tag_195\n        /* \"#utility.yul\":2283:2288   */\n      dup2\n        /* \"#utility.yul\":2257:2289   */\n      tag_133\n      jump\t// in\n    tag_195:\n        /* \"#utility.yul\":2250:2255   */\n      dup2\n        /* \"#utility.yul\":2247:2290   */\n      eq\n        /* \"#utility.yul\":2237:2308   */\n      tag_196\n      jumpi\n        /* \"#utility.yul\":2304:2305   */\n      0x00\n        /* \"#utility.yul\":2301:2302   */\n      dup1\n        /* \"#utility.yul\":2294:2306   */\n      revert\n        /* \"#utility.yul\":2237:2308   */\n    tag_196:\n        /* \"#utility.yul\":2176:2314   */\n      pop\n      jump\t// out\n        /* \"#utility.yul\":2320:2475   */\n    tag_135:\n        /* \"#utility.yul\":2374:2379   */\n      0x00\n        /* \"#utility.yul\":2412:2418   */\n      dup2\n        /* \"#utility.yul\":2399:2419   */\n      calldataload\n        /* \"#utility.yul\":2390:2419   */\n      swap1\n      pop\n        /* \"#utility.yul\":2428:2469   */\n      tag_198\n        /* \"#utility.yul\":2463:2468   */\n      dup2\n        /* \"#utility.yul\":2428:2469   */\n      tag_134\n      jump\t// in\n    tag_198:\n        /* \"#utility.yul\":2320:2475   */\n      swap3\n      swap2\n      pop\n      pop\n      jump\t// out\n        /* \"#utility.yul\":2481:2603   */\n    tag_136:\n        /* \"#utility.yul\":2554:2578   */\n      tag_200\n        /* \"#utility.yul\":2572:2577   */\n      dup2\n        /* \"#utility.yul\":2554:2578   */\n      tag_131\n      jump\t// in\n    tag_200:\n        /* \"#utility.yul\":2547:2552   */\n      dup2\n        /* \"#utility.yul\":2544:2579   */\n      eq\n        /* \"#utility.yul\":2534:2597   */\n      tag_201\n      jumpi\n        /* \"#utility.yul\":2593:2594   */\n      0x00\n        /* \"#utility.yul\":2590:2591   */\n      dup1\n        /* \"#utility.yul\":2583:2595   */\n      revert\n        /* \"#utility.yul\":2534:2597   */\n    tag_201:\n        /* \"#utility.yul\":2481:2603   */\n      pop\n      jump\t// out\n        /* \"#utility.yul\":2609:2748   */\n    tag_137:\n        /* \"#utility.yul\":2655:2660   */\n      0x00\n        /* \"#utility.yul\":2693:2699   */\n      dup2\n        /* \"#utility.yul\":2680:2700   */\n      calldataload\n        /* \"#utility.yul\":2671:2700   */\n      swap1\n      pop\n        /* \"#utility.yul\":2709:2742   */\n      tag_203\n        /* \"#utility.yul\":2736:2741   */\n      dup2\n        /* \"#utility.yul\":2709:2742   */\n      tag_136\n      jump\t// in\n    tag_203:\n        /* \"#utility.yul\":2609:2748   */\n      swap3\n      swap2\n      pop\n      pop\n      jump\t// out\n        /* \"#utility.yul\":2754:3535   */\n    tag_27:\n        /* \"#utility.yul\":2848:2854   */\n      0x00\n        /* \"#utility.yul\":2856:2862   */\n      dup1\n        /* \"#utility.yul\":2864:2870   */\n      0x00\n        /* \"#utility.yul\":2872:2878   */\n      dup1\n        /* \"#utility.yul\":2921:2924   */\n      0x80\n        /* \"#utility.yul\":2909:2918   */\n      dup6\n        /* \"#utility.yul\":2900:2907   */\n      dup8\n        /* \"#utility.yul\":2896:2919   */\n      sub\n        /* \"#utility.yul\":2892:2925   */\n      slt\n        /* \"#utility.yul\":2889:3009   */\n      iszero\n      tag_205\n      jumpi\n        /* \"#utility.yul\":2928:3007   */\n      tag_206\n      tag_124\n      jump\t// in\n    tag_206:\n        /* \"#utility.yul\":2889:3009   */\n    tag_205:\n        /* \"#utility.yul\":3048:3049   */\n      0x00\n        /* \"#utility.yul\":3073:3134   */\n      tag_207\n        /* \"#utility.yul\":3126:3133   */\n      dup8\n        /* \"#utility.yul\":3117:3123   */\n      dup3\n        /* \"#utility.yul\":3106:3115   */\n      dup9\n        /* \"#utility.yul\":3102:3124   */\n      add\n        /* \"#utility.yul\":3073:3134   */\n      tag_135\n      jump\t// in\n    tag_207:\n        /* \"#utility.yul\":3063:3134   */\n      swap5\n      pop\n        /* \"#utility.yul\":3019:3144   */\n      pop\n        /* \"#utility.yul\":3183:3185   */\n      0x20\n        /* \"#utility.yul\":3209:3262   */\n      tag_208\n        /* \"#utility.yul\":3254:3261   */\n      dup8\n        /* \"#utility.yul\":3245:3251   */\n      dup3\n        /* \"#utility.yul\":3234:3243   */\n      dup9\n        /* \"#utility.yul\":3230:3252   */\n      add\n        /* \"#utility.yul\":3209:3262   */\n      tag_137\n      jump\t// in\n    tag_208:\n        /* \"#utility.yul\":3199:3262   */\n      swap4\n      pop\n        /* \"#utility.yul\":3154:3272   */\n      pop\n        /* \"#utility.yul\":3311:3313   */\n      0x40\n        /* \"#utility.yul\":3337:3390   */\n      tag_209\n        /* \"#utility.yul\":3382:3389   */\n      dup8\n        /* \"#utility.yul\":3373:3379   */\n      dup3\n        /* \"#utility.yul\":3362:3371   */\n      dup9\n        /* \"#utility.yul\":3358:3380   */\n      add\n        /* \"#utility.yul\":3337:3390   */\n      tag_137\n      jump\t// in\n    tag_209:\n        /* \"#utility.yul\":3327:3390   */\n      swap3\n      pop\n        /* \"#utility.yul\":3282:3400   */\n      pop\n        /* \"#utility.yul\":3439:3441   */\n      0x60\n        /* \"#utility.yul\":3465:3518   */\n      tag_210\n        /* \"#utility.yul\":3510:3517   */\n      dup8\n        /* \"#utility.yul\":3501:3507   */\n      dup3\n        /* \"#utility.yul\":3490:3499   */\n      dup9\n        /* \"#utility.yul\":3486:3508   */\n      add\n        /* \"#utility.yul\":3465:3518   */\n      tag_137\n      jump\t// in\n    tag_210:\n        /* \"#utility.yul\":3455:3518   */\n      swap2\n      pop\n        /* \"#utility.yul\":3410:3528   */\n      pop\n        /* \"#utility.yul\":2754:3535   */\n      swap3\n      swap6\n      swap2\n      swap5\n      pop\n      swap3\n      pop\n      jump\t// out\n        /* \"#utility.yul\":3541:3601   */\n    tag_138:\n        /* \"#utility.yul\":3569:3572   */\n      0x00\n        /* \"#utility.yul\":3590:3595   */\n      dup2\n        /* \"#utility.yul\":3583:3595   */\n      swap1\n      pop\n        /* \"#utility.yul\":3541:3601   */\n      swap2\n      swap1\n      pop\n      jump\t// out\n        /* \"#utility.yul\":3607:3749   */\n    tag_139:\n        /* \"#utility.yul\":3657:3666   */\n      0x00\n        /* \"#utility.yul\":3690:3743   */\n      tag_213\n        /* \"#utility.yul\":3708:3742   */\n      tag_214\n        /* \"#utility.yul\":3717:3741   */\n      tag_215\n        /* \"#utility.yul\":3735:3740   */\n      dup5\n        /* \"#utility.yul\":3717:3741   */\n      tag_126\n      jump\t// in\n    tag_215:\n        /* \"#utility.yul\":3708:3742   */\n      tag_138\n      jump\t// in\n    tag_214:\n        /* \"#utility.yul\":3690:3743   */\n      tag_126\n      jump\t// in\n    tag_213:\n        /* \"#utility.yul\":3677:3743   */\n      swap1\n      pop\n        /* \"#utility.yul\":3607:3749   */\n      swap2\n      swap1\n      pop\n      jump\t// out\n        /* \"#utility.yul\":3755:3881   */\n    tag_140:\n        /* \"#utility.yul\":3805:3814   */\n      0x00\n        /* \"#utility.yul\":3838:3875   */\n      tag_217\n        /* \"#utility.yul\":3869:3874   */\n      dup3\n        /* \"#utility.yul\":3838:3875   */\n      tag_139\n      jump\t// in\n    tag_217:\n        /* \"#utility.yul\":3825:3875   */\n      swap1\n      pop\n        /* \"#utility.yul\":3755:3881   */\n      swap2\n      swap1\n      pop\n      jump\t// out\n        /* \"#utility.yul\":3887:4038   */\n    tag_141:\n        /* \"#utility.yul\":3962:3971   */\n      0x00\n        /* \"#utility.yul\":3995:4032   */\n      tag_219\n        /* \"#utility.yul\":4026:4031   */\n      dup3\n        /* \"#utility.yul\":3995:4032   */\n      tag_140\n      jump\t// in\n    tag_219:\n        /* \"#utility.yul\":3982:4032   */\n      swap1\n      pop\n        /* \"#utility.yul\":3887:4038   */\n      swap2\n      swap1\n      pop\n      jump\t// out\n        /* \"#utility.yul\":4044:4225   */\n    tag_142:\n        /* \"#utility.yul\":4156:4218   */\n      tag_221\n        /* \"#utility.yul\":4212:4217   */\n      dup2\n        /* \"#utility.yul\":4156:4218   */\n      tag_141\n      jump\t// in\n    tag_221:\n        /* \"#utility.yul\":4151:4154   */\n      dup3\n        /* \"#utility.yul\":4144:4219   */\n      mstore\n        /* \"#utility.yul\":4044:4225   */\n      pop\n      pop\n      jump\t// out\n        /* \"#utility.yul\":4231:4503   */\n    tag_33:\n        /* \"#utility.yul\":4349:4353   */\n      0x00\n        /* \"#utility.yul\":4387:4389   */\n      0x20\n        /* \"#utility.yul\":4376:4385   */\n      dup3\n        /* \"#utility.yul\":4372:4390   */\n      add\n        /* \"#utility.yul\":4364:4390   */\n      swap1\n      pop\n        /* \"#utility.yul\":4400:4496   */\n      tag_223\n        /* \"#utility.yul\":4493:4494   */\n      0x00\n        /* \"#utility.yul\":4482:4491   */\n      dup4\n        /* \"#utility.yul\":4478:4495   */\n      add\n        /* \"#utility.yul\":4469:4475   */\n      dup5\n        /* \"#utility.yul\":4400:4496   */\n      tag_142\n      jump\t// in\n    tag_223:\n        /* \"#utility.yul\":4231:4503   */\n      swap3\n      swap2\n      pop\n      pop\n      jump\t// out\n        /* \"#utility.yul\":4509:4623   */\n    tag_143:\n        /* \"#utility.yul\":4576:4582   */\n      0x00\n        /* \"#utility.yul\":4610:4615   */\n      dup2\n        /* \"#utility.yul\":4604:4616   */\n      mload\n        /* \"#utility.yul\":4594:4616   */\n      swap1\n      pop\n        /* \"#utility.yul\":4509:4623   */\n      swap2\n      swap1\n      pop\n      jump\t// out\n        /* \"#utility.yul\":4629:4813   */\n    tag_144:\n        /* \"#utility.yul\":4728:4739   */\n      0x00\n        /* \"#utility.yul\":4762:4768   */\n      dup3\n        /* \"#utility.yul\":4757:4760   */\n      dup3\n        /* \"#utility.yul\":4750:4769   */\n      mstore\n        /* \"#utility.yul\":4802:4806   */\n      0x20\n        /* \"#utility.yul\":4797:4800   */\n      dup3\n        /* \"#utility.yul\":4793:4807   */\n      add\n        /* \"#utility.yul\":4778:4807   */\n      swap1\n      pop\n        /* \"#utility.yul\":4629:4813   */\n      swap3\n      swap2\n      pop\n      pop\n      jump\t// out\n        /* \"#utility.yul\":4819:4951   */\n    tag_145:\n        /* \"#utility.yul\":4886:4890   */\n      0x00\n        /* \"#utility.yul\":4909:4912   */\n      dup2\n        /* \"#utility.yul\":4901:4912   */\n      swap1\n      pop\n        /* \"#utility.yul\":4939:4943   */\n      0x20\n        /* \"#utility.yul\":4934:4937   */\n      dup3\n        /* \"#utility.yul\":4930:4944   */\n      add\n        /* \"#utility.yul\":4922:4944   */\n      swap1\n      pop\n        /* \"#utility.yul\":4819:4951   */\n      swap2\n      swap1\n      pop\n      jump\t// out\n        /* \"#utility.yul\":4957:5065   */\n    tag_146:\n        /* \"#utility.yul\":5034:5058   */\n      tag_228\n        /* \"#utility.yul\":5052:5057   */\n      dup2\n        /* \"#utility.yul\":5034:5058   */\n      tag_131\n      jump\t// in\n    tag_228:\n        /* \"#utility.yul\":5029:5032   */\n      dup3\n        /* \"#utility.yul\":5022:5059   */\n      mstore\n        /* \"#utility.yul\":4957:5065   */\n      pop\n      pop\n      jump\t// out\n        /* \"#utility.yul\":5071:5250   */\n    tag_147:\n        /* \"#utility.yul\":5140:5150   */\n      0x00\n        /* \"#utility.yul\":5161:5207   */\n      tag_230\n        /* \"#utility.yul\":5203:5206   */\n      dup4\n        /* \"#utility.yul\":5195:5201   */\n      dup4\n        /* \"#utility.yul\":5161:5207   */\n      tag_146\n      jump\t// in\n    tag_230:\n        /* \"#utility.yul\":5239:5243   */\n      0x20\n        /* \"#utility.yul\":5234:5237   */\n      dup4\n        /* \"#utility.yul\":5230:5244   */\n      add\n        /* \"#utility.yul\":5216:5244   */\n      swap1\n      pop\n        /* \"#utility.yul\":5071:5250   */\n      swap3\n      swap2\n      pop\n      pop\n      jump\t// out\n        /* \"#utility.yul\":5256:5369   */\n    tag_148:\n        /* \"#utility.yul\":5326:5330   */\n      0x00\n        /* \"#utility.yul\":5358:5362   */\n      0x20\n        /* \"#utility.yul\":5353:5356   */\n      dup3\n        /* \"#utility.yul\":5349:5363   */\n      add\n        /* \"#utility.yul\":5341:5363   */\n      swap1\n      pop\n        /* \"#utility.yul\":5256:5369   */\n      swap2\n      swap1\n      pop\n      jump\t// out\n        /* \"#utility.yul\":5405:6137   */\n    tag_149:\n        /* \"#utility.yul\":5524:5527   */\n      0x00\n        /* \"#utility.yul\":5553:5607   */\n      tag_233\n        /* \"#utility.yul\":5601:5606   */\n      dup3\n        /* \"#utility.yul\":5553:5607   */\n      tag_143\n      jump\t// in\n    tag_233:\n        /* \"#utility.yul\":5623:5709   */\n      tag_234\n        /* \"#utility.yul\":5702:5708   */\n      dup2\n        /* \"#utility.yul\":5697:5700   */\n      dup6\n        /* \"#utility.yul\":5623:5709   */\n      tag_144\n      jump\t// in\n    tag_234:\n        /* \"#utility.yul\":5616:5709   */\n      swap4\n      pop\n        /* \"#utility.yul\":5733:5789   */\n      tag_235\n        /* \"#utility.yul\":5783:5788   */\n      dup4\n        /* \"#utility.yul\":5733:5789   */\n      tag_145\n      jump\t// in\n    tag_235:\n        /* \"#utility.yul\":5812:5819   */\n      dup1\n        /* \"#utility.yul\":5843:5844   */\n      0x00\n        /* \"#utility.yul\":5828:6112   */\n    tag_236:\n        /* \"#utility.yul\":5853:5859   */\n      dup4\n        /* \"#utility.yul\":5850:5851   */\n      dup2\n        /* \"#utility.yul\":5847:5860   */\n      lt\n        /* \"#utility.yul\":5828:6112   */\n      iszero\n      tag_238\n      jumpi\n        /* \"#utility.yul\":5929:5935   */\n      dup2\n        /* \"#utility.yul\":5923:5936   */\n      mload\n        /* \"#utility.yul\":5956:6019   */\n      tag_239\n        /* \"#utility.yul\":6015:6018   */\n      dup9\n        /* \"#utility.yul\":6000:6013   */\n      dup3\n        /* \"#utility.yul\":5956:6019   */\n      tag_147\n      jump\t// in\n    tag_239:\n        /* \"#utility.yul\":5949:6019   */\n      swap8\n      pop\n        /* \"#utility.yul\":6042:6102   */\n      tag_240\n        /* \"#utility.yul\":6095:6101   */\n      dup4\n        /* \"#utility.yul\":6042:6102   */\n      tag_148\n      jump\t// in\n    tag_240:\n        /* \"#utility.yul\":6032:6102   */\n      swap3\n      pop\n        /* \"#utility.yul\":5888:6112   */\n      pop\n        /* \"#utility.yul\":5875:5876   */\n      0x01\n        /* \"#utility.yul\":5872:5873   */\n      dup2\n        /* \"#utility.yul\":5868:5877   */\n      add\n        /* \"#utility.yul\":5863:5877   */\n      swap1\n      pop\n        /* \"#utility.yul\":5828:6112   */\n      jump(tag_236)\n    tag_238:\n        /* \"#utility.yul\":5832:5846   */\n      pop\n        /* \"#utility.yul\":6128:6131   */\n      dup6\n        /* \"#utility.yul\":6121:6131   */\n      swap4\n      pop\n        /* \"#utility.yul\":5529:6137   */\n      pop\n      pop\n      pop\n        /* \"#utility.yul\":5405:6137   */\n      swap3\n      swap2\n      pop\n      pop\n      jump\t// out\n        /* \"#utility.yul\":6143:6516   */\n    tag_39:\n        /* \"#utility.yul\":6286:6290   */\n      0x00\n        /* \"#utility.yul\":6324:6326   */\n      0x20\n        /* \"#utility.yul\":6313:6322   */\n      dup3\n        /* \"#utility.yul\":6309:6327   */\n      add\n        /* \"#utility.yul\":6301:6327   */\n      swap1\n      pop\n        /* \"#utility.yul\":6373:6382   */\n      dup2\n        /* \"#utility.yul\":6367:6371   */\n      dup2\n        /* \"#utility.yul\":6363:6383   */\n      sub\n        /* \"#utility.yul\":6359:6360   */\n      0x00\n        /* \"#utility.yul\":6348:6357   */\n      dup4\n        /* \"#utility.yul\":6344:6361   */\n      add\n        /* \"#utility.yul\":6337:6384   */\n      mstore\n        /* \"#utility.yul\":6401:6509   */\n      tag_242\n        /* \"#utility.yul\":6504:6508   */\n      dup2\n        /* \"#utility.yul\":6495:6501   */\n      dup5\n        /* \"#utility.yul\":6401:6509   */\n      tag_149\n      jump\t// in\n    tag_242:\n        /* \"#utility.yul\":6393:6509   */\n      swap1\n      pop\n        /* \"#utility.yul\":6143:6516   */\n      swap3\n      swap2\n      pop\n      pop\n      jump\t// out\n        /* \"#utility.yul\":6522:6744   */\n    tag_47:\n        /* \"#utility.yul\":6615:6619   */\n      0x00\n        /* \"#utility.yul\":6653:6655   */\n      0x20\n        /* \"#utility.yul\":6642:6651   */\n      dup3\n        /* \"#utility.yul\":6638:6656   */\n      add\n        /* \"#utility.yul\":6630:6656   */\n      swap1\n      pop\n        /* \"#utility.yul\":6666:6737   */\n      tag_244\n        /* \"#utility.yul\":6734:6735   */\n      0x00\n        /* \"#utility.yul\":6723:6732   */\n      dup4\n        /* \"#utility.yul\":6719:6736   */\n      add\n        /* \"#utility.yul\":6710:6716   */\n      dup5\n        /* \"#utility.yul\":6666:6737   */\n      tag_130\n      jump\t// in\n    tag_244:\n        /* \"#utility.yul\":6522:6744   */\n      swap3\n      swap2\n      pop\n      pop\n      jump\t// out\n        /* \"#utility.yul\":6750:6972   */\n    tag_52:\n        /* \"#utility.yul\":6843:6847   */\n      0x00\n        /* \"#utility.yul\":6881:6883   */\n      0x20\n        /* \"#utility.yul\":6870:6879   */\n      dup3\n        /* \"#utility.yul\":6866:6884   */\n      add\n        /* \"#utility.yul\":6858:6884   */\n      swap1\n      pop\n        /* \"#utility.yul\":6894:6965   */\n      tag_246\n        /* \"#utility.yul\":6962:6963   */\n      0x00\n        /* \"#utility.yul\":6951:6960   */\n      dup4\n        /* \"#utility.yul\":6947:6964   */\n      add\n        /* \"#utility.yul\":6938:6944   */\n      dup5\n        /* \"#utility.yul\":6894:6965   */\n      tag_132\n      jump\t// in\n    tag_246:\n        /* \"#utility.yul\":6750:6972   */\n      swap3\n      swap2\n      pop\n      pop\n      jump\t// out\n        /* \"#utility.yul\":6978:7129   */\n    tag_150:\n        /* \"#utility.yul\":7053:7062   */\n      0x00\n        /* \"#utility.yul\":7086:7123   */\n      tag_248\n        /* \"#utility.yul\":7117:7122   */\n      dup3\n        /* \"#utility.yul\":7086:7123   */\n      tag_140\n      jump\t// in\n    tag_248:\n        /* \"#utility.yul\":7073:7123   */\n      swap1\n      pop\n        /* \"#utility.yul\":6978:7129   */\n      swap2\n      swap1\n      pop\n      jump\t// out\n        /* \"#utility.yul\":7135:7316   */\n    tag_151:\n        /* \"#utility.yul\":7247:7309   */\n      tag_250\n        /* \"#utility.yul\":7303:7308   */\n      dup2\n        /* \"#utility.yul\":7247:7309   */\n      tag_150\n      jump\t// in\n    tag_250:\n        /* \"#utility.yul\":7242:7245   */\n      dup3\n        /* \"#utility.yul\":7235:7310   */\n      mstore\n        /* \"#utility.yul\":7135:7316   */\n      pop\n      pop\n      jump\t// out\n        /* \"#utility.yul\":7322:7594   */\n    tag_57:\n        /* \"#utility.yul\":7440:7444   */\n      0x00\n        /* \"#utility.yul\":7478:7480   */\n      0x20\n        /* \"#utility.yul\":7467:7476   */\n      dup3\n        /* \"#utility.yul\":7463:7481   */\n      add\n        /* \"#utility.yul\":7455:7481   */\n      swap1\n      pop\n        /* \"#utility.yul\":7491:7587   */\n      tag_252\n        /* \"#utility.yul\":7584:7585   */\n      0x00\n        /* \"#utility.yul\":7573:7582   */\n      dup4\n        /* \"#utility.yul\":7569:7586   */\n      add\n        /* \"#utility.yul\":7560:7566   */\n      dup5\n        /* \"#utility.yul\":7491:7587   */\n      tag_151\n      jump\t// in\n    tag_252:\n        /* \"#utility.yul\":7322:7594   */\n      swap3\n      swap2\n      pop\n      pop\n      jump\t// out\n        /* \"#utility.yul\":7600:7752   */\n    tag_152:\n        /* \"#utility.yul\":7676:7685   */\n      0x00\n        /* \"#utility.yul\":7709:7746   */\n      tag_254\n        /* \"#utility.yul\":7740:7745   */\n      dup3\n        /* \"#utility.yul\":7709:7746   */\n      tag_140\n      jump\t// in\n    tag_254:\n        /* \"#utility.yul\":7696:7746   */\n      swap1\n      pop\n        /* \"#utility.yul\":7600:7752   */\n      swap2\n      swap1\n      pop\n      jump\t// out\n        /* \"#utility.yul\":7758:7941   */\n    tag_153:\n        /* \"#utility.yul\":7871:7934   */\n      tag_256\n        /* \"#utility.yul\":7928:7933   */\n      dup2\n        /* \"#utility.yul\":7871:7934   */\n      tag_152\n      jump\t// in\n    tag_256:\n        /* \"#utility.yul\":7866:7869   */\n      dup3\n        /* \"#utility.yul\":7859:7935   */\n      mstore\n        /* \"#utility.yul\":7758:7941   */\n      pop\n      pop\n      jump\t// out\n        /* \"#utility.yul\":7947:8221   */\n    tag_66:\n        /* \"#utility.yul\":8066:8070   */\n      0x00\n        /* \"#utility.yul\":8104:8106   */\n      0x20\n        /* \"#utility.yul\":8093:8102   */\n      dup3\n        /* \"#utility.yul\":8089:8107   */\n      add\n        /* \"#utility.yul\":8081:8107   */\n      swap1\n      pop\n        /* \"#utility.yul\":8117:8214   */\n      tag_258\n        /* \"#utility.yul\":8211:8212   */\n      0x00\n        /* \"#utility.yul\":8200:8209   */\n      dup4\n        /* \"#utility.yul\":8196:8213   */\n      add\n        /* \"#utility.yul\":8187:8193   */\n      dup5\n        /* \"#utility.yul\":8117:8214   */\n      tag_153\n      jump\t// in\n    tag_258:\n        /* \"#utility.yul\":7947:8221   */\n      swap3\n      swap2\n      pop\n      pop\n      jump\t// out\n        /* \"#utility.yul\":8227:8992   */\n    tag_74:\n        /* \"#utility.yul\":8313:8319   */\n      0x00\n        /* \"#utility.yul\":8321:8327   */\n      dup1\n        /* \"#utility.yul\":8329:8335   */\n      0x00\n        /* \"#utility.yul\":8337:8343   */\n      dup1\n        /* \"#utility.yul\":8386:8389   */\n      0x80\n        /* \"#utility.yul\":8374:8383   */\n      dup6\n        /* \"#utility.yul\":8365:8372   */\n      dup8\n        /* \"#utility.yul\":8361:8384   */\n      sub\n        /* \"#utility.yul\":8357:8390   */\n      slt\n        /* \"#utility.yul\":8354:8474   */\n      iszero\n      tag_260\n      jumpi\n        /* \"#utility.yul\":8393:8472   */\n      tag_261\n      tag_124\n      jump\t// in\n    tag_261:\n        /* \"#utility.yul\":8354:8474   */\n    tag_260:\n        /* \"#utility.yul\":8513:8514   */\n      0x00\n        /* \"#utility.yul\":8538:8591   */\n      tag_262\n        /* \"#utility.yul\":8583:8590   */\n      dup8\n        /* \"#utility.yul\":8574:8580   */\n      dup3\n        /* \"#utility.yul\":8563:8572   */\n      dup9\n        /* \"#utility.yul\":8559:8581   */\n      add\n        /* \"#utility.yul\":8538:8591   */\n      tag_129\n      jump\t// in\n    tag_262:\n        /* \"#utility.yul\":8528:8591   */\n      swap5\n      pop\n        /* \"#utility.yul\":8484:8601   */\n      pop\n        /* \"#utility.yul\":8640:8642   */\n      0x20\n        /* \"#utility.yul\":8666:8719   */\n      tag_263\n        /* \"#utility.yul\":8711:8718   */\n      dup8\n        /* \"#utility.yul\":8702:8708   */\n      dup3\n        /* \"#utility.yul\":8691:8700   */\n      dup9\n        /* \"#utility.yul\":8687:8709   */\n      add\n        /* \"#utility.yul\":8666:8719   */\n      tag_137\n      jump\t// in\n    tag_263:\n        /* \"#utility.yul\":8656:8719   */\n      swap4\n      pop\n        /* \"#utility.yul\":8611:8729   */\n      pop\n        /* \"#utility.yul\":8768:8770   */\n      0x40\n        /* \"#utility.yul\":8794:8847   */\n      tag_264\n        /* \"#utility.yul\":8839:8846   */\n      dup8\n        /* \"#utility.yul\":8830:8836   */\n      dup3\n        /* \"#utility.yul\":8819:8828   */\n      dup9\n        /* \"#utility.yul\":8815:8837   */\n      add\n        /* \"#utility.yul\":8794:8847   */\n      tag_137\n      jump\t// in\n    tag_264:\n        /* \"#utility.yul\":8784:8847   */\n      swap3\n      pop\n        /* \"#utility.yul\":8739:8857   */\n      pop\n        /* \"#utility.yul\":8896:8898   */\n      0x60\n        /* \"#utility.yul\":8922:8975   */\n      tag_265\n        /* \"#utility.yul\":8967:8974   */\n      dup8\n        /* \"#utility.yul\":8958:8964   */\n      dup3\n        /* \"#utility.yul\":8947:8956   */\n      dup9\n        /* \"#utility.yul\":8943:8965   */\n      add\n        /* \"#utility.yul\":8922:8975   */\n      tag_137\n      jump\t// in\n    tag_265:\n        /* \"#utility.yul\":8912:8975   */\n      swap2\n      pop\n        /* \"#utility.yul\":8867:8985   */\n      pop\n        /* \"#utility.yul\":8227:8992   */\n      swap3\n      swap6\n      swap2\n      swap5\n      pop\n      swap3\n      pop\n      jump\t// out\n        /* \"#utility.yul\":8998:9141   */\n    tag_154:\n        /* \"#utility.yul\":9055:9060   */\n      0x00\n        /* \"#utility.yul\":9086:9092   */\n      dup2\n        /* \"#utility.yul\":9080:9093   */\n      mload\n        /* \"#utility.yul\":9071:9093   */\n      swap1\n      pop\n        /* \"#utility.yul\":9102:9135   */\n      tag_267\n        /* \"#utility.yul\":9129:9134   */\n      dup2\n        /* \"#utility.yul\":9102:9135   */\n      tag_128\n      jump\t// in\n    tag_267:\n        /* \"#utility.yul\":8998:9141   */\n      swap3\n      swap2\n      pop\n      pop\n      jump\t// out\n        /* \"#utility.yul\":9147:9290   */\n    tag_155:\n        /* \"#utility.yul\":9204:9209   */\n      0x00\n        /* \"#utility.yul\":9235:9241   */\n      dup2\n        /* \"#utility.yul\":9229:9242   */\n      mload\n        /* \"#utility.yul\":9220:9242   */\n      swap1\n      pop\n        /* \"#utility.yul\":9251:9284   */\n      tag_269\n        /* \"#utility.yul\":9278:9283   */\n      dup2\n        /* \"#utility.yul\":9251:9284   */\n      tag_136\n      jump\t// in\n    tag_269:\n        /* \"#utility.yul\":9147:9290   */\n      swap3\n      swap2\n      pop\n      pop\n      jump\t// out\n        /* \"#utility.yul\":9296:10116   */\n    tag_83:\n        /* \"#utility.yul\":9393:9399   */\n      0x00\n        /* \"#utility.yul\":9401:9407   */\n      dup1\n        /* \"#utility.yul\":9409:9415   */\n      0x00\n        /* \"#utility.yul\":9417:9423   */\n      dup1\n        /* \"#utility.yul\":9466:9469   */\n      0x80\n        /* \"#utility.yul\":9454:9463   */\n      dup6\n        /* \"#utility.yul\":9445:9452   */\n      dup8\n        /* \"#utility.yul\":9441:9464   */\n      sub\n        /* \"#utility.yul\":9437:9470   */\n      slt\n        /* \"#utility.yul\":9434:9554   */\n      iszero\n      tag_271\n      jumpi\n        /* \"#utility.yul\":9473:9552   */\n      tag_272\n      tag_124\n      jump\t// in\n    tag_272:\n        /* \"#utility.yul\":9434:9554   */\n    tag_271:\n        /* \"#utility.yul\":9593:9594   */\n      0x00\n        /* \"#utility.yul\":9618:9682   */\n      tag_273\n        /* \"#utility.yul\":9674:9681   */\n      dup8\n        /* \"#utility.yul\":9665:9671   */\n      dup3\n        /* \"#utility.yul\":9654:9663   */\n      dup9\n        /* \"#utility.yul\":9650:9672   */\n      add\n        /* \"#utility.yul\":9618:9682   */\n      tag_154\n      jump\t// in\n    tag_273:\n        /* \"#utility.yul\":9608:9682   */\n      swap5\n      pop\n        /* \"#utility.yul\":9564:9692   */\n      pop\n        /* \"#utility.yul\":9731:9733   */\n      0x20\n        /* \"#utility.yul\":9757:9821   */\n      tag_274\n        /* \"#utility.yul\":9813:9820   */\n      dup8\n        /* \"#utility.yul\":9804:9810   */\n      dup3\n        /* \"#utility.yul\":9793:9802   */\n      dup9\n        /* \"#utility.yul\":9789:9811   */\n      add\n        /* \"#utility.yul\":9757:9821   */\n      tag_155\n      jump\t// in\n    tag_274:\n        /* \"#utility.yul\":9747:9821   */\n      swap4\n      pop\n        /* \"#utility.yul\":9702:9831   */\n      pop\n        /* \"#utility.yul\":9870:9872   */\n      0x40\n        /* \"#utility.yul\":9896:9960   */\n      tag_275\n        /* \"#utility.yul\":9952:9959   */\n      dup8\n        /* \"#utility.yul\":9943:9949   */\n      dup3\n        /* \"#utility.yul\":9932:9941   */\n      dup9\n        /* \"#utility.yul\":9928:9950   */\n      add\n        /* \"#utility.yul\":9896:9960   */\n      tag_155\n      jump\t// in\n    tag_275:\n        /* \"#utility.yul\":9886:9960   */\n      swap3\n      pop\n        /* \"#utility.yul\":9841:9970   */\n      pop\n        /* \"#utility.yul\":10009:10011   */\n      0x60\n        /* \"#utility.yul\":10035:10099   */\n      tag_276\n        /* \"#utility.yul\":10091:10098   */\n      dup8\n        /* \"#utility.yul\":10082:10088   */\n      dup3\n        /* \"#utility.yul\":10071:10080   */\n      dup9\n        /* \"#utility.yul\":10067:10089   */\n      add\n        /* \"#utility.yul\":10035:10099   */\n      tag_155\n      jump\t// in\n    tag_276:\n        /* \"#utility.yul\":10025:10099   */\n      swap2\n      pop\n        /* \"#utility.yul\":9980:10109   */\n      pop\n        /* \"#utility.yul\":9296:10116   */\n      swap3\n      swap6\n      swap2\n      swap5\n      pop\n      swap3\n      pop\n      jump\t// out\n        /* \"#utility.yul\":10122:10264   */\n    tag_156:\n        /* \"#utility.yul\":10225:10257   */\n      tag_278\n        /* \"#utility.yul\":10251:10256   */\n      dup2\n        /* \"#utility.yul\":10225:10257   */\n      tag_133\n      jump\t// in\n    tag_278:\n        /* \"#utility.yul\":10220:10223   */\n      dup3\n        /* \"#utility.yul\":10213:10258   */\n      mstore\n        /* \"#utility.yul\":10122:10264   */\n      pop\n      pop\n      jump\t// out\n        /* \"#utility.yul\":10270:10855   */\n    tag_86:\n        /* \"#utility.yul\":10463:10467   */\n      0x00\n        /* \"#utility.yul\":10501:10504   */\n      0x80\n        /* \"#utility.yul\":10490:10499   */\n      dup3\n        /* \"#utility.yul\":10486:10505   */\n      add\n        /* \"#utility.yul\":10478:10505   */\n      swap1\n      pop\n        /* \"#utility.yul\":10515:10602   */\n      tag_280\n        /* \"#utility.yul\":10599:10600   */\n      0x00\n        /* \"#utility.yul\":10588:10597   */\n      dup4\n        /* \"#utility.yul\":10584:10601   */\n      add\n        /* \"#utility.yul\":10575:10581   */\n      dup8\n        /* \"#utility.yul\":10515:10602   */\n      tag_156\n      jump\t// in\n    tag_280:\n        /* \"#utility.yul\":10612:10684   */\n      tag_281\n        /* \"#utility.yul\":10680:10682   */\n      0x20\n        /* \"#utility.yul\":10669:10678   */\n      dup4\n        /* \"#utility.yul\":10665:10683   */\n      add\n        /* \"#utility.yul\":10656:10662   */\n      dup7\n        /* \"#utility.yul\":10612:10684   */\n      tag_132\n      jump\t// in\n    tag_281:\n        /* \"#utility.yul\":10694:10766   */\n      tag_282\n        /* \"#utility.yul\":10762:10764   */\n      0x40\n        /* \"#utility.yul\":10751:10760   */\n      dup4\n        /* \"#utility.yul\":10747:10765   */\n      add\n        /* \"#utility.yul\":10738:10744   */\n      dup6\n        /* \"#utility.yul\":10694:10766   */\n      tag_132\n      jump\t// in\n    tag_282:\n        /* \"#utility.yul\":10776:10848   */\n      tag_283\n        /* \"#utility.yul\":10844:10846   */\n      0x60\n        /* \"#utility.yul\":10833:10842   */\n      dup4\n        /* \"#utility.yul\":10829:10847   */\n      add\n        /* \"#utility.yul\":10820:10826   */\n      dup5\n        /* \"#utility.yul\":10776:10848   */\n      tag_132\n      jump\t// in\n    tag_283:\n        /* \"#utility.yul\":10270:10855   */\n      swap6\n      swap5\n      pop\n      pop\n      pop\n      pop\n      pop\n      jump\t// out\n        /* \"#utility.yul\":10861:10978   */\n    tag_157:\n        /* \"#utility.yul\":10970:10971   */\n      0x00\n        /* \"#utility.yul\":10967:10968   */\n      dup1\n        /* \"#utility.yul\":10960:10972   */\n      revert\n        /* \"#utility.yul\":10984:11086   */\n    tag_158:\n        /* \"#utility.yul\":11025:11031   */\n      0x00\n        /* \"#utility.yul\":11076:11078   */\n      0x1f\n        /* \"#utility.yul\":11072:11079   */\n      not\n        /* \"#utility.yul\":11067:11069   */\n      0x1f\n        /* \"#utility.yul\":11060:11065   */\n      dup4\n        /* \"#utility.yul\":11056:11070   */\n      add\n        /* \"#utility.yul\":11052:11080   */\n      and\n        /* \"#utility.yul\":11042:11080   */\n      swap1\n      pop\n        /* \"#utility.yul\":10984:11086   */\n      swap2\n      swap1\n      pop\n      jump\t// out\n        /* \"#utility.yul\":11092:11272   */\n    tag_159:\n        /* \"#utility.yul\":11140:11217   */\n      0x4e487b7100000000000000000000000000000000000000000000000000000000\n        /* \"#utility.yul\":11137:11138   */\n      0x00\n        /* \"#utility.yul\":11130:11218   */\n      mstore\n        /* \"#utility.yul\":11237:11241   */\n      0x41\n        /* \"#utility.yul\":11234:11235   */\n      0x04\n        /* \"#utility.yul\":11227:11242   */\n      mstore\n        /* \"#utility.yul\":11261:11265   */\n      0x24\n        /* \"#utility.yul\":11258:11259   */\n      0x00\n        /* \"#utility.yul\":11251:11266   */\n      revert\n        /* \"#utility.yul\":11278:11559   */\n    tag_160:\n        /* \"#utility.yul\":11361:11388   */\n      tag_288\n        /* \"#utility.yul\":11383:11387   */\n      dup3\n        /* \"#utility.yul\":11361:11388   */\n      tag_158\n      jump\t// in\n    tag_288:\n        /* \"#utility.yul\":11353:11359   */\n      dup2\n        /* \"#utility.yul\":11349:11389   */\n      add\n        /* \"#utility.yul\":11491:11497   */\n      dup2\n        /* \"#utility.yul\":11479:11489   */\n      dup2\n        /* \"#utility.yul\":11476:11498   */\n      lt\n        /* \"#utility.yul\":11455:11473   */\n      0xffffffffffffffff\n        /* \"#utility.yul\":11443:11453   */\n      dup3\n        /* \"#utility.yul\":11440:11474   */\n      gt\n        /* \"#utility.yul\":11437:11499   */\n      or\n        /* \"#utility.yul\":11434:11522   */\n      iszero\n      tag_289\n      jumpi\n        /* \"#utility.yul\":11502:11520   */\n      tag_290\n      tag_159\n      jump\t// in\n    tag_290:\n        /* \"#utility.yul\":11434:11522   */\n    tag_289:\n        /* \"#utility.yul\":11542:11552   */\n      dup1\n        /* \"#utility.yul\":11538:11540   */\n      0x40\n        /* \"#utility.yul\":11531:11553   */\n      mstore\n        /* \"#utility.yul\":11321:11559   */\n      pop\n        /* \"#utility.yul\":11278:11559   */\n      pop\n      pop\n      jump\t// out\n        /* \"#utility.yul\":11565:11694   */\n    tag_161:\n        /* \"#utility.yul\":11599:11605   */\n      0x00\n        /* \"#utility.yul\":11626:11646   */\n      tag_292\n      tag_123\n      jump\t// in\n    tag_292:\n        /* \"#utility.yul\":11616:11646   */\n      swap1\n      pop\n        /* \"#utility.yul\":11655:11688   */\n      tag_293\n        /* \"#utility.yul\":11683:11687   */\n      dup3\n        /* \"#utility.yul\":11675:11681   */\n      dup3\n        /* \"#utility.yul\":11655:11688   */\n      tag_160\n      jump\t// in\n    tag_293:\n        /* \"#utility.yul\":11565:11694   */\n      swap2\n      swap1\n      pop\n      jump\t// out\n        /* \"#utility.yul\":11700:12011   */\n    tag_162:\n        /* \"#utility.yul\":11777:11781   */\n      0x00\n        /* \"#utility.yul\":11867:11885   */\n      0xffffffffffffffff\n        /* \"#utility.yul\":11859:11865   */\n      dup3\n        /* \"#utility.yul\":11856:11886   */\n      gt\n        /* \"#utility.yul\":11853:11909   */\n      iszero\n      tag_295\n      jumpi\n        /* \"#utility.yul\":11889:11907   */\n      tag_296\n      tag_159\n      jump\t// in\n    tag_296:\n        /* \"#utility.yul\":11853:11909   */\n    tag_295:\n        /* \"#utility.yul\":11939:11943   */\n      0x20\n        /* \"#utility.yul\":11931:11937   */\n      dup3\n        /* \"#utility.yul\":11927:11944   */\n      mul\n        /* \"#utility.yul\":11919:11944   */\n      swap1\n      pop\n        /* \"#utility.yul\":11999:12003   */\n      0x20\n        /* \"#utility.yul\":11993:11997   */\n      dup2\n        /* \"#utility.yul\":11989:12004   */\n      add\n        /* \"#utility.yul\":11981:12004   */\n      swap1\n      pop\n        /* \"#utility.yul\":11700:12011   */\n      swap2\n      swap1\n      pop\n      jump\t// out\n        /* \"#utility.yul\":12017:12134   */\n    tag_163:\n        /* \"#utility.yul\":12126:12127   */\n      0x00\n        /* \"#utility.yul\":12123:12124   */\n      dup1\n        /* \"#utility.yul\":12116:12128   */\n      revert\n        /* \"#utility.yul\":12157:12889   */\n    tag_164:\n        /* \"#utility.yul\":12264:12269   */\n      0x00\n        /* \"#utility.yul\":12289:12370   */\n      tag_299\n        /* \"#utility.yul\":12305:12369   */\n      tag_300\n        /* \"#utility.yul\":12362:12368   */\n      dup5\n        /* \"#utility.yul\":12305:12369   */\n      tag_162\n      jump\t// in\n    tag_300:\n        /* \"#utility.yul\":12289:12370   */\n      tag_161\n      jump\t// in\n    tag_299:\n        /* \"#utility.yul\":12280:12370   */\n      swap1\n      pop\n        /* \"#utility.yul\":12390:12395   */\n      dup1\n        /* \"#utility.yul\":12419:12425   */\n      dup4\n        /* \"#utility.yul\":12412:12417   */\n      dup3\n        /* \"#utility.yul\":12405:12426   */\n      mstore\n        /* \"#utility.yul\":12453:12457   */\n      0x20\n        /* \"#utility.yul\":12446:12451   */\n      dup3\n        /* \"#utility.yul\":12442:12458   */\n      add\n        /* \"#utility.yul\":12435:12458   */\n      swap1\n      pop\n        /* \"#utility.yul\":12506:12510   */\n      0x20\n        /* \"#utility.yul\":12498:12504   */\n      dup5\n        /* \"#utility.yul\":12494:12511   */\n      mul\n        /* \"#utility.yul\":12486:12492   */\n      dup4\n        /* \"#utility.yul\":12482:12512   */\n      add\n        /* \"#utility.yul\":12535:12538   */\n      dup6\n        /* \"#utility.yul\":12527:12533   */\n      dup2\n        /* \"#utility.yul\":12524:12539   */\n      gt\n        /* \"#utility.yul\":12521:12643   */\n      iszero\n      tag_301\n      jumpi\n        /* \"#utility.yul\":12554:12633   */\n      tag_302\n      tag_163\n      jump\t// in\n    tag_302:\n        /* \"#utility.yul\":12521:12643   */\n    tag_301:\n        /* \"#utility.yul\":12669:12675   */\n      dup4\n        /* \"#utility.yul\":12652:12883   */\n    tag_303:\n        /* \"#utility.yul\":12686:12692   */\n      dup2\n        /* \"#utility.yul\":12681:12684   */\n      dup2\n        /* \"#utility.yul\":12678:12693   */\n      lt\n        /* \"#utility.yul\":12652:12883   */\n      iszero\n      tag_305\n      jumpi\n        /* \"#utility.yul\":12761:12764   */\n      dup1\n        /* \"#utility.yul\":12790:12838   */\n      tag_306\n        /* \"#utility.yul\":12834:12837   */\n      dup9\n        /* \"#utility.yul\":12822:12832   */\n      dup3\n        /* \"#utility.yul\":12790:12838   */\n      tag_155\n      jump\t// in\n    tag_306:\n        /* \"#utility.yul\":12785:12788   */\n      dup5\n        /* \"#utility.yul\":12778:12839   */\n      mstore\n        /* \"#utility.yul\":12868:12872   */\n      0x20\n        /* \"#utility.yul\":12863:12866   */\n      dup5\n        /* \"#utility.yul\":12859:12873   */\n      add\n        /* \"#utility.yul\":12852:12873   */\n      swap4\n      pop\n        /* \"#utility.yul\":12728:12883   */\n      pop\n        /* \"#utility.yul\":12712:12716   */\n      0x20\n        /* \"#utility.yul\":12707:12710   */\n      dup2\n        /* \"#utility.yul\":12703:12717   */\n      add\n        /* \"#utility.yul\":12696:12717   */\n      swap1\n      pop\n        /* \"#utility.yul\":12652:12883   */\n      jump(tag_303)\n    tag_305:\n        /* \"#utility.yul\":12656:12677   */\n      pop\n        /* \"#utility.yul\":12270:12889   */\n      pop\n      pop\n        /* \"#utility.yul\":12157:12889   */\n      swap4\n      swap3\n      pop\n      pop\n      pop\n      jump\t// out\n        /* \"#utility.yul\":12912:13297   */\n    tag_165:\n        /* \"#utility.yul\":12994:12999   */\n      0x00\n        /* \"#utility.yul\":13043:13046   */\n      dup3\n        /* \"#utility.yul\":13036:13040   */\n      0x1f\n        /* \"#utility.yul\":13028:13034   */\n      dup4\n        /* \"#utility.yul\":13024:13041   */\n      add\n        /* \"#utility.yul\":13020:13047   */\n      slt\n        /* \"#utility.yul\":13010:13132   */\n      tag_308\n      jumpi\n        /* \"#utility.yul\":13051:13130   */\n      tag_309\n      tag_157\n      jump\t// in\n    tag_309:\n        /* \"#utility.yul\":13010:13132   */\n    tag_308:\n        /* \"#utility.yul\":13161:13167   */\n      dup2\n        /* \"#utility.yul\":13155:13168   */\n      mload\n        /* \"#utility.yul\":13186:13291   */\n      tag_310\n        /* \"#utility.yul\":13287:13290   */\n      dup5\n        /* \"#utility.yul\":13279:13285   */\n      dup3\n        /* \"#utility.yul\":13272:13276   */\n      0x20\n        /* \"#utility.yul\":13264:13270   */\n      dup7\n        /* \"#utility.yul\":13260:13277   */\n      add\n        /* \"#utility.yul\":13186:13291   */\n      tag_164\n      jump\t// in\n    tag_310:\n        /* \"#utility.yul\":13177:13291   */\n      swap2\n      pop\n        /* \"#utility.yul\":13000:13297   */\n      pop\n        /* \"#utility.yul\":12912:13297   */\n      swap3\n      swap2\n      pop\n      pop\n      jump\t// out\n        /* \"#utility.yul\":13303:13857   */\n    tag_95:\n        /* \"#utility.yul\":13398:13404   */\n      0x00\n        /* \"#utility.yul\":13447:13449   */\n      0x20\n        /* \"#utility.yul\":13435:13444   */\n      dup3\n        /* \"#utility.yul\":13426:13433   */\n      dup5\n        /* \"#utility.yul\":13422:13445   */\n      sub\n        /* \"#utility.yul\":13418:13450   */\n      slt\n        /* \"#utility.yul\":13415:13534   */\n      iszero\n      tag_312\n      jumpi\n        /* \"#utility.yul\":13453:13532   */\n      tag_313\n      tag_124\n      jump\t// in\n    tag_313:\n        /* \"#utility.yul\":13415:13534   */\n    tag_312:\n        /* \"#utility.yul\":13594:13595   */\n      0x00\n        /* \"#utility.yul\":13583:13592   */\n      dup3\n        /* \"#utility.yul\":13579:13596   */\n      add\n        /* \"#utility.yul\":13573:13597   */\n      mload\n        /* \"#utility.yul\":13624:13642   */\n      0xffffffffffffffff\n        /* \"#utility.yul\":13616:13622   */\n      dup2\n        /* \"#utility.yul\":13613:13643   */\n      gt\n        /* \"#utility.yul\":13610:13727   */\n      iszero\n      tag_314\n      jumpi\n        /* \"#utility.yul\":13646:13725   */\n      tag_315\n      tag_125\n      jump\t// in\n    tag_315:\n        /* \"#utility.yul\":13610:13727   */\n    tag_314:\n        /* \"#utility.yul\":13751:13840   */\n      tag_316\n        /* \"#utility.yul\":13832:13839   */\n      dup5\n        /* \"#utility.yul\":13823:13829   */\n      dup3\n        /* \"#utility.yul\":13812:13821   */\n      dup6\n        /* \"#utility.yul\":13808:13830   */\n      add\n        /* \"#utility.yul\":13751:13840   */\n      tag_165\n      jump\t// in\n    tag_316:\n        /* \"#utility.yul\":13741:13840   */\n      swap2\n      pop\n        /* \"#utility.yul\":13544:13850   */\n      pop\n        /* \"#utility.yul\":13303:13857   */\n      swap3\n      swap2\n      pop\n      pop\n      jump\t// out\n        /* \"#utility.yul\":13863:14214   */\n    tag_104:\n        /* \"#utility.yul\":13933:13939   */\n      0x00\n        /* \"#utility.yul\":13982:13984   */\n      0x20\n        /* \"#utility.yul\":13970:13979   */\n      dup3\n        /* \"#utility.yul\":13961:13968   */\n      dup5\n        /* \"#utility.yul\":13957:13980   */\n      sub\n        /* \"#utility.yul\":13953:13985   */\n      slt\n        /* \"#utility.yul\":13950:14069   */\n      iszero\n      tag_318\n      jumpi\n        /* \"#utility.yul\":13988:14067   */\n      tag_319\n      tag_124\n      jump\t// in\n    tag_319:\n        /* \"#utility.yul\":13950:14069   */\n    tag_318:\n        /* \"#utility.yul\":14108:14109   */\n      0x00\n        /* \"#utility.yul\":14133:14197   */\n      tag_320\n        /* \"#utility.yul\":14189:14196   */\n      dup5\n        /* \"#utility.yul\":14180:14186   */\n      dup3\n        /* \"#utility.yul\":14169:14178   */\n      dup6\n        /* \"#utility.yul\":14165:14187   */\n      add\n        /* \"#utility.yul\":14133:14197   */\n      tag_155\n      jump\t// in\n    tag_320:\n        /* \"#utility.yul\":14123:14197   */\n      swap2\n      pop\n        /* \"#utility.yul\":14079:14207   */\n      pop\n        /* \"#utility.yul\":13863:14214   */\n      swap3\n      swap2\n      pop\n      pop\n      jump\t// out\n\n    auxdata: 0xa2646970667358221220d0be1df63eb4e471089140fce394eb1b43fab38ba0acb59dba3562308526ee2a64736f6c63430008130033\n}\n\nsub_1: assembly {\n        /* \"FinanceManagement.sol\":58:826   */\n      mstore(0x40, 0x80)\n      callvalue\n      dup1\n      iszero\n      tag_1\n      jumpi\n      0x00\n      dup1\n      revert\n    tag_1:\n      pop\n      dataSize(sub_0)\n      dup1\n      dataOffset(sub_0)\n      0x00\n      codecopy\n      0x00\n      return\n    stop\n\n    sub_0: assembly {\n            /* \"FinanceManagement.sol\":58:826   */\n          mstore(0x40, 0x80)\n          jumpi(tag_1, lt(calldatasize, 0x04))\n          shr(0xe0, calldataload(0x00))\n          dup1\n          0x57d9989c\n          eq\n          tag_2\n          jumpi\n          dup1\n          0xc71daccb\n          eq\n          tag_3\n          jumpi\n          dup1\n          0xd7081e03\n          eq\n          tag_4\n          jumpi\n          dup1\n          0xe2c41dbc\n          eq\n          tag_5\n          jumpi\n        tag_1:\n          0x00\n          dup1\n          revert\n            /* \"FinanceManagement.sol\":388:632   */\n        tag_2:\n          callvalue\n          dup1\n          iszero\n          tag_6\n          jumpi\n          0x00\n          dup1\n          revert\n        tag_6:\n          pop\n          tag_7\n          0x04\n          dup1\n          calldatasize\n          sub\n          dup2\n          add\n          swap1\n          tag_8\n          swap2\n          swap1\n          tag_9\n          jump\t// in\n        tag_8:\n          tag_10\n          jump\t// in\n        tag_7:\n          stop\n            /* \"FinanceManagement.sol\":286:382   */\n        tag_3:\n          callvalue\n          dup1\n          iszero\n          tag_11\n          jumpi\n          0x00\n          dup1\n          revert\n        tag_11:\n          pop\n          tag_12\n          tag_13\n          jump\t// in\n        tag_12:\n          mload(0x40)\n          tag_14\n          swap2\n          swap1\n          tag_15\n          jump\t// in\n        tag_14:\n          mload(0x40)\n          dup1\n          swap2\n          sub\n          swap1\n          return\n            /* \"FinanceManagement.sol\":638:824   */\n        tag_4:\n          callvalue\n          dup1\n          iszero\n          tag_16\n          jumpi\n          0x00\n          dup1\n          revert\n        tag_16:\n          pop\n          tag_17\n          0x04\n          dup1\n          calldatasize\n          sub\n          dup2\n          add\n          swap1\n          tag_18\n          swap2\n          swap1\n          tag_9\n          jump\t// in\n        tag_18:\n          tag_19\n          jump\t// in\n        tag_17:\n          stop\n            /* \"FinanceManagement.sol\":194:280   */\n        tag_5:\n          tag_20\n          tag_21\n          jump\t// in\n        tag_20:\n          stop\n            /* \"FinanceManagement.sol\":388:632   */\n        tag_10:\n            /* \"FinanceManagement.sol\":492:513   */\n          selfbalance\n            /* \"FinanceManagement.sol\":482:488   */\n          dup2\n            /* \"FinanceManagement.sol\":482:513   */\n          gt\n          iszero\n            /* \"FinanceManagement.sol\":474:536   */\n          tag_23\n          jumpi\n          mload(0x40)\n          0x08c379a000000000000000000000000000000000000000000000000000000000\n          dup2\n          mstore\n          0x04\n          add\n          tag_24\n          swap1\n          tag_25\n          jump\t// in\n        tag_24:\n          mload(0x40)\n          dup1\n          swap2\n          sub\n          swap1\n          revert\n        tag_23:\n            /* \"FinanceManagement.sol\":546:555   */\n          dup2\n            /* \"FinanceManagement.sol\":546:564   */\n          0xffffffffffffffffffffffffffffffffffffffff\n          and\n            /* \"FinanceManagement.sol\":546:572   */\n          0x08fc\n            /* \"FinanceManagement.sol\":565:571   */\n          dup3\n            /* \"FinanceManagement.sol\":546:572   */\n          swap1\n          dup2\n          iszero\n          mul\n          swap1\n          mload(0x40)\n          0x00\n          mload(0x40)\n          dup1\n          dup4\n          sub\n          dup2\n          dup6\n          dup9\n          dup9\n          call\n          swap4\n          pop\n          pop\n          pop\n          pop\n          iszero\n          dup1\n          iszero\n          tag_27\n          jumpi\n          returndatasize\n          0x00\n          dup1\n          returndatacopy\n          revert(0x00, returndatasize)\n        tag_27:\n          pop\n            /* \"FinanceManagement.sol\":587:625   */\n          0x23d6711a1d031134a36921253c75aa59e967d38e369ac625992824315e204f20\n            /* \"FinanceManagement.sol\":607:616   */\n          dup3\n            /* \"FinanceManagement.sol\":618:624   */\n          dup3\n            /* \"FinanceManagement.sol\":587:625   */\n          mload(0x40)\n          tag_28\n          swap3\n          swap2\n          swap1\n          tag_29\n          jump\t// in\n        tag_28:\n          mload(0x40)\n          dup1\n          swap2\n          sub\n          swap1\n          log1\n            /* \"FinanceManagement.sol\":388:632   */\n          pop\n          pop\n          jump\t// out\n            /* \"FinanceManagement.sol\":286:382   */\n        tag_13:\n            /* \"FinanceManagement.sol\":331:335   */\n          0x00\n            /* \"FinanceManagement.sol\":354:375   */\n          selfbalance\n            /* \"FinanceManagement.sol\":347:375   */\n          swap1\n          pop\n            /* \"FinanceManagement.sol\":286:382   */\n          swap1\n          jump\t// out\n            /* \"FinanceManagement.sol\":638:824   */\n        tag_19:\n            /* \"FinanceManagement.sol\":737:758   */\n          selfbalance\n            /* \"FinanceManagement.sol\":727:733   */\n          dup2\n            /* \"FinanceManagement.sol\":727:758   */\n          gt\n          iszero\n            /* \"FinanceManagement.sol\":719:781   */\n          tag_32\n          jumpi\n          mload(0x40)\n          0x08c379a000000000000000000000000000000000000000000000000000000000\n          dup2\n          mstore\n          0x04\n          add\n          tag_33\n          swap1\n          tag_25\n          jump\t// in\n        tag_33:\n          mload(0x40)\n          dup1\n          swap2\n          sub\n          swap1\n          revert\n        tag_32:\n            /* \"FinanceManagement.sol\":791:800   */\n          dup2\n            /* \"FinanceManagement.sol\":791:809   */\n          0xffffffffffffffffffffffffffffffffffffffff\n          and\n            /* \"FinanceManagement.sol\":791:817   */\n          0x08fc\n            /* \"FinanceManagement.sol\":810:816   */\n          dup3\n            /* \"FinanceManagement.sol\":791:817   */\n          swap1\n          dup2\n          iszero\n          mul\n          swap1\n          mload(0x40)\n          0x00\n          mload(0x40)\n          dup1\n          dup4\n          sub\n          dup2\n          dup6\n          dup9\n          dup9\n          call\n          swap4\n          pop\n          pop\n          pop\n          pop\n          iszero\n          dup1\n          iszero\n          tag_35\n          jumpi\n          returndatasize\n          0x00\n          dup1\n          returndatacopy\n          revert(0x00, returndatasize)\n        tag_35:\n          pop\n            /* \"FinanceManagement.sol\":638:824   */\n          pop\n          pop\n          jump\t// out\n            /* \"FinanceManagement.sol\":194:280   */\n        tag_21:\n            /* \"FinanceManagement.sol\":248:273   */\n          0x7cb5d45c1071f219bd2da1ea101758715bd52f23f2a707f2d9a0387dea18d906\n            /* \"FinanceManagement.sol\":263:272   */\n          callvalue\n            /* \"FinanceManagement.sol\":248:273   */\n          mload(0x40)\n          tag_37\n          swap2\n          swap1\n          tag_15\n          jump\t// in\n        tag_37:\n          mload(0x40)\n          dup1\n          swap2\n          sub\n          swap1\n          log1\n            /* \"FinanceManagement.sol\":194:280   */\n          jump\t// out\n            /* \"#utility.yul\":88:205   */\n        tag_39:\n            /* \"#utility.yul\":197:198   */\n          0x00\n            /* \"#utility.yul\":194:195   */\n          dup1\n            /* \"#utility.yul\":187:199   */\n          revert\n            /* \"#utility.yul\":334:460   */\n        tag_41:\n            /* \"#utility.yul\":371:378   */\n          0x00\n            /* \"#utility.yul\":411:453   */\n          0xffffffffffffffffffffffffffffffffffffffff\n            /* \"#utility.yul\":404:409   */\n          dup3\n            /* \"#utility.yul\":400:454   */\n          and\n            /* \"#utility.yul\":389:454   */\n          swap1\n          pop\n            /* \"#utility.yul\":334:460   */\n          swap2\n          swap1\n          pop\n          jump\t// out\n            /* \"#utility.yul\":466:570   */\n        tag_42:\n            /* \"#utility.yul\":511:518   */\n          0x00\n            /* \"#utility.yul\":540:564   */\n          tag_63\n            /* \"#utility.yul\":558:563   */\n          dup3\n            /* \"#utility.yul\":540:564   */\n          tag_41\n          jump\t// in\n        tag_63:\n            /* \"#utility.yul\":529:564   */\n          swap1\n          pop\n            /* \"#utility.yul\":466:570   */\n          swap2\n          swap1\n          pop\n          jump\t// out\n            /* \"#utility.yul\":576:714   */\n        tag_43:\n            /* \"#utility.yul\":657:689   */\n          tag_65\n            /* \"#utility.yul\":683:688   */\n          dup2\n            /* \"#utility.yul\":657:689   */\n          tag_42\n          jump\t// in\n        tag_65:\n            /* \"#utility.yul\":650:655   */\n          dup2\n            /* \"#utility.yul\":647:690   */\n          eq\n            /* \"#utility.yul\":637:708   */\n          tag_66\n          jumpi\n            /* \"#utility.yul\":704:705   */\n          0x00\n            /* \"#utility.yul\":701:702   */\n          dup1\n            /* \"#utility.yul\":694:706   */\n          revert\n            /* \"#utility.yul\":637:708   */\n        tag_66:\n            /* \"#utility.yul\":576:714   */\n          pop\n          jump\t// out\n            /* \"#utility.yul\":720:875   */\n        tag_44:\n            /* \"#utility.yul\":774:779   */\n          0x00\n            /* \"#utility.yul\":812:818   */\n          dup2\n            /* \"#utility.yul\":799:819   */\n          calldataload\n            /* \"#utility.yul\":790:819   */\n          swap1\n          pop\n            /* \"#utility.yul\":828:869   */\n          tag_68\n            /* \"#utility.yul\":863:868   */\n          dup2\n            /* \"#utility.yul\":828:869   */\n          tag_43\n          jump\t// in\n        tag_68:\n            /* \"#utility.yul\":720:875   */\n          swap3\n          swap2\n          pop\n          pop\n          jump\t// out\n            /* \"#utility.yul\":881:958   */\n        tag_45:\n            /* \"#utility.yul\":918:925   */\n          0x00\n            /* \"#utility.yul\":947:952   */\n          dup2\n            /* \"#utility.yul\":936:952   */\n          swap1\n          pop\n            /* \"#utility.yul\":881:958   */\n          swap2\n          swap1\n          pop\n          jump\t// out\n            /* \"#utility.yul\":964:1086   */\n        tag_46:\n            /* \"#utility.yul\":1037:1061   */\n          tag_71\n            /* \"#utility.yul\":1055:1060   */\n          dup2\n            /* \"#utility.yul\":1037:1061   */\n          tag_45\n          jump\t// in\n        tag_71:\n            /* \"#utility.yul\":1030:1035   */\n          dup2\n            /* \"#utility.yul\":1027:1062   */\n          eq\n            /* \"#utility.yul\":1017:1080   */\n          tag_72\n          jumpi\n            /* \"#utility.yul\":1076:1077   */\n          0x00\n            /* \"#utility.yul\":1073:1074   */\n          dup1\n            /* \"#utility.yul\":1066:1078   */\n          revert\n            /* \"#utility.yul\":1017:1080   */\n        tag_72:\n            /* \"#utility.yul\":964:1086   */\n          pop\n          jump\t// out\n            /* \"#utility.yul\":1092:1231   */\n        tag_47:\n            /* \"#utility.yul\":1138:1143   */\n          0x00\n            /* \"#utility.yul\":1176:1182   */\n          dup2\n            /* \"#utility.yul\":1163:1183   */\n          calldataload\n            /* \"#utility.yul\":1154:1183   */\n          swap1\n          pop\n            /* \"#utility.yul\":1192:1225   */\n          tag_74\n            /* \"#utility.yul\":1219:1224   */\n          dup2\n            /* \"#utility.yul\":1192:1225   */\n          tag_46\n          jump\t// in\n        tag_74:\n            /* \"#utility.yul\":1092:1231   */\n          swap3\n          swap2\n          pop\n          pop\n          jump\t// out\n            /* \"#utility.yul\":1237:1727   */\n        tag_9:\n            /* \"#utility.yul\":1313:1319   */\n          0x00\n            /* \"#utility.yul\":1321:1327   */\n          dup1\n            /* \"#utility.yul\":1370:1372   */\n          0x40\n            /* \"#utility.yul\":1358:1367   */\n          dup4\n            /* \"#utility.yul\":1349:1356   */\n          dup6\n            /* \"#utility.yul\":1345:1368   */\n          sub\n            /* \"#utility.yul\":1341:1373   */\n          slt\n            /* \"#utility.yul\":1338:1457   */\n          iszero\n          tag_76\n          jumpi\n            /* \"#utility.yul\":1376:1455   */\n          tag_77\n          tag_39\n          jump\t// in\n        tag_77:\n            /* \"#utility.yul\":1338:1457   */\n        tag_76:\n            /* \"#utility.yul\":1496:1497   */\n          0x00\n            /* \"#utility.yul\":1521:1582   */\n          tag_78\n            /* \"#utility.yul\":1574:1581   */\n          dup6\n            /* \"#utility.yul\":1565:1571   */\n          dup3\n            /* \"#utility.yul\":1554:1563   */\n          dup7\n            /* \"#utility.yul\":1550:1572   */\n          add\n            /* \"#utility.yul\":1521:1582   */\n          tag_44\n          jump\t// in\n        tag_78:\n            /* \"#utility.yul\":1511:1582   */\n          swap3\n          pop\n            /* \"#utility.yul\":1467:1592   */\n          pop\n            /* \"#utility.yul\":1631:1633   */\n          0x20\n            /* \"#utility.yul\":1657:1710   */\n          tag_79\n            /* \"#utility.yul\":1702:1709   */\n          dup6\n            /* \"#utility.yul\":1693:1699   */\n          dup3\n            /* \"#utility.yul\":1682:1691   */\n          dup7\n            /* \"#utility.yul\":1678:1700   */\n          add\n            /* \"#utility.yul\":1657:1710   */\n          tag_47\n          jump\t// in\n        tag_79:\n            /* \"#utility.yul\":1647:1710   */\n          swap2\n          pop\n            /* \"#utility.yul\":1602:1720   */\n          pop\n            /* \"#utility.yul\":1237:1727   */\n          swap3\n          pop\n          swap3\n          swap1\n          pop\n          jump\t// out\n            /* \"#utility.yul\":1733:1851   */\n        tag_48:\n            /* \"#utility.yul\":1820:1844   */\n          tag_81\n            /* \"#utility.yul\":1838:1843   */\n          dup2\n            /* \"#utility.yul\":1820:1844   */\n          tag_45\n          jump\t// in\n        tag_81:\n            /* \"#utility.yul\":1815:1818   */\n          dup3\n            /* \"#utility.yul\":1808:1845   */\n          mstore\n            /* \"#utility.yul\":1733:1851   */\n          pop\n          pop\n          jump\t// out\n            /* \"#utility.yul\":1857:2079   */\n        tag_15:\n            /* \"#utility.yul\":1950:1954   */\n          0x00\n            /* \"#utility.yul\":1988:1990   */\n          0x20\n            /* \"#utility.yul\":1977:1986   */\n          dup3\n            /* \"#utility.yul\":1973:1991   */\n          add\n            /* \"#utility.yul\":1965:1991   */\n          swap1\n          pop\n            /* \"#utility.yul\":2001:2072   */\n          tag_83\n            /* \"#utility.yul\":2069:2070   */\n          0x00\n            /* \"#utility.yul\":2058:2067   */\n          dup4\n            /* \"#utility.yul\":2054:2071   */\n          add\n            /* \"#utility.yul\":2045:2051   */\n          dup5\n            /* \"#utility.yul\":2001:2072   */\n          tag_48\n          jump\t// in\n        tag_83:\n            /* \"#utility.yul\":1857:2079   */\n          swap3\n          swap2\n          pop\n          pop\n          jump\t// out\n            /* \"#utility.yul\":2085:2254   */\n        tag_49:\n            /* \"#utility.yul\":2169:2180   */\n          0x00\n            /* \"#utility.yul\":2203:2209   */\n          dup3\n            /* \"#utility.yul\":2198:2201   */\n          dup3\n            /* \"#utility.yul\":2191:2210   */\n          mstore\n            /* \"#utility.yul\":2243:2247   */\n          0x20\n            /* \"#utility.yul\":2238:2241   */\n          dup3\n            /* \"#utility.yul\":2234:2248   */\n          add\n            /* \"#utility.yul\":2219:2248   */\n          swap1\n          pop\n            /* \"#utility.yul\":2085:2254   */\n          swap3\n          swap2\n          pop\n          pop\n          jump\t// out\n            /* \"#utility.yul\":2260:2428   */\n        tag_50:\n            /* \"#utility.yul\":2400:2420   */\n          0x496e73756666696369656e742066756e64730000000000000000000000000000\n            /* \"#utility.yul\":2396:2397   */\n          0x00\n            /* \"#utility.yul\":2388:2394   */\n          dup3\n            /* \"#utility.yul\":2384:2398   */\n          add\n            /* \"#utility.yul\":2377:2421   */\n          mstore\n            /* \"#utility.yul\":2260:2428   */\n          pop\n          jump\t// out\n            /* \"#utility.yul\":2434:2800   */\n        tag_51:\n            /* \"#utility.yul\":2576:2579   */\n          0x00\n            /* \"#utility.yul\":2597:2664   */\n          tag_87\n            /* \"#utility.yul\":2661:2663   */\n          0x12\n            /* \"#utility.yul\":2656:2659   */\n          dup4\n            /* \"#utility.yul\":2597:2664   */\n          tag_49\n          jump\t// in\n        tag_87:\n            /* \"#utility.yul\":2590:2664   */\n          swap2\n          pop\n            /* \"#utility.yul\":2673:2766   */\n          tag_88\n            /* \"#utility.yul\":2762:2765   */\n          dup3\n            /* \"#utility.yul\":2673:2766   */\n          tag_50\n          jump\t// in\n        tag_88:\n            /* \"#utility.yul\":2791:2793   */\n          0x20\n            /* \"#utility.yul\":2786:2789   */\n          dup3\n            /* \"#utility.yul\":2782:2794   */\n          add\n            /* \"#utility.yul\":2775:2794   */\n          swap1\n          pop\n            /* \"#utility.yul\":2434:2800   */\n          swap2\n          swap1\n          pop\n          jump\t// out\n            /* \"#utility.yul\":2806:3225   */\n        tag_25:\n            /* \"#utility.yul\":2972:2976   */\n          0x00\n            /* \"#utility.yul\":3010:3012   */\n          0x20\n            /* \"#utility.yul\":2999:3008   */\n          dup3\n            /* \"#utility.yul\":2995:3013   */\n          add\n            /* \"#utility.yul\":2987:3013   */\n          swap1\n          pop\n            /* \"#utility.yul\":3059:3068   */\n          dup2\n            /* \"#utility.yul\":3053:3057   */\n          dup2\n            /* \"#utility.yul\":3049:3069   */\n          sub\n            /* \"#utility.yul\":3045:3046   */\n          0x00\n            /* \"#utility.yul\":3034:3043   */\n          dup4\n            /* \"#utility.yul\":3030:3047   */\n          add\n            /* \"#utility.yul\":3023:3070   */\n          mstore\n            /* \"#utility.yul\":3087:3218   */\n          tag_90\n            /* \"#utility.yul\":3213:3217   */\n          dup2\n            /* \"#utility.yul\":3087:3218   */\n          tag_51\n          jump\t// in\n        tag_90:\n            /* \"#utility.yul\":3079:3218   */\n          swap1\n          pop\n            /* \"#utility.yul\":2806:3225   */\n          swap2\n          swap1\n          pop\n          jump\t// out\n            /* \"#utility.yul\":3231:3291   */\n        tag_52:\n            /* \"#utility.yul\":3259:3262   */\n          0x00\n            /* \"#utility.yul\":3280:3285   */\n          dup2\n            /* \"#utility.yul\":3273:3285   */\n          swap1\n          pop\n            /* \"#utility.yul\":3231:3291   */\n          swap2\n          swap1\n          pop\n          jump\t// out\n            /* \"#utility.yul\":3297:3439   */\n        tag_53:\n            /* \"#utility.yul\":3347:3356   */\n          0x00\n            /* \"#utility.yul\":3380:3433   */\n          tag_93\n            /* \"#utility.yul\":3398:3432   */\n          tag_94\n            /* \"#utility.yul\":3407:3431   */\n          tag_95\n            /* \"#utility.yul\":3425:3430   */\n          dup5\n            /* \"#utility.yul\":3407:3431   */\n          tag_41\n          jump\t// in\n        tag_95:\n            /* \"#utility.yul\":3398:3432   */\n          tag_52\n          jump\t// in\n        tag_94:\n            /* \"#utility.yul\":3380:3433   */\n          tag_41\n          jump\t// in\n        tag_93:\n            /* \"#utility.yul\":3367:3433   */\n          swap1\n          pop\n            /* \"#utility.yul\":3297:3439   */\n          swap2\n          swap1\n          pop\n          jump\t// out\n            /* \"#utility.yul\":3445:3571   */\n        tag_54:\n            /* \"#utility.yul\":3495:3504   */\n          0x00\n            /* \"#utility.yul\":3528:3565   */\n          tag_97\n            /* \"#utility.yul\":3559:3564   */\n          dup3\n            /* \"#utility.yul\":3528:3565   */\n          tag_53\n          jump\t// in\n        tag_97:\n            /* \"#utility.yul\":3515:3565   */\n          swap1\n          pop\n            /* \"#utility.yul\":3445:3571   */\n          swap2\n          swap1\n          pop\n          jump\t// out\n            /* \"#utility.yul\":3577:3711   */\n        tag_55:\n            /* \"#utility.yul\":3635:3644   */\n          0x00\n            /* \"#utility.yul\":3668:3705   */\n          tag_99\n            /* \"#utility.yul\":3699:3704   */\n          dup3\n            /* \"#utility.yul\":3668:3705   */\n          tag_54\n          jump\t// in\n        tag_99:\n            /* \"#utility.yul\":3655:3705   */\n          swap1\n          pop\n            /* \"#utility.yul\":3577:3711   */\n          swap2\n          swap1\n          pop\n          jump\t// out\n            /* \"#utility.yul\":3717:3864   */\n        tag_56:\n            /* \"#utility.yul\":3812:3857   */\n          tag_101\n            /* \"#utility.yul\":3851:3856   */\n          dup2\n            /* \"#utility.yul\":3812:3857   */\n          tag_55\n          jump\t// in\n        tag_101:\n            /* \"#utility.yul\":3807:3810   */\n          dup3\n            /* \"#utility.yul\":3800:3858   */\n          mstore\n            /* \"#utility.yul\":3717:3864   */\n          pop\n          pop\n          jump\t// out\n            /* \"#utility.yul\":3870:4218   */\n        tag_29:\n            /* \"#utility.yul\":3999:4003   */\n          0x00\n            /* \"#utility.yul\":4037:4039   */\n          0x40\n            /* \"#utility.yul\":4026:4035   */\n          dup3\n            /* \"#utility.yul\":4022:4040   */\n          add\n            /* \"#utility.yul\":4014:4040   */\n          swap1\n          pop\n            /* \"#utility.yul\":4050:4129   */\n          tag_103\n            /* \"#utility.yul\":4126:4127   */\n          0x00\n            /* \"#utility.yul\":4115:4124   */\n          dup4\n            /* \"#utility.yul\":4111:4128   */\n          add\n            /* \"#utility.yul\":4102:4108   */\n          dup6\n            /* \"#utility.yul\":4050:4129   */\n          tag_56\n          jump\t// in\n        tag_103:\n            /* \"#utility.yul\":4139:4211   */\n          tag_104\n            /* \"#utility.yul\":4207:4209   */\n          0x20\n            /* \"#utility.yul\":4196:4205   */\n          dup4\n            /* \"#utility.yul\":4192:4210   */\n          add\n            /* \"#utility.yul\":4183:4189   */\n          dup5\n            /* \"#utility.yul\":4139:4211   */\n          tag_48\n          jump\t// in\n        tag_104:\n            /* \"#utility.yul\":3870:4218   */\n          swap4\n          swap3\n          pop\n          pop\n          pop\n          jump\t// out\n\n        auxdata: 0xa264697066735822122012a8104adc02479ed6f02f267401ac3b441b74a5355642902d06a4349bd9f0ff64736f6c63430008130033\n    }\n}\n\nsub_2: assembly {\n        /* \"HistoryManagement.sol\":58:700   */\n      mstore(0x40, 0x80)\n        /* \"HistoryManagement.sol\":140:156   */\n      callvalue\n      dup1\n      iszero\n      tag_1\n      jumpi\n      0x00\n      dup1\n      revert\n    tag_1:\n      pop\n        /* \"HistoryManagement.sol\":58:700   */\n      dataSize(sub_0)\n      dup1\n      dataOffset(sub_0)\n      0x00\n      codecopy\n      0x00\n      return\n    stop\n\n    sub_0: assembly {\n            /* \"HistoryManagement.sol\":58:700   */\n          mstore(0x40, 0x80)\n          callvalue\n          dup1\n          iszero\n          tag_1\n          jumpi\n          0x00\n          dup1\n          revert\n        tag_1:\n          pop\n          jumpi(tag_2, lt(calldatasize, 0x04))\n          shr(0xe0, calldataload(0x00))\n          dup1\n          0x2c5099c3\n          eq\n          tag_3\n          jumpi\n          dup1\n          0x58a290d2\n          eq\n          tag_4\n          jumpi\n          dup1\n          0x80396811\n          eq\n          tag_5\n          jumpi\n          dup1\n          0xc316d9a7\n          eq\n          tag_6\n          jumpi\n        tag_2:\n          0x00\n          dup1\n          revert\n            /* \"HistoryManagement.sol\":91:133   */\n        tag_3:\n          tag_7\n          0x04\n          dup1\n          calldatasize\n          sub\n          dup2\n          add\n          swap1\n          tag_8\n          swap2\n          swap1\n          tag_9\n          jump\t// in\n        tag_8:\n          tag_10\n          jump\t// in\n        tag_7:\n          mload(0x40)\n          tag_11\n          swap2\n          swap1\n          tag_12\n          jump\t// in\n        tag_11:\n          mload(0x40)\n          dup1\n          swap2\n          sub\n          swap1\n          return\n            /* \"HistoryManagement.sol\":427:514   */\n        tag_4:\n          tag_13\n          0x04\n          dup1\n          calldatasize\n          sub\n          dup2\n          add\n          swap1\n          tag_14\n          swap2\n          swap1\n          tag_15\n          jump\t// in\n        tag_14:\n          tag_16\n          jump\t// in\n        tag_13:\n          stop\n            /* \"HistoryManagement.sol\":584:698   */\n        tag_5:\n          tag_17\n          0x04\n          dup1\n          calldatasize\n          sub\n          dup2\n          add\n          swap1\n          tag_18\n          swap2\n          swap1\n          tag_15\n          jump\t// in\n        tag_18:\n          tag_19\n          jump\t// in\n        tag_17:\n          mload(0x40)\n          tag_20\n          swap2\n          swap1\n          tag_21\n          jump\t// in\n        tag_20:\n          mload(0x40)\n          dup1\n          swap2\n          sub\n          swap1\n          return\n            /* \"HistoryManagement.sol\":231:334   */\n        tag_6:\n          tag_22\n          0x04\n          dup1\n          calldatasize\n          sub\n          dup2\n          add\n          swap1\n          tag_23\n          swap2\n          swap1\n          tag_9\n          jump\t// in\n        tag_23:\n          tag_24\n          jump\t// in\n        tag_22:\n          stop\n            /* \"HistoryManagement.sol\":91:133   */\n        tag_10:\n          mstore(0x20, 0x00)\n          dup2\n          0x00\n          mstore\n          keccak256(0x00, 0x40)\n          dup2\n          dup2\n          sload\n          dup2\n          lt\n          tag_25\n          jumpi\n          0x00\n          dup1\n          revert\n        tag_25:\n          swap1\n          0x00\n          mstore\n          keccak256(0x00, 0x20)\n          add\n          0x00\n          swap2\n          pop\n          swap2\n          pop\n          pop\n          sload\n          dup2\n          jump\t// out\n            /* \"HistoryManagement.sol\":427:514   */\n        tag_16:\n            /* \"HistoryManagement.sol\":490:498   */\n          0x00\n            /* \"HistoryManagement.sol\":490:507   */\n          dup1\n            /* \"HistoryManagement.sol\":499:506   */\n          dup3\n            /* \"HistoryManagement.sol\":490:507   */\n          0xffffffffffffffffffffffffffffffffffffffff\n          and\n          0xffffffffffffffffffffffffffffffffffffffff\n          and\n          dup2\n          mstore\n          0x20\n          add\n          swap1\n          dup2\n          mstore\n          0x20\n          add\n          0x00\n          keccak256\n          0x00\n            /* \"HistoryManagement.sol\":483:507   */\n          tag_28\n          swap2\n          swap1\n          tag_29\n          jump\t// in\n        tag_28:\n            /* \"HistoryManagement.sol\":427:514   */\n          pop\n          jump\t// out\n            /* \"HistoryManagement.sol\":584:698   */\n        tag_19:\n            /* \"HistoryManagement.sol\":642:655   */\n          0x60\n            /* \"HistoryManagement.sol\":674:682   */\n          0x00\n            /* \"HistoryManagement.sol\":674:691   */\n          dup1\n            /* \"HistoryManagement.sol\":683:690   */\n          dup4\n            /* \"HistoryManagement.sol\":674:691   */\n          0xffffffffffffffffffffffffffffffffffffffff\n          and\n          0xffffffffffffffffffffffffffffffffffffffff\n          and\n          dup2\n          mstore\n          0x20\n          add\n          swap1\n          dup2\n          mstore\n          0x20\n          add\n          0x00\n          keccak256\n            /* \"HistoryManagement.sol\":667:691   */\n          dup1\n          sload\n          dup1\n          0x20\n          mul\n          0x20\n          add\n          mload(0x40)\n          swap1\n          dup2\n          add\n          0x40\n          mstore\n          dup1\n          swap3\n          swap2\n          swap1\n          dup2\n          dup2\n          mstore\n          0x20\n          add\n          dup3\n          dup1\n          sload\n          dup1\n          iszero\n          tag_31\n          jumpi\n          0x20\n          mul\n          dup3\n          add\n          swap2\n          swap1\n          0x00\n          mstore\n          keccak256(0x00, 0x20)\n          swap1\n        tag_32:\n          dup2\n          sload\n          dup2\n          mstore\n          0x20\n          add\n          swap1\n          0x01\n          add\n          swap1\n          dup1\n          dup4\n          gt\n          tag_32\n          jumpi\n        tag_31:\n          pop\n          pop\n          pop\n          pop\n          pop\n          swap1\n          pop\n            /* \"HistoryManagement.sol\":584:698   */\n          swap2\n          swap1\n          pop\n          jump\t// out\n            /* \"HistoryManagement.sol\":231:334   */\n        tag_24:\n            /* \"HistoryManagement.sol\":297:305   */\n          0x00\n            /* \"HistoryManagement.sol\":297:314   */\n          dup1\n            /* \"HistoryManagement.sol\":306:313   */\n          dup4\n            /* \"HistoryManagement.sol\":297:314   */\n          0xffffffffffffffffffffffffffffffffffffffff\n          and\n          0xffffffffffffffffffffffffffffffffffffffff\n          and\n          dup2\n          mstore\n          0x20\n          add\n          swap1\n          dup2\n          mstore\n          0x20\n          add\n          0x00\n          keccak256\n            /* \"HistoryManagement.sol\":320:326   */\n          dup2\n            /* \"HistoryManagement.sol\":297:327   */\n          swap1\n          dup1\n          0x01\n          dup2\n          sload\n          add\n          dup1\n          dup3\n          sstore\n          dup1\n          swap2\n          pop\n          pop\n          0x01\n          swap1\n          sub\n          swap1\n          0x00\n          mstore\n          keccak256(0x00, 0x20)\n          add\n          0x00\n          swap1\n          swap2\n          swap1\n          swap2\n          swap1\n          swap2\n          pop\n          sstore\n            /* \"HistoryManagement.sol\":231:334   */\n          pop\n          pop\n          jump\t// out\n        tag_29:\n          pop\n          dup1\n          sload\n          0x00\n          dup3\n          sstore\n          swap1\n          0x00\n          mstore\n          keccak256(0x00, 0x20)\n          swap1\n          dup2\n          add\n          swap1\n          tag_36\n          swap2\n          swap1\n          tag_37\n          jump\t// in\n        tag_36:\n          pop\n          jump\t// out\n        tag_37:\n        tag_38:\n          dup1\n          dup3\n          gt\n          iszero\n          tag_39\n          jumpi\n          0x00\n          dup2\n          0x00\n          swap1\n          sstore\n          pop\n          0x01\n          add\n          jump(tag_38)\n        tag_39:\n          pop\n          swap1\n          jump\t// out\n            /* \"#utility.yul\":88:205   */\n        tag_41:\n            /* \"#utility.yul\":197:198   */\n          0x00\n            /* \"#utility.yul\":194:195   */\n          dup1\n            /* \"#utility.yul\":187:199   */\n          revert\n            /* \"#utility.yul\":334:460   */\n        tag_43:\n            /* \"#utility.yul\":371:378   */\n          0x00\n            /* \"#utility.yul\":411:453   */\n          0xffffffffffffffffffffffffffffffffffffffff\n            /* \"#utility.yul\":404:409   */\n          dup3\n            /* \"#utility.yul\":400:454   */\n          and\n            /* \"#utility.yul\":389:454   */\n          swap1\n          pop\n            /* \"#utility.yul\":334:460   */\n          swap2\n          swap1\n          pop\n          jump\t// out\n            /* \"#utility.yul\":466:562   */\n        tag_44:\n            /* \"#utility.yul\":503:510   */\n          0x00\n            /* \"#utility.yul\":532:556   */\n          tag_64\n            /* \"#utility.yul\":550:555   */\n          dup3\n            /* \"#utility.yul\":532:556   */\n          tag_43\n          jump\t// in\n        tag_64:\n            /* \"#utility.yul\":521:556   */\n          swap1\n          pop\n            /* \"#utility.yul\":466:562   */\n          swap2\n          swap1\n          pop\n          jump\t// out\n            /* \"#utility.yul\":568:690   */\n        tag_45:\n            /* \"#utility.yul\":641:665   */\n          tag_66\n            /* \"#utility.yul\":659:664   */\n          dup2\n            /* \"#utility.yul\":641:665   */\n          tag_44\n          jump\t// in\n        tag_66:\n            /* \"#utility.yul\":634:639   */\n          dup2\n            /* \"#utility.yul\":631:666   */\n          eq\n            /* \"#utility.yul\":621:684   */\n          tag_67\n          jumpi\n            /* \"#utility.yul\":680:681   */\n          0x00\n            /* \"#utility.yul\":677:678   */\n          dup1\n            /* \"#utility.yul\":670:682   */\n          revert\n            /* \"#utility.yul\":621:684   */\n        tag_67:\n            /* \"#utility.yul\":568:690   */\n          pop\n          jump\t// out\n            /* \"#utility.yul\":696:835   */\n        tag_46:\n            /* \"#utility.yul\":742:747   */\n          0x00\n            /* \"#utility.yul\":780:786   */\n          dup2\n            /* \"#utility.yul\":767:787   */\n          calldataload\n            /* \"#utility.yul\":758:787   */\n          swap1\n          pop\n            /* \"#utility.yul\":796:829   */\n          tag_69\n            /* \"#utility.yul\":823:828   */\n          dup2\n            /* \"#utility.yul\":796:829   */\n          tag_45\n          jump\t// in\n        tag_69:\n            /* \"#utility.yul\":696:835   */\n          swap3\n          swap2\n          pop\n          pop\n          jump\t// out\n            /* \"#utility.yul\":841:918   */\n        tag_47:\n            /* \"#utility.yul\":878:885   */\n          0x00\n            /* \"#utility.yul\":907:912   */\n          dup2\n            /* \"#utility.yul\":896:912   */\n          swap1\n          pop\n            /* \"#utility.yul\":841:918   */\n          swap2\n          swap1\n          pop\n          jump\t// out\n            /* \"#utility.yul\":924:1046   */\n        tag_48:\n            /* \"#utility.yul\":997:1021   */\n          tag_72\n            /* \"#utility.yul\":1015:1020   */\n          dup2\n            /* \"#utility.yul\":997:1021   */\n          tag_47\n          jump\t// in\n        tag_72:\n            /* \"#utility.yul\":990:995   */\n          dup2\n            /* \"#utility.yul\":987:1022   */\n          eq\n            /* \"#utility.yul\":977:1040   */\n          tag_73\n          jumpi\n            /* \"#utility.yul\":1036:1037   */\n          0x00\n            /* \"#utility.yul\":1033:1034   */\n          dup1\n            /* \"#utility.yul\":1026:1038   */\n          revert\n            /* \"#utility.yul\":977:1040   */\n        tag_73:\n            /* \"#utility.yul\":924:1046   */\n          pop\n          jump\t// out\n            /* \"#utility.yul\":1052:1191   */\n        tag_49:\n            /* \"#utility.yul\":1098:1103   */\n          0x00\n            /* \"#utility.yul\":1136:1142   */\n          dup2\n            /* \"#utility.yul\":1123:1143   */\n          calldataload\n            /* \"#utility.yul\":1114:1143   */\n          swap1\n          pop\n            /* \"#utility.yul\":1152:1185   */\n          tag_75\n            /* \"#utility.yul\":1179:1184   */\n          dup2\n            /* \"#utility.yul\":1152:1185   */\n          tag_48\n          jump\t// in\n        tag_75:\n            /* \"#utility.yul\":1052:1191   */\n          swap3\n          swap2\n          pop\n          pop\n          jump\t// out\n            /* \"#utility.yul\":1197:1671   */\n        tag_9:\n            /* \"#utility.yul\":1265:1271   */\n          0x00\n            /* \"#utility.yul\":1273:1279   */\n          dup1\n            /* \"#utility.yul\":1322:1324   */\n          0x40\n            /* \"#utility.yul\":1310:1319   */\n          dup4\n            /* \"#utility.yul\":1301:1308   */\n          dup6\n            /* \"#utility.yul\":1297:1320   */\n          sub\n            /* \"#utility.yul\":1293:1325   */\n          slt\n            /* \"#utility.yul\":1290:1409   */\n          iszero\n          tag_77\n          jumpi\n            /* \"#utility.yul\":1328:1407   */\n          tag_78\n          tag_41\n          jump\t// in\n        tag_78:\n            /* \"#utility.yul\":1290:1409   */\n        tag_77:\n            /* \"#utility.yul\":1448:1449   */\n          0x00\n            /* \"#utility.yul\":1473:1526   */\n          tag_79\n            /* \"#utility.yul\":1518:1525   */\n          dup6\n            /* \"#utility.yul\":1509:1515   */\n          dup3\n            /* \"#utility.yul\":1498:1507   */\n          dup7\n            /* \"#utility.yul\":1494:1516   */\n          add\n            /* \"#utility.yul\":1473:1526   */\n          tag_46\n          jump\t// in\n        tag_79:\n            /* \"#utility.yul\":1463:1526   */\n          swap3\n          pop\n            /* \"#utility.yul\":1419:1536   */\n          pop\n            /* \"#utility.yul\":1575:1577   */\n          0x20\n            /* \"#utility.yul\":1601:1654   */\n          tag_80\n            /* \"#utility.yul\":1646:1653   */\n          dup6\n            /* \"#utility.yul\":1637:1643   */\n          dup3\n            /* \"#utility.yul\":1626:1635   */\n          dup7\n            /* \"#utility.yul\":1622:1644   */\n          add\n            /* \"#utility.yul\":1601:1654   */\n          tag_49\n          jump\t// in\n        tag_80:\n            /* \"#utility.yul\":1591:1654   */\n          swap2\n          pop\n            /* \"#utility.yul\":1546:1664   */\n          pop\n            /* \"#utility.yul\":1197:1671   */\n          swap3\n          pop\n          swap3\n          swap1\n          pop\n          jump\t// out\n            /* \"#utility.yul\":1677:1795   */\n        tag_50:\n            /* \"#utility.yul\":1764:1788   */\n          tag_82\n            /* \"#utility.yul\":1782:1787   */\n          dup2\n            /* \"#utility.yul\":1764:1788   */\n          tag_47\n          jump\t// in\n        tag_82:\n            /* \"#utility.yul\":1759:1762   */\n          dup3\n            /* \"#utility.yul\":1752:1789   */\n          mstore\n            /* \"#utility.yul\":1677:1795   */\n          pop\n          pop\n          jump\t// out\n            /* \"#utility.yul\":1801:2023   */\n        tag_12:\n            /* \"#utility.yul\":1894:1898   */\n          0x00\n            /* \"#utility.yul\":1932:1934   */\n          0x20\n            /* \"#utility.yul\":1921:1930   */\n          dup3\n            /* \"#utility.yul\":1917:1935   */\n          add\n            /* \"#utility.yul\":1909:1935   */\n          swap1\n          pop\n            /* \"#utility.yul\":1945:2016   */\n          tag_84\n            /* \"#utility.yul\":2013:2014   */\n          0x00\n            /* \"#utility.yul\":2002:2011   */\n          dup4\n            /* \"#utility.yul\":1998:2015   */\n          add\n            /* \"#utility.yul\":1989:1995   */\n          dup5\n            /* \"#utility.yul\":1945:2016   */\n          tag_50\n          jump\t// in\n        tag_84:\n            /* \"#utility.yul\":1801:2023   */\n          swap3\n          swap2\n          pop\n          pop\n          jump\t// out\n            /* \"#utility.yul\":2029:2358   */\n        tag_15:\n            /* \"#utility.yul\":2088:2094   */\n          0x00\n            /* \"#utility.yul\":2137:2139   */\n          0x20\n            /* \"#utility.yul\":2125:2134   */\n          dup3\n            /* \"#utility.yul\":2116:2123   */\n          dup5\n            /* \"#utility.yul\":2112:2135   */\n          sub\n            /* \"#utility.yul\":2108:2140   */\n          slt\n            /* \"#utility.yul\":2105:2224   */\n          iszero\n          tag_86\n          jumpi\n            /* \"#utility.yul\":2143:2222   */\n          tag_87\n          tag_41\n          jump\t// in\n        tag_87:\n            /* \"#utility.yul\":2105:2224   */\n        tag_86:\n            /* \"#utility.yul\":2263:2264   */\n          0x00\n            /* \"#utility.yul\":2288:2341   */\n          tag_88\n            /* \"#utility.yul\":2333:2340   */\n          dup5\n            /* \"#utility.yul\":2324:2330   */\n          dup3\n            /* \"#utility.yul\":2313:2322   */\n          dup6\n            /* \"#utility.yul\":2309:2331   */\n          add\n            /* \"#utility.yul\":2288:2341   */\n          tag_46\n          jump\t// in\n        tag_88:\n            /* \"#utility.yul\":2278:2341   */\n          swap2\n          pop\n            /* \"#utility.yul\":2234:2351   */\n          pop\n            /* \"#utility.yul\":2029:2358   */\n          swap3\n          swap2\n          pop\n          pop\n          jump\t// out\n            /* \"#utility.yul\":2364:2478   */\n        tag_51:\n            /* \"#utility.yul\":2431:2437   */\n          0x00\n            /* \"#utility.yul\":2465:2470   */\n          dup2\n            /* \"#utility.yul\":2459:2471   */\n          mload\n            /* \"#utility.yul\":2449:2471   */\n          swap1\n          pop\n            /* \"#utility.yul\":2364:2478   */\n          swap2\n          swap1\n          pop\n          jump\t// out\n            /* \"#utility.yul\":2484:2668   */\n        tag_52:\n            /* \"#utility.yul\":2583:2594   */\n          0x00\n            /* \"#utility.yul\":2617:2623   */\n          dup3\n            /* \"#utility.yul\":2612:2615   */\n          dup3\n            /* \"#utility.yul\":2605:2624   */\n          mstore\n            /* \"#utility.yul\":2657:2661   */\n          0x20\n            /* \"#utility.yul\":2652:2655   */\n          dup3\n            /* \"#utility.yul\":2648:2662   */\n          add\n            /* \"#utility.yul\":2633:2662   */\n          swap1\n          pop\n            /* \"#utility.yul\":2484:2668   */\n          swap3\n          swap2\n          pop\n          pop\n          jump\t// out\n            /* \"#utility.yul\":2674:2806   */\n        tag_53:\n            /* \"#utility.yul\":2741:2745   */\n          0x00\n            /* \"#utility.yul\":2764:2767   */\n          dup2\n            /* \"#utility.yul\":2756:2767   */\n          swap1\n          pop\n            /* \"#utility.yul\":2794:2798   */\n          0x20\n            /* \"#utility.yul\":2789:2792   */\n          dup3\n            /* \"#utility.yul\":2785:2799   */\n          add\n            /* \"#utility.yul\":2777:2799   */\n          swap1\n          pop\n            /* \"#utility.yul\":2674:2806   */\n          swap2\n          swap1\n          pop\n          jump\t// out\n            /* \"#utility.yul\":2812:2920   */\n        tag_54:\n            /* \"#utility.yul\":2889:2913   */\n          tag_93\n            /* \"#utility.yul\":2907:2912   */\n          dup2\n            /* \"#utility.yul\":2889:2913   */\n          tag_47\n          jump\t// in\n        tag_93:\n            /* \"#utility.yul\":2884:2887   */\n          dup3\n            /* \"#utility.yul\":2877:2914   */\n          mstore\n            /* \"#utility.yul\":2812:2920   */\n          pop\n          pop\n          jump\t// out\n            /* \"#utility.yul\":2926:3105   */\n        tag_55:\n            /* \"#utility.yul\":2995:3005   */\n          0x00\n            /* \"#utility.yul\":3016:3062   */\n          tag_95\n            /* \"#utility.yul\":3058:3061   */\n          dup4\n            /* \"#utility.yul\":3050:3056   */\n          dup4\n            /* \"#utility.yul\":3016:3062   */\n          tag_54\n          jump\t// in\n        tag_95:\n            /* \"#utility.yul\":3094:3098   */\n          0x20\n            /* \"#utility.yul\":3089:3092   */\n          dup4\n            /* \"#utility.yul\":3085:3099   */\n          add\n            /* \"#utility.yul\":3071:3099   */\n          swap1\n          pop\n            /* \"#utility.yul\":2926:3105   */\n          swap3\n          swap2\n          pop\n          pop\n          jump\t// out\n            /* \"#utility.yul\":3111:3224   */\n        tag_56:\n            /* \"#utility.yul\":3181:3185   */\n          0x00\n            /* \"#utility.yul\":3213:3217   */\n          0x20\n            /* \"#utility.yul\":3208:3211   */\n          dup3\n            /* \"#utility.yul\":3204:3218   */\n          add\n            /* \"#utility.yul\":3196:3218   */\n          swap1\n          pop\n            /* \"#utility.yul\":3111:3224   */\n          swap2\n          swap1\n          pop\n          jump\t// out\n            /* \"#utility.yul\":3260:3992   */\n        tag_57:\n            /* \"#utility.yul\":3379:3382   */\n          0x00\n            /* \"#utility.yul\":3408:3462   */\n          tag_98\n            /* \"#utility.yul\":3456:3461   */\n          dup3\n            /* \"#utility.yul\":3408:3462   */\n          tag_51\n          jump\t// in\n        tag_98:\n            /* \"#utility.yul\":3478:3564   */\n          tag_99\n            /* \"#utility.yul\":3557:3563   */\n          dup2\n            /* \"#utility.yul\":3552:3555   */\n          dup6\n            /* \"#utility.yul\":3478:3564   */\n          tag_52\n          jump\t// in\n        tag_99:\n            /* \"#utility.yul\":3471:3564   */\n          swap4\n          pop\n            /* \"#utility.yul\":3588:3644   */\n          tag_100\n            /* \"#utility.yul\":3638:3643   */\n          dup4\n            /* \"#utility.yul\":3588:3644   */\n          tag_53\n          jump\t// in\n        tag_100:\n            /* \"#utility.yul\":3667:3674   */\n          dup1\n            /* \"#utility.yul\":3698:3699   */\n          0x00\n            /* \"#utility.yul\":3683:3967   */\n        tag_101:\n            /* \"#utility.yul\":3708:3714   */\n          dup4\n            /* \"#utility.yul\":3705:3706   */\n          dup2\n            /* \"#utility.yul\":3702:3715   */\n          lt\n            /* \"#utility.yul\":3683:3967   */\n          iszero\n          tag_103\n          jumpi\n            /* \"#utility.yul\":3784:3790   */\n          dup2\n            /* \"#utility.yul\":3778:3791   */\n          mload\n            /* \"#utility.yul\":3811:3874   */\n          tag_104\n            /* \"#utility.yul\":3870:3873   */\n          dup9\n            /* \"#utility.yul\":3855:3868   */\n          dup3\n            /* \"#utility.yul\":3811:3874   */\n          tag_55\n          jump\t// in\n        tag_104:\n            /* \"#utility.yul\":3804:3874   */\n          swap8\n          pop\n            /* \"#utility.yul\":3897:3957   */\n          tag_105\n            /* \"#utility.yul\":3950:3956   */\n          dup4\n            /* \"#utility.yul\":3897:3957   */\n          tag_56\n          jump\t// in\n        tag_105:\n            /* \"#utility.yul\":3887:3957   */\n          swap3\n          pop\n            /* \"#utility.yul\":3743:3967   */\n          pop\n            /* \"#utility.yul\":3730:3731   */\n          0x01\n            /* \"#utility.yul\":3727:3728   */\n          dup2\n            /* \"#utility.yul\":3723:3732   */\n          add\n            /* \"#utility.yul\":3718:3732   */\n          swap1\n          pop\n            /* \"#utility.yul\":3683:3967   */\n          jump(tag_101)\n        tag_103:\n            /* \"#utility.yul\":3687:3701   */\n          pop\n            /* \"#utility.yul\":3983:3986   */\n          dup6\n            /* \"#utility.yul\":3976:3986   */\n          swap4\n          pop\n            /* \"#utility.yul\":3384:3992   */\n          pop\n          pop\n          pop\n            /* \"#utility.yul\":3260:3992   */\n          swap3\n          swap2\n          pop\n          pop\n          jump\t// out\n            /* \"#utility.yul\":3998:4371   */\n        tag_21:\n            /* \"#utility.yul\":4141:4145   */\n          0x00\n            /* \"#utility.yul\":4179:4181   */\n          0x20\n            /* \"#utility.yul\":4168:4177   */\n          dup3\n            /* \"#utility.yul\":4164:4182   */\n          add\n            /* \"#utility.yul\":4156:4182   */\n          swap1\n          pop\n            /* \"#utility.yul\":4228:4237   */\n          dup2\n            /* \"#utility.yul\":4222:4226   */\n          dup2\n            /* \"#utility.yul\":4218:4238   */\n          sub\n            /* \"#utility.yul\":4214:4215   */\n          0x00\n            /* \"#utility.yul\":4203:4212   */\n          dup4\n            /* \"#utility.yul\":4199:4216   */\n          add\n            /* \"#utility.yul\":4192:4239   */\n          mstore\n            /* \"#utility.yul\":4256:4364   */\n          tag_107\n            /* \"#utility.yul\":4359:4363   */\n          dup2\n            /* \"#utility.yul\":4350:4356   */\n          dup5\n            /* \"#utility.yul\":4256:4364   */\n          tag_57\n          jump\t// in\n        tag_107:\n            /* \"#utility.yul\":4248:4364   */\n          swap1\n          pop\n            /* \"#utility.yul\":3998:4371   */\n          swap3\n          swap2\n          pop\n          pop\n          jump\t// out\n\n        auxdata: 0xa264697066735822122042b0116aded54a2da761cad70a0c89879a44ff81f05f1561434ccce84b00aeee64736f6c63430008130033\n    }\n}\n\nsub_3: assembly {\n        /* \"EmployeeManagement.sol\":126:3421   */\n      mstore(0x40, 0x80)\n        /* \"EmployeeManagement.sol\":243:434   */\n      callvalue\n      dup1\n      iszero\n      tag_1\n      jumpi\n      0x00\n      dup1\n      revert\n    tag_1:\n      pop\n      mload(0x40)\n      sub(codesize, bytecodeSize)\n      dup1\n      bytecodeSize\n      dup4\n      codecopy\n      dup2\n      dup2\n      add\n      0x40\n      mstore\n      dup2\n      add\n      swap1\n      tag_2\n      swap2\n      swap1\n      tag_3\n      jump\t// in\n    tag_2:\n        /* \"EmployeeManagement.sol\":361:379   */\n      dup2\n        /* \"EmployeeManagement.sol\":341:358   */\n      0x00\n      dup1\n        /* \"EmployeeManagement.sol\":341:379   */\n      0x0100\n      exp\n      dup2\n      sload\n      dup2\n      0xffffffffffffffffffffffffffffffffffffffff\n      mul\n      not\n      and\n      swap1\n      dup4\n      0xffffffffffffffffffffffffffffffffffffffff\n      and\n      mul\n      or\n      swap1\n      sstore\n      pop\n        /* \"EmployeeManagement.sol\":409:427   */\n      dup1\n        /* \"EmployeeManagement.sol\":389:406   */\n      0x01\n      0x00\n        /* \"EmployeeManagement.sol\":389:427   */\n      0x0100\n      exp\n      dup2\n      sload\n      dup2\n      0xffffffffffffffffffffffffffffffffffffffff\n      mul\n      not\n      and\n      swap1\n      dup4\n      0xffffffffffffffffffffffffffffffffffffffff\n      and\n      mul\n      or\n      swap1\n      sstore\n      pop\n        /* \"EmployeeManagement.sol\":243:434   */\n      pop\n      pop\n        /* \"EmployeeManagement.sol\":126:3421   */\n      jump(tag_6)\n        /* \"#utility.yul\":88:205   */\n    tag_8:\n        /* \"#utility.yul\":197:198   */\n      0x00\n        /* \"#utility.yul\":194:195   */\n      dup1\n        /* \"#utility.yul\":187:199   */\n      revert\n        /* \"#utility.yul\":334:460   */\n    tag_10:\n        /* \"#utility.yul\":371:378   */\n      0x00\n        /* \"#utility.yul\":411:453   */\n      0xffffffffffffffffffffffffffffffffffffffff\n        /* \"#utility.yul\":404:409   */\n      dup3\n        /* \"#utility.yul\":400:454   */\n      and\n        /* \"#utility.yul\":389:454   */\n      swap1\n      pop\n        /* \"#utility.yul\":334:460   */\n      swap2\n      swap1\n      pop\n      jump\t// out\n        /* \"#utility.yul\":466:562   */\n    tag_11:\n        /* \"#utility.yul\":503:510   */\n      0x00\n        /* \"#utility.yul\":532:556   */\n      tag_24\n        /* \"#utility.yul\":550:555   */\n      dup3\n        /* \"#utility.yul\":532:556   */\n      tag_10\n      jump\t// in\n    tag_24:\n        /* \"#utility.yul\":521:556   */\n      swap1\n      pop\n        /* \"#utility.yul\":466:562   */\n      swap2\n      swap1\n      pop\n      jump\t// out\n        /* \"#utility.yul\":568:689   */\n    tag_12:\n        /* \"#utility.yul\":630:637   */\n      0x00\n        /* \"#utility.yul\":659:683   */\n      tag_26\n        /* \"#utility.yul\":677:682   */\n      dup3\n        /* \"#utility.yul\":659:683   */\n      tag_11\n      jump\t// in\n    tag_26:\n        /* \"#utility.yul\":648:683   */\n      swap1\n      pop\n        /* \"#utility.yul\":568:689   */\n      swap2\n      swap1\n      pop\n      jump\t// out\n        /* \"#utility.yul\":695:867   */\n    tag_13:\n        /* \"#utility.yul\":793:842   */\n      tag_28\n        /* \"#utility.yul\":836:841   */\n      dup2\n        /* \"#utility.yul\":793:842   */\n      tag_12\n      jump\t// in\n    tag_28:\n        /* \"#utility.yul\":786:791   */\n      dup2\n        /* \"#utility.yul\":783:843   */\n      eq\n        /* \"#utility.yul\":773:861   */\n      tag_29\n      jumpi\n        /* \"#utility.yul\":857:858   */\n      0x00\n        /* \"#utility.yul\":854:855   */\n      dup1\n        /* \"#utility.yul\":847:859   */\n      revert\n        /* \"#utility.yul\":773:861   */\n    tag_29:\n        /* \"#utility.yul\":695:867   */\n      pop\n      jump\t// out\n        /* \"#utility.yul\":873:1066   */\n    tag_14:\n        /* \"#utility.yul\":955:960   */\n      0x00\n        /* \"#utility.yul\":986:992   */\n      dup2\n        /* \"#utility.yul\":980:993   */\n      mload\n        /* \"#utility.yul\":971:993   */\n      swap1\n      pop\n        /* \"#utility.yul\":1002:1060   */\n      tag_31\n        /* \"#utility.yul\":1054:1059   */\n      dup2\n        /* \"#utility.yul\":1002:1060   */\n      tag_13\n      jump\t// in\n    tag_31:\n        /* \"#utility.yul\":873:1066   */\n      swap3\n      swap2\n      pop\n      pop\n      jump\t// out\n        /* \"#utility.yul\":1072:1193   */\n    tag_15:\n        /* \"#utility.yul\":1134:1141   */\n      0x00\n        /* \"#utility.yul\":1163:1187   */\n      tag_33\n        /* \"#utility.yul\":1181:1186   */\n      dup3\n        /* \"#utility.yul\":1163:1187   */\n      tag_11\n      jump\t// in\n    tag_33:\n        /* \"#utility.yul\":1152:1187   */\n      swap1\n      pop\n        /* \"#utility.yul\":1072:1193   */\n      swap2\n      swap1\n      pop\n      jump\t// out\n        /* \"#utility.yul\":1199:1371   */\n    tag_16:\n        /* \"#utility.yul\":1297:1346   */\n      tag_35\n        /* \"#utility.yul\":1340:1345   */\n      dup2\n        /* \"#utility.yul\":1297:1346   */\n      tag_15\n      jump\t// in\n    tag_35:\n        /* \"#utility.yul\":1290:1295   */\n      dup2\n        /* \"#utility.yul\":1287:1347   */\n      eq\n        /* \"#utility.yul\":1277:1365   */\n      tag_36\n      jumpi\n        /* \"#utility.yul\":1361:1362   */\n      0x00\n        /* \"#utility.yul\":1358:1359   */\n      dup1\n        /* \"#utility.yul\":1351:1363   */\n      revert\n        /* \"#utility.yul\":1277:1365   */\n    tag_36:\n        /* \"#utility.yul\":1199:1371   */\n      pop\n      jump\t// out\n        /* \"#utility.yul\":1377:1570   */\n    tag_17:\n        /* \"#utility.yul\":1459:1464   */\n      0x00\n        /* \"#utility.yul\":1490:1496   */\n      dup2\n        /* \"#utility.yul\":1484:1497   */\n      mload\n        /* \"#utility.yul\":1475:1497   */\n      swap1\n      pop\n        /* \"#utility.yul\":1506:1564   */\n      tag_38\n        /* \"#utility.yul\":1558:1563   */\n      dup2\n        /* \"#utility.yul\":1506:1564   */\n      tag_16\n      jump\t// in\n    tag_38:\n        /* \"#utility.yul\":1377:1570   */\n      swap3\n      swap2\n      pop\n      pop\n      jump\t// out\n        /* \"#utility.yul\":1576:2183   */\n    tag_3:\n        /* \"#utility.yul\":1705:1711   */\n      0x00\n        /* \"#utility.yul\":1713:1719   */\n      dup1\n        /* \"#utility.yul\":1762:1764   */\n      0x40\n        /* \"#utility.yul\":1750:1759   */\n      dup4\n        /* \"#utility.yul\":1741:1748   */\n      dup6\n        /* \"#utility.yul\":1737:1760   */\n      sub\n        /* \"#utility.yul\":1733:1765   */\n      slt\n        /* \"#utility.yul\":1730:1849   */\n      iszero\n      tag_40\n      jumpi\n        /* \"#utility.yul\":1768:1847   */\n      tag_41\n      tag_8\n      jump\t// in\n    tag_41:\n        /* \"#utility.yul\":1730:1849   */\n    tag_40:\n        /* \"#utility.yul\":1888:1889   */\n      0x00\n        /* \"#utility.yul\":1913:2002   */\n      tag_42\n        /* \"#utility.yul\":1994:2001   */\n      dup6\n        /* \"#utility.yul\":1985:1991   */\n      dup3\n        /* \"#utility.yul\":1974:1983   */\n      dup7\n        /* \"#utility.yul\":1970:1992   */\n      add\n        /* \"#utility.yul\":1913:2002   */\n      tag_14\n      jump\t// in\n    tag_42:\n        /* \"#utility.yul\":1903:2002   */\n      swap3\n      pop\n        /* \"#utility.yul\":1859:2012   */\n      pop\n        /* \"#utility.yul\":2051:2053   */\n      0x20\n        /* \"#utility.yul\":2077:2166   */\n      tag_43\n        /* \"#utility.yul\":2158:2165   */\n      dup6\n        /* \"#utility.yul\":2149:2155   */\n      dup3\n        /* \"#utility.yul\":2138:2147   */\n      dup7\n        /* \"#utility.yul\":2134:2156   */\n      add\n        /* \"#utility.yul\":2077:2166   */\n      tag_17\n      jump\t// in\n    tag_43:\n        /* \"#utility.yul\":2067:2166   */\n      swap2\n      pop\n        /* \"#utility.yul\":2022:2176   */\n      pop\n        /* \"#utility.yul\":1576:2183   */\n      swap3\n      pop\n      swap3\n      swap1\n      pop\n      jump\t// out\n        /* \"EmployeeManagement.sol\":126:3421   */\n    tag_6:\n      dataSize(sub_0)\n      dup1\n      dataOffset(sub_0)\n      0x00\n      codecopy\n      0x00\n      return\n    stop\n\n    sub_0: assembly {\n            /* \"EmployeeManagement.sol\":126:3421   */\n          mstore(0x40, 0x80)\n          callvalue\n          dup1\n          iszero\n          tag_1\n          jumpi\n          0x00\n          dup1\n          revert\n        tag_1:\n          pop\n          jumpi(tag_2, lt(calldatasize, 0x04))\n          shr(0xe0, calldataload(0x00))\n          dup1\n          0xbe0e0da4\n          gt\n          tag_11\n          jumpi\n          dup1\n          0xbe0e0da4\n          eq\n          tag_7\n          jumpi\n          dup1\n          0xd0678947\n          eq\n          tag_8\n          jumpi\n          dup1\n          0xd108177a\n          eq\n          tag_9\n          jumpi\n          dup1\n          0xdf47a353\n          eq\n          tag_10\n          jumpi\n          jump(tag_2)\n        tag_11:\n          dup1\n          0x1caafcf1\n          eq\n          tag_3\n          jumpi\n          dup1\n          0x4a4247d9\n          eq\n          tag_4\n          jumpi\n          dup1\n          0x809e9ef5\n          eq\n          tag_5\n          jumpi\n          dup1\n          0xa84cffd9\n          eq\n          tag_6\n          jumpi\n        tag_2:\n          0x00\n          dup1\n          revert\n            /* \"EmployeeManagement.sol\":2097:2323   */\n        tag_3:\n          tag_12\n          0x04\n          dup1\n          calldatasize\n          sub\n          dup2\n          add\n          swap1\n          tag_13\n          swap2\n          swap1\n          tag_14\n          jump\t// in\n        tag_13:\n          tag_15\n          jump\t// in\n        tag_12:\n          mload(0x40)\n          tag_16\n          swap5\n          swap4\n          swap3\n          swap2\n          swap1\n          tag_17\n          jump\t// in\n        tag_16:\n          mload(0x40)\n          dup1\n          swap2\n          sub\n          swap1\n          return\n            /* \"EmployeeManagement.sol\":799:1066   */\n        tag_4:\n          tag_18\n          0x04\n          dup1\n          calldatasize\n          sub\n          dup2\n          add\n          swap1\n          tag_19\n          swap2\n          swap1\n          tag_20\n          jump\t// in\n        tag_19:\n          tag_21\n          jump\t// in\n        tag_18:\n          stop\n            /* \"EmployeeManagement.sol\":2924:3419   */\n        tag_5:\n          tag_22\n          tag_23\n          jump\t// in\n        tag_22:\n          stop\n            /* \"EmployeeManagement.sol\":2558:2918   */\n        tag_6:\n          tag_24\n          tag_25\n          jump\t// in\n        tag_24:\n          mload(0x40)\n          tag_26\n          swap2\n          swap1\n          tag_27\n          jump\t// in\n        tag_26:\n          mload(0x40)\n          dup1\n          swap2\n          sub\n          swap1\n          return\n            /* \"EmployeeManagement.sol\":626:658   */\n        tag_7:\n          tag_28\n          0x04\n          dup1\n          calldatasize\n          sub\n          dup2\n          add\n          swap1\n          tag_29\n          swap2\n          swap1\n          tag_30\n          jump\t// in\n        tag_29:\n          tag_31\n          jump\t// in\n        tag_28:\n          mload(0x40)\n          tag_32\n          swap2\n          swap1\n          tag_33\n          jump\t// in\n        tag_32:\n          mload(0x40)\n          dup1\n          swap2\n          sub\n          swap1\n          return\n            /* \"EmployeeManagement.sol\":575:620   */\n        tag_8:\n          tag_34\n          0x04\n          dup1\n          calldatasize\n          sub\n          dup2\n          add\n          swap1\n          tag_35\n          swap2\n          swap1\n          tag_14\n          jump\t// in\n        tag_35:\n          tag_36\n          jump\t// in\n        tag_34:\n          mload(0x40)\n          tag_37\n          swap5\n          swap4\n          swap3\n          swap2\n          swap1\n          tag_38\n          jump\t// in\n        tag_37:\n          mload(0x40)\n          dup1\n          swap2\n          sub\n          swap1\n          return\n            /* \"EmployeeManagement.sol\":1072:1467   */\n        tag_9:\n          tag_39\n          0x04\n          dup1\n          calldatasize\n          sub\n          dup2\n          add\n          swap1\n          tag_40\n          swap2\n          swap1\n          tag_14\n          jump\t// in\n        tag_40:\n          tag_41\n          jump\t// in\n        tag_39:\n          stop\n            /* \"EmployeeManagement.sol\":1752:2091   */\n        tag_10:\n          tag_42\n          0x04\n          dup1\n          calldatasize\n          sub\n          dup2\n          add\n          swap1\n          tag_43\n          swap2\n          swap1\n          tag_44\n          jump\t// in\n        tag_43:\n          tag_45\n          jump\t// in\n        tag_42:\n          stop\n            /* \"EmployeeManagement.sol\":2097:2323   */\n        tag_15:\n            /* \"EmployeeManagement.sol\":2163:2170   */\n          0x00\n            /* \"EmployeeManagement.sol\":2172:2176   */\n          dup1\n            /* \"EmployeeManagement.sol\":2178:2182   */\n          0x00\n            /* \"EmployeeManagement.sol\":2184:2188   */\n          dup1\n            /* \"EmployeeManagement.sol\":2200:2219   */\n          0x00\n            /* \"EmployeeManagement.sol\":2222:2231   */\n          0x02\n            /* \"EmployeeManagement.sol\":2222:2240   */\n          0x00\n            /* \"EmployeeManagement.sol\":2232:2239   */\n          dup8\n            /* \"EmployeeManagement.sol\":2222:2240   */\n          0xffffffffffffffffffffffffffffffffffffffff\n          and\n          0xffffffffffffffffffffffffffffffffffffffff\n          and\n          dup2\n          mstore\n          0x20\n          add\n          swap1\n          dup2\n          mstore\n          0x20\n          add\n          0x00\n          keccak256\n            /* \"EmployeeManagement.sol\":2200:2240   */\n          mload(0x40)\n          dup1\n          0x80\n          add\n          0x40\n          mstore\n          swap1\n          dup2\n          0x00\n          dup3\n          add\n          0x00\n          swap1\n          sload\n          swap1\n          0x0100\n          exp\n          swap1\n          div\n          0xffffffffffffffffffffffffffffffffffffffff\n          and\n          0xffffffffffffffffffffffffffffffffffffffff\n          and\n          0xffffffffffffffffffffffffffffffffffffffff\n          and\n          dup2\n          mstore\n          0x20\n          add\n          0x01\n          dup3\n          add\n          sload\n          dup2\n          mstore\n          0x20\n          add\n          0x02\n          dup3\n          add\n          sload\n          dup2\n          mstore\n          0x20\n          add\n          0x03\n          dup3\n          add\n          sload\n          dup2\n          mstore\n          pop\n          pop\n          swap1\n          pop\n            /* \"EmployeeManagement.sol\":2258:2261   */\n          dup1\n            /* \"EmployeeManagement.sol\":2258:2269   */\n          0x00\n          add\n          mload\n            /* \"EmployeeManagement.sol\":2271:2274   */\n          dup2\n            /* \"EmployeeManagement.sol\":2271:2281   */\n          0x20\n          add\n          mload\n            /* \"EmployeeManagement.sol\":2283:2286   */\n          dup3\n            /* \"EmployeeManagement.sol\":2283:2299   */\n          0x40\n          add\n          mload\n            /* \"EmployeeManagement.sol\":2301:2304   */\n          dup4\n            /* \"EmployeeManagement.sol\":2301:2315   */\n          0x60\n          add\n          mload\n            /* \"EmployeeManagement.sol\":2250:2316   */\n          swap5\n          pop\n          swap5\n          pop\n          swap5\n          pop\n          swap5\n          pop\n          pop\n            /* \"EmployeeManagement.sol\":2097:2323   */\n          swap2\n          swap4\n          pop\n          swap2\n          swap4\n          jump\t// out\n            /* \"EmployeeManagement.sol\":799:1066   */\n        tag_21:\n            /* \"EmployeeManagement.sol\":932:983   */\n          mload(0x40)\n          dup1\n          0x80\n          add\n          0x40\n          mstore\n          dup1\n            /* \"EmployeeManagement.sol\":941:948   */\n          dup6\n            /* \"EmployeeManagement.sol\":932:983   */\n          0xffffffffffffffffffffffffffffffffffffffff\n          and\n          dup2\n          mstore\n          0x20\n          add\n            /* \"EmployeeManagement.sol\":950:956   */\n          dup5\n            /* \"EmployeeManagement.sol\":932:983   */\n          dup2\n          mstore\n          0x20\n          add\n            /* \"EmployeeManagement.sol\":958:970   */\n          dup4\n            /* \"EmployeeManagement.sol\":932:983   */\n          dup2\n          mstore\n          0x20\n          add\n            /* \"EmployeeManagement.sol\":972:982   */\n          dup3\n            /* \"EmployeeManagement.sol\":932:983   */\n          dup2\n          mstore\n          pop\n            /* \"EmployeeManagement.sol\":911:920   */\n          0x02\n            /* \"EmployeeManagement.sol\":911:929   */\n          0x00\n            /* \"EmployeeManagement.sol\":921:928   */\n          dup7\n            /* \"EmployeeManagement.sol\":911:929   */\n          0xffffffffffffffffffffffffffffffffffffffff\n          and\n          0xffffffffffffffffffffffffffffffffffffffff\n          and\n          dup2\n          mstore\n          0x20\n          add\n          swap1\n          dup2\n          mstore\n          0x20\n          add\n          0x00\n          keccak256\n            /* \"EmployeeManagement.sol\":911:983   */\n          0x00\n          dup3\n          add\n          mload\n          dup2\n          0x00\n          add\n          exp(0x0100, 0x00)\n          dup2\n          sload\n          dup2\n          0xffffffffffffffffffffffffffffffffffffffff\n          mul\n          not\n          and\n          swap1\n          dup4\n          0xffffffffffffffffffffffffffffffffffffffff\n          and\n          mul\n          or\n          swap1\n          sstore\n          pop\n          0x20\n          dup3\n          add\n          mload\n          dup2\n          0x01\n          add\n          sstore\n          0x40\n          dup3\n          add\n          mload\n          dup2\n          0x02\n          add\n          sstore\n          0x60\n          dup3\n          add\n          mload\n          dup2\n          0x03\n          add\n          sstore\n          swap1\n          pop\n          pop\n            /* \"EmployeeManagement.sol\":993:1008   */\n          0x03\n            /* \"EmployeeManagement.sol\":1014:1021   */\n          dup5\n            /* \"EmployeeManagement.sol\":993:1022   */\n          swap1\n          dup1\n          0x01\n          dup2\n          sload\n          add\n          dup1\n          dup3\n          sstore\n          dup1\n          swap2\n          pop\n          pop\n          0x01\n          swap1\n          sub\n          swap1\n          0x00\n          mstore\n          keccak256(0x00, 0x20)\n          add\n          0x00\n          swap1\n          swap2\n          swap1\n          swap2\n          swap1\n          swap2\n          0x0100\n          exp\n          dup2\n          sload\n          dup2\n          0xffffffffffffffffffffffffffffffffffffffff\n          mul\n          not\n          and\n          swap1\n          dup4\n          0xffffffffffffffffffffffffffffffffffffffff\n          and\n          mul\n          or\n          swap1\n          sstore\n          pop\n            /* \"EmployeeManagement.sol\":1037:1059   */\n          0x041109cfe10cfa549abb66b986d0a294ecc6c9ad39000abcb9c2afd422c8bd64\n            /* \"EmployeeManagement.sol\":1051:1058   */\n          dup5\n            /* \"EmployeeManagement.sol\":1037:1059   */\n          mload(0x40)\n          tag_49\n          swap2\n          swap1\n          tag_50\n          jump\t// in\n        tag_49:\n          mload(0x40)\n          dup1\n          swap2\n          sub\n          swap1\n          log1\n            /* \"EmployeeManagement.sol\":799:1066   */\n          pop\n          pop\n          pop\n          pop\n          jump\t// out\n            /* \"EmployeeManagement.sol\":2924:3419   */\n        tag_23:\n            /* \"EmployeeManagement.sol\":2973:2979   */\n          0x00\n            /* \"EmployeeManagement.sol\":2969:3413   */\n        tag_52:\n            /* \"EmployeeManagement.sol\":2990:3005   */\n          0x03\n            /* \"EmployeeManagement.sol\":2990:3012   */\n          dup1\n          sload\n          swap1\n          pop\n            /* \"EmployeeManagement.sol\":2986:2987   */\n          dup2\n            /* \"EmployeeManagement.sol\":2986:3012   */\n          lt\n            /* \"EmployeeManagement.sol\":2969:3413   */\n          iszero\n          tag_53\n          jumpi\n            /* \"EmployeeManagement.sol\":3034:3060   */\n          0x00\n            /* \"EmployeeManagement.sol\":3071:3086   */\n          0x03\n            /* \"EmployeeManagement.sol\":3087:3088   */\n          dup3\n            /* \"EmployeeManagement.sol\":3071:3089   */\n          dup2\n          sload\n          dup2\n          lt\n          tag_55\n          jumpi\n          tag_56\n          tag_57\n          jump\t// in\n        tag_56:\n        tag_55:\n          swap1\n          0x00\n          mstore\n          keccak256(0x00, 0x20)\n          add\n          0x00\n          swap1\n          sload\n          swap1\n          0x0100\n          exp\n          swap1\n          div\n          0xffffffffffffffffffffffffffffffffffffffff\n          and\n            /* \"EmployeeManagement.sol\":3034:3090   */\n          swap1\n          pop\n            /* \"EmployeeManagement.sol\":3104:3118   */\n          0x00\n            /* \"EmployeeManagement.sol\":3121:3156   */\n          tag_59\n            /* \"EmployeeManagement.sol\":3134:3143   */\n          0x02\n            /* \"EmployeeManagement.sol\":3134:3155   */\n          0x00\n            /* \"EmployeeManagement.sol\":3144:3154   */\n          dup5\n            /* \"EmployeeManagement.sol\":3134:3155   */\n          0xffffffffffffffffffffffffffffffffffffffff\n          and\n          0xffffffffffffffffffffffffffffffffffffffff\n          and\n          dup2\n          mstore\n          0x20\n          add\n          swap1\n          dup2\n          mstore\n          0x20\n          add\n          0x00\n          keccak256\n            /* \"EmployeeManagement.sol\":3121:3156   */\n          mload(0x40)\n          dup1\n          0x80\n          add\n          0x40\n          mstore\n          swap1\n          dup2\n          0x00\n          dup3\n          add\n          0x00\n          swap1\n          sload\n          swap1\n          0x0100\n          exp\n          swap1\n          div\n          0xffffffffffffffffffffffffffffffffffffffff\n          and\n          0xffffffffffffffffffffffffffffffffffffffff\n          and\n          0xffffffffffffffffffffffffffffffffffffffff\n          and\n          dup2\n          mstore\n          0x20\n          add\n          0x01\n          dup3\n          add\n          sload\n          dup2\n          mstore\n          0x20\n          add\n          0x02\n          dup3\n          add\n          sload\n          dup2\n          mstore\n          0x20\n          add\n          0x03\n          dup3\n          add\n          sload\n          dup2\n          mstore\n          pop\n          pop\n            /* \"EmployeeManagement.sol\":3121:3133   */\n          tag_60\n            /* \"EmployeeManagement.sol\":3121:3156   */\n          jump\t// in\n        tag_59:\n            /* \"EmployeeManagement.sol\":3104:3156   */\n          swap1\n          pop\n            /* \"EmployeeManagement.sol\":3170:3187   */\n          0x00\n          dup1\n          sload\n          swap1\n          0x0100\n          exp\n          swap1\n          div\n          0xffffffffffffffffffffffffffffffffffffffff\n          and\n            /* \"EmployeeManagement.sol\":3170:3202   */\n          0xffffffffffffffffffffffffffffffffffffffff\n          and\n          0xd7081e03\n            /* \"EmployeeManagement.sol\":3203:3213   */\n          dup4\n            /* \"EmployeeManagement.sol\":3215:3224   */\n          dup4\n            /* \"EmployeeManagement.sol\":3170:3225   */\n          mload(0x40)\n          dup4\n          0xffffffff\n          and\n          0xe0\n          shl\n          dup2\n          mstore\n          0x04\n          add\n          tag_61\n          swap3\n          swap2\n          swap1\n          tag_62\n          jump\t// in\n        tag_61:\n          0x00\n          mload(0x40)\n          dup1\n          dup4\n          sub\n          dup2\n          0x00\n          dup8\n          dup1\n          extcodesize\n          iszero\n          dup1\n          iszero\n          tag_63\n          jumpi\n          0x00\n          dup1\n          revert\n        tag_63:\n          pop\n          gas\n          call\n          iszero\n          dup1\n          iszero\n          tag_65\n          jumpi\n          returndatasize\n          0x00\n          dup1\n          returndatacopy\n          revert(0x00, returndatasize)\n        tag_65:\n          pop\n          pop\n          pop\n          pop\n            /* \"EmployeeManagement.sol\":3329:3330   */\n          0x01\n            /* \"EmployeeManagement.sol\":3292:3301   */\n          0x02\n            /* \"EmployeeManagement.sol\":3292:3313   */\n          0x00\n            /* \"EmployeeManagement.sol\":3302:3312   */\n          dup5\n            /* \"EmployeeManagement.sol\":3292:3313   */\n          0xffffffffffffffffffffffffffffffffffffffff\n          and\n          0xffffffffffffffffffffffffffffffffffffffff\n          and\n          dup2\n          mstore\n          0x20\n          add\n          swap1\n          dup2\n          mstore\n          0x20\n          add\n          0x00\n          keccak256\n            /* \"EmployeeManagement.sol\":3292:3326   */\n          0x02\n          add\n            /* \"EmployeeManagement.sol\":3292:3330   */\n          dup2\n          swap1\n          sstore\n          pop\n            /* \"EmployeeManagement.sol\":3344:3361   */\n          0x01\n          0x00\n          swap1\n          sload\n          swap1\n          0x0100\n          exp\n          swap1\n          div\n          0xffffffffffffffffffffffffffffffffffffffff\n          and\n            /* \"EmployeeManagement.sol\":3344:3371   */\n          0xffffffffffffffffffffffffffffffffffffffff\n          and\n          0xc316d9a7\n            /* \"EmployeeManagement.sol\":3372:3387   */\n          0x03\n            /* \"EmployeeManagement.sol\":3388:3389   */\n          dup6\n            /* \"EmployeeManagement.sol\":3372:3390   */\n          dup2\n          sload\n          dup2\n          lt\n          tag_66\n          jumpi\n          tag_67\n          tag_57\n          jump\t// in\n        tag_67:\n        tag_66:\n          swap1\n          0x00\n          mstore\n          keccak256(0x00, 0x20)\n          add\n          0x00\n          swap1\n          sload\n          swap1\n          0x0100\n          exp\n          swap1\n          div\n          0xffffffffffffffffffffffffffffffffffffffff\n          and\n            /* \"EmployeeManagement.sol\":3392:3401   */\n          dup4\n            /* \"EmployeeManagement.sol\":3344:3402   */\n          mload(0x40)\n          dup4\n          0xffffffff\n          and\n          0xe0\n          shl\n          dup2\n          mstore\n          0x04\n          add\n          tag_69\n          swap3\n          swap2\n          swap1\n          tag_70\n          jump\t// in\n        tag_69:\n          0x00\n          mload(0x40)\n          dup1\n          dup4\n          sub\n          dup2\n          0x00\n          dup8\n          dup1\n          extcodesize\n          iszero\n          dup1\n          iszero\n          tag_71\n          jumpi\n          0x00\n          dup1\n          revert\n        tag_71:\n          pop\n          gas\n          call\n          iszero\n          dup1\n          iszero\n          tag_73\n          jumpi\n          returndatasize\n          0x00\n          dup1\n          returndatacopy\n          revert(0x00, returndatasize)\n        tag_73:\n          pop\n          pop\n          pop\n          pop\n            /* \"EmployeeManagement.sol\":3020:3413   */\n          pop\n          pop\n            /* \"EmployeeManagement.sol\":3015:3018   */\n          dup1\n          dup1\n          tag_74\n          swap1\n          tag_75\n          jump\t// in\n        tag_74:\n          swap2\n          pop\n          pop\n            /* \"EmployeeManagement.sol\":2969:3413   */\n          jump(tag_52)\n        tag_53:\n          pop\n            /* \"EmployeeManagement.sol\":2924:3419   */\n          jump\t// out\n            /* \"EmployeeManagement.sol\":2558:2918   */\n        tag_25:\n            /* \"EmployeeManagement.sol\":2610:2614   */\n          0x00\n            /* \"EmployeeManagement.sol\":2626:2636   */\n          dup1\n            /* \"EmployeeManagement.sol\":2639:2640   */\n          0x00\n            /* \"EmployeeManagement.sol\":2626:2640   */\n          swap1\n          pop\n            /* \"EmployeeManagement.sol\":2663:2669   */\n          0x00\n            /* \"EmployeeManagement.sol\":2659:2889   */\n        tag_77:\n            /* \"EmployeeManagement.sol\":2680:2695   */\n          0x03\n            /* \"EmployeeManagement.sol\":2680:2702   */\n          dup1\n          sload\n          swap1\n          pop\n            /* \"EmployeeManagement.sol\":2676:2677   */\n          dup2\n            /* \"EmployeeManagement.sol\":2676:2702   */\n          lt\n            /* \"EmployeeManagement.sol\":2659:2889   */\n          iszero\n          tag_78\n          jumpi\n            /* \"EmployeeManagement.sol\":2724:2750   */\n          0x00\n            /* \"EmployeeManagement.sol\":2761:2776   */\n          0x03\n            /* \"EmployeeManagement.sol\":2777:2778   */\n          dup3\n            /* \"EmployeeManagement.sol\":2761:2779   */\n          dup2\n          sload\n          dup2\n          lt\n          tag_80\n          jumpi\n          tag_81\n          tag_57\n          jump\t// in\n        tag_81:\n        tag_80:\n          swap1\n          0x00\n          mstore\n          keccak256(0x00, 0x20)\n          add\n          0x00\n          swap1\n          sload\n          swap1\n          0x0100\n          exp\n          swap1\n          div\n          0xffffffffffffffffffffffffffffffffffffffff\n          and\n            /* \"EmployeeManagement.sol\":2724:2780   */\n          swap1\n          pop\n            /* \"EmployeeManagement.sol\":2794:2808   */\n          0x00\n            /* \"EmployeeManagement.sol\":2811:2846   */\n          tag_83\n            /* \"EmployeeManagement.sol\":2824:2833   */\n          0x02\n            /* \"EmployeeManagement.sol\":2824:2845   */\n          0x00\n            /* \"EmployeeManagement.sol\":2834:2844   */\n          dup5\n            /* \"EmployeeManagement.sol\":2824:2845   */\n          0xffffffffffffffffffffffffffffffffffffffff\n          and\n          0xffffffffffffffffffffffffffffffffffffffff\n          and\n          dup2\n          mstore\n          0x20\n          add\n          swap1\n          dup2\n          mstore\n          0x20\n          add\n          0x00\n          keccak256\n            /* \"EmployeeManagement.sol\":2811:2846   */\n          mload(0x40)\n          dup1\n          0x80\n          add\n          0x40\n          mstore\n          swap1\n          dup2\n          0x00\n          dup3\n          add\n          0x00\n          swap1\n          sload\n          swap1\n          0x0100\n          exp\n          swap1\n          div\n          0xffffffffffffffffffffffffffffffffffffffff\n          and\n          0xffffffffffffffffffffffffffffffffffffffff\n          and\n          0xffffffffffffffffffffffffffffffffffffffff\n          and\n          dup2\n          mstore\n          0x20\n          add\n          0x01\n          dup3\n          add\n          sload\n          dup2\n          mstore\n          0x20\n          add\n          0x02\n          dup3\n          add\n          sload\n          dup2\n          mstore\n          0x20\n          add\n          0x03\n          dup3\n          add\n          sload\n          dup2\n          mstore\n          pop\n          pop\n            /* \"EmployeeManagement.sol\":2811:2823   */\n          tag_60\n            /* \"EmployeeManagement.sol\":2811:2846   */\n          jump\t// in\n        tag_83:\n            /* \"EmployeeManagement.sol\":2794:2846   */\n          swap1\n          pop\n            /* \"EmployeeManagement.sol\":2869:2878   */\n          dup1\n            /* \"EmployeeManagement.sol\":2860:2878   */\n          dup5\n          tag_84\n          swap2\n          swap1\n          tag_85\n          jump\t// in\n        tag_84:\n          swap4\n          pop\n            /* \"EmployeeManagement.sol\":2710:2889   */\n          pop\n          pop\n            /* \"EmployeeManagement.sol\":2705:2708   */\n          dup1\n          dup1\n          tag_86\n          swap1\n          tag_75\n          jump\t// in\n        tag_86:\n          swap2\n          pop\n          pop\n            /* \"EmployeeManagement.sol\":2659:2889   */\n          jump(tag_77)\n        tag_78:\n          pop\n            /* \"EmployeeManagement.sol\":2906:2911   */\n          dup1\n            /* \"EmployeeManagement.sol\":2899:2911   */\n          swap2\n          pop\n          pop\n            /* \"EmployeeManagement.sol\":2558:2918   */\n          swap1\n          jump\t// out\n            /* \"EmployeeManagement.sol\":626:658   */\n        tag_31:\n          0x03\n          dup2\n          dup2\n          sload\n          dup2\n          lt\n          tag_87\n          jumpi\n          0x00\n          dup1\n          revert\n        tag_87:\n          swap1\n          0x00\n          mstore\n          keccak256(0x00, 0x20)\n          add\n          0x00\n          swap2\n          pop\n          sload\n          swap1\n          0x0100\n          exp\n          swap1\n          div\n          0xffffffffffffffffffffffffffffffffffffffff\n          and\n          dup2\n          jump\t// out\n            /* \"EmployeeManagement.sol\":575:620   */\n        tag_36:\n          mstore(0x20, 0x02)\n          dup1\n          0x00\n          mstore\n          keccak256(0x00, 0x40)\n          0x00\n          swap2\n          pop\n          swap1\n          pop\n          dup1\n          0x00\n          add\n          0x00\n          swap1\n          sload\n          swap1\n          0x0100\n          exp\n          swap1\n          div\n          0xffffffffffffffffffffffffffffffffffffffff\n          and\n          swap1\n          dup1\n          0x01\n          add\n          sload\n          swap1\n          dup1\n          0x02\n          add\n          sload\n          swap1\n          dup1\n          0x03\n          add\n          sload\n          swap1\n          pop\n          dup5\n          jump\t// out\n            /* \"EmployeeManagement.sol\":1072:1467   */\n        tag_41:\n            /* \"EmployeeManagement.sol\":1137:1146   */\n          0x02\n            /* \"EmployeeManagement.sol\":1137:1155   */\n          0x00\n            /* \"EmployeeManagement.sol\":1147:1154   */\n          dup3\n            /* \"EmployeeManagement.sol\":1137:1155   */\n          0xffffffffffffffffffffffffffffffffffffffff\n          and\n          0xffffffffffffffffffffffffffffffffffffffff\n          and\n          dup2\n          mstore\n          0x20\n          add\n          swap1\n          dup2\n          mstore\n          0x20\n          add\n          0x00\n          keccak256\n          0x00\n            /* \"EmployeeManagement.sol\":1130:1155   */\n          dup1\n          dup3\n          add\n          exp(0x0100, 0x00)\n          dup2\n          sload\n          swap1\n          0xffffffffffffffffffffffffffffffffffffffff\n          mul\n          not\n          and\n          swap1\n          sstore\n          0x01\n          dup3\n          add\n          0x00\n          swap1\n          sstore\n          0x02\n          dup3\n          add\n          0x00\n          swap1\n          sstore\n          0x03\n          dup3\n          add\n          0x00\n          swap1\n          sstore\n          pop\n          pop\n            /* \"EmployeeManagement.sol\":1165:1182   */\n          0x01\n          0x00\n          swap1\n          sload\n          swap1\n          0x0100\n          exp\n          swap1\n          div\n          0xffffffffffffffffffffffffffffffffffffffff\n          and\n            /* \"EmployeeManagement.sol\":1165:1195   */\n          0xffffffffffffffffffffffffffffffffffffffff\n          and\n          0x58a290d2\n            /* \"EmployeeManagement.sol\":1196:1203   */\n          dup3\n            /* \"EmployeeManagement.sol\":1165:1204   */\n          mload(0x40)\n          dup3\n          0xffffffff\n          and\n          0xe0\n          shl\n          dup2\n          mstore\n          0x04\n          add\n          tag_90\n          swap2\n          swap1\n          tag_33\n          jump\t// in\n        tag_90:\n          0x00\n          mload(0x40)\n          dup1\n          dup4\n          sub\n          dup2\n          0x00\n          dup8\n          dup1\n          extcodesize\n          iszero\n          dup1\n          iszero\n          tag_91\n          jumpi\n          0x00\n          dup1\n          revert\n        tag_91:\n          pop\n          gas\n          call\n          iszero\n          dup1\n          iszero\n          tag_93\n          jumpi\n          returndatasize\n          0x00\n          dup1\n          returndatacopy\n          revert(0x00, returndatasize)\n        tag_93:\n          pop\n          pop\n          pop\n          pop\n            /* \"EmployeeManagement.sol\":1215:1225   */\n          0x00\n            /* \"EmployeeManagement.sol\":1228:1246   */\n          tag_94\n            /* \"EmployeeManagement.sol\":1238:1245   */\n          dup3\n            /* \"EmployeeManagement.sol\":1228:1237   */\n          tag_95\n            /* \"EmployeeManagement.sol\":1228:1246   */\n          jump\t// in\n        tag_94:\n            /* \"EmployeeManagement.sol\":1215:1246   */\n          swap1\n          pop\n            /* \"EmployeeManagement.sol\":1269:1284   */\n          0x03\n            /* \"EmployeeManagement.sol\":1269:1291   */\n          dup1\n          sload\n          swap1\n          pop\n            /* \"EmployeeManagement.sol\":1261:1266   */\n          dup2\n            /* \"EmployeeManagement.sol\":1261:1291   */\n          lt\n            /* \"EmployeeManagement.sol\":1257:1421   */\n          iszero\n          tag_96\n          jumpi\n            /* \"EmployeeManagement.sol\":1332:1347   */\n          0x03\n            /* \"EmployeeManagement.sol\":1373:1374   */\n          0x01\n            /* \"EmployeeManagement.sol\":1348:1363   */\n          0x03\n            /* \"EmployeeManagement.sol\":1348:1370   */\n          dup1\n          sload\n          swap1\n          pop\n            /* \"EmployeeManagement.sol\":1348:1374   */\n          tag_97\n          swap2\n          swap1\n          tag_98\n          jump\t// in\n        tag_97:\n            /* \"EmployeeManagement.sol\":1332:1375   */\n          dup2\n          sload\n          dup2\n          lt\n          tag_99\n          jumpi\n          tag_100\n          tag_57\n          jump\t// in\n        tag_100:\n        tag_99:\n          swap1\n          0x00\n          mstore\n          keccak256(0x00, 0x20)\n          add\n          0x00\n          swap1\n          sload\n          swap1\n          0x0100\n          exp\n          swap1\n          div\n          0xffffffffffffffffffffffffffffffffffffffff\n          and\n            /* \"EmployeeManagement.sol\":1307:1322   */\n          0x03\n            /* \"EmployeeManagement.sol\":1323:1328   */\n          dup3\n            /* \"EmployeeManagement.sol\":1307:1329   */\n          dup2\n          sload\n          dup2\n          lt\n          tag_102\n          jumpi\n          tag_103\n          tag_57\n          jump\t// in\n        tag_103:\n        tag_102:\n          swap1\n          0x00\n          mstore\n          keccak256(0x00, 0x20)\n          add\n          0x00\n            /* \"EmployeeManagement.sol\":1307:1375   */\n          0x0100\n          exp\n          dup2\n          sload\n          dup2\n          0xffffffffffffffffffffffffffffffffffffffff\n          mul\n          not\n          and\n          swap1\n          dup4\n          0xffffffffffffffffffffffffffffffffffffffff\n          and\n          mul\n          or\n          swap1\n          sstore\n          pop\n            /* \"EmployeeManagement.sol\":1389:1404   */\n          0x03\n            /* \"EmployeeManagement.sol\":1389:1410   */\n          dup1\n          sload\n          dup1\n          tag_105\n          jumpi\n          tag_106\n          tag_107\n          jump\t// in\n        tag_106:\n        tag_105:\n          0x01\n          swap1\n          sub\n          dup2\n          dup2\n          swap1\n          0x00\n          mstore\n          keccak256(0x00, 0x20)\n          add\n          exp(0x0100, 0x00)\n          dup2\n          sload\n          swap1\n          0xffffffffffffffffffffffffffffffffffffffff\n          mul\n          not\n          and\n          swap1\n          sstore\n          swap1\n          sstore\n            /* \"EmployeeManagement.sol\":1257:1421   */\n        tag_96:\n            /* \"EmployeeManagement.sol\":1436:1460   */\n          0xabae6e64cb4315875c29d42347a312f5e9fce4ab564e9722b43dd78d0751135a\n            /* \"EmployeeManagement.sol\":1452:1459   */\n          dup3\n            /* \"EmployeeManagement.sol\":1436:1460   */\n          mload(0x40)\n          tag_109\n          swap2\n          swap1\n          tag_33\n          jump\t// in\n        tag_109:\n          mload(0x40)\n          dup1\n          swap2\n          sub\n          swap1\n          log1\n            /* \"EmployeeManagement.sol\":1120:1467   */\n          pop\n            /* \"EmployeeManagement.sol\":1072:1467   */\n          pop\n          jump\t// out\n            /* \"EmployeeManagement.sol\":1752:2091   */\n        tag_45:\n            /* \"EmployeeManagement.sol\":1868:1893   */\n          0x00\n            /* \"EmployeeManagement.sol\":1896:1905   */\n          0x02\n            /* \"EmployeeManagement.sol\":1896:1914   */\n          0x00\n            /* \"EmployeeManagement.sol\":1906:1913   */\n          dup7\n            /* \"EmployeeManagement.sol\":1896:1914   */\n          0xffffffffffffffffffffffffffffffffffffffff\n          and\n          0xffffffffffffffffffffffffffffffffffffffff\n          and\n          dup2\n          mstore\n          0x20\n          add\n          swap1\n          dup2\n          mstore\n          0x20\n          add\n          0x00\n          keccak256\n            /* \"EmployeeManagement.sol\":1868:1914   */\n          swap1\n          pop\n            /* \"EmployeeManagement.sol\":1942:1951   */\n          dup4\n            /* \"EmployeeManagement.sol\":1924:1932   */\n          dup2\n            /* \"EmployeeManagement.sol\":1924:1939   */\n          0x01\n          add\n            /* \"EmployeeManagement.sol\":1924:1951   */\n          dup2\n          swap1\n          sstore\n          pop\n            /* \"EmployeeManagement.sol\":1985:2000   */\n          dup3\n            /* \"EmployeeManagement.sol\":1961:1969   */\n          dup2\n            /* \"EmployeeManagement.sol\":1961:1982   */\n          0x02\n          add\n            /* \"EmployeeManagement.sol\":1961:2000   */\n          dup2\n          swap1\n          sstore\n          pop\n            /* \"EmployeeManagement.sol\":2032:2045   */\n          dup2\n            /* \"EmployeeManagement.sol\":2010:2018   */\n          dup2\n            /* \"EmployeeManagement.sol\":2010:2029   */\n          0x03\n          add\n            /* \"EmployeeManagement.sol\":2010:2045   */\n          dup2\n          swap1\n          sstore\n          pop\n            /* \"EmployeeManagement.sol\":2060:2084   */\n          0x99d48556be6117b7da7d33c0afce92eb9789b36c8ff5bb604695008834534796\n            /* \"EmployeeManagement.sol\":2076:2083   */\n          dup6\n            /* \"EmployeeManagement.sol\":2060:2084   */\n          mload(0x40)\n          tag_111\n          swap2\n          swap1\n          tag_33\n          jump\t// in\n        tag_111:\n          mload(0x40)\n          dup1\n          swap2\n          sub\n          swap1\n          log1\n            /* \"EmployeeManagement.sol\":1858:2091   */\n          pop\n            /* \"EmployeeManagement.sol\":1752:2091   */\n          pop\n          pop\n          pop\n          pop\n          jump\t// out\n            /* \"EmployeeManagement.sol\":2329:2552   */\n        tag_60:\n            /* \"EmployeeManagement.sol\":2394:2398   */\n          0x00\n            /* \"EmployeeManagement.sol\":2410:2426   */\n          dup1\n            /* \"EmployeeManagement.sol\":2465:2466   */\n          0x01\n            /* \"EmployeeManagement.sol\":2446:2449   */\n          dup4\n            /* \"EmployeeManagement.sol\":2446:2462   */\n          0x40\n          add\n          mload\n            /* \"EmployeeManagement.sol\":2429:2432   */\n          dup5\n            /* \"EmployeeManagement.sol\":2429:2443   */\n          0x60\n          add\n          mload\n            /* \"EmployeeManagement.sol\":2429:2462   */\n          tag_113\n          swap2\n          swap1\n          tag_98\n          jump\t// in\n        tag_113:\n            /* \"EmployeeManagement.sol\":2429:2466   */\n          tag_114\n          swap2\n          swap1\n          tag_85\n          jump\t// in\n        tag_114:\n            /* \"EmployeeManagement.sol\":2410:2466   */\n          swap1\n          pop\n            /* \"EmployeeManagement.sol\":2476:2487   */\n          0x00\n            /* \"EmployeeManagement.sol\":2518:2520   */\n          0x1e\n            /* \"EmployeeManagement.sol\":2505:2508   */\n          dup5\n            /* \"EmployeeManagement.sol\":2505:2515   */\n          0x20\n          add\n          mload\n            /* \"EmployeeManagement.sol\":2491:2502   */\n          dup4\n            /* \"EmployeeManagement.sol\":2491:2515   */\n          tag_115\n          swap2\n          swap1\n          tag_116\n          jump\t// in\n        tag_115:\n            /* \"EmployeeManagement.sol\":2491:2520   */\n          tag_117\n          swap2\n          swap1\n          tag_118\n          jump\t// in\n        tag_117:\n            /* \"EmployeeManagement.sol\":2476:2521   */\n          swap1\n          pop\n            /* \"EmployeeManagement.sol\":2539:2545   */\n          dup1\n            /* \"EmployeeManagement.sol\":2532:2545   */\n          swap3\n          pop\n          pop\n          pop\n            /* \"EmployeeManagement.sol\":2329:2552   */\n          swap2\n          swap1\n          pop\n          jump\t// out\n            /* \"EmployeeManagement.sol\":1473:1745   */\n        tag_95:\n            /* \"EmployeeManagement.sol\":1531:1535   */\n          0x00\n            /* \"EmployeeManagement.sol\":1552:1558   */\n          dup1\n            /* \"EmployeeManagement.sol\":1561:1562   */\n          0x00\n            /* \"EmployeeManagement.sol\":1552:1562   */\n          swap1\n          pop\n            /* \"EmployeeManagement.sol\":1547:1699   */\n        tag_120:\n            /* \"EmployeeManagement.sol\":1569:1584   */\n          0x03\n            /* \"EmployeeManagement.sol\":1569:1591   */\n          dup1\n          sload\n          swap1\n          pop\n            /* \"EmployeeManagement.sol\":1565:1566   */\n          dup2\n            /* \"EmployeeManagement.sol\":1565:1591   */\n          lt\n            /* \"EmployeeManagement.sol\":1547:1699   */\n          iszero\n          tag_121\n          jumpi\n            /* \"EmployeeManagement.sol\":1639:1646   */\n          dup3\n            /* \"EmployeeManagement.sol\":1617:1646   */\n          0xffffffffffffffffffffffffffffffffffffffff\n          and\n            /* \"EmployeeManagement.sol\":1617:1632   */\n          0x03\n            /* \"EmployeeManagement.sol\":1633:1634   */\n          dup3\n            /* \"EmployeeManagement.sol\":1617:1635   */\n          dup2\n          sload\n          dup2\n          lt\n          tag_123\n          jumpi\n          tag_124\n          tag_57\n          jump\t// in\n        tag_124:\n        tag_123:\n          swap1\n          0x00\n          mstore\n          keccak256(0x00, 0x20)\n          add\n          0x00\n          swap1\n          sload\n          swap1\n          0x0100\n          exp\n          swap1\n          div\n          0xffffffffffffffffffffffffffffffffffffffff\n          and\n            /* \"EmployeeManagement.sol\":1617:1646   */\n          0xffffffffffffffffffffffffffffffffffffffff\n          and\n          sub\n            /* \"EmployeeManagement.sol\":1613:1689   */\n          tag_126\n          jumpi\n            /* \"EmployeeManagement.sol\":1673:1674   */\n          dup1\n            /* \"EmployeeManagement.sol\":1666:1674   */\n          swap2\n          pop\n          pop\n          jump(tag_119)\n            /* \"EmployeeManagement.sol\":1613:1689   */\n        tag_126:\n            /* \"EmployeeManagement.sol\":1594:1597   */\n          dup1\n          dup1\n          tag_127\n          swap1\n          tag_75\n          jump\t// in\n        tag_127:\n          swap2\n          pop\n          pop\n            /* \"EmployeeManagement.sol\":1547:1699   */\n          jump(tag_120)\n        tag_121:\n          pop\n            /* \"EmployeeManagement.sol\":1716:1731   */\n          0x03\n            /* \"EmployeeManagement.sol\":1716:1738   */\n          dup1\n          sload\n          swap1\n          pop\n            /* \"EmployeeManagement.sol\":1709:1738   */\n          swap1\n          pop\n            /* \"EmployeeManagement.sol\":1473:1745   */\n        tag_119:\n          swap2\n          swap1\n          pop\n          jump\t// out\n            /* \"#utility.yul\":88:205   */\n        tag_129:\n            /* \"#utility.yul\":197:198   */\n          0x00\n            /* \"#utility.yul\":194:195   */\n          dup1\n            /* \"#utility.yul\":187:199   */\n          revert\n            /* \"#utility.yul\":334:460   */\n        tag_131:\n            /* \"#utility.yul\":371:378   */\n          0x00\n            /* \"#utility.yul\":411:453   */\n          0xffffffffffffffffffffffffffffffffffffffff\n            /* \"#utility.yul\":404:409   */\n          dup3\n            /* \"#utility.yul\":400:454   */\n          and\n            /* \"#utility.yul\":389:454   */\n          swap1\n          pop\n            /* \"#utility.yul\":334:460   */\n          swap2\n          swap1\n          pop\n          jump\t// out\n            /* \"#utility.yul\":466:562   */\n        tag_132:\n            /* \"#utility.yul\":503:510   */\n          0x00\n            /* \"#utility.yul\":532:556   */\n          tag_157\n            /* \"#utility.yul\":550:555   */\n          dup3\n            /* \"#utility.yul\":532:556   */\n          tag_131\n          jump\t// in\n        tag_157:\n            /* \"#utility.yul\":521:556   */\n          swap1\n          pop\n            /* \"#utility.yul\":466:562   */\n          swap2\n          swap1\n          pop\n          jump\t// out\n            /* \"#utility.yul\":568:690   */\n        tag_133:\n            /* \"#utility.yul\":641:665   */\n          tag_159\n            /* \"#utility.yul\":659:664   */\n          dup2\n            /* \"#utility.yul\":641:665   */\n          tag_132\n          jump\t// in\n        tag_159:\n            /* \"#utility.yul\":634:639   */\n          dup2\n            /* \"#utility.yul\":631:666   */\n          eq\n            /* \"#utility.yul\":621:684   */\n          tag_160\n          jumpi\n            /* \"#utility.yul\":680:681   */\n          0x00\n            /* \"#utility.yul\":677:678   */\n          dup1\n            /* \"#utility.yul\":670:682   */\n          revert\n            /* \"#utility.yul\":621:684   */\n        tag_160:\n            /* \"#utility.yul\":568:690   */\n          pop\n          jump\t// out\n            /* \"#utility.yul\":696:835   */\n        tag_134:\n            /* \"#utility.yul\":742:747   */\n          0x00\n            /* \"#utility.yul\":780:786   */\n          dup2\n            /* \"#utility.yul\":767:787   */\n          calldataload\n            /* \"#utility.yul\":758:787   */\n          swap1\n          pop\n            /* \"#utility.yul\":796:829   */\n          tag_162\n            /* \"#utility.yul\":823:828   */\n          dup2\n            /* \"#utility.yul\":796:829   */\n          tag_133\n          jump\t// in\n        tag_162:\n            /* \"#utility.yul\":696:835   */\n          swap3\n          swap2\n          pop\n          pop\n          jump\t// out\n            /* \"#utility.yul\":841:1170   */\n        tag_14:\n            /* \"#utility.yul\":900:906   */\n          0x00\n            /* \"#utility.yul\":949:951   */\n          0x20\n            /* \"#utility.yul\":937:946   */\n          dup3\n            /* \"#utility.yul\":928:935   */\n          dup5\n            /* \"#utility.yul\":924:947   */\n          sub\n            /* \"#utility.yul\":920:952   */\n          slt\n            /* \"#utility.yul\":917:1036   */\n          iszero\n          tag_164\n          jumpi\n            /* \"#utility.yul\":955:1034   */\n          tag_165\n          tag_129\n          jump\t// in\n        tag_165:\n            /* \"#utility.yul\":917:1036   */\n        tag_164:\n            /* \"#utility.yul\":1075:1076   */\n          0x00\n            /* \"#utility.yul\":1100:1153   */\n          tag_166\n            /* \"#utility.yul\":1145:1152   */\n          dup5\n            /* \"#utility.yul\":1136:1142   */\n          dup3\n            /* \"#utility.yul\":1125:1134   */\n          dup6\n            /* \"#utility.yul\":1121:1143   */\n          add\n            /* \"#utility.yul\":1100:1153   */\n          tag_134\n          jump\t// in\n        tag_166:\n            /* \"#utility.yul\":1090:1153   */\n          swap2\n          pop\n            /* \"#utility.yul\":1046:1163   */\n          pop\n            /* \"#utility.yul\":841:1170   */\n          swap3\n          swap2\n          pop\n          pop\n          jump\t// out\n            /* \"#utility.yul\":1176:1294   */\n        tag_135:\n            /* \"#utility.yul\":1263:1287   */\n          tag_168\n            /* \"#utility.yul\":1281:1286   */\n          dup2\n            /* \"#utility.yul\":1263:1287   */\n          tag_132\n          jump\t// in\n        tag_168:\n            /* \"#utility.yul\":1258:1261   */\n          dup3\n            /* \"#utility.yul\":1251:1288   */\n          mstore\n            /* \"#utility.yul\":1176:1294   */\n          pop\n          pop\n          jump\t// out\n            /* \"#utility.yul\":1300:1377   */\n        tag_136:\n            /* \"#utility.yul\":1337:1344   */\n          0x00\n            /* \"#utility.yul\":1366:1371   */\n          dup2\n            /* \"#utility.yul\":1355:1371   */\n          swap1\n          pop\n            /* \"#utility.yul\":1300:1377   */\n          swap2\n          swap1\n          pop\n          jump\t// out\n            /* \"#utility.yul\":1383:1501   */\n        tag_137:\n            /* \"#utility.yul\":1470:1494   */\n          tag_171\n            /* \"#utility.yul\":1488:1493   */\n          dup2\n            /* \"#utility.yul\":1470:1494   */\n          tag_136\n          jump\t// in\n        tag_171:\n            /* \"#utility.yul\":1465:1468   */\n          dup3\n            /* \"#utility.yul\":1458:1495   */\n          mstore\n            /* \"#utility.yul\":1383:1501   */\n          pop\n          pop\n          jump\t// out\n            /* \"#utility.yul\":1507:2060   */\n        tag_17:\n            /* \"#utility.yul\":1684:1688   */\n          0x00\n            /* \"#utility.yul\":1722:1725   */\n          0x80\n            /* \"#utility.yul\":1711:1720   */\n          dup3\n            /* \"#utility.yul\":1707:1726   */\n          add\n            /* \"#utility.yul\":1699:1726   */\n          swap1\n          pop\n            /* \"#utility.yul\":1736:1807   */\n          tag_173\n            /* \"#utility.yul\":1804:1805   */\n          0x00\n            /* \"#utility.yul\":1793:1802   */\n          dup4\n            /* \"#utility.yul\":1789:1806   */\n          add\n            /* \"#utility.yul\":1780:1786   */\n          dup8\n            /* \"#utility.yul\":1736:1807   */\n          tag_135\n          jump\t// in\n        tag_173:\n            /* \"#utility.yul\":1817:1889   */\n          tag_174\n            /* \"#utility.yul\":1885:1887   */\n          0x20\n            /* \"#utility.yul\":1874:1883   */\n          dup4\n            /* \"#utility.yul\":1870:1888   */\n          add\n            /* \"#utility.yul\":1861:1867   */\n          dup7\n            /* \"#utility.yul\":1817:1889   */\n          tag_137\n          jump\t// in\n        tag_174:\n            /* \"#utility.yul\":1899:1971   */\n          tag_175\n            /* \"#utility.yul\":1967:1969   */\n          0x40\n            /* \"#utility.yul\":1956:1965   */\n          dup4\n            /* \"#utility.yul\":1952:1970   */\n          add\n            /* \"#utility.yul\":1943:1949   */\n          dup6\n            /* \"#utility.yul\":1899:1971   */\n          tag_137\n          jump\t// in\n        tag_175:\n            /* \"#utility.yul\":1981:2053   */\n          tag_176\n            /* \"#utility.yul\":2049:2051   */\n          0x60\n            /* \"#utility.yul\":2038:2047   */\n          dup4\n            /* \"#utility.yul\":2034:2052   */\n          add\n            /* \"#utility.yul\":2025:2031   */\n          dup5\n            /* \"#utility.yul\":1981:2053   */\n          tag_137\n          jump\t// in\n        tag_176:\n            /* \"#utility.yul\":1507:2060   */\n          swap6\n          swap5\n          pop\n          pop\n          pop\n          pop\n          pop\n          jump\t// out\n            /* \"#utility.yul\":2066:2170   */\n        tag_138:\n            /* \"#utility.yul\":2111:2118   */\n          0x00\n            /* \"#utility.yul\":2140:2164   */\n          tag_178\n            /* \"#utility.yul\":2158:2163   */\n          dup3\n            /* \"#utility.yul\":2140:2164   */\n          tag_131\n          jump\t// in\n        tag_178:\n            /* \"#utility.yul\":2129:2164   */\n          swap1\n          pop\n            /* \"#utility.yul\":2066:2170   */\n          swap2\n          swap1\n          pop\n          jump\t// out\n            /* \"#utility.yul\":2176:2314   */\n        tag_139:\n            /* \"#utility.yul\":2257:2289   */\n          tag_180\n            /* \"#utility.yul\":2283:2288   */\n          dup2\n            /* \"#utility.yul\":2257:2289   */\n          tag_138\n          jump\t// in\n        tag_180:\n            /* \"#utility.yul\":2250:2255   */\n          dup2\n            /* \"#utility.yul\":2247:2290   */\n          eq\n            /* \"#utility.yul\":2237:2308   */\n          tag_181\n          jumpi\n            /* \"#utility.yul\":2304:2305   */\n          0x00\n            /* \"#utility.yul\":2301:2302   */\n          dup1\n            /* \"#utility.yul\":2294:2306   */\n          revert\n            /* \"#utility.yul\":2237:2308   */\n        tag_181:\n            /* \"#utility.yul\":2176:2314   */\n          pop\n          jump\t// out\n            /* \"#utility.yul\":2320:2475   */\n        tag_140:\n            /* \"#utility.yul\":2374:2379   */\n          0x00\n            /* \"#utility.yul\":2412:2418   */\n          dup2\n            /* \"#utility.yul\":2399:2419   */\n          calldataload\n            /* \"#utility.yul\":2390:2419   */\n          swap1\n          pop\n            /* \"#utility.yul\":2428:2469   */\n          tag_183\n            /* \"#utility.yul\":2463:2468   */\n          dup2\n            /* \"#utility.yul\":2428:2469   */\n          tag_139\n          jump\t// in\n        tag_183:\n            /* \"#utility.yul\":2320:2475   */\n          swap3\n          swap2\n          pop\n          pop\n          jump\t// out\n            /* \"#utility.yul\":2481:2603   */\n        tag_141:\n            /* \"#utility.yul\":2554:2578   */\n          tag_185\n            /* \"#utility.yul\":2572:2577   */\n          dup2\n            /* \"#utility.yul\":2554:2578   */\n          tag_136\n          jump\t// in\n        tag_185:\n            /* \"#utility.yul\":2547:2552   */\n          dup2\n            /* \"#utility.yul\":2544:2579   */\n          eq\n            /* \"#utility.yul\":2534:2597   */\n          tag_186\n          jumpi\n            /* \"#utility.yul\":2593:2594   */\n          0x00\n            /* \"#utility.yul\":2590:2591   */\n          dup1\n            /* \"#utility.yul\":2583:2595   */\n          revert\n            /* \"#utility.yul\":2534:2597   */\n        tag_186:\n            /* \"#utility.yul\":2481:2603   */\n          pop\n          jump\t// out\n            /* \"#utility.yul\":2609:2748   */\n        tag_142:\n            /* \"#utility.yul\":2655:2660   */\n          0x00\n            /* \"#utility.yul\":2693:2699   */\n          dup2\n            /* \"#utility.yul\":2680:2700   */\n          calldataload\n            /* \"#utility.yul\":2671:2700   */\n          swap1\n          pop\n            /* \"#utility.yul\":2709:2742   */\n          tag_188\n            /* \"#utility.yul\":2736:2741   */\n          dup2\n            /* \"#utility.yul\":2709:2742   */\n          tag_141\n          jump\t// in\n        tag_188:\n            /* \"#utility.yul\":2609:2748   */\n          swap3\n          swap2\n          pop\n          pop\n          jump\t// out\n            /* \"#utility.yul\":2754:3535   */\n        tag_20:\n            /* \"#utility.yul\":2848:2854   */\n          0x00\n            /* \"#utility.yul\":2856:2862   */\n          dup1\n            /* \"#utility.yul\":2864:2870   */\n          0x00\n            /* \"#utility.yul\":2872:2878   */\n          dup1\n            /* \"#utility.yul\":2921:2924   */\n          0x80\n            /* \"#utility.yul\":2909:2918   */\n          dup6\n            /* \"#utility.yul\":2900:2907   */\n          dup8\n            /* \"#utility.yul\":2896:2919   */\n          sub\n            /* \"#utility.yul\":2892:2925   */\n          slt\n            /* \"#utility.yul\":2889:3009   */\n          iszero\n          tag_190\n          jumpi\n            /* \"#utility.yul\":2928:3007   */\n          tag_191\n          tag_129\n          jump\t// in\n        tag_191:\n            /* \"#utility.yul\":2889:3009   */\n        tag_190:\n            /* \"#utility.yul\":3048:3049   */\n          0x00\n            /* \"#utility.yul\":3073:3134   */\n          tag_192\n            /* \"#utility.yul\":3126:3133   */\n          dup8\n            /* \"#utility.yul\":3117:3123   */\n          dup3\n            /* \"#utility.yul\":3106:3115   */\n          dup9\n            /* \"#utility.yul\":3102:3124   */\n          add\n            /* \"#utility.yul\":3073:3134   */\n          tag_140\n          jump\t// in\n        tag_192:\n            /* \"#utility.yul\":3063:3134   */\n          swap5\n          pop\n            /* \"#utility.yul\":3019:3144   */\n          pop\n            /* \"#utility.yul\":3183:3185   */\n          0x20\n            /* \"#utility.yul\":3209:3262   */\n          tag_193\n            /* \"#utility.yul\":3254:3261   */\n          dup8\n            /* \"#utility.yul\":3245:3251   */\n          dup3\n            /* \"#utility.yul\":3234:3243   */\n          dup9\n            /* \"#utility.yul\":3230:3252   */\n          add\n            /* \"#utility.yul\":3209:3262   */\n          tag_142\n          jump\t// in\n        tag_193:\n            /* \"#utility.yul\":3199:3262   */\n          swap4\n          pop\n            /* \"#utility.yul\":3154:3272   */\n          pop\n            /* \"#utility.yul\":3311:3313   */\n          0x40\n            /* \"#utility.yul\":3337:3390   */\n          tag_194\n            /* \"#utility.yul\":3382:3389   */\n          dup8\n            /* \"#utility.yul\":3373:3379   */\n          dup3\n            /* \"#utility.yul\":3362:3371   */\n          dup9\n            /* \"#utility.yul\":3358:3380   */\n          add\n            /* \"#utility.yul\":3337:3390   */\n          tag_142\n          jump\t// in\n        tag_194:\n            /* \"#utility.yul\":3327:3390   */\n          swap3\n          pop\n            /* \"#utility.yul\":3282:3400   */\n          pop\n            /* \"#utility.yul\":3439:3441   */\n          0x60\n            /* \"#utility.yul\":3465:3518   */\n          tag_195\n            /* \"#utility.yul\":3510:3517   */\n          dup8\n            /* \"#utility.yul\":3501:3507   */\n          dup3\n            /* \"#utility.yul\":3490:3499   */\n          dup9\n            /* \"#utility.yul\":3486:3508   */\n          add\n            /* \"#utility.yul\":3465:3518   */\n          tag_142\n          jump\t// in\n        tag_195:\n            /* \"#utility.yul\":3455:3518   */\n          swap2\n          pop\n            /* \"#utility.yul\":3410:3528   */\n          pop\n            /* \"#utility.yul\":2754:3535   */\n          swap3\n          swap6\n          swap2\n          swap5\n          pop\n          swap3\n          pop\n          jump\t// out\n            /* \"#utility.yul\":3541:3763   */\n        tag_27:\n            /* \"#utility.yul\":3634:3638   */\n          0x00\n            /* \"#utility.yul\":3672:3674   */\n          0x20\n            /* \"#utility.yul\":3661:3670   */\n          dup3\n            /* \"#utility.yul\":3657:3675   */\n          add\n            /* \"#utility.yul\":3649:3675   */\n          swap1\n          pop\n            /* \"#utility.yul\":3685:3756   */\n          tag_197\n            /* \"#utility.yul\":3753:3754   */\n          0x00\n            /* \"#utility.yul\":3742:3751   */\n          dup4\n            /* \"#utility.yul\":3738:3755   */\n          add\n            /* \"#utility.yul\":3729:3735   */\n          dup5\n            /* \"#utility.yul\":3685:3756   */\n          tag_137\n          jump\t// in\n        tag_197:\n            /* \"#utility.yul\":3541:3763   */\n          swap3\n          swap2\n          pop\n          pop\n          jump\t// out\n            /* \"#utility.yul\":3769:4098   */\n        tag_30:\n            /* \"#utility.yul\":3828:3834   */\n          0x00\n            /* \"#utility.yul\":3877:3879   */\n          0x20\n            /* \"#utility.yul\":3865:3874   */\n          dup3\n            /* \"#utility.yul\":3856:3863   */\n          dup5\n            /* \"#utility.yul\":3852:3875   */\n          sub\n            /* \"#utility.yul\":3848:3880   */\n          slt\n            /* \"#utility.yul\":3845:3964   */\n          iszero\n          tag_199\n          jumpi\n            /* \"#utility.yul\":3883:3962   */\n          tag_200\n          tag_129\n          jump\t// in\n        tag_200:\n            /* \"#utility.yul\":3845:3964   */\n        tag_199:\n            /* \"#utility.yul\":4003:4004   */\n          0x00\n            /* \"#utility.yul\":4028:4081   */\n          tag_201\n            /* \"#utility.yul\":4073:4080   */\n          dup5\n            /* \"#utility.yul\":4064:4070   */\n          dup3\n            /* \"#utility.yul\":4053:4062   */\n          dup6\n            /* \"#utility.yul\":4049:4071   */\n          add\n            /* \"#utility.yul\":4028:4081   */\n          tag_142\n          jump\t// in\n        tag_201:\n            /* \"#utility.yul\":4018:4081   */\n          swap2\n          pop\n            /* \"#utility.yul\":3974:4091   */\n          pop\n            /* \"#utility.yul\":3769:4098   */\n          swap3\n          swap2\n          pop\n          pop\n          jump\t// out\n            /* \"#utility.yul\":4104:4326   */\n        tag_33:\n            /* \"#utility.yul\":4197:4201   */\n          0x00\n            /* \"#utility.yul\":4235:4237   */\n          0x20\n            /* \"#utility.yul\":4224:4233   */\n          dup3\n            /* \"#utility.yul\":4220:4238   */\n          add\n            /* \"#utility.yul\":4212:4238   */\n          swap1\n          pop\n            /* \"#utility.yul\":4248:4319   */\n          tag_203\n            /* \"#utility.yul\":4316:4317   */\n          0x00\n            /* \"#utility.yul\":4305:4314   */\n          dup4\n            /* \"#utility.yul\":4301:4318   */\n          add\n            /* \"#utility.yul\":4292:4298   */\n          dup5\n            /* \"#utility.yul\":4248:4319   */\n          tag_135\n          jump\t// in\n        tag_203:\n            /* \"#utility.yul\":4104:4326   */\n          swap3\n          swap2\n          pop\n          pop\n          jump\t// out\n            /* \"#utility.yul\":4332:4474   */\n        tag_143:\n            /* \"#utility.yul\":4435:4467   */\n          tag_205\n            /* \"#utility.yul\":4461:4466   */\n          dup2\n            /* \"#utility.yul\":4435:4467   */\n          tag_138\n          jump\t// in\n        tag_205:\n            /* \"#utility.yul\":4430:4433   */\n          dup3\n            /* \"#utility.yul\":4423:4468   */\n          mstore\n            /* \"#utility.yul\":4332:4474   */\n          pop\n          pop\n          jump\t// out\n            /* \"#utility.yul\":4480:5065   */\n        tag_38:\n            /* \"#utility.yul\":4673:4677   */\n          0x00\n            /* \"#utility.yul\":4711:4714   */\n          0x80\n            /* \"#utility.yul\":4700:4709   */\n          dup3\n            /* \"#utility.yul\":4696:4715   */\n          add\n            /* \"#utility.yul\":4688:4715   */\n          swap1\n          pop\n            /* \"#utility.yul\":4725:4812   */\n          tag_207\n            /* \"#utility.yul\":4809:4810   */\n          0x00\n            /* \"#utility.yul\":4798:4807   */\n          dup4\n            /* \"#utility.yul\":4794:4811   */\n          add\n            /* \"#utility.yul\":4785:4791   */\n          dup8\n            /* \"#utility.yul\":4725:4812   */\n          tag_143\n          jump\t// in\n        tag_207:\n            /* \"#utility.yul\":4822:4894   */\n          tag_208\n            /* \"#utility.yul\":4890:4892   */\n          0x20\n            /* \"#utility.yul\":4879:4888   */\n          dup4\n            /* \"#utility.yul\":4875:4893   */\n          add\n            /* \"#utility.yul\":4866:4872   */\n          dup7\n            /* \"#utility.yul\":4822:4894   */\n          tag_137\n          jump\t// in\n        tag_208:\n            /* \"#utility.yul\":4904:4976   */\n          tag_209\n            /* \"#utility.yul\":4972:4974   */\n          0x40\n            /* \"#utility.yul\":4961:4970   */\n          dup4\n            /* \"#utility.yul\":4957:4975   */\n          add\n            /* \"#utility.yul\":4948:4954   */\n          dup6\n            /* \"#utility.yul\":4904:4976   */\n          tag_137\n          jump\t// in\n        tag_209:\n            /* \"#utility.yul\":4986:5058   */\n          tag_210\n            /* \"#utility.yul\":5054:5056   */\n          0x60\n            /* \"#utility.yul\":5043:5052   */\n          dup4\n            /* \"#utility.yul\":5039:5057   */\n          add\n            /* \"#utility.yul\":5030:5036   */\n          dup5\n            /* \"#utility.yul\":4986:5058   */\n          tag_137\n          jump\t// in\n        tag_210:\n            /* \"#utility.yul\":4480:5065   */\n          swap6\n          swap5\n          pop\n          pop\n          pop\n          pop\n          pop\n          jump\t// out\n            /* \"#utility.yul\":5071:5836   */\n        tag_44:\n            /* \"#utility.yul\":5157:5163   */\n          0x00\n            /* \"#utility.yul\":5165:5171   */\n          dup1\n            /* \"#utility.yul\":5173:5179   */\n          0x00\n            /* \"#utility.yul\":5181:5187   */\n          dup1\n            /* \"#utility.yul\":5230:5233   */\n          0x80\n            /* \"#utility.yul\":5218:5227   */\n          dup6\n            /* \"#utility.yul\":5209:5216   */\n          dup8\n            /* \"#utility.yul\":5205:5228   */\n          sub\n            /* \"#utility.yul\":5201:5234   */\n          slt\n            /* \"#utility.yul\":5198:5318   */\n          iszero\n          tag_212\n          jumpi\n            /* \"#utility.yul\":5237:5316   */\n          tag_213\n          tag_129\n          jump\t// in\n        tag_213:\n            /* \"#utility.yul\":5198:5318   */\n        tag_212:\n            /* \"#utility.yul\":5357:5358   */\n          0x00\n            /* \"#utility.yul\":5382:5435   */\n          tag_214\n            /* \"#utility.yul\":5427:5434   */\n          dup8\n            /* \"#utility.yul\":5418:5424   */\n          dup3\n            /* \"#utility.yul\":5407:5416   */\n          dup9\n            /* \"#utility.yul\":5403:5425   */\n          add\n            /* \"#utility.yul\":5382:5435   */\n          tag_134\n          jump\t// in\n        tag_214:\n            /* \"#utility.yul\":5372:5435   */\n          swap5\n          pop\n            /* \"#utility.yul\":5328:5445   */\n          pop\n            /* \"#utility.yul\":5484:5486   */\n          0x20\n            /* \"#utility.yul\":5510:5563   */\n          tag_215\n            /* \"#utility.yul\":5555:5562   */\n          dup8\n            /* \"#utility.yul\":5546:5552   */\n          dup3\n            /* \"#utility.yul\":5535:5544   */\n          dup9\n            /* \"#utility.yul\":5531:5553   */\n          add\n            /* \"#utility.yul\":5510:5563   */\n          tag_142\n          jump\t// in\n        tag_215:\n            /* \"#utility.yul\":5500:5563   */\n          swap4\n          pop\n            /* \"#utility.yul\":5455:5573   */\n          pop\n            /* \"#utility.yul\":5612:5614   */\n          0x40\n            /* \"#utility.yul\":5638:5691   */\n          tag_216\n            /* \"#utility.yul\":5683:5690   */\n          dup8\n            /* \"#utility.yul\":5674:5680   */\n          dup3\n            /* \"#utility.yul\":5663:5672   */\n          dup9\n            /* \"#utility.yul\":5659:5681   */\n          add\n            /* \"#utility.yul\":5638:5691   */\n          tag_142\n          jump\t// in\n        tag_216:\n            /* \"#utility.yul\":5628:5691   */\n          swap3\n          pop\n            /* \"#utility.yul\":5583:5701   */\n          pop\n            /* \"#utility.yul\":5740:5742   */\n          0x60\n            /* \"#utility.yul\":5766:5819   */\n          tag_217\n            /* \"#utility.yul\":5811:5818   */\n          dup8\n            /* \"#utility.yul\":5802:5808   */\n          dup3\n            /* \"#utility.yul\":5791:5800   */\n          dup9\n            /* \"#utility.yul\":5787:5809   */\n          add\n            /* \"#utility.yul\":5766:5819   */\n          tag_142\n          jump\t// in\n        tag_217:\n            /* \"#utility.yul\":5756:5819   */\n          swap2\n          pop\n            /* \"#utility.yul\":5711:5829   */\n          pop\n            /* \"#utility.yul\":5071:5836   */\n          swap3\n          swap6\n          swap2\n          swap5\n          pop\n          swap3\n          pop\n          jump\t// out\n            /* \"#utility.yul\":5842:5902   */\n        tag_144:\n            /* \"#utility.yul\":5870:5873   */\n          0x00\n            /* \"#utility.yul\":5891:5896   */\n          dup2\n            /* \"#utility.yul\":5884:5896   */\n          swap1\n          pop\n            /* \"#utility.yul\":5842:5902   */\n          swap2\n          swap1\n          pop\n          jump\t// out\n            /* \"#utility.yul\":5908:6050   */\n        tag_145:\n            /* \"#utility.yul\":5958:5967   */\n          0x00\n            /* \"#utility.yul\":5991:6044   */\n          tag_220\n            /* \"#utility.yul\":6009:6043   */\n          tag_221\n            /* \"#utility.yul\":6018:6042   */\n          tag_222\n            /* \"#utility.yul\":6036:6041   */\n          dup5\n            /* \"#utility.yul\":6018:6042   */\n          tag_131\n          jump\t// in\n        tag_222:\n            /* \"#utility.yul\":6009:6043   */\n          tag_144\n          jump\t// in\n        tag_221:\n            /* \"#utility.yul\":5991:6044   */\n          tag_131\n          jump\t// in\n        tag_220:\n            /* \"#utility.yul\":5978:6044   */\n          swap1\n          pop\n            /* \"#utility.yul\":5908:6050   */\n          swap2\n          swap1\n          pop\n          jump\t// out\n            /* \"#utility.yul\":6056:6182   */\n        tag_146:\n            /* \"#utility.yul\":6106:6115   */\n          0x00\n            /* \"#utility.yul\":6139:6176   */\n          tag_224\n            /* \"#utility.yul\":6170:6175   */\n          dup3\n            /* \"#utility.yul\":6139:6176   */\n          tag_145\n          jump\t// in\n        tag_224:\n            /* \"#utility.yul\":6126:6176   */\n          swap1\n          pop\n            /* \"#utility.yul\":6056:6182   */\n          swap2\n          swap1\n          pop\n          jump\t// out\n            /* \"#utility.yul\":6188:6322   */\n        tag_147:\n            /* \"#utility.yul\":6246:6255   */\n          0x00\n            /* \"#utility.yul\":6279:6316   */\n          tag_226\n            /* \"#utility.yul\":6310:6315   */\n          dup3\n            /* \"#utility.yul\":6279:6316   */\n          tag_146\n          jump\t// in\n        tag_226:\n            /* \"#utility.yul\":6266:6316   */\n          swap1\n          pop\n            /* \"#utility.yul\":6188:6322   */\n          swap2\n          swap1\n          pop\n          jump\t// out\n            /* \"#utility.yul\":6328:6475   */\n        tag_148:\n            /* \"#utility.yul\":6423:6468   */\n          tag_228\n            /* \"#utility.yul\":6462:6467   */\n          dup2\n            /* \"#utility.yul\":6423:6468   */\n          tag_147\n          jump\t// in\n        tag_228:\n            /* \"#utility.yul\":6418:6421   */\n          dup3\n            /* \"#utility.yul\":6411:6469   */\n          mstore\n            /* \"#utility.yul\":6328:6475   */\n          pop\n          pop\n          jump\t// out\n            /* \"#utility.yul\":6481:6719   */\n        tag_50:\n            /* \"#utility.yul\":6582:6586   */\n          0x00\n            /* \"#utility.yul\":6620:6622   */\n          0x20\n            /* \"#utility.yul\":6609:6618   */\n          dup3\n            /* \"#utility.yul\":6605:6623   */\n          add\n            /* \"#utility.yul\":6597:6623   */\n          swap1\n          pop\n            /* \"#utility.yul\":6633:6712   */\n          tag_230\n            /* \"#utility.yul\":6709:6710   */\n          0x00\n            /* \"#utility.yul\":6698:6707   */\n          dup4\n            /* \"#utility.yul\":6694:6711   */\n          add\n            /* \"#utility.yul\":6685:6691   */\n          dup5\n            /* \"#utility.yul\":6633:6712   */\n          tag_148\n          jump\t// in\n        tag_230:\n            /* \"#utility.yul\":6481:6719   */\n          swap3\n          swap2\n          pop\n          pop\n          jump\t// out\n            /* \"#utility.yul\":6725:6905   */\n        tag_57:\n            /* \"#utility.yul\":6773:6850   */\n          0x4e487b7100000000000000000000000000000000000000000000000000000000\n            /* \"#utility.yul\":6770:6771   */\n          0x00\n            /* \"#utility.yul\":6763:6851   */\n          mstore\n            /* \"#utility.yul\":6870:6874   */\n          0x32\n            /* \"#utility.yul\":6867:6868   */\n          0x04\n            /* \"#utility.yul\":6860:6875   */\n          mstore\n            /* \"#utility.yul\":6894:6898   */\n          0x24\n            /* \"#utility.yul\":6891:6892   */\n          0x00\n            /* \"#utility.yul\":6884:6899   */\n          revert\n            /* \"#utility.yul\":6911:7275   */\n        tag_62:\n            /* \"#utility.yul\":7048:7052   */\n          0x00\n            /* \"#utility.yul\":7086:7088   */\n          0x40\n            /* \"#utility.yul\":7075:7084   */\n          dup3\n            /* \"#utility.yul\":7071:7089   */\n          add\n            /* \"#utility.yul\":7063:7089   */\n          swap1\n          pop\n            /* \"#utility.yul\":7099:7186   */\n          tag_233\n            /* \"#utility.yul\":7183:7184   */\n          0x00\n            /* \"#utility.yul\":7172:7181   */\n          dup4\n            /* \"#utility.yul\":7168:7185   */\n          add\n            /* \"#utility.yul\":7159:7165   */\n          dup6\n            /* \"#utility.yul\":7099:7186   */\n          tag_143\n          jump\t// in\n        tag_233:\n            /* \"#utility.yul\":7196:7268   */\n          tag_234\n            /* \"#utility.yul\":7264:7266   */\n          0x20\n            /* \"#utility.yul\":7253:7262   */\n          dup4\n            /* \"#utility.yul\":7249:7267   */\n          add\n            /* \"#utility.yul\":7240:7246   */\n          dup5\n            /* \"#utility.yul\":7196:7268   */\n          tag_137\n          jump\t// in\n        tag_234:\n            /* \"#utility.yul\":6911:7275   */\n          swap4\n          swap3\n          pop\n          pop\n          pop\n          jump\t// out\n            /* \"#utility.yul\":7281:7613   */\n        tag_70:\n            /* \"#utility.yul\":7402:7406   */\n          0x00\n            /* \"#utility.yul\":7440:7442   */\n          0x40\n            /* \"#utility.yul\":7429:7438   */\n          dup3\n            /* \"#utility.yul\":7425:7443   */\n          add\n            /* \"#utility.yul\":7417:7443   */\n          swap1\n          pop\n            /* \"#utility.yul\":7453:7524   */\n          tag_236\n            /* \"#utility.yul\":7521:7522   */\n          0x00\n            /* \"#utility.yul\":7510:7519   */\n          dup4\n            /* \"#utility.yul\":7506:7523   */\n          add\n            /* \"#utility.yul\":7497:7503   */\n          dup6\n            /* \"#utility.yul\":7453:7524   */\n          tag_135\n          jump\t// in\n        tag_236:\n            /* \"#utility.yul\":7534:7606   */\n          tag_237\n            /* \"#utility.yul\":7602:7604   */\n          0x20\n            /* \"#utility.yul\":7591:7600   */\n          dup4\n            /* \"#utility.yul\":7587:7605   */\n          add\n            /* \"#utility.yul\":7578:7584   */\n          dup5\n            /* \"#utility.yul\":7534:7606   */\n          tag_137\n          jump\t// in\n        tag_237:\n            /* \"#utility.yul\":7281:7613   */\n          swap4\n          swap3\n          pop\n          pop\n          pop\n          jump\t// out\n            /* \"#utility.yul\":7619:7799   */\n        tag_149:\n            /* \"#utility.yul\":7667:7744   */\n          0x4e487b7100000000000000000000000000000000000000000000000000000000\n            /* \"#utility.yul\":7664:7665   */\n          0x00\n            /* \"#utility.yul\":7657:7745   */\n          mstore\n            /* \"#utility.yul\":7764:7768   */\n          0x11\n            /* \"#utility.yul\":7761:7762   */\n          0x04\n            /* \"#utility.yul\":7754:7769   */\n          mstore\n            /* \"#utility.yul\":7788:7792   */\n          0x24\n            /* \"#utility.yul\":7785:7786   */\n          0x00\n            /* \"#utility.yul\":7778:7793   */\n          revert\n            /* \"#utility.yul\":7805:8038   */\n        tag_75:\n            /* \"#utility.yul\":7844:7847   */\n          0x00\n            /* \"#utility.yul\":7867:7891   */\n          tag_240\n            /* \"#utility.yul\":7885:7890   */\n          dup3\n            /* \"#utility.yul\":7867:7891   */\n          tag_136\n          jump\t// in\n        tag_240:\n            /* \"#utility.yul\":7858:7891   */\n          swap2\n          pop\n            /* \"#utility.yul\":7913:7979   */\n          0xffffffffffffffffffffffffffffffffffffffffffffffffffffffffffffffff\n            /* \"#utility.yul\":7906:7911   */\n          dup3\n            /* \"#utility.yul\":7903:7980   */\n          sub\n            /* \"#utility.yul\":7900:8003   */\n          tag_241\n          jumpi\n            /* \"#utility.yul\":7983:8001   */\n          tag_242\n          tag_149\n          jump\t// in\n        tag_242:\n            /* \"#utility.yul\":7900:8003   */\n        tag_241:\n            /* \"#utility.yul\":8030:8031   */\n          0x01\n            /* \"#utility.yul\":8023:8028   */\n          dup3\n            /* \"#utility.yul\":8019:8032   */\n          add\n            /* \"#utility.yul\":8012:8032   */\n          swap1\n          pop\n            /* \"#utility.yul\":7805:8038   */\n          swap2\n          swap1\n          pop\n          jump\t// out\n            /* \"#utility.yul\":8044:8235   */\n        tag_85:\n            /* \"#utility.yul\":8084:8087   */\n          0x00\n            /* \"#utility.yul\":8103:8123   */\n          tag_244\n            /* \"#utility.yul\":8121:8122   */\n          dup3\n            /* \"#utility.yul\":8103:8123   */\n          tag_136\n          jump\t// in\n        tag_244:\n            /* \"#utility.yul\":8098:8123   */\n          swap2\n          pop\n            /* \"#utility.yul\":8137:8157   */\n          tag_245\n            /* \"#utility.yul\":8155:8156   */\n          dup4\n            /* \"#utility.yul\":8137:8157   */\n          tag_136\n          jump\t// in\n        tag_245:\n            /* \"#utility.yul\":8132:8157   */\n          swap3\n          pop\n            /* \"#utility.yul\":8180:8181   */\n          dup3\n            /* \"#utility.yul\":8177:8178   */\n          dup3\n            /* \"#utility.yul\":8173:8182   */\n          add\n            /* \"#utility.yul\":8166:8182   */\n          swap1\n          pop\n            /* \"#utility.yul\":8201:8204   */\n          dup1\n            /* \"#utility.yul\":8198:8199   */\n          dup3\n            /* \"#utility.yul\":8195:8205   */\n          gt\n            /* \"#utility.yul\":8192:8228   */\n          iszero\n          tag_246\n          jumpi\n            /* \"#utility.yul\":8208:8226   */\n          tag_247\n          tag_149\n          jump\t// in\n        tag_247:\n            /* \"#utility.yul\":8192:8228   */\n        tag_246:\n            /* \"#utility.yul\":8044:8235   */\n          swap3\n          swap2\n          pop\n          pop\n          jump\t// out\n            /* \"#utility.yul\":8241:8435   */\n        tag_98:\n            /* \"#utility.yul\":8281:8285   */\n          0x00\n            /* \"#utility.yul\":8301:8321   */\n          tag_249\n            /* \"#utility.yul\":8319:8320   */\n          dup3\n            /* \"#utility.yul\":8301:8321   */\n          tag_136\n          jump\t// in\n        tag_249:\n            /* \"#utility.yul\":8296:8321   */\n          swap2\n          pop\n            /* \"#utility.yul\":8335:8355   */\n          tag_250\n            /* \"#utility.yul\":8353:8354   */\n          dup4\n            /* \"#utility.yul\":8335:8355   */\n          tag_136\n          jump\t// in\n        tag_250:\n            /* \"#utility.yul\":8330:8355   */\n          swap3\n          pop\n            /* \"#utility.yul\":8379:8380   */\n          dup3\n            /* \"#utility.yul\":8376:8377   */\n          dup3\n            /* \"#utility.yul\":8372:8381   */\n          sub\n            /* \"#utility.yul\":8364:8381   */\n          swap1\n          pop\n            /* \"#utility.yul\":8403:8404   */\n          dup2\n            /* \"#utility.yul\":8397:8401   */\n          dup2\n            /* \"#utility.yul\":8394:8405   */\n          gt\n            /* \"#utility.yul\":8391:8428   */\n          iszero\n          tag_251\n          jumpi\n            /* \"#utility.yul\":8408:8426   */\n          tag_252\n          tag_149\n          jump\t// in\n        tag_252:\n            /* \"#utility.yul\":8391:8428   */\n        tag_251:\n            /* \"#utility.yul\":8241:8435   */\n          swap3\n          swap2\n          pop\n          pop\n          jump\t// out\n            /* \"#utility.yul\":8441:8621   */\n        tag_107:\n            /* \"#utility.yul\":8489:8566   */\n          0x4e487b7100000000000000000000000000000000000000000000000000000000\n            /* \"#utility.yul\":8486:8487   */\n          0x00\n            /* \"#utility.yul\":8479:8567   */\n          mstore\n            /* \"#utility.yul\":8586:8590   */\n          0x31\n            /* \"#utility.yul\":8583:8584   */\n          0x04\n            /* \"#utility.yul\":8576:8591   */\n          mstore\n            /* \"#utility.yul\":8610:8614   */\n          0x24\n            /* \"#utility.yul\":8607:8608   */\n          0x00\n            /* \"#utility.yul\":8600:8615   */\n          revert\n            /* \"#utility.yul\":8627:9037   */\n        tag_116:\n            /* \"#utility.yul\":8667:8674   */\n          0x00\n            /* \"#utility.yul\":8690:8710   */\n          tag_255\n            /* \"#utility.yul\":8708:8709   */\n          dup3\n            /* \"#utility.yul\":8690:8710   */\n          tag_136\n          jump\t// in\n        tag_255:\n            /* \"#utility.yul\":8685:8710   */\n          swap2\n          pop\n            /* \"#utility.yul\":8724:8744   */\n          tag_256\n            /* \"#utility.yul\":8742:8743   */\n          dup4\n            /* \"#utility.yul\":8724:8744   */\n          tag_136\n          jump\t// in\n        tag_256:\n            /* \"#utility.yul\":8719:8744   */\n          swap3\n          pop\n            /* \"#utility.yul\":8779:8780   */\n          dup3\n            /* \"#utility.yul\":8776:8777   */\n          dup3\n            /* \"#utility.yul\":8772:8781   */\n          mul\n            /* \"#utility.yul\":8801:8831   */\n          tag_257\n            /* \"#utility.yul\":8819:8830   */\n          dup2\n            /* \"#utility.yul\":8801:8831   */\n          tag_136\n          jump\t// in\n        tag_257:\n            /* \"#utility.yul\":8790:8831   */\n          swap2\n          pop\n            /* \"#utility.yul\":8980:8981   */\n          dup3\n            /* \"#utility.yul\":8971:8978   */\n          dup3\n            /* \"#utility.yul\":8967:8982   */\n          div\n            /* \"#utility.yul\":8964:8965   */\n          dup5\n            /* \"#utility.yul\":8961:8983   */\n          eq\n            /* \"#utility.yul\":8941:8942   */\n          dup4\n            /* \"#utility.yul\":8934:8943   */\n          iszero\n            /* \"#utility.yul\":8914:8997   */\n          or\n            /* \"#utility.yul\":8891:9030   */\n          tag_258\n          jumpi\n            /* \"#utility.yul\":9010:9028   */\n          tag_259\n          tag_149\n          jump\t// in\n        tag_259:\n            /* \"#utility.yul\":8891:9030   */\n        tag_258:\n            /* \"#utility.yul\":8675:9037   */\n          pop\n            /* \"#utility.yul\":8627:9037   */\n          swap3\n          swap2\n          pop\n          pop\n          jump\t// out\n            /* \"#utility.yul\":9043:9223   */\n        tag_150:\n            /* \"#utility.yul\":9091:9168   */\n          0x4e487b7100000000000000000000000000000000000000000000000000000000\n            /* \"#utility.yul\":9088:9089   */\n          0x00\n            /* \"#utility.yul\":9081:9169   */\n          mstore\n            /* \"#utility.yul\":9188:9192   */\n          0x12\n            /* \"#utility.yul\":9185:9186   */\n          0x04\n            /* \"#utility.yul\":9178:9193   */\n          mstore\n            /* \"#utility.yul\":9212:9216   */\n          0x24\n            /* \"#utility.yul\":9209:9210   */\n          0x00\n            /* \"#utility.yul\":9202:9217   */\n          revert\n            /* \"#utility.yul\":9229:9414   */\n        tag_118:\n            /* \"#utility.yul\":9269:9270   */\n          0x00\n            /* \"#utility.yul\":9286:9306   */\n          tag_262\n            /* \"#utility.yul\":9304:9305   */\n          dup3\n            /* \"#utility.yul\":9286:9306   */\n          tag_136\n          jump\t// in\n        tag_262:\n            /* \"#utility.yul\":9281:9306   */\n          swap2\n          pop\n            /* \"#utility.yul\":9320:9340   */\n          tag_263\n            /* \"#utility.yul\":9338:9339   */\n          dup4\n            /* \"#utility.yul\":9320:9340   */\n          tag_136\n          jump\t// in\n        tag_263:\n            /* \"#utility.yul\":9315:9340   */\n          swap3\n          pop\n            /* \"#utility.yul\":9359:9360   */\n          dup3\n            /* \"#utility.yul\":9349:9384   */\n          tag_264\n          jumpi\n            /* \"#utility.yul\":9364:9382   */\n          tag_265\n          tag_150\n          jump\t// in\n        tag_265:\n            /* \"#utility.yul\":9349:9384   */\n        tag_264:\n            /* \"#utility.yul\":9406:9407   */\n          dup3\n            /* \"#utility.yul\":9403:9404   */\n          dup3\n            /* \"#utility.yul\":9399:9408   */\n          div\n            /* \"#utility.yul\":9394:9408   */\n          swap1\n          pop\n            /* \"#utility.yul\":9229:9414   */\n          swap3\n          swap2\n          pop\n          pop\n          jump\t// out\n\n        auxdata: 0xa2646970667358221220537156b17dfa5e86914cef30e564bb31d77a04e332d444a4dcf926fba1e5adb064736f6c63430008130033\n    }\n}\n","bytecode":{"linkReferences":{},"object":"60806040523480156200001157600080fd5b50336000806101000a81548173ffffffffffffffffffffffffffffffffffffffff021916908373ffffffffffffffffffffffffffffffffffffffff1602179055506040516200006090620001ef565b604051809103906000f0801580156200007d573d6000803e3d6000fd5b50600160006101000a81548173ffffffffffffffffffffffffffffffffffffffff021916908373ffffffffffffffffffffffffffffffffffffffff160217905550604051620000cc90620001fd565b604051809103906000f080158015620000e9573d6000803e3d6000fd5b50600360006101000a81548173ffffffffffffffffffffffffffffffffffffffff021916908373ffffffffffffffffffffffffffffffffffffffff160217905550600160009054906101000a900473ffffffffffffffffffffffffffffffffffffffff16600360009054906101000a900473ffffffffffffffffffffffffffffffffffffffff166040516200017e906200020b565b6200018b929190620002c9565b604051809103906000f080158015620001a8573d6000803e3d6000fd5b50600260006101000a81548173ffffffffffffffffffffffffffffffffffffffff021916908373ffffffffffffffffffffffffffffffffffffffff160217905550620002f6565b6104bf806200130a83390190565b61050a80620017c983390190565b6114588062001cd383390190565b600073ffffffffffffffffffffffffffffffffffffffff82169050919050565b6000819050919050565b6000620002646200025e620002588462000219565b62000239565b62000219565b9050919050565b6000620002788262000243565b9050919050565b60006200028c826200026b565b9050919050565b6200029e816200027f565b82525050565b6000620002b1826200026b565b9050919050565b620002c381620002a4565b82525050565b6000604082019050620002e0600083018562000293565b620002ef6020830184620002b8565b9392505050565b61100480620003066000396000f3fe6080604052600436106100c25760003560e01c8063a84cffd91161007f578063ccff137a11610059578063ccff137a1461025b578063d108177a14610286578063df47a353146102af578063e2c41dbc146102d8576100c2565b8063a84cffd9146101da578063c0571ea514610205578063c71daccb14610230576100c2565b80631caafcf1146100c75780634a4247d91461010757806364ca098114610130578063803968111461015b578063809e9ef5146101985780638da5cb5b146101af575b600080fd5b3480156100d357600080fd5b506100ee60048036038101906100e99190610940565b6102e2565b6040516100fe9493929190610995565b60405180910390f35b34801561011357600080fd5b5061012e60048036038101906101299190610a44565b610393565b005b34801561013c57600080fd5b5061014561042c565b6040516101529190610b0a565b60405180910390f35b34801561016757600080fd5b50610182600480360381019061017d9190610940565b610452565b60405161018f9190610be3565b60405180910390f35b3480156101a457600080fd5b506101ad6104fc565b005b3480156101bb57600080fd5b506101c4610580565b6040516101d19190610c05565b60405180910390f35b3480156101e657600080fd5b506101ef6105a4565b6040516101fc9190610c20565b60405180910390f35b34801561021157600080fd5b5061021a61063c565b6040516102279190610c5c565b60405180910390f35b34801561023c57600080fd5b50610245610662565b6040516102529190610c20565b60405180910390f35b34801561026757600080fd5b506102706106fa565b60405161027d9190610c98565b60405180910390f35b34801561029257600080fd5b506102ad60048036038101906102a89190610940565b610720565b005b3480156102bb57600080fd5b506102d660048036038101906102d19190610cb3565b6107b0565b005b6102e0610849565b005b600080600080600260009054906101000a900473ffffffffffffffffffffffffffffffffffffffff1673ffffffffffffffffffffffffffffffffffffffff16631caafcf1866040518263ffffffff1660e01b81526004016103439190610c05565b608060405180830381865afa158015610360573d6000803e3d6000fd5b505050506040513d601f19601f820116820180604052508101906103849190610d44565b93509350935093509193509193565b600260009054906101000a900473ffffffffffffffffffffffffffffffffffffffff1673ffffffffffffffffffffffffffffffffffffffff16634a4247d9858585856040518563ffffffff1660e01b81526004016103f49493929190610dba565b600060405180830381600087803b15801561040e57600080fd5b505af1158015610422573d6000803e3d6000fd5b5050505050505050565b600160009054906101000a900473ffffffffffffffffffffffffffffffffffffffff1681565b6060600360009054906101000a900473ffffffffffffffffffffffffffffffffffffffff1673ffffffffffffffffffffffffffffffffffffffff166380396811836040518263ffffffff1660e01b81526004016104af9190610c05565b600060405180830381865afa1580156104cc573d6000803e3d6000fd5b505050506040513d6000823e3d601f19601f820116820180604052508101906104f59190610f58565b9050919050565b600260009054906101000a900473ffffffffffffffffffffffffffffffffffffffff1673ffffffffffffffffffffffffffffffffffffffff1663809e9ef56040518163ffffffff1660e01b8152600401600060405180830381600087803b15801561056657600080fd5b505af115801561057a573d6000803e3d6000fd5b50505050565b60008054906101000a900473ffffffffffffffffffffffffffffffffffffffff1681565b6000600260009054906101000a900473ffffffffffffffffffffffffffffffffffffffff1673ffffffffffffffffffffffffffffffffffffffff1663a84cffd96040518163ffffffff1660e01b8152600401602060405180830381865afa158015610613573d6000803e3d6000fd5b505050506040513d601f19601f820116820180604052508101906106379190610fa1565b905090565b600360009054906101000a900473ffffffffffffffffffffffffffffffffffffffff1681565b6000600160009054906101000a900473ffffffffffffffffffffffffffffffffffffffff1673ffffffffffffffffffffffffffffffffffffffff1663c71daccb6040518163ffffffff1660e01b8152600401602060405180830381865afa1580156106d1573d6000803e3d6000fd5b505050506040513d601f19601f820116820180604052508101906106f59190610fa1565b905090565b600260009054906101000a900473ffffffffffffffffffffffffffffffffffffffff1681565b600260009054906101000a900473ffffffffffffffffffffffffffffffffffffffff1673ffffffffffffffffffffffffffffffffffffffff1663d108177a826040518263ffffffff1660e01b815260040161077b9190610c05565b600060405180830381600087803b15801561079557600080fd5b505af11580156107a9573d6000803e3d6000fd5b5050505050565b600260009054906101000a900473ffffffffffffffffffffffffffffffffffffffff1673ffffffffffffffffffffffffffffffffffffffff1663df47a353858585856040518563ffffffff1660e01b81526004016108119493929190610995565b600060405180830381600087803b15801561082b57600080fd5b505af115801561083f573d6000803e3d6000fd5b5050505050505050565b600160009054906101000a900473ffffffffffffffffffffffffffffffffffffffff1673ffffffffffffffffffffffffffffffffffffffff1663e2c41dbc346040518263ffffffff1660e01b81526004016000604051808303818588803b1580156108b357600080fd5b505af11580156108c7573d6000803e3d6000fd5b5050505050565b6000604051905090565b600080fd5b600080fd5b600073ffffffffffffffffffffffffffffffffffffffff82169050919050565b600061090d826108e2565b9050919050565b61091d81610902565b811461092857600080fd5b50565b60008135905061093a81610914565b92915050565b600060208284031215610956576109556108d8565b5b60006109648482850161092b565b91505092915050565b61097681610902565b82525050565b6000819050919050565b61098f8161097c565b82525050565b60006080820190506109aa600083018761096d565b6109b76020830186610986565b6109c46040830185610986565b6109d16060830184610986565b95945050505050565b60006109e5826108e2565b9050919050565b6109f5816109da565b8114610a0057600080fd5b50565b600081359050610a12816109ec565b92915050565b610a218161097c565b8114610a2c57600080fd5b50565b600081359050610a3e81610a18565b92915050565b60008060008060808587031215610a5e57610a5d6108d8565b5b6000610a6c87828801610a03565b9450506020610a7d87828801610a2f565b9350506040610a8e87828801610a2f565b9250506060610a9f87828801610a2f565b91505092959194509250565b6000819050919050565b6000610ad0610acb610ac6846108e2565b610aab565b6108e2565b9050919050565b6000610ae282610ab5565b9050919050565b6000610af482610ad7565b9050919050565b610b0481610ae9565b82525050565b6000602082019050610b1f6000830184610afb565b92915050565b600081519050919050565b600082825260208201905092915050565b6000819050602082019050919050565b610b5a8161097c565b82525050565b6000610b6c8383610b51565b60208301905092915050565b6000602082019050919050565b6000610b9082610b25565b610b9a8185610b30565b9350610ba583610b41565b8060005b83811015610bd6578151610bbd8882610b60565b9750610bc883610b78565b925050600181019050610ba9565b5085935050505092915050565b60006020820190508181036000830152610bfd8184610b85565b905092915050565b6000602082019050610c1a600083018461096d565b92915050565b6000602082019050610c356000830184610986565b92915050565b6000610c4682610ad7565b9050919050565b610c5681610c3b565b82525050565b6000602082019050610c716000830184610c4d565b92915050565b6000610c8282610ad7565b9050919050565b610c9281610c77565b82525050565b6000602082019050610cad6000830184610c89565b92915050565b60008060008060808587031215610ccd57610ccc6108d8565b5b6000610cdb8782880161092b565b9450506020610cec87828801610a2f565b9350506040610cfd87828801610a2f565b9250506060610d0e87828801610a2f565b91505092959194509250565b600081519050610d2981610914565b92915050565b600081519050610d3e81610a18565b92915050565b60008060008060808587031215610d5e57610d5d6108d8565b5b6000610d6c87828801610d1a565b9450506020610d7d87828801610d2f565b9350506040610d8e87828801610d2f565b9250506060610d9f87828801610d2f565b91505092959194509250565b610db4816109da565b82525050565b6000608082019050610dcf6000830187610dab565b610ddc6020830186610986565b610de96040830185610986565b610df66060830184610986565b95945050505050565b600080fd5b6000601f19601f8301169050919050565b7f4e487b7100000000000000000000000000000000000000000000000000000000600052604160045260246000fd5b610e4d82610e04565b810181811067ffffffffffffffff82111715610e6c57610e6b610e15565b5b80604052505050565b6000610e7f6108ce565b9050610e8b8282610e44565b919050565b600067ffffffffffffffff821115610eab57610eaa610e15565b5b602082029050602081019050919050565b600080fd5b6000610ed4610ecf84610e90565b610e75565b90508083825260208201905060208402830185811115610ef757610ef6610ebc565b5b835b81811015610f205780610f0c8882610d2f565b845260208401935050602081019050610ef9565b5050509392505050565b600082601f830112610f3f57610f3e610dff565b5b8151610f4f848260208601610ec1565b91505092915050565b600060208284031215610f6e57610f6d6108d8565b5b600082015167ffffffffffffffff811115610f8c57610f8b6108dd565b5b610f9884828501610f2a565b91505092915050565b600060208284031215610fb757610fb66108d8565b5b6000610fc584828501610d2f565b9150509291505056fea2646970667358221220d0be1df63eb4e471089140fce394eb1b43fab38ba0acb59dba3562308526ee2a64736f6c63430008130033608060405234801561001057600080fd5b5061049f806100206000396000f3fe60806040526004361061003f5760003560e01c806357d9989c14610044578063c71daccb1461006d578063d7081e0314610098578063e2c41dbc146100c1575b600080fd5b34801561005057600080fd5b5061006b600480360381019061006691906102fa565b6100cb565b005b34801561007957600080fd5b50610082610192565b60405161008f9190610349565b60405180910390f35b3480156100a457600080fd5b506100bf60048036038101906100ba91906102fa565b61019a565b005b6100c9610228565b005b4781111561010e576040517f08c379a0000000000000000000000000000000000000000000000000000000008152600401610105906103c1565b60405180910390fd5b8173ffffffffffffffffffffffffffffffffffffffff166108fc829081150290604051600060405180830381858888f19350505050158015610154573d6000803e3d6000fd5b507f23d6711a1d031134a36921253c75aa59e967d38e369ac625992824315e204f208282604051610186929190610440565b60405180910390a15050565b600047905090565b478111156101dd576040517f08c379a00000000000000000000000000000000000000000000000000000000081526004016101d4906103c1565b60405180910390fd5b8173ffffffffffffffffffffffffffffffffffffffff166108fc829081150290604051600060405180830381858888f19350505050158015610223573d6000803e3d6000fd5b505050565b7f7cb5d45c1071f219bd2da1ea101758715bd52f23f2a707f2d9a0387dea18d906346040516102579190610349565b60405180910390a1565b600080fd5b600073ffffffffffffffffffffffffffffffffffffffff82169050919050565b600061029182610266565b9050919050565b6102a181610286565b81146102ac57600080fd5b50565b6000813590506102be81610298565b92915050565b6000819050919050565b6102d7816102c4565b81146102e257600080fd5b50565b6000813590506102f4816102ce565b92915050565b6000806040838503121561031157610310610261565b5b600061031f858286016102af565b9250506020610330858286016102e5565b9150509250929050565b610343816102c4565b82525050565b600060208201905061035e600083018461033a565b92915050565b600082825260208201905092915050565b7f496e73756666696369656e742066756e64730000000000000000000000000000600082015250565b60006103ab601283610364565b91506103b682610375565b602082019050919050565b600060208201905081810360008301526103da8161039e565b9050919050565b6000819050919050565b60006104066104016103fc84610266565b6103e1565b610266565b9050919050565b6000610418826103eb565b9050919050565b600061042a8261040d565b9050919050565b61043a8161041f565b82525050565b60006040820190506104556000830185610431565b610462602083018461033a565b939250505056fea264697066735822122012a8104adc02479ed6f02f267401ac3b441b74a5355642902d06a4349bd9f0ff64736f6c63430008130033608060405234801561001057600080fd5b506104ea806100206000396000f3fe608060405234801561001057600080fd5b506004361061004c5760003560e01c80632c5099c31461005157806358a290d214610081578063803968111461009d578063c316d9a7146100cd575b600080fd5b61006b6004803603810190610066919061033d565b6100e9565b604051610078919061038c565b60405180910390f35b61009b600480360381019061009691906103a7565b61011a565b005b6100b760048036038101906100b291906103a7565b610167565b6040516100c49190610492565b60405180910390f35b6100e760048036038101906100e2919061033d565b6101fd565b005b6000602052816000526040600020818154811061010557600080fd5b90600052602060002001600091509150505481565b6000808273ffffffffffffffffffffffffffffffffffffffff1673ffffffffffffffffffffffffffffffffffffffff16815260200190815260200160002060006101649190610266565b50565b60606000808373ffffffffffffffffffffffffffffffffffffffff1673ffffffffffffffffffffffffffffffffffffffff1681526020019081526020016000208054806020026020016040519081016040528092919081815260200182805480156101f157602002820191906000526020600020905b8154815260200190600101908083116101dd575b50505050509050919050565b6000808373ffffffffffffffffffffffffffffffffffffffff1673ffffffffffffffffffffffffffffffffffffffff1681526020019081526020016000208190806001815401808255809150506001900390600052602060002001600090919091909150555050565b50805460008255906000526020600020908101906102849190610287565b50565b5b808211156102a0576000816000905550600101610288565b5090565b600080fd5b600073ffffffffffffffffffffffffffffffffffffffff82169050919050565b60006102d4826102a9565b9050919050565b6102e4816102c9565b81146102ef57600080fd5b50565b600081359050610301816102db565b92915050565b6000819050919050565b61031a81610307565b811461032557600080fd5b50565b60008135905061033781610311565b92915050565b60008060408385031215610354576103536102a4565b5b6000610362858286016102f2565b925050602061037385828601610328565b9150509250929050565b61038681610307565b82525050565b60006020820190506103a1600083018461037d565b92915050565b6000602082840312156103bd576103bc6102a4565b5b60006103cb848285016102f2565b91505092915050565b600081519050919050565b600082825260208201905092915050565b6000819050602082019050919050565b61040981610307565b82525050565b600061041b8383610400565b60208301905092915050565b6000602082019050919050565b600061043f826103d4565b61044981856103df565b9350610454836103f0565b8060005b8381101561048557815161046c888261040f565b975061047783610427565b925050600181019050610458565b5085935050505092915050565b600060208201905081810360008301526104ac8184610434565b90509291505056fea264697066735822122042b0116aded54a2da761cad70a0c89879a44ff81f05f1561434ccce84b00aeee64736f6c6343000813003360806040523480156200001157600080fd5b506040516200145838038062001458833981810160405281019062000037919062000183565b816000806101000a81548173ffffffffffffffffffffffffffffffffffffffff021916908373ffffffffffffffffffffffffffffffffffffffff16021790555080600160006101000a81548173ffffffffffffffffffffffffffffffffffffffff021916908373ffffffffffffffffffffffffffffffffffffffff1602179055505050620001ca565b600080fd5b600073ffffffffffffffffffffffffffffffffffffffff82169050919050565b6000620000f282620000c5565b9050919050565b60006200010682620000e5565b9050919050565b6200011881620000f9565b81146200012457600080fd5b50565b60008151905062000138816200010d565b92915050565b60006200014b82620000e5565b9050919050565b6200015d816200013e565b81146200016957600080fd5b50565b6000815190506200017d8162000152565b92915050565b600080604083850312156200019d576200019c620000c0565b5b6000620001ad8582860162000127565b9250506020620001c0858286016200016c565b9150509250929050565b61127e80620001da6000396000f3fe608060405234801561001057600080fd5b50600436106100885760003560e01c8063be0e0da41161005b578063be0e0da414610104578063d067894714610134578063d108177a14610167578063df47a3531461018357610088565b80631caafcf11461008d5780634a4247d9146100c0578063809e9ef5146100dc578063a84cffd9146100e6575b600080fd5b6100a760048036038101906100a29190610d14565b61019f565b6040516100b79493929190610d69565b60405180910390f35b6100da60048036038101906100d59190610e18565b61028b565b005b6100e4610409565b005b6100ee6106e0565b6040516100fb9190610e7f565b60405180910390f35b61011e60048036038101906101199190610e9a565b61082f565b60405161012b9190610ec7565b60405180910390f35b61014e60048036038101906101499190610d14565b61086e565b60405161015e9493929190610ef1565b60405180910390f35b610181600480360381019061017c9190610d14565b6108be565b005b61019d60048036038101906101989190610f36565b610b15565b005b6000806000806000600260008773ffffffffffffffffffffffffffffffffffffffff1673ffffffffffffffffffffffffffffffffffffffff1681526020019081526020016000206040518060800160405290816000820160009054906101000a900473ffffffffffffffffffffffffffffffffffffffff1673ffffffffffffffffffffffffffffffffffffffff1673ffffffffffffffffffffffffffffffffffffffff1681526020016001820154815260200160028201548152602001600382015481525050905080600001518160200151826040015183606001519450945094509450509193509193565b60405180608001604052808573ffffffffffffffffffffffffffffffffffffffff16815260200184815260200183815260200182815250600260008673ffffffffffffffffffffffffffffffffffffffff1673ffffffffffffffffffffffffffffffffffffffff16815260200190815260200160002060008201518160000160006101000a81548173ffffffffffffffffffffffffffffffffffffffff021916908373ffffffffffffffffffffffffffffffffffffffff1602179055506020820151816001015560408201518160020155606082015181600301559050506003849080600181540180825580915050600190039060005260206000200160009091909190916101000a81548173ffffffffffffffffffffffffffffffffffffffff021916908373ffffffffffffffffffffffffffffffffffffffff1602179055507f041109cfe10cfa549abb66b986d0a294ecc6c9ad39000abcb9c2afd422c8bd64846040516103fb9190610ffc565b60405180910390a150505050565b60005b6003805490508110156106dd5760006003828154811061042f5761042e611017565b5b9060005260206000200160009054906101000a900473ffffffffffffffffffffffffffffffffffffffff1690506000610524600260008473ffffffffffffffffffffffffffffffffffffffff1673ffffffffffffffffffffffffffffffffffffffff1681526020019081526020016000206040518060800160405290816000820160009054906101000a900473ffffffffffffffffffffffffffffffffffffffff1673ffffffffffffffffffffffffffffffffffffffff1673ffffffffffffffffffffffffffffffffffffffff1681526020016001820154815260200160028201548152602001600382015481525050610bb1565b905060008054906101000a900473ffffffffffffffffffffffffffffffffffffffff1673ffffffffffffffffffffffffffffffffffffffff1663d7081e0383836040518363ffffffff1660e01b8152600401610581929190611046565b600060405180830381600087803b15801561059b57600080fd5b505af11580156105af573d6000803e3d6000fd5b505050506001600260008473ffffffffffffffffffffffffffffffffffffffff1673ffffffffffffffffffffffffffffffffffffffff16815260200190815260200160002060020181905550600160009054906101000a900473ffffffffffffffffffffffffffffffffffffffff1673ffffffffffffffffffffffffffffffffffffffff1663c316d9a76003858154811061064d5761064c611017565b5b9060005260206000200160009054906101000a900473ffffffffffffffffffffffffffffffffffffffff16836040518363ffffffff1660e01b815260040161069692919061106f565b600060405180830381600087803b1580156106b057600080fd5b505af11580156106c4573d6000803e3d6000fd5b50505050505080806106d5906110c7565b91505061040c565b50565b6000806000905060005b6003805490508110156108275760006003828154811061070d5761070c611017565b5b9060005260206000200160009054906101000a900473ffffffffffffffffffffffffffffffffffffffff1690506000610802600260008473ffffffffffffffffffffffffffffffffffffffff1673ffffffffffffffffffffffffffffffffffffffff1681526020019081526020016000206040518060800160405290816000820160009054906101000a900473ffffffffffffffffffffffffffffffffffffffff1673ffffffffffffffffffffffffffffffffffffffff1673ffffffffffffffffffffffffffffffffffffffff1681526020016001820154815260200160028201548152602001600382015481525050610bb1565b90508084610810919061110f565b93505050808061081f906110c7565b9150506106ea565b508091505090565b6003818154811061083f57600080fd5b906000526020600020016000915054906101000a900473ffffffffffffffffffffffffffffffffffffffff1681565b60026020528060005260406000206000915090508060000160009054906101000a900473ffffffffffffffffffffffffffffffffffffffff16908060010154908060020154908060030154905084565b600260008273ffffffffffffffffffffffffffffffffffffffff1673ffffffffffffffffffffffffffffffffffffffff168152602001908152602001600020600080820160006101000a81549073ffffffffffffffffffffffffffffffffffffffff02191690556001820160009055600282016000905560038201600090555050600160009054906101000a900473ffffffffffffffffffffffffffffffffffffffff1673ffffffffffffffffffffffffffffffffffffffff166358a290d2826040518263ffffffff1660e01b815260040161099a9190610ec7565b600060405180830381600087803b1580156109b457600080fd5b505af11580156109c8573d6000803e3d6000fd5b5050505060006109d782610c00565b9050600380549050811015610ada57600360016003805490506109fa9190611143565b81548110610a0b57610a0a611017565b5b9060005260206000200160009054906101000a900473ffffffffffffffffffffffffffffffffffffffff1660038281548110610a4a57610a49611017565b5b9060005260206000200160006101000a81548173ffffffffffffffffffffffffffffffffffffffff021916908373ffffffffffffffffffffffffffffffffffffffff1602179055506003805480610aa457610aa3611177565b5b6001900381819060005260206000200160006101000a81549073ffffffffffffffffffffffffffffffffffffffff021916905590555b7fabae6e64cb4315875c29d42347a312f5e9fce4ab564e9722b43dd78d0751135a82604051610b099190610ec7565b60405180910390a15050565b6000600260008673ffffffffffffffffffffffffffffffffffffffff1673ffffffffffffffffffffffffffffffffffffffff16815260200190815260200160002090508381600101819055508281600201819055508181600301819055507f99d48556be6117b7da7d33c0afce92eb9789b36c8ff5bb60469500883453479685604051610ba29190610ec7565b60405180910390a15050505050565b600080600183604001518460600151610bca9190611143565b610bd4919061110f565b90506000601e846020015183610bea91906111a6565b610bf49190611217565b90508092505050919050565b600080600090505b600380549050811015610ca2578273ffffffffffffffffffffffffffffffffffffffff1660038281548110610c4057610c3f611017565b5b9060005260206000200160009054906101000a900473ffffffffffffffffffffffffffffffffffffffff1673ffffffffffffffffffffffffffffffffffffffff1603610c8f5780915050610cac565b8080610c9a906110c7565b915050610c08565b5060038054905090505b919050565b600080fd5b600073ffffffffffffffffffffffffffffffffffffffff82169050919050565b6000610ce182610cb6565b9050919050565b610cf181610cd6565b8114610cfc57600080fd5b50565b600081359050610d0e81610ce8565b92915050565b600060208284031215610d2a57610d29610cb1565b5b6000610d3884828501610cff565b91505092915050565b610d4a81610cd6565b82525050565b6000819050919050565b610d6381610d50565b82525050565b6000608082019050610d7e6000830187610d41565b610d8b6020830186610d5a565b610d986040830185610d5a565b610da56060830184610d5a565b95945050505050565b6000610db982610cb6565b9050919050565b610dc981610dae565b8114610dd457600080fd5b50565b600081359050610de681610dc0565b92915050565b610df581610d50565b8114610e0057600080fd5b50565b600081359050610e1281610dec565b92915050565b60008060008060808587031215610e3257610e31610cb1565b5b6000610e4087828801610dd7565b9450506020610e5187828801610e03565b9350506040610e6287828801610e03565b9250506060610e7387828801610e03565b91505092959194509250565b6000602082019050610e946000830184610d5a565b92915050565b600060208284031215610eb057610eaf610cb1565b5b6000610ebe84828501610e03565b91505092915050565b6000602082019050610edc6000830184610d41565b92915050565b610eeb81610dae565b82525050565b6000608082019050610f066000830187610ee2565b610f136020830186610d5a565b610f206040830185610d5a565b610f2d6060830184610d5a565b95945050505050565b60008060008060808587031215610f5057610f4f610cb1565b5b6000610f5e87828801610cff565b9450506020610f6f87828801610e03565b9350506040610f8087828801610e03565b9250506060610f9187828801610e03565b91505092959194509250565b6000819050919050565b6000610fc2610fbd610fb884610cb6565b610f9d565b610cb6565b9050919050565b6000610fd482610fa7565b9050919050565b6000610fe682610fc9565b9050919050565b610ff681610fdb565b82525050565b60006020820190506110116000830184610fed565b92915050565b7f4e487b7100000000000000000000000000000000000000000000000000000000600052603260045260246000fd5b600060408201905061105b6000830185610ee2565b6110686020830184610d5a565b9392505050565b60006040820190506110846000830185610d41565b6110916020830184610d5a565b9392505050565b7f4e487b7100000000000000000000000000000000000000000000000000000000600052601160045260246000fd5b60006110d282610d50565b91507fffffffffffffffffffffffffffffffffffffffffffffffffffffffffffffffff820361110457611103611098565b5b600182019050919050565b600061111a82610d50565b915061112583610d50565b925082820190508082111561113d5761113c611098565b5b92915050565b600061114e82610d50565b915061115983610d50565b925082820390508181111561117157611170611098565b5b92915050565b7f4e487b7100000000000000000000000000000000000000000000000000000000600052603160045260246000fd5b60006111b182610d50565b91506111bc83610d50565b92508282026111ca81610d50565b915082820484148315176111e1576111e0611098565b5b5092915050565b7f4e487b7100000000000000000000000000000000000000000000000000000000600052601260045260246000fd5b600061122282610d50565b915061122d83610d50565b92508261123d5761123c6111e8565b5b82820490509291505056fea2646970667358221220537156b17dfa5e86914cef30e564bb31d77a04e332d444a4dcf926fba1e5adb064736f6c63430008130033","opcodes":"PUSH1 0x80 PUSH1 0x40 MSTORE CALLVALUE DUP1 ISZERO PUSH3 0x11 JUMPI PUSH1 0x0 DUP1 REVERT JUMPDEST POP CALLER PUSH1 0x0 DUP1 PUSH2 0x100 EXP DUP2 SLOAD DUP2 PUSH20 0xFFFFFFFFFFFFFFFFFFFFFFFFFFFFFFFFFFFFFFFF MUL NOT AND SWAP1 DUP4 PUSH20 0xFFFFFFFFFFFFFFFFFFFFFFFFFFFFFFFFFFFFFFFF AND MUL OR SWAP1 SSTORE POP PUSH1 0x40 MLOAD PUSH3 0x60 SWAP1 PUSH3 0x1EF JUMP JUMPDEST PUSH1 0x40 MLOAD DUP1 SWAP2 SUB SWAP1 PUSH1 0x0 CREATE DUP1 ISZERO DUP1 ISZERO PUSH3 0x7D JUMPI RETURNDATASIZE PUSH1 0x0 DUP1 RETURNDATACOPY RETURNDATASIZE PUSH1 0x0 REVERT JUMPDEST POP PUSH1 0x1 PUSH1 0x0 PUSH2 0x100 EXP DUP2 SLOAD DUP2 PUSH20 0xFFFFFFFFFFFFFFFFFFFFFFFFFFFFFFFFFFFFFFFF MUL NOT AND SWAP1 DUP4 PUSH20 0xFFFFFFFFFFFFFFFFFFFFFFFFFFFFFFFFFFFFFFFF AND MUL OR SWAP1 SSTORE POP PUSH1 0x40 MLOAD PUSH3 0xCC SWAP1 PUSH3 0x1FD JUMP JUMPDEST PUSH1 0x40 MLOAD DUP1 SWAP2 SUB SWAP1 PUSH1 0x0 CREATE DUP1 ISZERO DUP1 ISZERO PUSH3 0xE9 JUMPI RETURNDATASIZE PUSH1 0x0 DUP1 RETURNDATACOPY RETURNDATASIZE PUSH1 0x0 REVERT JUMPDEST POP PUSH1 0x3 PUSH1 0x0 PUSH2 0x100 EXP DUP2 SLOAD DUP2 PUSH20 0xFFFFFFFFFFFFFFFFFFFFFFFFFFFFFFFFFFFFFFFF MUL NOT AND SWAP1 DUP4 PUSH20 0xFFFFFFFFFFFFFFFFFFFFFFFFFFFFFFFFFFFFFFFF AND MUL OR SWAP1 SSTORE POP PUSH1 0x1 PUSH1 0x0 SWAP1 SLOAD SWAP1 PUSH2 0x100 EXP SWAP1 DIV PUSH20 0xFFFFFFFFFFFFFFFFFFFFFFFFFFFFFFFFFFFFFFFF AND PUSH1 0x3 PUSH1 0x0 SWAP1 SLOAD SWAP1 PUSH2 0x100 EXP SWAP1 DIV PUSH20 0xFFFFFFFFFFFFFFFFFFFFFFFFFFFFFFFFFFFFFFFF AND PUSH1 0x40 MLOAD PUSH3 0x17E SWAP1 PUSH3 0x20B JUMP JUMPDEST PUSH3 0x18B SWAP3 SWAP2 SWAP1 PUSH3 0x2C9 JUMP JUMPDEST PUSH1 0x40 MLOAD DUP1 SWAP2 SUB SWAP1 PUSH1 0x0 CREATE DUP1 ISZERO DUP1 ISZERO PUSH3 0x1A8 JUMPI RETURNDATASIZE PUSH1 0x0 DUP1 RETURNDATACOPY RETURNDATASIZE PUSH1 0x0 REVERT JUMPDEST POP PUSH1 0x2 PUSH1 0x0 PUSH2 0x100 EXP DUP2 SLOAD DUP2 PUSH20 0xFFFFFFFFFFFFFFFFFFFFFFFFFFFFFFFFFFFFFFFF MUL NOT AND SWAP1 DUP4 PUSH20 0xFFFFFFFFFFFFFFFFFFFFFFFFFFFFFFFFFFFFFFFF AND MUL OR SWAP1 SSTORE POP PUSH3 0x2F6 JUMP JUMPDEST PUSH2 0x4BF DUP1 PUSH3 0x130A DUP4 CODECOPY ADD SWAP1 JUMP JUMPDEST PUSH2 0x50A DUP1 PUSH3 0x17C9 DUP4 CODECOPY ADD SWAP1 JUMP JUMPDEST PUSH2 0x1458 DUP1 PUSH3 0x1CD3 DUP4 CODECOPY ADD SWAP1 JUMP JUMPDEST PUSH1 0x0 PUSH20 0xFFFFFFFFFFFFFFFFFFFFFFFFFFFFFFFFFFFFFFFF DUP3 AND SWAP1 POP SWAP2 SWAP1 POP JUMP JUMPDEST PUSH1 0x0 DUP2 SWAP1 POP SWAP2 SWAP1 POP JUMP JUMPDEST PUSH1 0x0 PUSH3 0x264 PUSH3 0x25E PUSH3 0x258 DUP5 PUSH3 0x219 JUMP JUMPDEST PUSH3 0x239 JUMP JUMPDEST PUSH3 0x219 JUMP JUMPDEST SWAP1 POP SWAP2 SWAP1 POP JUMP JUMPDEST PUSH1 0x0 PUSH3 0x278 DUP3 PUSH3 0x243 JUMP JUMPDEST SWAP1 POP SWAP2 SWAP1 POP JUMP JUMPDEST PUSH1 0x0 PUSH3 0x28C DUP3 PUSH3 0x26B JUMP JUMPDEST SWAP1 POP SWAP2 SWAP1 POP JUMP JUMPDEST PUSH3 0x29E DUP2 PUSH3 0x27F JUMP JUMPDEST DUP3 MSTORE POP POP JUMP JUMPDEST PUSH1 0x0 PUSH3 0x2B1 DUP3 PUSH3 0x26B JUMP JUMPDEST SWAP1 POP SWAP2 SWAP1 POP JUMP JUMPDEST PUSH3 0x2C3 DUP2 PUSH3 0x2A4 JUMP JUMPDEST DUP3 MSTORE POP POP JUMP JUMPDEST PUSH1 0x0 PUSH1 0x40 DUP3 ADD SWAP1 POP PUSH3 0x2E0 PUSH1 0x0 DUP4 ADD DUP6 PUSH3 0x293 JUMP JUMPDEST PUSH3 0x2EF PUSH1 0x20 DUP4 ADD DUP5 PUSH3 0x2B8 JUMP JUMPDEST SWAP4 SWAP3 POP POP POP JUMP JUMPDEST PUSH2 0x1004 DUP1 PUSH3 0x306 PUSH1 0x0 CODECOPY PUSH1 0x0 RETURN INVALID PUSH1 0x80 PUSH1 0x40 MSTORE PUSH1 0x4 CALLDATASIZE LT PUSH2 0xC2 JUMPI PUSH1 0x0 CALLDATALOAD PUSH1 0xE0 SHR DUP1 PUSH4 0xA84CFFD9 GT PUSH2 0x7F JUMPI DUP1 PUSH4 0xCCFF137A GT PUSH2 0x59 JUMPI DUP1 PUSH4 0xCCFF137A EQ PUSH2 0x25B JUMPI DUP1 PUSH4 0xD108177A EQ PUSH2 0x286 JUMPI DUP1 PUSH4 0xDF47A353 EQ PUSH2 0x2AF JUMPI DUP1 PUSH4 0xE2C41DBC EQ PUSH2 0x2D8 JUMPI PUSH2 0xC2 JUMP JUMPDEST DUP1 PUSH4 0xA84CFFD9 EQ PUSH2 0x1DA JUMPI DUP1 PUSH4 0xC0571EA5 EQ PUSH2 0x205 JUMPI DUP1 PUSH4 0xC71DACCB EQ PUSH2 0x230 JUMPI PUSH2 0xC2 JUMP JUMPDEST DUP1 PUSH4 0x1CAAFCF1 EQ PUSH2 0xC7 JUMPI DUP1 PUSH4 0x4A4247D9 EQ PUSH2 0x107 JUMPI DUP1 PUSH4 0x64CA0981 EQ PUSH2 0x130 JUMPI DUP1 PUSH4 0x80396811 EQ PUSH2 0x15B JUMPI DUP1 PUSH4 0x809E9EF5 EQ PUSH2 0x198 JUMPI DUP1 PUSH4 0x8DA5CB5B EQ PUSH2 0x1AF JUMPI JUMPDEST PUSH1 0x0 DUP1 REVERT JUMPDEST CALLVALUE DUP1 ISZERO PUSH2 0xD3 JUMPI PUSH1 0x0 DUP1 REVERT JUMPDEST POP PUSH2 0xEE PUSH1 0x4 DUP1 CALLDATASIZE SUB DUP2 ADD SWAP1 PUSH2 0xE9 SWAP2 SWAP1 PUSH2 0x940 JUMP JUMPDEST PUSH2 0x2E2 JUMP JUMPDEST PUSH1 0x40 MLOAD PUSH2 0xFE SWAP5 SWAP4 SWAP3 SWAP2 SWAP1 PUSH2 0x995 JUMP JUMPDEST PUSH1 0x40 MLOAD DUP1 SWAP2 SUB SWAP1 RETURN JUMPDEST CALLVALUE DUP1 ISZERO PUSH2 0x113 JUMPI PUSH1 0x0 DUP1 REVERT JUMPDEST POP PUSH2 0x12E PUSH1 0x4 DUP1 CALLDATASIZE SUB DUP2 ADD SWAP1 PUSH2 0x129 SWAP2 SWAP1 PUSH2 0xA44 JUMP JUMPDEST PUSH2 0x393 JUMP JUMPDEST STOP JUMPDEST CALLVALUE DUP1 ISZERO PUSH2 0x13C JUMPI PUSH1 0x0 DUP1 REVERT JUMPDEST POP PUSH2 0x145 PUSH2 0x42C JUMP JUMPDEST PUSH1 0x40 MLOAD PUSH2 0x152 SWAP2 SWAP1 PUSH2 0xB0A JUMP JUMPDEST PUSH1 0x40 MLOAD DUP1 SWAP2 SUB SWAP1 RETURN JUMPDEST CALLVALUE DUP1 ISZERO PUSH2 0x167 JUMPI PUSH1 0x0 DUP1 REVERT JUMPDEST POP PUSH2 0x182 PUSH1 0x4 DUP1 CALLDATASIZE SUB DUP2 ADD SWAP1 PUSH2 0x17D SWAP2 SWAP1 PUSH2 0x940 JUMP JUMPDEST PUSH2 0x452 JUMP JUMPDEST PUSH1 0x40 MLOAD PUSH2 0x18F SWAP2 SWAP1 PUSH2 0xBE3 JUMP JUMPDEST PUSH1 0x40 MLOAD DUP1 SWAP2 SUB SWAP1 RETURN JUMPDEST CALLVALUE DUP1 ISZERO PUSH2 0x1A4 JUMPI PUSH1 0x0 DUP1 REVERT JUMPDEST POP PUSH2 0x1AD PUSH2 0x4FC JUMP JUMPDEST STOP JUMPDEST CALLVALUE DUP1 ISZERO PUSH2 0x1BB JUMPI PUSH1 0x0 DUP1 REVERT JUMPDEST POP PUSH2 0x1C4 PUSH2 0x580 JUMP JUMPDEST PUSH1 0x40 MLOAD PUSH2 0x1D1 SWAP2 SWAP1 PUSH2 0xC05 JUMP JUMPDEST PUSH1 0x40 MLOAD DUP1 SWAP2 SUB SWAP1 RETURN JUMPDEST CALLVALUE DUP1 ISZERO PUSH2 0x1E6 JUMPI PUSH1 0x0 DUP1 REVERT JUMPDEST POP PUSH2 0x1EF PUSH2 0x5A4 JUMP JUMPDEST PUSH1 0x40 MLOAD PUSH2 0x1FC SWAP2 SWAP1 PUSH2 0xC20 JUMP JUMPDEST PUSH1 0x40 MLOAD DUP1 SWAP2 SUB SWAP1 RETURN JUMPDEST CALLVALUE DUP1 ISZERO PUSH2 0x211 JUMPI PUSH1 0x0 DUP1 REVERT JUMPDEST POP PUSH2 0x21A PUSH2 0x63C JUMP JUMPDEST PUSH1 0x40 MLOAD PUSH2 0x227 SWAP2 SWAP1 PUSH2 0xC5C JUMP JUMPDEST PUSH1 0x40 MLOAD DUP1 SWAP2 SUB SWAP1 RETURN JUMPDEST CALLVALUE DUP1 ISZERO PUSH2 0x23C JUMPI PUSH1 0x0 DUP1 REVERT JUMPDEST POP PUSH2 0x245 PUSH2 0x662 JUMP JUMPDEST PUSH1 0x40 MLOAD PUSH2 0x252 SWAP2 SWAP1 PUSH2 0xC20 JUMP JUMPDEST PUSH1 0x40 MLOAD DUP1 SWAP2 SUB SWAP1 RETURN JUMPDEST CALLVALUE DUP1 ISZERO PUSH2 0x267 JUMPI PUSH1 0x0 DUP1 REVERT JUMPDEST POP PUSH2 0x270 PUSH2 0x6FA JUMP JUMPDEST PUSH1 0x40 MLOAD PUSH2 0x27D SWAP2 SWAP1 PUSH2 0xC98 JUMP JUMPDEST PUSH1 0x40 MLOAD DUP1 SWAP2 SUB SWAP1 RETURN JUMPDEST CALLVALUE DUP1 ISZERO PUSH2 0x292 JUMPI PUSH1 0x0 DUP1 REVERT JUMPDEST POP PUSH2 0x2AD PUSH1 0x4 DUP1 CALLDATASIZE SUB DUP2 ADD SWAP1 PUSH2 0x2A8 SWAP2 SWAP1 PUSH2 0x940 JUMP JUMPDEST PUSH2 0x720 JUMP JUMPDEST STOP JUMPDEST CALLVALUE DUP1 ISZERO PUSH2 0x2BB JUMPI PUSH1 0x0 DUP1 REVERT JUMPDEST POP PUSH2 0x2D6 PUSH1 0x4 DUP1 CALLDATASIZE SUB DUP2 ADD SWAP1 PUSH2 0x2D1 SWAP2 SWAP1 PUSH2 0xCB3 JUMP JUMPDEST PUSH2 0x7B0 JUMP JUMPDEST STOP JUMPDEST PUSH2 0x2E0 PUSH2 0x849 JUMP JUMPDEST STOP JUMPDEST PUSH1 0x0 DUP1 PUSH1 0x0 DUP1 PUSH1 0x2 PUSH1 0x0 SWAP1 SLOAD SWAP1 PUSH2 0x100 EXP SWAP1 DIV PUSH20 0xFFFFFFFFFFFFFFFFFFFFFFFFFFFFFFFFFFFFFFFF AND PUSH20 0xFFFFFFFFFFFFFFFFFFFFFFFFFFFFFFFFFFFFFFFF AND PUSH4 0x1CAAFCF1 DUP7 PUSH1 0x40 MLOAD DUP3 PUSH4 0xFFFFFFFF AND PUSH1 0xE0 SHL DUP2 MSTORE PUSH1 0x4 ADD PUSH2 0x343 SWAP2 SWAP1 PUSH2 0xC05 JUMP JUMPDEST PUSH1 0x80 PUSH1 0x40 MLOAD DUP1 DUP4 SUB DUP2 DUP7 GAS STATICCALL ISZERO DUP1 ISZERO PUSH2 0x360 JUMPI RETURNDATASIZE PUSH1 0x0 DUP1 RETURNDATACOPY RETURNDATASIZE PUSH1 0x0 REVERT JUMPDEST POP POP POP POP PUSH1 0x40 MLOAD RETURNDATASIZE PUSH1 0x1F NOT PUSH1 0x1F DUP3 ADD AND DUP3 ADD DUP1 PUSH1 0x40 MSTORE POP DUP2 ADD SWAP1 PUSH2 0x384 SWAP2 SWAP1 PUSH2 0xD44 JUMP JUMPDEST SWAP4 POP SWAP4 POP SWAP4 POP SWAP4 POP SWAP2 SWAP4 POP SWAP2 SWAP4 JUMP JUMPDEST PUSH1 0x2 PUSH1 0x0 SWAP1 SLOAD SWAP1 PUSH2 0x100 EXP SWAP1 DIV PUSH20 0xFFFFFFFFFFFFFFFFFFFFFFFFFFFFFFFFFFFFFFFF AND PUSH20 0xFFFFFFFFFFFFFFFFFFFFFFFFFFFFFFFFFFFFFFFF AND PUSH4 0x4A4247D9 DUP6 DUP6 DUP6 DUP6 PUSH1 0x40 MLOAD DUP6 PUSH4 0xFFFFFFFF AND PUSH1 0xE0 SHL DUP2 MSTORE PUSH1 0x4 ADD PUSH2 0x3F4 SWAP5 SWAP4 SWAP3 SWAP2 SWAP1 PUSH2 0xDBA JUMP JUMPDEST PUSH1 0x0 PUSH1 0x40 MLOAD DUP1 DUP4 SUB DUP2 PUSH1 0x0 DUP8 DUP1 EXTCODESIZE ISZERO DUP1 ISZERO PUSH2 0x40E JUMPI PUSH1 0x0 DUP1 REVERT JUMPDEST POP GAS CALL ISZERO DUP1 ISZERO PUSH2 0x422 JUMPI RETURNDATASIZE PUSH1 0x0 DUP1 RETURNDATACOPY RETURNDATASIZE PUSH1 0x0 REVERT JUMPDEST POP POP POP POP POP POP POP POP JUMP JUMPDEST PUSH1 0x1 PUSH1 0x0 SWAP1 SLOAD SWAP1 PUSH2 0x100 EXP SWAP1 DIV PUSH20 0xFFFFFFFFFFFFFFFFFFFFFFFFFFFFFFFFFFFFFFFF AND DUP2 JUMP JUMPDEST PUSH1 0x60 PUSH1 0x3 PUSH1 0x0 SWAP1 SLOAD SWAP1 PUSH2 0x100 EXP SWAP1 DIV PUSH20 0xFFFFFFFFFFFFFFFFFFFFFFFFFFFFFFFFFFFFFFFF AND PUSH20 0xFFFFFFFFFFFFFFFFFFFFFFFFFFFFFFFFFFFFFFFF AND PUSH4 0x80396811 DUP4 PUSH1 0x40 MLOAD DUP3 PUSH4 0xFFFFFFFF AND PUSH1 0xE0 SHL DUP2 MSTORE PUSH1 0x4 ADD PUSH2 0x4AF SWAP2 SWAP1 PUSH2 0xC05 JUMP JUMPDEST PUSH1 0x0 PUSH1 0x40 MLOAD DUP1 DUP4 SUB DUP2 DUP7 GAS STATICCALL ISZERO DUP1 ISZERO PUSH2 0x4CC JUMPI RETURNDATASIZE PUSH1 0x0 DUP1 RETURNDATACOPY RETURNDATASIZE PUSH1 0x0 REVERT JUMPDEST POP POP POP POP PUSH1 0x40 MLOAD RETURNDATASIZE PUSH1 0x0 DUP3 RETURNDATACOPY RETURNDATASIZE PUSH1 0x1F NOT PUSH1 0x1F DUP3 ADD AND DUP3 ADD DUP1 PUSH1 0x40 MSTORE POP DUP2 ADD SWAP1 PUSH2 0x4F5 SWAP2 SWAP1 PUSH2 0xF58 JUMP JUMPDEST SWAP1 POP SWAP2 SWAP1 POP JUMP JUMPDEST PUSH1 0x2 PUSH1 0x0 SWAP1 SLOAD SWAP1 PUSH2 0x100 EXP SWAP1 DIV PUSH20 0xFFFFFFFFFFFFFFFFFFFFFFFFFFFFFFFFFFFFFFFF AND PUSH20 0xFFFFFFFFFFFFFFFFFFFFFFFFFFFFFFFFFFFFFFFF AND PUSH4 0x809E9EF5 PUSH1 0x40 MLOAD DUP2 PUSH4 0xFFFFFFFF AND PUSH1 0xE0 SHL DUP2 MSTORE PUSH1 0x4 ADD PUSH1 0x0 PUSH1 0x40 MLOAD DUP1 DUP4 SUB DUP2 PUSH1 0x0 DUP8 DUP1 EXTCODESIZE ISZERO DUP1 ISZERO PUSH2 0x566 JUMPI PUSH1 0x0 DUP1 REVERT JUMPDEST POP GAS CALL ISZERO DUP1 ISZERO PUSH2 0x57A JUMPI RETURNDATASIZE PUSH1 0x0 DUP1 RETURNDATACOPY RETURNDATASIZE PUSH1 0x0 REVERT JUMPDEST POP POP POP POP JUMP JUMPDEST PUSH1 0x0 DUP1 SLOAD SWAP1 PUSH2 0x100 EXP SWAP1 DIV PUSH20 0xFFFFFFFFFFFFFFFFFFFFFFFFFFFFFFFFFFFFFFFF AND DUP2 JUMP JUMPDEST PUSH1 0x0 PUSH1 0x2 PUSH1 0x0 SWAP1 SLOAD SWAP1 PUSH2 0x100 EXP SWAP1 DIV PUSH20 0xFFFFFFFFFFFFFFFFFFFFFFFFFFFFFFFFFFFFFFFF AND PUSH20 0xFFFFFFFFFFFFFFFFFFFFFFFFFFFFFFFFFFFFFFFF AND PUSH4 0xA84CFFD9 PUSH1 0x40 MLOAD DUP2 PUSH4 0xFFFFFFFF AND PUSH1 0xE0 SHL DUP2 MSTORE PUSH1 0x4 ADD PUSH1 0x20 PUSH1 0x40 MLOAD DUP1 DUP4 SUB DUP2 DUP7 GAS STATICCALL ISZERO DUP1 ISZERO PUSH2 0x613 JUMPI RETURNDATASIZE PUSH1 0x0 DUP1 RETURNDATACOPY RETURNDATASIZE PUSH1 0x0 REVERT JUMPDEST POP POP POP POP PUSH1 0x40 MLOAD RETURNDATASIZE PUSH1 0x1F NOT PUSH1 0x1F DUP3 ADD AND DUP3 ADD DUP1 PUSH1 0x40 MSTORE POP DUP2 ADD SWAP1 PUSH2 0x637 SWAP2 SWAP1 PUSH2 0xFA1 JUMP JUMPDEST SWAP1 POP SWAP1 JUMP JUMPDEST PUSH1 0x3 PUSH1 0x0 SWAP1 SLOAD SWAP1 PUSH2 0x100 EXP SWAP1 DIV PUSH20 0xFFFFFFFFFFFFFFFFFFFFFFFFFFFFFFFFFFFFFFFF AND DUP2 JUMP JUMPDEST PUSH1 0x0 PUSH1 0x1 PUSH1 0x0 SWAP1 SLOAD SWAP1 PUSH2 0x100 EXP SWAP1 DIV PUSH20 0xFFFFFFFFFFFFFFFFFFFFFFFFFFFFFFFFFFFFFFFF AND PUSH20 0xFFFFFFFFFFFFFFFFFFFFFFFFFFFFFFFFFFFFFFFF AND PUSH4 0xC71DACCB PUSH1 0x40 MLOAD DUP2 PUSH4 0xFFFFFFFF AND PUSH1 0xE0 SHL DUP2 MSTORE PUSH1 0x4 ADD PUSH1 0x20 PUSH1 0x40 MLOAD DUP1 DUP4 SUB DUP2 DUP7 GAS STATICCALL ISZERO DUP1 ISZERO PUSH2 0x6D1 JUMPI RETURNDATASIZE PUSH1 0x0 DUP1 RETURNDATACOPY RETURNDATASIZE PUSH1 0x0 REVERT JUMPDEST POP POP POP POP PUSH1 0x40 MLOAD RETURNDATASIZE PUSH1 0x1F NOT PUSH1 0x1F DUP3 ADD AND DUP3 ADD DUP1 PUSH1 0x40 MSTORE POP DUP2 ADD SWAP1 PUSH2 0x6F5 SWAP2 SWAP1 PUSH2 0xFA1 JUMP JUMPDEST SWAP1 POP SWAP1 JUMP JUMPDEST PUSH1 0x2 PUSH1 0x0 SWAP1 SLOAD SWAP1 PUSH2 0x100 EXP SWAP1 DIV PUSH20 0xFFFFFFFFFFFFFFFFFFFFFFFFFFFFFFFFFFFFFFFF AND DUP2 JUMP JUMPDEST PUSH1 0x2 PUSH1 0x0 SWAP1 SLOAD SWAP1 PUSH2 0x100 EXP SWAP1 DIV PUSH20 0xFFFFFFFFFFFFFFFFFFFFFFFFFFFFFFFFFFFFFFFF AND PUSH20 0xFFFFFFFFFFFFFFFFFFFFFFFFFFFFFFFFFFFFFFFF AND PUSH4 0xD108177A DUP3 PUSH1 0x40 MLOAD DUP3 PUSH4 0xFFFFFFFF AND PUSH1 0xE0 SHL DUP2 MSTORE PUSH1 0x4 ADD PUSH2 0x77B SWAP2 SWAP1 PUSH2 0xC05 JUMP JUMPDEST PUSH1 0x0 PUSH1 0x40 MLOAD DUP1 DUP4 SUB DUP2 PUSH1 0x0 DUP8 DUP1 EXTCODESIZE ISZERO DUP1 ISZERO PUSH2 0x795 JUMPI PUSH1 0x0 DUP1 REVERT JUMPDEST POP GAS CALL ISZERO DUP1 ISZERO PUSH2 0x7A9 JUMPI RETURNDATASIZE PUSH1 0x0 DUP1 RETURNDATACOPY RETURNDATASIZE PUSH1 0x0 REVERT JUMPDEST POP POP POP POP POP JUMP JUMPDEST PUSH1 0x2 PUSH1 0x0 SWAP1 SLOAD SWAP1 PUSH2 0x100 EXP SWAP1 DIV PUSH20 0xFFFFFFFFFFFFFFFFFFFFFFFFFFFFFFFFFFFFFFFF AND PUSH20 0xFFFFFFFFFFFFFFFFFFFFFFFFFFFFFFFFFFFFFFFF AND PUSH4 0xDF47A353 DUP6 DUP6 DUP6 DUP6 PUSH1 0x40 MLOAD DUP6 PUSH4 0xFFFFFFFF AND PUSH1 0xE0 SHL DUP2 MSTORE PUSH1 0x4 ADD PUSH2 0x811 SWAP5 SWAP4 SWAP3 SWAP2 SWAP1 PUSH2 0x995 JUMP JUMPDEST PUSH1 0x0 PUSH1 0x40 MLOAD DUP1 DUP4 SUB DUP2 PUSH1 0x0 DUP8 DUP1 EXTCODESIZE ISZERO DUP1 ISZERO PUSH2 0x82B JUMPI PUSH1 0x0 DUP1 REVERT JUMPDEST POP GAS CALL ISZERO DUP1 ISZERO PUSH2 0x83F JUMPI RETURNDATASIZE PUSH1 0x0 DUP1 RETURNDATACOPY RETURNDATASIZE PUSH1 0x0 REVERT JUMPDEST POP POP POP POP POP POP POP POP JUMP JUMPDEST PUSH1 0x1 PUSH1 0x0 SWAP1 SLOAD SWAP1 PUSH2 0x100 EXP SWAP1 DIV PUSH20 0xFFFFFFFFFFFFFFFFFFFFFFFFFFFFFFFFFFFFFFFF AND PUSH20 0xFFFFFFFFFFFFFFFFFFFFFFFFFFFFFFFFFFFFFFFF AND PUSH4 0xE2C41DBC CALLVALUE PUSH1 0x40 MLOAD DUP3 PUSH4 0xFFFFFFFF AND PUSH1 0xE0 SHL DUP2 MSTORE PUSH1 0x4 ADD PUSH1 0x0 PUSH1 0x40 MLOAD DUP1 DUP4 SUB DUP2 DUP6 DUP9 DUP1 EXTCODESIZE ISZERO DUP1 ISZERO PUSH2 0x8B3 JUMPI PUSH1 0x0 DUP1 REVERT JUMPDEST POP GAS CALL ISZERO DUP1 ISZERO PUSH2 0x8C7 JUMPI RETURNDATASIZE PUSH1 0x0 DUP1 RETURNDATACOPY RETURNDATASIZE PUSH1 0x0 REVERT JUMPDEST POP POP POP POP POP JUMP JUMPDEST PUSH1 0x0 PUSH1 0x40 MLOAD SWAP1 POP SWAP1 JUMP JUMPDEST PUSH1 0x0 DUP1 REVERT JUMPDEST PUSH1 0x0 DUP1 REVERT JUMPDEST PUSH1 0x0 PUSH20 0xFFFFFFFFFFFFFFFFFFFFFFFFFFFFFFFFFFFFFFFF DUP3 AND SWAP1 POP SWAP2 SWAP1 POP JUMP JUMPDEST PUSH1 0x0 PUSH2 0x90D DUP3 PUSH2 0x8E2 JUMP JUMPDEST SWAP1 POP SWAP2 SWAP1 POP JUMP JUMPDEST PUSH2 0x91D DUP2 PUSH2 0x902 JUMP JUMPDEST DUP2 EQ PUSH2 0x928 JUMPI PUSH1 0x0 DUP1 REVERT JUMPDEST POP JUMP JUMPDEST PUSH1 0x0 DUP2 CALLDATALOAD SWAP1 POP PUSH2 0x93A DUP2 PUSH2 0x914 JUMP JUMPDEST SWAP3 SWAP2 POP POP JUMP JUMPDEST PUSH1 0x0 PUSH1 0x20 DUP3 DUP5 SUB SLT ISZERO PUSH2 0x956 JUMPI PUSH2 0x955 PUSH2 0x8D8 JUMP JUMPDEST JUMPDEST PUSH1 0x0 PUSH2 0x964 DUP5 DUP3 DUP6 ADD PUSH2 0x92B JUMP JUMPDEST SWAP2 POP POP SWAP3 SWAP2 POP POP JUMP JUMPDEST PUSH2 0x976 DUP2 PUSH2 0x902 JUMP JUMPDEST DUP3 MSTORE POP POP JUMP JUMPDEST PUSH1 0x0 DUP2 SWAP1 POP SWAP2 SWAP1 POP JUMP JUMPDEST PUSH2 0x98F DUP2 PUSH2 0x97C JUMP JUMPDEST DUP3 MSTORE POP POP JUMP JUMPDEST PUSH1 0x0 PUSH1 0x80 DUP3 ADD SWAP1 POP PUSH2 0x9AA PUSH1 0x0 DUP4 ADD DUP8 PUSH2 0x96D JUMP JUMPDEST PUSH2 0x9B7 PUSH1 0x20 DUP4 ADD DUP7 PUSH2 0x986 JUMP JUMPDEST PUSH2 0x9C4 PUSH1 0x40 DUP4 ADD DUP6 PUSH2 0x986 JUMP JUMPDEST PUSH2 0x9D1 PUSH1 0x60 DUP4 ADD DUP5 PUSH2 0x986 JUMP JUMPDEST SWAP6 SWAP5 POP POP POP POP POP JUMP JUMPDEST PUSH1 0x0 PUSH2 0x9E5 DUP3 PUSH2 0x8E2 JUMP JUMPDEST SWAP1 POP SWAP2 SWAP1 POP JUMP JUMPDEST PUSH2 0x9F5 DUP2 PUSH2 0x9DA JUMP JUMPDEST DUP2 EQ PUSH2 0xA00 JUMPI PUSH1 0x0 DUP1 REVERT JUMPDEST POP JUMP JUMPDEST PUSH1 0x0 DUP2 CALLDATALOAD SWAP1 POP PUSH2 0xA12 DUP2 PUSH2 0x9EC JUMP JUMPDEST SWAP3 SWAP2 POP POP JUMP JUMPDEST PUSH2 0xA21 DUP2 PUSH2 0x97C JUMP JUMPDEST DUP2 EQ PUSH2 0xA2C JUMPI PUSH1 0x0 DUP1 REVERT JUMPDEST POP JUMP JUMPDEST PUSH1 0x0 DUP2 CALLDATALOAD SWAP1 POP PUSH2 0xA3E DUP2 PUSH2 0xA18 JUMP JUMPDEST SWAP3 SWAP2 POP POP JUMP JUMPDEST PUSH1 0x0 DUP1 PUSH1 0x0 DUP1 PUSH1 0x80 DUP6 DUP8 SUB SLT ISZERO PUSH2 0xA5E JUMPI PUSH2 0xA5D PUSH2 0x8D8 JUMP JUMPDEST JUMPDEST PUSH1 0x0 PUSH2 0xA6C DUP8 DUP3 DUP9 ADD PUSH2 0xA03 JUMP JUMPDEST SWAP5 POP POP PUSH1 0x20 PUSH2 0xA7D DUP8 DUP3 DUP9 ADD PUSH2 0xA2F JUMP JUMPDEST SWAP4 POP POP PUSH1 0x40 PUSH2 0xA8E DUP8 DUP3 DUP9 ADD PUSH2 0xA2F JUMP JUMPDEST SWAP3 POP POP PUSH1 0x60 PUSH2 0xA9F DUP8 DUP3 DUP9 ADD PUSH2 0xA2F JUMP JUMPDEST SWAP2 POP POP SWAP3 SWAP6 SWAP2 SWAP5 POP SWAP3 POP JUMP JUMPDEST PUSH1 0x0 DUP2 SWAP1 POP SWAP2 SWAP1 POP JUMP JUMPDEST PUSH1 0x0 PUSH2 0xAD0 PUSH2 0xACB PUSH2 0xAC6 DUP5 PUSH2 0x8E2 JUMP JUMPDEST PUSH2 0xAAB JUMP JUMPDEST PUSH2 0x8E2 JUMP JUMPDEST SWAP1 POP SWAP2 SWAP1 POP JUMP JUMPDEST PUSH1 0x0 PUSH2 0xAE2 DUP3 PUSH2 0xAB5 JUMP JUMPDEST SWAP1 POP SWAP2 SWAP1 POP JUMP JUMPDEST PUSH1 0x0 PUSH2 0xAF4 DUP3 PUSH2 0xAD7 JUMP JUMPDEST SWAP1 POP SWAP2 SWAP1 POP JUMP JUMPDEST PUSH2 0xB04 DUP2 PUSH2 0xAE9 JUMP JUMPDEST DUP3 MSTORE POP POP JUMP JUMPDEST PUSH1 0x0 PUSH1 0x20 DUP3 ADD SWAP1 POP PUSH2 0xB1F PUSH1 0x0 DUP4 ADD DUP5 PUSH2 0xAFB JUMP JUMPDEST SWAP3 SWAP2 POP POP JUMP JUMPDEST PUSH1 0x0 DUP2 MLOAD SWAP1 POP SWAP2 SWAP1 POP JUMP JUMPDEST PUSH1 0x0 DUP3 DUP3 MSTORE PUSH1 0x20 DUP3 ADD SWAP1 POP SWAP3 SWAP2 POP POP JUMP JUMPDEST PUSH1 0x0 DUP2 SWAP1 POP PUSH1 0x20 DUP3 ADD SWAP1 POP SWAP2 SWAP1 POP JUMP JUMPDEST PUSH2 0xB5A DUP2 PUSH2 0x97C JUMP JUMPDEST DUP3 MSTORE POP POP JUMP JUMPDEST PUSH1 0x0 PUSH2 0xB6C DUP4 DUP4 PUSH2 0xB51 JUMP JUMPDEST PUSH1 0x20 DUP4 ADD SWAP1 POP SWAP3 SWAP2 POP POP JUMP JUMPDEST PUSH1 0x0 PUSH1 0x20 DUP3 ADD SWAP1 POP SWAP2 SWAP1 POP JUMP JUMPDEST PUSH1 0x0 PUSH2 0xB90 DUP3 PUSH2 0xB25 JUMP JUMPDEST PUSH2 0xB9A DUP2 DUP6 PUSH2 0xB30 JUMP JUMPDEST SWAP4 POP PUSH2 0xBA5 DUP4 PUSH2 0xB41 JUMP JUMPDEST DUP1 PUSH1 0x0 JUMPDEST DUP4 DUP2 LT ISZERO PUSH2 0xBD6 JUMPI DUP2 MLOAD PUSH2 0xBBD DUP9 DUP3 PUSH2 0xB60 JUMP JUMPDEST SWAP8 POP PUSH2 0xBC8 DUP4 PUSH2 0xB78 JUMP JUMPDEST SWAP3 POP POP PUSH1 0x1 DUP2 ADD SWAP1 POP PUSH2 0xBA9 JUMP JUMPDEST POP DUP6 SWAP4 POP POP POP POP SWAP3 SWAP2 POP POP JUMP JUMPDEST PUSH1 0x0 PUSH1 0x20 DUP3 ADD SWAP1 POP DUP2 DUP2 SUB PUSH1 0x0 DUP4 ADD MSTORE PUSH2 0xBFD DUP2 DUP5 PUSH2 0xB85 JUMP JUMPDEST SWAP1 POP SWAP3 SWAP2 POP POP JUMP JUMPDEST PUSH1 0x0 PUSH1 0x20 DUP3 ADD SWAP1 POP PUSH2 0xC1A PUSH1 0x0 DUP4 ADD DUP5 PUSH2 0x96D JUMP JUMPDEST SWAP3 SWAP2 POP POP JUMP JUMPDEST PUSH1 0x0 PUSH1 0x20 DUP3 ADD SWAP1 POP PUSH2 0xC35 PUSH1 0x0 DUP4 ADD DUP5 PUSH2 0x986 JUMP JUMPDEST SWAP3 SWAP2 POP POP JUMP JUMPDEST PUSH1 0x0 PUSH2 0xC46 DUP3 PUSH2 0xAD7 JUMP JUMPDEST SWAP1 POP SWAP2 SWAP1 POP JUMP JUMPDEST PUSH2 0xC56 DUP2 PUSH2 0xC3B JUMP JUMPDEST DUP3 MSTORE POP POP JUMP JUMPDEST PUSH1 0x0 PUSH1 0x20 DUP3 ADD SWAP1 POP PUSH2 0xC71 PUSH1 0x0 DUP4 ADD DUP5 PUSH2 0xC4D JUMP JUMPDEST SWAP3 SWAP2 POP POP JUMP JUMPDEST PUSH1 0x0 PUSH2 0xC82 DUP3 PUSH2 0xAD7 JUMP JUMPDEST SWAP1 POP SWAP2 SWAP1 POP JUMP JUMPDEST PUSH2 0xC92 DUP2 PUSH2 0xC77 JUMP JUMPDEST DUP3 MSTORE POP POP JUMP JUMPDEST PUSH1 0x0 PUSH1 0x20 DUP3 ADD SWAP1 POP PUSH2 0xCAD PUSH1 0x0 DUP4 ADD DUP5 PUSH2 0xC89 JUMP JUMPDEST SWAP3 SWAP2 POP POP JUMP JUMPDEST PUSH1 0x0 DUP1 PUSH1 0x0 DUP1 PUSH1 0x80 DUP6 DUP8 SUB SLT ISZERO PUSH2 0xCCD JUMPI PUSH2 0xCCC PUSH2 0x8D8 JUMP JUMPDEST JUMPDEST PUSH1 0x0 PUSH2 0xCDB DUP8 DUP3 DUP9 ADD PUSH2 0x92B JUMP JUMPDEST SWAP5 POP POP PUSH1 0x20 PUSH2 0xCEC DUP8 DUP3 DUP9 ADD PUSH2 0xA2F JUMP JUMPDEST SWAP4 POP POP PUSH1 0x40 PUSH2 0xCFD DUP8 DUP3 DUP9 ADD PUSH2 0xA2F JUMP JUMPDEST SWAP3 POP POP PUSH1 0x60 PUSH2 0xD0E DUP8 DUP3 DUP9 ADD PUSH2 0xA2F JUMP JUMPDEST SWAP2 POP POP SWAP3 SWAP6 SWAP2 SWAP5 POP SWAP3 POP JUMP JUMPDEST PUSH1 0x0 DUP2 MLOAD SWAP1 POP PUSH2 0xD29 DUP2 PUSH2 0x914 JUMP JUMPDEST SWAP3 SWAP2 POP POP JUMP JUMPDEST PUSH1 0x0 DUP2 MLOAD SWAP1 POP PUSH2 0xD3E DUP2 PUSH2 0xA18 JUMP JUMPDEST SWAP3 SWAP2 POP POP JUMP JUMPDEST PUSH1 0x0 DUP1 PUSH1 0x0 DUP1 PUSH1 0x80 DUP6 DUP8 SUB SLT ISZERO PUSH2 0xD5E JUMPI PUSH2 0xD5D PUSH2 0x8D8 JUMP JUMPDEST JUMPDEST PUSH1 0x0 PUSH2 0xD6C DUP8 DUP3 DUP9 ADD PUSH2 0xD1A JUMP JUMPDEST SWAP5 POP POP PUSH1 0x20 PUSH2 0xD7D DUP8 DUP3 DUP9 ADD PUSH2 0xD2F JUMP JUMPDEST SWAP4 POP POP PUSH1 0x40 PUSH2 0xD8E DUP8 DUP3 DUP9 ADD PUSH2 0xD2F JUMP JUMPDEST SWAP3 POP POP PUSH1 0x60 PUSH2 0xD9F DUP8 DUP3 DUP9 ADD PUSH2 0xD2F JUMP JUMPDEST SWAP2 POP POP SWAP3 SWAP6 SWAP2 SWAP5 POP SWAP3 POP JUMP JUMPDEST PUSH2 0xDB4 DUP2 PUSH2 0x9DA JUMP JUMPDEST DUP3 MSTORE POP POP JUMP JUMPDEST PUSH1 0x0 PUSH1 0x80 DUP3 ADD SWAP1 POP PUSH2 0xDCF PUSH1 0x0 DUP4 ADD DUP8 PUSH2 0xDAB JUMP JUMPDEST PUSH2 0xDDC PUSH1 0x20 DUP4 ADD DUP7 PUSH2 0x986 JUMP JUMPDEST PUSH2 0xDE9 PUSH1 0x40 DUP4 ADD DUP6 PUSH2 0x986 JUMP JUMPDEST PUSH2 0xDF6 PUSH1 0x60 DUP4 ADD DUP5 PUSH2 0x986 JUMP JUMPDEST SWAP6 SWAP5 POP POP POP POP POP JUMP JUMPDEST PUSH1 0x0 DUP1 REVERT JUMPDEST PUSH1 0x0 PUSH1 0x1F NOT PUSH1 0x1F DUP4 ADD AND SWAP1 POP SWAP2 SWAP1 POP JUMP JUMPDEST PUSH32 0x4E487B7100000000000000000000000000000000000000000000000000000000 PUSH1 0x0 MSTORE PUSH1 0x41 PUSH1 0x4 MSTORE PUSH1 0x24 PUSH1 0x0 REVERT JUMPDEST PUSH2 0xE4D DUP3 PUSH2 0xE04 JUMP JUMPDEST DUP2 ADD DUP2 DUP2 LT PUSH8 0xFFFFFFFFFFFFFFFF DUP3 GT OR ISZERO PUSH2 0xE6C JUMPI PUSH2 0xE6B PUSH2 0xE15 JUMP JUMPDEST JUMPDEST DUP1 PUSH1 0x40 MSTORE POP POP POP JUMP JUMPDEST PUSH1 0x0 PUSH2 0xE7F PUSH2 0x8CE JUMP JUMPDEST SWAP1 POP PUSH2 0xE8B DUP3 DUP3 PUSH2 0xE44 JUMP JUMPDEST SWAP2 SWAP1 POP JUMP JUMPDEST PUSH1 0x0 PUSH8 0xFFFFFFFFFFFFFFFF DUP3 GT ISZERO PUSH2 0xEAB JUMPI PUSH2 0xEAA PUSH2 0xE15 JUMP JUMPDEST JUMPDEST PUSH1 0x20 DUP3 MUL SWAP1 POP PUSH1 0x20 DUP2 ADD SWAP1 POP SWAP2 SWAP1 POP JUMP JUMPDEST PUSH1 0x0 DUP1 REVERT JUMPDEST PUSH1 0x0 PUSH2 0xED4 PUSH2 0xECF DUP5 PUSH2 0xE90 JUMP JUMPDEST PUSH2 0xE75 JUMP JUMPDEST SWAP1 POP DUP1 DUP4 DUP3 MSTORE PUSH1 0x20 DUP3 ADD SWAP1 POP PUSH1 0x20 DUP5 MUL DUP4 ADD DUP6 DUP2 GT ISZERO PUSH2 0xEF7 JUMPI PUSH2 0xEF6 PUSH2 0xEBC JUMP JUMPDEST JUMPDEST DUP4 JUMPDEST DUP2 DUP2 LT ISZERO PUSH2 0xF20 JUMPI DUP1 PUSH2 0xF0C DUP9 DUP3 PUSH2 0xD2F JUMP JUMPDEST DUP5 MSTORE PUSH1 0x20 DUP5 ADD SWAP4 POP POP PUSH1 0x20 DUP2 ADD SWAP1 POP PUSH2 0xEF9 JUMP JUMPDEST POP POP POP SWAP4 SWAP3 POP POP POP JUMP JUMPDEST PUSH1 0x0 DUP3 PUSH1 0x1F DUP4 ADD SLT PUSH2 0xF3F JUMPI PUSH2 0xF3E PUSH2 0xDFF JUMP JUMPDEST JUMPDEST DUP2 MLOAD PUSH2 0xF4F DUP5 DUP3 PUSH1 0x20 DUP7 ADD PUSH2 0xEC1 JUMP JUMPDEST SWAP2 POP POP SWAP3 SWAP2 POP POP JUMP JUMPDEST PUSH1 0x0 PUSH1 0x20 DUP3 DUP5 SUB SLT ISZERO PUSH2 0xF6E JUMPI PUSH2 0xF6D PUSH2 0x8D8 JUMP JUMPDEST JUMPDEST PUSH1 0x0 DUP3 ADD MLOAD PUSH8 0xFFFFFFFFFFFFFFFF DUP2 GT ISZERO PUSH2 0xF8C JUMPI PUSH2 0xF8B PUSH2 0x8DD JUMP JUMPDEST JUMPDEST PUSH2 0xF98 DUP5 DUP3 DUP6 ADD PUSH2 0xF2A JUMP JUMPDEST SWAP2 POP POP SWAP3 SWAP2 POP POP JUMP JUMPDEST PUSH1 0x0 PUSH1 0x20 DUP3 DUP5 SUB SLT ISZERO PUSH2 0xFB7 JUMPI PUSH2 0xFB6 PUSH2 0x8D8 JUMP JUMPDEST JUMPDEST PUSH1 0x0 PUSH2 0xFC5 DUP5 DUP3 DUP6 ADD PUSH2 0xD2F JUMP JUMPDEST SWAP2 POP POP SWAP3 SWAP2 POP POP JUMP INVALID LOG2 PUSH5 0x6970667358 0x22 SLT KECCAK256 0xD0 0xBE SAR 0xF6 RETURNDATACOPY 0xB4 0xE4 PUSH18 0x89140FCE394EB1B43FAB38BA0ACB59DBA35 PUSH3 0x308526 0xEE 0x2A PUSH5 0x736F6C6343 STOP ADDMOD SGT STOP CALLER PUSH1 0x80 PUSH1 0x40 MSTORE CALLVALUE DUP1 ISZERO PUSH2 0x10 JUMPI PUSH1 0x0 DUP1 REVERT JUMPDEST POP PUSH2 0x49F DUP1 PUSH2 0x20 PUSH1 0x0 CODECOPY PUSH1 0x0 RETURN INVALID PUSH1 0x80 PUSH1 0x40 MSTORE PUSH1 0x4 CALLDATASIZE LT PUSH2 0x3F JUMPI PUSH1 0x0 CALLDATALOAD PUSH1 0xE0 SHR DUP1 PUSH4 0x57D9989C EQ PUSH2 0x44 JUMPI DUP1 PUSH4 0xC71DACCB EQ PUSH2 0x6D JUMPI DUP1 PUSH4 0xD7081E03 EQ PUSH2 0x98 JUMPI DUP1 PUSH4 0xE2C41DBC EQ PUSH2 0xC1 JUMPI JUMPDEST PUSH1 0x0 DUP1 REVERT JUMPDEST CALLVALUE DUP1 ISZERO PUSH2 0x50 JUMPI PUSH1 0x0 DUP1 REVERT JUMPDEST POP PUSH2 0x6B PUSH1 0x4 DUP1 CALLDATASIZE SUB DUP2 ADD SWAP1 PUSH2 0x66 SWAP2 SWAP1 PUSH2 0x2FA JUMP JUMPDEST PUSH2 0xCB JUMP JUMPDEST STOP JUMPDEST CALLVALUE DUP1 ISZERO PUSH2 0x79 JUMPI PUSH1 0x0 DUP1 REVERT JUMPDEST POP PUSH2 0x82 PUSH2 0x192 JUMP JUMPDEST PUSH1 0x40 MLOAD PUSH2 0x8F SWAP2 SWAP1 PUSH2 0x349 JUMP JUMPDEST PUSH1 0x40 MLOAD DUP1 SWAP2 SUB SWAP1 RETURN JUMPDEST CALLVALUE DUP1 ISZERO PUSH2 0xA4 JUMPI PUSH1 0x0 DUP1 REVERT JUMPDEST POP PUSH2 0xBF PUSH1 0x4 DUP1 CALLDATASIZE SUB DUP2 ADD SWAP1 PUSH2 0xBA SWAP2 SWAP1 PUSH2 0x2FA JUMP JUMPDEST PUSH2 0x19A JUMP JUMPDEST STOP JUMPDEST PUSH2 0xC9 PUSH2 0x228 JUMP JUMPDEST STOP JUMPDEST SELFBALANCE DUP2 GT ISZERO PUSH2 0x10E JUMPI PUSH1 0x40 MLOAD PUSH32 0x8C379A000000000000000000000000000000000000000000000000000000000 DUP2 MSTORE PUSH1 0x4 ADD PUSH2 0x105 SWAP1 PUSH2 0x3C1 JUMP JUMPDEST PUSH1 0x40 MLOAD DUP1 SWAP2 SUB SWAP1 REVERT JUMPDEST DUP2 PUSH20 0xFFFFFFFFFFFFFFFFFFFFFFFFFFFFFFFFFFFFFFFF AND PUSH2 0x8FC DUP3 SWAP1 DUP2 ISZERO MUL SWAP1 PUSH1 0x40 MLOAD PUSH1 0x0 PUSH1 0x40 MLOAD DUP1 DUP4 SUB DUP2 DUP6 DUP9 DUP9 CALL SWAP4 POP POP POP POP ISZERO DUP1 ISZERO PUSH2 0x154 JUMPI RETURNDATASIZE PUSH1 0x0 DUP1 RETURNDATACOPY RETURNDATASIZE PUSH1 0x0 REVERT JUMPDEST POP PUSH32 0x23D6711A1D031134A36921253C75AA59E967D38E369AC625992824315E204F20 DUP3 DUP3 PUSH1 0x40 MLOAD PUSH2 0x186 SWAP3 SWAP2 SWAP1 PUSH2 0x440 JUMP JUMPDEST PUSH1 0x40 MLOAD DUP1 SWAP2 SUB SWAP1 LOG1 POP POP JUMP JUMPDEST PUSH1 0x0 SELFBALANCE SWAP1 POP SWAP1 JUMP JUMPDEST SELFBALANCE DUP2 GT ISZERO PUSH2 0x1DD JUMPI PUSH1 0x40 MLOAD PUSH32 0x8C379A000000000000000000000000000000000000000000000000000000000 DUP2 MSTORE PUSH1 0x4 ADD PUSH2 0x1D4 SWAP1 PUSH2 0x3C1 JUMP JUMPDEST PUSH1 0x40 MLOAD DUP1 SWAP2 SUB SWAP1 REVERT JUMPDEST DUP2 PUSH20 0xFFFFFFFFFFFFFFFFFFFFFFFFFFFFFFFFFFFFFFFF AND PUSH2 0x8FC DUP3 SWAP1 DUP2 ISZERO MUL SWAP1 PUSH1 0x40 MLOAD PUSH1 0x0 PUSH1 0x40 MLOAD DUP1 DUP4 SUB DUP2 DUP6 DUP9 DUP9 CALL SWAP4 POP POP POP POP ISZERO DUP1 ISZERO PUSH2 0x223 JUMPI RETURNDATASIZE PUSH1 0x0 DUP1 RETURNDATACOPY RETURNDATASIZE PUSH1 0x0 REVERT JUMPDEST POP POP POP JUMP JUMPDEST PUSH32 0x7CB5D45C1071F219BD2DA1EA101758715BD52F23F2A707F2D9A0387DEA18D906 CALLVALUE PUSH1 0x40 MLOAD PUSH2 0x257 SWAP2 SWAP1 PUSH2 0x349 JUMP JUMPDEST PUSH1 0x40 MLOAD DUP1 SWAP2 SUB SWAP1 LOG1 JUMP JUMPDEST PUSH1 0x0 DUP1 REVERT JUMPDEST PUSH1 0x0 PUSH20 0xFFFFFFFFFFFFFFFFFFFFFFFFFFFFFFFFFFFFFFFF DUP3 AND SWAP1 POP SWAP2 SWAP1 POP JUMP JUMPDEST PUSH1 0x0 PUSH2 0x291 DUP3 PUSH2 0x266 JUMP JUMPDEST SWAP1 POP SWAP2 SWAP1 POP JUMP JUMPDEST PUSH2 0x2A1 DUP2 PUSH2 0x286 JUMP JUMPDEST DUP2 EQ PUSH2 0x2AC JUMPI PUSH1 0x0 DUP1 REVERT JUMPDEST POP JUMP JUMPDEST PUSH1 0x0 DUP2 CALLDATALOAD SWAP1 POP PUSH2 0x2BE DUP2 PUSH2 0x298 JUMP JUMPDEST SWAP3 SWAP2 POP POP JUMP JUMPDEST PUSH1 0x0 DUP2 SWAP1 POP SWAP2 SWAP1 POP JUMP JUMPDEST PUSH2 0x2D7 DUP2 PUSH2 0x2C4 JUMP JUMPDEST DUP2 EQ PUSH2 0x2E2 JUMPI PUSH1 0x0 DUP1 REVERT JUMPDEST POP JUMP JUMPDEST PUSH1 0x0 DUP2 CALLDATALOAD SWAP1 POP PUSH2 0x2F4 DUP2 PUSH2 0x2CE JUMP JUMPDEST SWAP3 SWAP2 POP POP JUMP JUMPDEST PUSH1 0x0 DUP1 PUSH1 0x40 DUP4 DUP6 SUB SLT ISZERO PUSH2 0x311 JUMPI PUSH2 0x310 PUSH2 0x261 JUMP JUMPDEST JUMPDEST PUSH1 0x0 PUSH2 0x31F DUP6 DUP3 DUP7 ADD PUSH2 0x2AF JUMP JUMPDEST SWAP3 POP POP PUSH1 0x20 PUSH2 0x330 DUP6 DUP3 DUP7 ADD PUSH2 0x2E5 JUMP JUMPDEST SWAP2 POP POP SWAP3 POP SWAP3 SWAP1 POP JUMP JUMPDEST PUSH2 0x343 DUP2 PUSH2 0x2C4 JUMP JUMPDEST DUP3 MSTORE POP POP JUMP JUMPDEST PUSH1 0x0 PUSH1 0x20 DUP3 ADD SWAP1 POP PUSH2 0x35E PUSH1 0x0 DUP4 ADD DUP5 PUSH2 0x33A JUMP JUMPDEST SWAP3 SWAP2 POP POP JUMP JUMPDEST PUSH1 0x0 DUP3 DUP3 MSTORE PUSH1 0x20 DUP3 ADD SWAP1 POP SWAP3 SWAP2 POP POP JUMP JUMPDEST PUSH32 0x496E73756666696369656E742066756E64730000000000000000000000000000 PUSH1 0x0 DUP3 ADD MSTORE POP JUMP JUMPDEST PUSH1 0x0 PUSH2 0x3AB PUSH1 0x12 DUP4 PUSH2 0x364 JUMP JUMPDEST SWAP2 POP PUSH2 0x3B6 DUP3 PUSH2 0x375 JUMP JUMPDEST PUSH1 0x20 DUP3 ADD SWAP1 POP SWAP2 SWAP1 POP JUMP JUMPDEST PUSH1 0x0 PUSH1 0x20 DUP3 ADD SWAP1 POP DUP2 DUP2 SUB PUSH1 0x0 DUP4 ADD MSTORE PUSH2 0x3DA DUP2 PUSH2 0x39E JUMP JUMPDEST SWAP1 POP SWAP2 SWAP1 POP JUMP JUMPDEST PUSH1 0x0 DUP2 SWAP1 POP SWAP2 SWAP1 POP JUMP JUMPDEST PUSH1 0x0 PUSH2 0x406 PUSH2 0x401 PUSH2 0x3FC DUP5 PUSH2 0x266 JUMP JUMPDEST PUSH2 0x3E1 JUMP JUMPDEST PUSH2 0x266 JUMP JUMPDEST SWAP1 POP SWAP2 SWAP1 POP JUMP JUMPDEST PUSH1 0x0 PUSH2 0x418 DUP3 PUSH2 0x3EB JUMP JUMPDEST SWAP1 POP SWAP2 SWAP1 POP JUMP JUMPDEST PUSH1 0x0 PUSH2 0x42A DUP3 PUSH2 0x40D JUMP JUMPDEST SWAP1 POP SWAP2 SWAP1 POP JUMP JUMPDEST PUSH2 0x43A DUP2 PUSH2 0x41F JUMP JUMPDEST DUP3 MSTORE POP POP JUMP JUMPDEST PUSH1 0x0 PUSH1 0x40 DUP3 ADD SWAP1 POP PUSH2 0x455 PUSH1 0x0 DUP4 ADD DUP6 PUSH2 0x431 JUMP JUMPDEST PUSH2 0x462 PUSH1 0x20 DUP4 ADD DUP5 PUSH2 0x33A JUMP JUMPDEST SWAP4 SWAP3 POP POP POP JUMP INVALID LOG2 PUSH5 0x6970667358 0x22 SLT KECCAK256 SLT 0xA8 LT 0x4A 0xDC MUL SELFBALANCE SWAP15 0xD6 CREATE 0x2F 0x26 PUSH21 0x1AC3B441B74A5355642902D06A4349BD9F0FF6473 PUSH16 0x6C634300081300336080604052348015 PUSH2 0x10 JUMPI PUSH1 0x0 DUP1 REVERT JUMPDEST POP PUSH2 0x4EA DUP1 PUSH2 0x20 PUSH1 0x0 CODECOPY PUSH1 0x0 RETURN INVALID PUSH1 0x80 PUSH1 0x40 MSTORE CALLVALUE DUP1 ISZERO PUSH2 0x10 JUMPI PUSH1 0x0 DUP1 REVERT JUMPDEST POP PUSH1 0x4 CALLDATASIZE LT PUSH2 0x4C JUMPI PUSH1 0x0 CALLDATALOAD PUSH1 0xE0 SHR DUP1 PUSH4 0x2C5099C3 EQ PUSH2 0x51 JUMPI DUP1 PUSH4 0x58A290D2 EQ PUSH2 0x81 JUMPI DUP1 PUSH4 0x80396811 EQ PUSH2 0x9D JUMPI DUP1 PUSH4 0xC316D9A7 EQ PUSH2 0xCD JUMPI JUMPDEST PUSH1 0x0 DUP1 REVERT JUMPDEST PUSH2 0x6B PUSH1 0x4 DUP1 CALLDATASIZE SUB DUP2 ADD SWAP1 PUSH2 0x66 SWAP2 SWAP1 PUSH2 0x33D JUMP JUMPDEST PUSH2 0xE9 JUMP JUMPDEST PUSH1 0x40 MLOAD PUSH2 0x78 SWAP2 SWAP1 PUSH2 0x38C JUMP JUMPDEST PUSH1 0x40 MLOAD DUP1 SWAP2 SUB SWAP1 RETURN JUMPDEST PUSH2 0x9B PUSH1 0x4 DUP1 CALLDATASIZE SUB DUP2 ADD SWAP1 PUSH2 0x96 SWAP2 SWAP1 PUSH2 0x3A7 JUMP JUMPDEST PUSH2 0x11A JUMP JUMPDEST STOP JUMPDEST PUSH2 0xB7 PUSH1 0x4 DUP1 CALLDATASIZE SUB DUP2 ADD SWAP1 PUSH2 0xB2 SWAP2 SWAP1 PUSH2 0x3A7 JUMP JUMPDEST PUSH2 0x167 JUMP JUMPDEST PUSH1 0x40 MLOAD PUSH2 0xC4 SWAP2 SWAP1 PUSH2 0x492 JUMP JUMPDEST PUSH1 0x40 MLOAD DUP1 SWAP2 SUB SWAP1 RETURN JUMPDEST PUSH2 0xE7 PUSH1 0x4 DUP1 CALLDATASIZE SUB DUP2 ADD SWAP1 PUSH2 0xE2 SWAP2 SWAP1 PUSH2 0x33D JUMP JUMPDEST PUSH2 0x1FD JUMP JUMPDEST STOP JUMPDEST PUSH1 0x0 PUSH1 0x20 MSTORE DUP2 PUSH1 0x0 MSTORE PUSH1 0x40 PUSH1 0x0 KECCAK256 DUP2 DUP2 SLOAD DUP2 LT PUSH2 0x105 JUMPI PUSH1 0x0 DUP1 REVERT JUMPDEST SWAP1 PUSH1 0x0 MSTORE PUSH1 0x20 PUSH1 0x0 KECCAK256 ADD PUSH1 0x0 SWAP2 POP SWAP2 POP POP SLOAD DUP2 JUMP JUMPDEST PUSH1 0x0 DUP1 DUP3 PUSH20 0xFFFFFFFFFFFFFFFFFFFFFFFFFFFFFFFFFFFFFFFF AND PUSH20 0xFFFFFFFFFFFFFFFFFFFFFFFFFFFFFFFFFFFFFFFF AND DUP2 MSTORE PUSH1 0x20 ADD SWAP1 DUP2 MSTORE PUSH1 0x20 ADD PUSH1 0x0 KECCAK256 PUSH1 0x0 PUSH2 0x164 SWAP2 SWAP1 PUSH2 0x266 JUMP JUMPDEST POP JUMP JUMPDEST PUSH1 0x60 PUSH1 0x0 DUP1 DUP4 PUSH20 0xFFFFFFFFFFFFFFFFFFFFFFFFFFFFFFFFFFFFFFFF AND PUSH20 0xFFFFFFFFFFFFFFFFFFFFFFFFFFFFFFFFFFFFFFFF AND DUP2 MSTORE PUSH1 0x20 ADD SWAP1 DUP2 MSTORE PUSH1 0x20 ADD PUSH1 0x0 KECCAK256 DUP1 SLOAD DUP1 PUSH1 0x20 MUL PUSH1 0x20 ADD PUSH1 0x40 MLOAD SWAP1 DUP2 ADD PUSH1 0x40 MSTORE DUP1 SWAP3 SWAP2 SWAP1 DUP2 DUP2 MSTORE PUSH1 0x20 ADD DUP3 DUP1 SLOAD DUP1 ISZERO PUSH2 0x1F1 JUMPI PUSH1 0x20 MUL DUP3 ADD SWAP2 SWAP1 PUSH1 0x0 MSTORE PUSH1 0x20 PUSH1 0x0 KECCAK256 SWAP1 JUMPDEST DUP2 SLOAD DUP2 MSTORE PUSH1 0x20 ADD SWAP1 PUSH1 0x1 ADD SWAP1 DUP1 DUP4 GT PUSH2 0x1DD JUMPI JUMPDEST POP POP POP POP POP SWAP1 POP SWAP2 SWAP1 POP JUMP JUMPDEST PUSH1 0x0 DUP1 DUP4 PUSH20 0xFFFFFFFFFFFFFFFFFFFFFFFFFFFFFFFFFFFFFFFF AND PUSH20 0xFFFFFFFFFFFFFFFFFFFFFFFFFFFFFFFFFFFFFFFF AND DUP2 MSTORE PUSH1 0x20 ADD SWAP1 DUP2 MSTORE PUSH1 0x20 ADD PUSH1 0x0 KECCAK256 DUP2 SWAP1 DUP1 PUSH1 0x1 DUP2 SLOAD ADD DUP1 DUP3 SSTORE DUP1 SWAP2 POP POP PUSH1 0x1 SWAP1 SUB SWAP1 PUSH1 0x0 MSTORE PUSH1 0x20 PUSH1 0x0 KECCAK256 ADD PUSH1 0x0 SWAP1 SWAP2 SWAP1 SWAP2 SWAP1 SWAP2 POP SSTORE POP POP JUMP JUMPDEST POP DUP1 SLOAD PUSH1 0x0 DUP3 SSTORE SWAP1 PUSH1 0x0 MSTORE PUSH1 0x20 PUSH1 0x0 KECCAK256 SWAP1 DUP2 ADD SWAP1 PUSH2 0x284 SWAP2 SWAP1 PUSH2 0x287 JUMP JUMPDEST POP JUMP JUMPDEST JUMPDEST DUP1 DUP3 GT ISZERO PUSH2 0x2A0 JUMPI PUSH1 0x0 DUP2 PUSH1 0x0 SWAP1 SSTORE POP PUSH1 0x1 ADD PUSH2 0x288 JUMP JUMPDEST POP SWAP1 JUMP JUMPDEST PUSH1 0x0 DUP1 REVERT JUMPDEST PUSH1 0x0 PUSH20 0xFFFFFFFFFFFFFFFFFFFFFFFFFFFFFFFFFFFFFFFF DUP3 AND SWAP1 POP SWAP2 SWAP1 POP JUMP JUMPDEST PUSH1 0x0 PUSH2 0x2D4 DUP3 PUSH2 0x2A9 JUMP JUMPDEST SWAP1 POP SWAP2 SWAP1 POP JUMP JUMPDEST PUSH2 0x2E4 DUP2 PUSH2 0x2C9 JUMP JUMPDEST DUP2 EQ PUSH2 0x2EF JUMPI PUSH1 0x0 DUP1 REVERT JUMPDEST POP JUMP JUMPDEST PUSH1 0x0 DUP2 CALLDATALOAD SWAP1 POP PUSH2 0x301 DUP2 PUSH2 0x2DB JUMP JUMPDEST SWAP3 SWAP2 POP POP JUMP JUMPDEST PUSH1 0x0 DUP2 SWAP1 POP SWAP2 SWAP1 POP JUMP JUMPDEST PUSH2 0x31A DUP2 PUSH2 0x307 JUMP JUMPDEST DUP2 EQ PUSH2 0x325 JUMPI PUSH1 0x0 DUP1 REVERT JUMPDEST POP JUMP JUMPDEST PUSH1 0x0 DUP2 CALLDATALOAD SWAP1 POP PUSH2 0x337 DUP2 PUSH2 0x311 JUMP JUMPDEST SWAP3 SWAP2 POP POP JUMP JUMPDEST PUSH1 0x0 DUP1 PUSH1 0x40 DUP4 DUP6 SUB SLT ISZERO PUSH2 0x354 JUMPI PUSH2 0x353 PUSH2 0x2A4 JUMP JUMPDEST JUMPDEST PUSH1 0x0 PUSH2 0x362 DUP6 DUP3 DUP7 ADD PUSH2 0x2F2 JUMP JUMPDEST SWAP3 POP POP PUSH1 0x20 PUSH2 0x373 DUP6 DUP3 DUP7 ADD PUSH2 0x328 JUMP JUMPDEST SWAP2 POP POP SWAP3 POP SWAP3 SWAP1 POP JUMP JUMPDEST PUSH2 0x386 DUP2 PUSH2 0x307 JUMP JUMPDEST DUP3 MSTORE POP POP JUMP JUMPDEST PUSH1 0x0 PUSH1 0x20 DUP3 ADD SWAP1 POP PUSH2 0x3A1 PUSH1 0x0 DUP4 ADD DUP5 PUSH2 0x37D JUMP JUMPDEST SWAP3 SWAP2 POP POP JUMP JUMPDEST PUSH1 0x0 PUSH1 0x20 DUP3 DUP5 SUB SLT ISZERO PUSH2 0x3BD JUMPI PUSH2 0x3BC PUSH2 0x2A4 JUMP JUMPDEST JUMPDEST PUSH1 0x0 PUSH2 0x3CB DUP5 DUP3 DUP6 ADD PUSH2 0x2F2 JUMP JUMPDEST SWAP2 POP POP SWAP3 SWAP2 POP POP JUMP JUMPDEST PUSH1 0x0 DUP2 MLOAD SWAP1 POP SWAP2 SWAP1 POP JUMP JUMPDEST PUSH1 0x0 DUP3 DUP3 MSTORE PUSH1 0x20 DUP3 ADD SWAP1 POP SWAP3 SWAP2 POP POP JUMP JUMPDEST PUSH1 0x0 DUP2 SWAP1 POP PUSH1 0x20 DUP3 ADD SWAP1 POP SWAP2 SWAP1 POP JUMP JUMPDEST PUSH2 0x409 DUP2 PUSH2 0x307 JUMP JUMPDEST DUP3 MSTORE POP POP JUMP JUMPDEST PUSH1 0x0 PUSH2 0x41B DUP4 DUP4 PUSH2 0x400 JUMP JUMPDEST PUSH1 0x20 DUP4 ADD SWAP1 POP SWAP3 SWAP2 POP POP JUMP JUMPDEST PUSH1 0x0 PUSH1 0x20 DUP3 ADD SWAP1 POP SWAP2 SWAP1 POP JUMP JUMPDEST PUSH1 0x0 PUSH2 0x43F DUP3 PUSH2 0x3D4 JUMP JUMPDEST PUSH2 0x449 DUP2 DUP6 PUSH2 0x3DF JUMP JUMPDEST SWAP4 POP PUSH2 0x454 DUP4 PUSH2 0x3F0 JUMP JUMPDEST DUP1 PUSH1 0x0 JUMPDEST DUP4 DUP2 LT ISZERO PUSH2 0x485 JUMPI DUP2 MLOAD PUSH2 0x46C DUP9 DUP3 PUSH2 0x40F JUMP JUMPDEST SWAP8 POP PUSH2 0x477 DUP4 PUSH2 0x427 JUMP JUMPDEST SWAP3 POP POP PUSH1 0x1 DUP2 ADD SWAP1 POP PUSH2 0x458 JUMP JUMPDEST POP DUP6 SWAP4 POP POP POP POP SWAP3 SWAP2 POP POP JUMP JUMPDEST PUSH1 0x0 PUSH1 0x20 DUP3 ADD SWAP1 POP DUP2 DUP2 SUB PUSH1 0x0 DUP4 ADD MSTORE PUSH2 0x4AC DUP2 DUP5 PUSH2 0x434 JUMP JUMPDEST SWAP1 POP SWAP3 SWAP2 POP POP JUMP INVALID LOG2 PUSH5 0x6970667358 0x22 SLT KECCAK256 TIMESTAMP 0xB0 GT PUSH11 0xDED54A2DA761CAD70A0C89 DUP8 SWAP11 PREVRANDAO SELFDESTRUCT DUP2 CREATE 0x5F ISZERO PUSH2 0x434C 0xCC 0xE8 0x4B STOP 0xAE 0xEE PUSH5 0x736F6C6343 STOP ADDMOD SGT STOP CALLER PUSH1 0x80 PUSH1 0x40 MSTORE CALLVALUE DUP1 ISZERO PUSH3 0x11 JUMPI PUSH1 0x0 DUP1 REVERT JUMPDEST POP PUSH1 0x40 MLOAD PUSH3 0x1458 CODESIZE SUB DUP1 PUSH3 0x1458 DUP4 CODECOPY DUP2 DUP2 ADD PUSH1 0x40 MSTORE DUP2 ADD SWAP1 PUSH3 0x37 SWAP2 SWAP1 PUSH3 0x183 JUMP JUMPDEST DUP2 PUSH1 0x0 DUP1 PUSH2 0x100 EXP DUP2 SLOAD DUP2 PUSH20 0xFFFFFFFFFFFFFFFFFFFFFFFFFFFFFFFFFFFFFFFF MUL NOT AND SWAP1 DUP4 PUSH20 0xFFFFFFFFFFFFFFFFFFFFFFFFFFFFFFFFFFFFFFFF AND MUL OR SWAP1 SSTORE POP DUP1 PUSH1 0x1 PUSH1 0x0 PUSH2 0x100 EXP DUP2 SLOAD DUP2 PUSH20 0xFFFFFFFFFFFFFFFFFFFFFFFFFFFFFFFFFFFFFFFF MUL NOT AND SWAP1 DUP4 PUSH20 0xFFFFFFFFFFFFFFFFFFFFFFFFFFFFFFFFFFFFFFFF AND MUL OR SWAP1 SSTORE POP POP POP PUSH3 0x1CA JUMP JUMPDEST PUSH1 0x0 DUP1 REVERT JUMPDEST PUSH1 0x0 PUSH20 0xFFFFFFFFFFFFFFFFFFFFFFFFFFFFFFFFFFFFFFFF DUP3 AND SWAP1 POP SWAP2 SWAP1 POP JUMP JUMPDEST PUSH1 0x0 PUSH3 0xF2 DUP3 PUSH3 0xC5 JUMP JUMPDEST SWAP1 POP SWAP2 SWAP1 POP JUMP JUMPDEST PUSH1 0x0 PUSH3 0x106 DUP3 PUSH3 0xE5 JUMP JUMPDEST SWAP1 POP SWAP2 SWAP1 POP JUMP JUMPDEST PUSH3 0x118 DUP2 PUSH3 0xF9 JUMP JUMPDEST DUP2 EQ PUSH3 0x124 JUMPI PUSH1 0x0 DUP1 REVERT JUMPDEST POP JUMP JUMPDEST PUSH1 0x0 DUP2 MLOAD SWAP1 POP PUSH3 0x138 DUP2 PUSH3 0x10D JUMP JUMPDEST SWAP3 SWAP2 POP POP JUMP JUMPDEST PUSH1 0x0 PUSH3 0x14B DUP3 PUSH3 0xE5 JUMP JUMPDEST SWAP1 POP SWAP2 SWAP1 POP JUMP JUMPDEST PUSH3 0x15D DUP2 PUSH3 0x13E JUMP JUMPDEST DUP2 EQ PUSH3 0x169 JUMPI PUSH1 0x0 DUP1 REVERT JUMPDEST POP JUMP JUMPDEST PUSH1 0x0 DUP2 MLOAD SWAP1 POP PUSH3 0x17D DUP2 PUSH3 0x152 JUMP JUMPDEST SWAP3 SWAP2 POP POP JUMP JUMPDEST PUSH1 0x0 DUP1 PUSH1 0x40 DUP4 DUP6 SUB SLT ISZERO PUSH3 0x19D JUMPI PUSH3 0x19C PUSH3 0xC0 JUMP JUMPDEST JUMPDEST PUSH1 0x0 PUSH3 0x1AD DUP6 DUP3 DUP7 ADD PUSH3 0x127 JUMP JUMPDEST SWAP3 POP POP PUSH1 0x20 PUSH3 0x1C0 DUP6 DUP3 DUP7 ADD PUSH3 0x16C JUMP JUMPDEST SWAP2 POP POP SWAP3 POP SWAP3 SWAP1 POP JUMP JUMPDEST PUSH2 0x127E DUP1 PUSH3 0x1DA PUSH1 0x0 CODECOPY PUSH1 0x0 RETURN INVALID PUSH1 0x80 PUSH1 0x40 MSTORE CALLVALUE DUP1 ISZERO PUSH2 0x10 JUMPI PUSH1 0x0 DUP1 REVERT JUMPDEST POP PUSH1 0x4 CALLDATASIZE LT PUSH2 0x88 JUMPI PUSH1 0x0 CALLDATALOAD PUSH1 0xE0 SHR DUP1 PUSH4 0xBE0E0DA4 GT PUSH2 0x5B JUMPI DUP1 PUSH4 0xBE0E0DA4 EQ PUSH2 0x104 JUMPI DUP1 PUSH4 0xD0678947 EQ PUSH2 0x134 JUMPI DUP1 PUSH4 0xD108177A EQ PUSH2 0x167 JUMPI DUP1 PUSH4 0xDF47A353 EQ PUSH2 0x183 JUMPI PUSH2 0x88 JUMP JUMPDEST DUP1 PUSH4 0x1CAAFCF1 EQ PUSH2 0x8D JUMPI DUP1 PUSH4 0x4A4247D9 EQ PUSH2 0xC0 JUMPI DUP1 PUSH4 0x809E9EF5 EQ PUSH2 0xDC JUMPI DUP1 PUSH4 0xA84CFFD9 EQ PUSH2 0xE6 JUMPI JUMPDEST PUSH1 0x0 DUP1 REVERT JUMPDEST PUSH2 0xA7 PUSH1 0x4 DUP1 CALLDATASIZE SUB DUP2 ADD SWAP1 PUSH2 0xA2 SWAP2 SWAP1 PUSH2 0xD14 JUMP JUMPDEST PUSH2 0x19F JUMP JUMPDEST PUSH1 0x40 MLOAD PUSH2 0xB7 SWAP5 SWAP4 SWAP3 SWAP2 SWAP1 PUSH2 0xD69 JUMP JUMPDEST PUSH1 0x40 MLOAD DUP1 SWAP2 SUB SWAP1 RETURN JUMPDEST PUSH2 0xDA PUSH1 0x4 DUP1 CALLDATASIZE SUB DUP2 ADD SWAP1 PUSH2 0xD5 SWAP2 SWAP1 PUSH2 0xE18 JUMP JUMPDEST PUSH2 0x28B JUMP JUMPDEST STOP JUMPDEST PUSH2 0xE4 PUSH2 0x409 JUMP JUMPDEST STOP JUMPDEST PUSH2 0xEE PUSH2 0x6E0 JUMP JUMPDEST PUSH1 0x40 MLOAD PUSH2 0xFB SWAP2 SWAP1 PUSH2 0xE7F JUMP JUMPDEST PUSH1 0x40 MLOAD DUP1 SWAP2 SUB SWAP1 RETURN JUMPDEST PUSH2 0x11E PUSH1 0x4 DUP1 CALLDATASIZE SUB DUP2 ADD SWAP1 PUSH2 0x119 SWAP2 SWAP1 PUSH2 0xE9A JUMP JUMPDEST PUSH2 0x82F JUMP JUMPDEST PUSH1 0x40 MLOAD PUSH2 0x12B SWAP2 SWAP1 PUSH2 0xEC7 JUMP JUMPDEST PUSH1 0x40 MLOAD DUP1 SWAP2 SUB SWAP1 RETURN JUMPDEST PUSH2 0x14E PUSH1 0x4 DUP1 CALLDATASIZE SUB DUP2 ADD SWAP1 PUSH2 0x149 SWAP2 SWAP1 PUSH2 0xD14 JUMP JUMPDEST PUSH2 0x86E JUMP JUMPDEST PUSH1 0x40 MLOAD PUSH2 0x15E SWAP5 SWAP4 SWAP3 SWAP2 SWAP1 PUSH2 0xEF1 JUMP JUMPDEST PUSH1 0x40 MLOAD DUP1 SWAP2 SUB SWAP1 RETURN JUMPDEST PUSH2 0x181 PUSH1 0x4 DUP1 CALLDATASIZE SUB DUP2 ADD SWAP1 PUSH2 0x17C SWAP2 SWAP1 PUSH2 0xD14 JUMP JUMPDEST PUSH2 0x8BE JUMP JUMPDEST STOP JUMPDEST PUSH2 0x19D PUSH1 0x4 DUP1 CALLDATASIZE SUB DUP2 ADD SWAP1 PUSH2 0x198 SWAP2 SWAP1 PUSH2 0xF36 JUMP JUMPDEST PUSH2 0xB15 JUMP JUMPDEST STOP JUMPDEST PUSH1 0x0 DUP1 PUSH1 0x0 DUP1 PUSH1 0x0 PUSH1 0x2 PUSH1 0x0 DUP8 PUSH20 0xFFFFFFFFFFFFFFFFFFFFFFFFFFFFFFFFFFFFFFFF AND PUSH20 0xFFFFFFFFFFFFFFFFFFFFFFFFFFFFFFFFFFFFFFFF AND DUP2 MSTORE PUSH1 0x20 ADD SWAP1 DUP2 MSTORE PUSH1 0x20 ADD PUSH1 0x0 KECCAK256 PUSH1 0x40 MLOAD DUP1 PUSH1 0x80 ADD PUSH1 0x40 MSTORE SWAP1 DUP2 PUSH1 0x0 DUP3 ADD PUSH1 0x0 SWAP1 SLOAD SWAP1 PUSH2 0x100 EXP SWAP1 DIV PUSH20 0xFFFFFFFFFFFFFFFFFFFFFFFFFFFFFFFFFFFFFFFF AND PUSH20 0xFFFFFFFFFFFFFFFFFFFFFFFFFFFFFFFFFFFFFFFF AND PUSH20 0xFFFFFFFFFFFFFFFFFFFFFFFFFFFFFFFFFFFFFFFF AND DUP2 MSTORE PUSH1 0x20 ADD PUSH1 0x1 DUP3 ADD SLOAD DUP2 MSTORE PUSH1 0x20 ADD PUSH1 0x2 DUP3 ADD SLOAD DUP2 MSTORE PUSH1 0x20 ADD PUSH1 0x3 DUP3 ADD SLOAD DUP2 MSTORE POP POP SWAP1 POP DUP1 PUSH1 0x0 ADD MLOAD DUP2 PUSH1 0x20 ADD MLOAD DUP3 PUSH1 0x40 ADD MLOAD DUP4 PUSH1 0x60 ADD MLOAD SWAP5 POP SWAP5 POP SWAP5 POP SWAP5 POP POP SWAP2 SWAP4 POP SWAP2 SWAP4 JUMP JUMPDEST PUSH1 0x40 MLOAD DUP1 PUSH1 0x80 ADD PUSH1 0x40 MSTORE DUP1 DUP6 PUSH20 0xFFFFFFFFFFFFFFFFFFFFFFFFFFFFFFFFFFFFFFFF AND DUP2 MSTORE PUSH1 0x20 ADD DUP5 DUP2 MSTORE PUSH1 0x20 ADD DUP4 DUP2 MSTORE PUSH1 0x20 ADD DUP3 DUP2 MSTORE POP PUSH1 0x2 PUSH1 0x0 DUP7 PUSH20 0xFFFFFFFFFFFFFFFFFFFFFFFFFFFFFFFFFFFFFFFF AND PUSH20 0xFFFFFFFFFFFFFFFFFFFFFFFFFFFFFFFFFFFFFFFF AND DUP2 MSTORE PUSH1 0x20 ADD SWAP1 DUP2 MSTORE PUSH1 0x20 ADD PUSH1 0x0 KECCAK256 PUSH1 0x0 DUP3 ADD MLOAD DUP2 PUSH1 0x0 ADD PUSH1 0x0 PUSH2 0x100 EXP DUP2 SLOAD DUP2 PUSH20 0xFFFFFFFFFFFFFFFFFFFFFFFFFFFFFFFFFFFFFFFF MUL NOT AND SWAP1 DUP4 PUSH20 0xFFFFFFFFFFFFFFFFFFFFFFFFFFFFFFFFFFFFFFFF AND MUL OR SWAP1 SSTORE POP PUSH1 0x20 DUP3 ADD MLOAD DUP2 PUSH1 0x1 ADD SSTORE PUSH1 0x40 DUP3 ADD MLOAD DUP2 PUSH1 0x2 ADD SSTORE PUSH1 0x60 DUP3 ADD MLOAD DUP2 PUSH1 0x3 ADD SSTORE SWAP1 POP POP PUSH1 0x3 DUP5 SWAP1 DUP1 PUSH1 0x1 DUP2 SLOAD ADD DUP1 DUP3 SSTORE DUP1 SWAP2 POP POP PUSH1 0x1 SWAP1 SUB SWAP1 PUSH1 0x0 MSTORE PUSH1 0x20 PUSH1 0x0 KECCAK256 ADD PUSH1 0x0 SWAP1 SWAP2 SWAP1 SWAP2 SWAP1 SWAP2 PUSH2 0x100 EXP DUP2 SLOAD DUP2 PUSH20 0xFFFFFFFFFFFFFFFFFFFFFFFFFFFFFFFFFFFFFFFF MUL NOT AND SWAP1 DUP4 PUSH20 0xFFFFFFFFFFFFFFFFFFFFFFFFFFFFFFFFFFFFFFFF AND MUL OR SWAP1 SSTORE POP PUSH32 0x41109CFE10CFA549ABB66B986D0A294ECC6C9AD39000ABCB9C2AFD422C8BD64 DUP5 PUSH1 0x40 MLOAD PUSH2 0x3FB SWAP2 SWAP1 PUSH2 0xFFC JUMP JUMPDEST PUSH1 0x40 MLOAD DUP1 SWAP2 SUB SWAP1 LOG1 POP POP POP POP JUMP JUMPDEST PUSH1 0x0 JUMPDEST PUSH1 0x3 DUP1 SLOAD SWAP1 POP DUP2 LT ISZERO PUSH2 0x6DD JUMPI PUSH1 0x0 PUSH1 0x3 DUP3 DUP2 SLOAD DUP2 LT PUSH2 0x42F JUMPI PUSH2 0x42E PUSH2 0x1017 JUMP JUMPDEST JUMPDEST SWAP1 PUSH1 0x0 MSTORE PUSH1 0x20 PUSH1 0x0 KECCAK256 ADD PUSH1 0x0 SWAP1 SLOAD SWAP1 PUSH2 0x100 EXP SWAP1 DIV PUSH20 0xFFFFFFFFFFFFFFFFFFFFFFFFFFFFFFFFFFFFFFFF AND SWAP1 POP PUSH1 0x0 PUSH2 0x524 PUSH1 0x2 PUSH1 0x0 DUP5 PUSH20 0xFFFFFFFFFFFFFFFFFFFFFFFFFFFFFFFFFFFFFFFF AND PUSH20 0xFFFFFFFFFFFFFFFFFFFFFFFFFFFFFFFFFFFFFFFF AND DUP2 MSTORE PUSH1 0x20 ADD SWAP1 DUP2 MSTORE PUSH1 0x20 ADD PUSH1 0x0 KECCAK256 PUSH1 0x40 MLOAD DUP1 PUSH1 0x80 ADD PUSH1 0x40 MSTORE SWAP1 DUP2 PUSH1 0x0 DUP3 ADD PUSH1 0x0 SWAP1 SLOAD SWAP1 PUSH2 0x100 EXP SWAP1 DIV PUSH20 0xFFFFFFFFFFFFFFFFFFFFFFFFFFFFFFFFFFFFFFFF AND PUSH20 0xFFFFFFFFFFFFFFFFFFFFFFFFFFFFFFFFFFFFFFFF AND PUSH20 0xFFFFFFFFFFFFFFFFFFFFFFFFFFFFFFFFFFFFFFFF AND DUP2 MSTORE PUSH1 0x20 ADD PUSH1 0x1 DUP3 ADD SLOAD DUP2 MSTORE PUSH1 0x20 ADD PUSH1 0x2 DUP3 ADD SLOAD DUP2 MSTORE PUSH1 0x20 ADD PUSH1 0x3 DUP3 ADD SLOAD DUP2 MSTORE POP POP PUSH2 0xBB1 JUMP JUMPDEST SWAP1 POP PUSH1 0x0 DUP1 SLOAD SWAP1 PUSH2 0x100 EXP SWAP1 DIV PUSH20 0xFFFFFFFFFFFFFFFFFFFFFFFFFFFFFFFFFFFFFFFF AND PUSH20 0xFFFFFFFFFFFFFFFFFFFFFFFFFFFFFFFFFFFFFFFF AND PUSH4 0xD7081E03 DUP4 DUP4 PUSH1 0x40 MLOAD DUP4 PUSH4 0xFFFFFFFF AND PUSH1 0xE0 SHL DUP2 MSTORE PUSH1 0x4 ADD PUSH2 0x581 SWAP3 SWAP2 SWAP1 PUSH2 0x1046 JUMP JUMPDEST PUSH1 0x0 PUSH1 0x40 MLOAD DUP1 DUP4 SUB DUP2 PUSH1 0x0 DUP8 DUP1 EXTCODESIZE ISZERO DUP1 ISZERO PUSH2 0x59B JUMPI PUSH1 0x0 DUP1 REVERT JUMPDEST POP GAS CALL ISZERO DUP1 ISZERO PUSH2 0x5AF JUMPI RETURNDATASIZE PUSH1 0x0 DUP1 RETURNDATACOPY RETURNDATASIZE PUSH1 0x0 REVERT JUMPDEST POP POP POP POP PUSH1 0x1 PUSH1 0x2 PUSH1 0x0 DUP5 PUSH20 0xFFFFFFFFFFFFFFFFFFFFFFFFFFFFFFFFFFFFFFFF AND PUSH20 0xFFFFFFFFFFFFFFFFFFFFFFFFFFFFFFFFFFFFFFFF AND DUP2 MSTORE PUSH1 0x20 ADD SWAP1 DUP2 MSTORE PUSH1 0x20 ADD PUSH1 0x0 KECCAK256 PUSH1 0x2 ADD DUP2 SWAP1 SSTORE POP PUSH1 0x1 PUSH1 0x0 SWAP1 SLOAD SWAP1 PUSH2 0x100 EXP SWAP1 DIV PUSH20 0xFFFFFFFFFFFFFFFFFFFFFFFFFFFFFFFFFFFFFFFF AND PUSH20 0xFFFFFFFFFFFFFFFFFFFFFFFFFFFFFFFFFFFFFFFF AND PUSH4 0xC316D9A7 PUSH1 0x3 DUP6 DUP2 SLOAD DUP2 LT PUSH2 0x64D JUMPI PUSH2 0x64C PUSH2 0x1017 JUMP JUMPDEST JUMPDEST SWAP1 PUSH1 0x0 MSTORE PUSH1 0x20 PUSH1 0x0 KECCAK256 ADD PUSH1 0x0 SWAP1 SLOAD SWAP1 PUSH2 0x100 EXP SWAP1 DIV PUSH20 0xFFFFFFFFFFFFFFFFFFFFFFFFFFFFFFFFFFFFFFFF AND DUP4 PUSH1 0x40 MLOAD DUP4 PUSH4 0xFFFFFFFF AND PUSH1 0xE0 SHL DUP2 MSTORE PUSH1 0x4 ADD PUSH2 0x696 SWAP3 SWAP2 SWAP1 PUSH2 0x106F JUMP JUMPDEST PUSH1 0x0 PUSH1 0x40 MLOAD DUP1 DUP4 SUB DUP2 PUSH1 0x0 DUP8 DUP1 EXTCODESIZE ISZERO DUP1 ISZERO PUSH2 0x6B0 JUMPI PUSH1 0x0 DUP1 REVERT JUMPDEST POP GAS CALL ISZERO DUP1 ISZERO PUSH2 0x6C4 JUMPI RETURNDATASIZE PUSH1 0x0 DUP1 RETURNDATACOPY RETURNDATASIZE PUSH1 0x0 REVERT JUMPDEST POP POP POP POP POP POP DUP1 DUP1 PUSH2 0x6D5 SWAP1 PUSH2 0x10C7 JUMP JUMPDEST SWAP2 POP POP PUSH2 0x40C JUMP JUMPDEST POP JUMP JUMPDEST PUSH1 0x0 DUP1 PUSH1 0x0 SWAP1 POP PUSH1 0x0 JUMPDEST PUSH1 0x3 DUP1 SLOAD SWAP1 POP DUP2 LT ISZERO PUSH2 0x827 JUMPI PUSH1 0x0 PUSH1 0x3 DUP3 DUP2 SLOAD DUP2 LT PUSH2 0x70D JUMPI PUSH2 0x70C PUSH2 0x1017 JUMP JUMPDEST JUMPDEST SWAP1 PUSH1 0x0 MSTORE PUSH1 0x20 PUSH1 0x0 KECCAK256 ADD PUSH1 0x0 SWAP1 SLOAD SWAP1 PUSH2 0x100 EXP SWAP1 DIV PUSH20 0xFFFFFFFFFFFFFFFFFFFFFFFFFFFFFFFFFFFFFFFF AND SWAP1 POP PUSH1 0x0 PUSH2 0x802 PUSH1 0x2 PUSH1 0x0 DUP5 PUSH20 0xFFFFFFFFFFFFFFFFFFFFFFFFFFFFFFFFFFFFFFFF AND PUSH20 0xFFFFFFFFFFFFFFFFFFFFFFFFFFFFFFFFFFFFFFFF AND DUP2 MSTORE PUSH1 0x20 ADD SWAP1 DUP2 MSTORE PUSH1 0x20 ADD PUSH1 0x0 KECCAK256 PUSH1 0x40 MLOAD DUP1 PUSH1 0x80 ADD PUSH1 0x40 MSTORE SWAP1 DUP2 PUSH1 0x0 DUP3 ADD PUSH1 0x0 SWAP1 SLOAD SWAP1 PUSH2 0x100 EXP SWAP1 DIV PUSH20 0xFFFFFFFFFFFFFFFFFFFFFFFFFFFFFFFFFFFFFFFF AND PUSH20 0xFFFFFFFFFFFFFFFFFFFFFFFFFFFFFFFFFFFFFFFF AND PUSH20 0xFFFFFFFFFFFFFFFFFFFFFFFFFFFFFFFFFFFFFFFF AND DUP2 MSTORE PUSH1 0x20 ADD PUSH1 0x1 DUP3 ADD SLOAD DUP2 MSTORE PUSH1 0x20 ADD PUSH1 0x2 DUP3 ADD SLOAD DUP2 MSTORE PUSH1 0x20 ADD PUSH1 0x3 DUP3 ADD SLOAD DUP2 MSTORE POP POP PUSH2 0xBB1 JUMP JUMPDEST SWAP1 POP DUP1 DUP5 PUSH2 0x810 SWAP2 SWAP1 PUSH2 0x110F JUMP JUMPDEST SWAP4 POP POP POP DUP1 DUP1 PUSH2 0x81F SWAP1 PUSH2 0x10C7 JUMP JUMPDEST SWAP2 POP POP PUSH2 0x6EA JUMP JUMPDEST POP DUP1 SWAP2 POP POP SWAP1 JUMP JUMPDEST PUSH1 0x3 DUP2 DUP2 SLOAD DUP2 LT PUSH2 0x83F JUMPI PUSH1 0x0 DUP1 REVERT JUMPDEST SWAP1 PUSH1 0x0 MSTORE PUSH1 0x20 PUSH1 0x0 KECCAK256 ADD PUSH1 0x0 SWAP2 POP SLOAD SWAP1 PUSH2 0x100 EXP SWAP1 DIV PUSH20 0xFFFFFFFFFFFFFFFFFFFFFFFFFFFFFFFFFFFFFFFF AND DUP2 JUMP JUMPDEST PUSH1 0x2 PUSH1 0x20 MSTORE DUP1 PUSH1 0x0 MSTORE PUSH1 0x40 PUSH1 0x0 KECCAK256 PUSH1 0x0 SWAP2 POP SWAP1 POP DUP1 PUSH1 0x0 ADD PUSH1 0x0 SWAP1 SLOAD SWAP1 PUSH2 0x100 EXP SWAP1 DIV PUSH20 0xFFFFFFFFFFFFFFFFFFFFFFFFFFFFFFFFFFFFFFFF AND SWAP1 DUP1 PUSH1 0x1 ADD SLOAD SWAP1 DUP1 PUSH1 0x2 ADD SLOAD SWAP1 DUP1 PUSH1 0x3 ADD SLOAD SWAP1 POP DUP5 JUMP JUMPDEST PUSH1 0x2 PUSH1 0x0 DUP3 PUSH20 0xFFFFFFFFFFFFFFFFFFFFFFFFFFFFFFFFFFFFFFFF AND PUSH20 0xFFFFFFFFFFFFFFFFFFFFFFFFFFFFFFFFFFFFFFFF AND DUP2 MSTORE PUSH1 0x20 ADD SWAP1 DUP2 MSTORE PUSH1 0x20 ADD PUSH1 0x0 KECCAK256 PUSH1 0x0 DUP1 DUP3 ADD PUSH1 0x0 PUSH2 0x100 EXP DUP2 SLOAD SWAP1 PUSH20 0xFFFFFFFFFFFFFFFFFFFFFFFFFFFFFFFFFFFFFFFF MUL NOT AND SWAP1 SSTORE PUSH1 0x1 DUP3 ADD PUSH1 0x0 SWAP1 SSTORE PUSH1 0x2 DUP3 ADD PUSH1 0x0 SWAP1 SSTORE PUSH1 0x3 DUP3 ADD PUSH1 0x0 SWAP1 SSTORE POP POP PUSH1 0x1 PUSH1 0x0 SWAP1 SLOAD SWAP1 PUSH2 0x100 EXP SWAP1 DIV PUSH20 0xFFFFFFFFFFFFFFFFFFFFFFFFFFFFFFFFFFFFFFFF AND PUSH20 0xFFFFFFFFFFFFFFFFFFFFFFFFFFFFFFFFFFFFFFFF AND PUSH4 0x58A290D2 DUP3 PUSH1 0x40 MLOAD DUP3 PUSH4 0xFFFFFFFF AND PUSH1 0xE0 SHL DUP2 MSTORE PUSH1 0x4 ADD PUSH2 0x99A SWAP2 SWAP1 PUSH2 0xEC7 JUMP JUMPDEST PUSH1 0x0 PUSH1 0x40 MLOAD DUP1 DUP4 SUB DUP2 PUSH1 0x0 DUP8 DUP1 EXTCODESIZE ISZERO DUP1 ISZERO PUSH2 0x9B4 JUMPI PUSH1 0x0 DUP1 REVERT JUMPDEST POP GAS CALL ISZERO DUP1 ISZERO PUSH2 0x9C8 JUMPI RETURNDATASIZE PUSH1 0x0 DUP1 RETURNDATACOPY RETURNDATASIZE PUSH1 0x0 REVERT JUMPDEST POP POP POP POP PUSH1 0x0 PUSH2 0x9D7 DUP3 PUSH2 0xC00 JUMP JUMPDEST SWAP1 POP PUSH1 0x3 DUP1 SLOAD SWAP1 POP DUP2 LT ISZERO PUSH2 0xADA JUMPI PUSH1 0x3 PUSH1 0x1 PUSH1 0x3 DUP1 SLOAD SWAP1 POP PUSH2 0x9FA SWAP2 SWAP1 PUSH2 0x1143 JUMP JUMPDEST DUP2 SLOAD DUP2 LT PUSH2 0xA0B JUMPI PUSH2 0xA0A PUSH2 0x1017 JUMP JUMPDEST JUMPDEST SWAP1 PUSH1 0x0 MSTORE PUSH1 0x20 PUSH1 0x0 KECCAK256 ADD PUSH1 0x0 SWAP1 SLOAD SWAP1 PUSH2 0x100 EXP SWAP1 DIV PUSH20 0xFFFFFFFFFFFFFFFFFFFFFFFFFFFFFFFFFFFFFFFF AND PUSH1 0x3 DUP3 DUP2 SLOAD DUP2 LT PUSH2 0xA4A JUMPI PUSH2 0xA49 PUSH2 0x1017 JUMP JUMPDEST JUMPDEST SWAP1 PUSH1 0x0 MSTORE PUSH1 0x20 PUSH1 0x0 KECCAK256 ADD PUSH1 0x0 PUSH2 0x100 EXP DUP2 SLOAD DUP2 PUSH20 0xFFFFFFFFFFFFFFFFFFFFFFFFFFFFFFFFFFFFFFFF MUL NOT AND SWAP1 DUP4 PUSH20 0xFFFFFFFFFFFFFFFFFFFFFFFFFFFFFFFFFFFFFFFF AND MUL OR SWAP1 SSTORE POP PUSH1 0x3 DUP1 SLOAD DUP1 PUSH2 0xAA4 JUMPI PUSH2 0xAA3 PUSH2 0x1177 JUMP JUMPDEST JUMPDEST PUSH1 0x1 SWAP1 SUB DUP2 DUP2 SWAP1 PUSH1 0x0 MSTORE PUSH1 0x20 PUSH1 0x0 KECCAK256 ADD PUSH1 0x0 PUSH2 0x100 EXP DUP2 SLOAD SWAP1 PUSH20 0xFFFFFFFFFFFFFFFFFFFFFFFFFFFFFFFFFFFFFFFF MUL NOT AND SWAP1 SSTORE SWAP1 SSTORE JUMPDEST PUSH32 0xABAE6E64CB4315875C29D42347A312F5E9FCE4AB564E9722B43DD78D0751135A DUP3 PUSH1 0x40 MLOAD PUSH2 0xB09 SWAP2 SWAP1 PUSH2 0xEC7 JUMP JUMPDEST PUSH1 0x40 MLOAD DUP1 SWAP2 SUB SWAP1 LOG1 POP POP JUMP JUMPDEST PUSH1 0x0 PUSH1 0x2 PUSH1 0x0 DUP7 PUSH20 0xFFFFFFFFFFFFFFFFFFFFFFFFFFFFFFFFFFFFFFFF AND PUSH20 0xFFFFFFFFFFFFFFFFFFFFFFFFFFFFFFFFFFFFFFFF AND DUP2 MSTORE PUSH1 0x20 ADD SWAP1 DUP2 MSTORE PUSH1 0x20 ADD PUSH1 0x0 KECCAK256 SWAP1 POP DUP4 DUP2 PUSH1 0x1 ADD DUP2 SWAP1 SSTORE POP DUP3 DUP2 PUSH1 0x2 ADD DUP2 SWAP1 SSTORE POP DUP2 DUP2 PUSH1 0x3 ADD DUP2 SWAP1 SSTORE POP PUSH32 0x99D48556BE6117B7DA7D33C0AFCE92EB9789B36C8FF5BB604695008834534796 DUP6 PUSH1 0x40 MLOAD PUSH2 0xBA2 SWAP2 SWAP1 PUSH2 0xEC7 JUMP JUMPDEST PUSH1 0x40 MLOAD DUP1 SWAP2 SUB SWAP1 LOG1 POP POP POP POP POP JUMP JUMPDEST PUSH1 0x0 DUP1 PUSH1 0x1 DUP4 PUSH1 0x40 ADD MLOAD DUP5 PUSH1 0x60 ADD MLOAD PUSH2 0xBCA SWAP2 SWAP1 PUSH2 0x1143 JUMP JUMPDEST PUSH2 0xBD4 SWAP2 SWAP1 PUSH2 0x110F JUMP JUMPDEST SWAP1 POP PUSH1 0x0 PUSH1 0x1E DUP5 PUSH1 0x20 ADD MLOAD DUP4 PUSH2 0xBEA SWAP2 SWAP1 PUSH2 0x11A6 JUMP JUMPDEST PUSH2 0xBF4 SWAP2 SWAP1 PUSH2 0x1217 JUMP JUMPDEST SWAP1 POP DUP1 SWAP3 POP POP POP SWAP2 SWAP1 POP JUMP JUMPDEST PUSH1 0x0 DUP1 PUSH1 0x0 SWAP1 POP JUMPDEST PUSH1 0x3 DUP1 SLOAD SWAP1 POP DUP2 LT ISZERO PUSH2 0xCA2 JUMPI DUP3 PUSH20 0xFFFFFFFFFFFFFFFFFFFFFFFFFFFFFFFFFFFFFFFF AND PUSH1 0x3 DUP3 DUP2 SLOAD DUP2 LT PUSH2 0xC40 JUMPI PUSH2 0xC3F PUSH2 0x1017 JUMP JUMPDEST JUMPDEST SWAP1 PUSH1 0x0 MSTORE PUSH1 0x20 PUSH1 0x0 KECCAK256 ADD PUSH1 0x0 SWAP1 SLOAD SWAP1 PUSH2 0x100 EXP SWAP1 DIV PUSH20 0xFFFFFFFFFFFFFFFFFFFFFFFFFFFFFFFFFFFFFFFF AND PUSH20 0xFFFFFFFFFFFFFFFFFFFFFFFFFFFFFFFFFFFFFFFF AND SUB PUSH2 0xC8F JUMPI DUP1 SWAP2 POP POP PUSH2 0xCAC JUMP JUMPDEST DUP1 DUP1 PUSH2 0xC9A SWAP1 PUSH2 0x10C7 JUMP JUMPDEST SWAP2 POP POP PUSH2 0xC08 JUMP JUMPDEST POP PUSH1 0x3 DUP1 SLOAD SWAP1 POP SWAP1 POP JUMPDEST SWAP2 SWAP1 POP JUMP JUMPDEST PUSH1 0x0 DUP1 REVERT JUMPDEST PUSH1 0x0 PUSH20 0xFFFFFFFFFFFFFFFFFFFFFFFFFFFFFFFFFFFFFFFF DUP3 AND SWAP1 POP SWAP2 SWAP1 POP JUMP JUMPDEST PUSH1 0x0 PUSH2 0xCE1 DUP3 PUSH2 0xCB6 JUMP JUMPDEST SWAP1 POP SWAP2 SWAP1 POP JUMP JUMPDEST PUSH2 0xCF1 DUP2 PUSH2 0xCD6 JUMP JUMPDEST DUP2 EQ PUSH2 0xCFC JUMPI PUSH1 0x0 DUP1 REVERT JUMPDEST POP JUMP JUMPDEST PUSH1 0x0 DUP2 CALLDATALOAD SWAP1 POP PUSH2 0xD0E DUP2 PUSH2 0xCE8 JUMP JUMPDEST SWAP3 SWAP2 POP POP JUMP JUMPDEST PUSH1 0x0 PUSH1 0x20 DUP3 DUP5 SUB SLT ISZERO PUSH2 0xD2A JUMPI PUSH2 0xD29 PUSH2 0xCB1 JUMP JUMPDEST JUMPDEST PUSH1 0x0 PUSH2 0xD38 DUP5 DUP3 DUP6 ADD PUSH2 0xCFF JUMP JUMPDEST SWAP2 POP POP SWAP3 SWAP2 POP POP JUMP JUMPDEST PUSH2 0xD4A DUP2 PUSH2 0xCD6 JUMP JUMPDEST DUP3 MSTORE POP POP JUMP JUMPDEST PUSH1 0x0 DUP2 SWAP1 POP SWAP2 SWAP1 POP JUMP JUMPDEST PUSH2 0xD63 DUP2 PUSH2 0xD50 JUMP JUMPDEST DUP3 MSTORE POP POP JUMP JUMPDEST PUSH1 0x0 PUSH1 0x80 DUP3 ADD SWAP1 POP PUSH2 0xD7E PUSH1 0x0 DUP4 ADD DUP8 PUSH2 0xD41 JUMP JUMPDEST PUSH2 0xD8B PUSH1 0x20 DUP4 ADD DUP7 PUSH2 0xD5A JUMP JUMPDEST PUSH2 0xD98 PUSH1 0x40 DUP4 ADD DUP6 PUSH2 0xD5A JUMP JUMPDEST PUSH2 0xDA5 PUSH1 0x60 DUP4 ADD DUP5 PUSH2 0xD5A JUMP JUMPDEST SWAP6 SWAP5 POP POP POP POP POP JUMP JUMPDEST PUSH1 0x0 PUSH2 0xDB9 DUP3 PUSH2 0xCB6 JUMP JUMPDEST SWAP1 POP SWAP2 SWAP1 POP JUMP JUMPDEST PUSH2 0xDC9 DUP2 PUSH2 0xDAE JUMP JUMPDEST DUP2 EQ PUSH2 0xDD4 JUMPI PUSH1 0x0 DUP1 REVERT JUMPDEST POP JUMP JUMPDEST PUSH1 0x0 DUP2 CALLDATALOAD SWAP1 POP PUSH2 0xDE6 DUP2 PUSH2 0xDC0 JUMP JUMPDEST SWAP3 SWAP2 POP POP JUMP JUMPDEST PUSH2 0xDF5 DUP2 PUSH2 0xD50 JUMP JUMPDEST DUP2 EQ PUSH2 0xE00 JUMPI PUSH1 0x0 DUP1 REVERT JUMPDEST POP JUMP JUMPDEST PUSH1 0x0 DUP2 CALLDATALOAD SWAP1 POP PUSH2 0xE12 DUP2 PUSH2 0xDEC JUMP JUMPDEST SWAP3 SWAP2 POP POP JUMP JUMPDEST PUSH1 0x0 DUP1 PUSH1 0x0 DUP1 PUSH1 0x80 DUP6 DUP8 SUB SLT ISZERO PUSH2 0xE32 JUMPI PUSH2 0xE31 PUSH2 0xCB1 JUMP JUMPDEST JUMPDEST PUSH1 0x0 PUSH2 0xE40 DUP8 DUP3 DUP9 ADD PUSH2 0xDD7 JUMP JUMPDEST SWAP5 POP POP PUSH1 0x20 PUSH2 0xE51 DUP8 DUP3 DUP9 ADD PUSH2 0xE03 JUMP JUMPDEST SWAP4 POP POP PUSH1 0x40 PUSH2 0xE62 DUP8 DUP3 DUP9 ADD PUSH2 0xE03 JUMP JUMPDEST SWAP3 POP POP PUSH1 0x60 PUSH2 0xE73 DUP8 DUP3 DUP9 ADD PUSH2 0xE03 JUMP JUMPDEST SWAP2 POP POP SWAP3 SWAP6 SWAP2 SWAP5 POP SWAP3 POP JUMP JUMPDEST PUSH1 0x0 PUSH1 0x20 DUP3 ADD SWAP1 POP PUSH2 0xE94 PUSH1 0x0 DUP4 ADD DUP5 PUSH2 0xD5A JUMP JUMPDEST SWAP3 SWAP2 POP POP JUMP JUMPDEST PUSH1 0x0 PUSH1 0x20 DUP3 DUP5 SUB SLT ISZERO PUSH2 0xEB0 JUMPI PUSH2 0xEAF PUSH2 0xCB1 JUMP JUMPDEST JUMPDEST PUSH1 0x0 PUSH2 0xEBE DUP5 DUP3 DUP6 ADD PUSH2 0xE03 JUMP JUMPDEST SWAP2 POP POP SWAP3 SWAP2 POP POP JUMP JUMPDEST PUSH1 0x0 PUSH1 0x20 DUP3 ADD SWAP1 POP PUSH2 0xEDC PUSH1 0x0 DUP4 ADD DUP5 PUSH2 0xD41 JUMP JUMPDEST SWAP3 SWAP2 POP POP JUMP JUMPDEST PUSH2 0xEEB DUP2 PUSH2 0xDAE JUMP JUMPDEST DUP3 MSTORE POP POP JUMP JUMPDEST PUSH1 0x0 PUSH1 0x80 DUP3 ADD SWAP1 POP PUSH2 0xF06 PUSH1 0x0 DUP4 ADD DUP8 PUSH2 0xEE2 JUMP JUMPDEST PUSH2 0xF13 PUSH1 0x20 DUP4 ADD DUP7 PUSH2 0xD5A JUMP JUMPDEST PUSH2 0xF20 PUSH1 0x40 DUP4 ADD DUP6 PUSH2 0xD5A JUMP JUMPDEST PUSH2 0xF2D PUSH1 0x60 DUP4 ADD DUP5 PUSH2 0xD5A JUMP JUMPDEST SWAP6 SWAP5 POP POP POP POP POP JUMP JUMPDEST PUSH1 0x0 DUP1 PUSH1 0x0 DUP1 PUSH1 0x80 DUP6 DUP8 SUB SLT ISZERO PUSH2 0xF50 JUMPI PUSH2 0xF4F PUSH2 0xCB1 JUMP JUMPDEST JUMPDEST PUSH1 0x0 PUSH2 0xF5E DUP8 DUP3 DUP9 ADD PUSH2 0xCFF JUMP JUMPDEST SWAP5 POP POP PUSH1 0x20 PUSH2 0xF6F DUP8 DUP3 DUP9 ADD PUSH2 0xE03 JUMP JUMPDEST SWAP4 POP POP PUSH1 0x40 PUSH2 0xF80 DUP8 DUP3 DUP9 ADD PUSH2 0xE03 JUMP JUMPDEST SWAP3 POP POP PUSH1 0x60 PUSH2 0xF91 DUP8 DUP3 DUP9 ADD PUSH2 0xE03 JUMP JUMPDEST SWAP2 POP POP SWAP3 SWAP6 SWAP2 SWAP5 POP SWAP3 POP JUMP JUMPDEST PUSH1 0x0 DUP2 SWAP1 POP SWAP2 SWAP1 POP JUMP JUMPDEST PUSH1 0x0 PUSH2 0xFC2 PUSH2 0xFBD PUSH2 0xFB8 DUP5 PUSH2 0xCB6 JUMP JUMPDEST PUSH2 0xF9D JUMP JUMPDEST PUSH2 0xCB6 JUMP JUMPDEST SWAP1 POP SWAP2 SWAP1 POP JUMP JUMPDEST PUSH1 0x0 PUSH2 0xFD4 DUP3 PUSH2 0xFA7 JUMP JUMPDEST SWAP1 POP SWAP2 SWAP1 POP JUMP JUMPDEST PUSH1 0x0 PUSH2 0xFE6 DUP3 PUSH2 0xFC9 JUMP JUMPDEST SWAP1 POP SWAP2 SWAP1 POP JUMP JUMPDEST PUSH2 0xFF6 DUP2 PUSH2 0xFDB JUMP JUMPDEST DUP3 MSTORE POP POP JUMP JUMPDEST PUSH1 0x0 PUSH1 0x20 DUP3 ADD SWAP1 POP PUSH2 0x1011 PUSH1 0x0 DUP4 ADD DUP5 PUSH2 0xFED JUMP JUMPDEST SWAP3 SWAP2 POP POP JUMP JUMPDEST PUSH32 0x4E487B7100000000000000000000000000000000000000000000000000000000 PUSH1 0x0 MSTORE PUSH1 0x32 PUSH1 0x4 MSTORE PUSH1 0x24 PUSH1 0x0 REVERT JUMPDEST PUSH1 0x0 PUSH1 0x40 DUP3 ADD SWAP1 POP PUSH2 0x105B PUSH1 0x0 DUP4 ADD DUP6 PUSH2 0xEE2 JUMP JUMPDEST PUSH2 0x1068 PUSH1 0x20 DUP4 ADD DUP5 PUSH2 0xD5A JUMP JUMPDEST SWAP4 SWAP3 POP POP POP JUMP JUMPDEST PUSH1 0x0 PUSH1 0x40 DUP3 ADD SWAP1 POP PUSH2 0x1084 PUSH1 0x0 DUP4 ADD DUP6 PUSH2 0xD41 JUMP JUMPDEST PUSH2 0x1091 PUSH1 0x20 DUP4 ADD DUP5 PUSH2 0xD5A JUMP JUMPDEST SWAP4 SWAP3 POP POP POP JUMP JUMPDEST PUSH32 0x4E487B7100000000000000000000000000000000000000000000000000000000 PUSH1 0x0 MSTORE PUSH1 0x11 PUSH1 0x4 MSTORE PUSH1 0x24 PUSH1 0x0 REVERT JUMPDEST PUSH1 0x0 PUSH2 0x10D2 DUP3 PUSH2 0xD50 JUMP JUMPDEST SWAP2 POP PUSH32 0xFFFFFFFFFFFFFFFFFFFFFFFFFFFFFFFFFFFFFFFFFFFFFFFFFFFFFFFFFFFFFFFF DUP3 SUB PUSH2 0x1104 JUMPI PUSH2 0x1103 PUSH2 0x1098 JUMP JUMPDEST JUMPDEST PUSH1 0x1 DUP3 ADD SWAP1 POP SWAP2 SWAP1 POP JUMP JUMPDEST PUSH1 0x0 PUSH2 0x111A DUP3 PUSH2 0xD50 JUMP JUMPDEST SWAP2 POP PUSH2 0x1125 DUP4 PUSH2 0xD50 JUMP JUMPDEST SWAP3 POP DUP3 DUP3 ADD SWAP1 POP DUP1 DUP3 GT ISZERO PUSH2 0x113D JUMPI PUSH2 0x113C PUSH2 0x1098 JUMP JUMPDEST JUMPDEST SWAP3 SWAP2 POP POP JUMP JUMPDEST PUSH1 0x0 PUSH2 0x114E DUP3 PUSH2 0xD50 JUMP JUMPDEST SWAP2 POP PUSH2 0x1159 DUP4 PUSH2 0xD50 JUMP JUMPDEST SWAP3 POP DUP3 DUP3 SUB SWAP1 POP DUP2 DUP2 GT ISZERO PUSH2 0x1171 JUMPI PUSH2 0x1170 PUSH2 0x1098 JUMP JUMPDEST JUMPDEST SWAP3 SWAP2 POP POP JUMP JUMPDEST PUSH32 0x4E487B7100000000000000000000000000000000000000000000000000000000 PUSH1 0x0 MSTORE PUSH1 0x31 PUSH1 0x4 MSTORE PUSH1 0x24 PUSH1 0x0 REVERT JUMPDEST PUSH1 0x0 PUSH2 0x11B1 DUP3 PUSH2 0xD50 JUMP JUMPDEST SWAP2 POP PUSH2 0x11BC DUP4 PUSH2 0xD50 JUMP JUMPDEST SWAP3 POP DUP3 DUP3 MUL PUSH2 0x11CA DUP2 PUSH2 0xD50 JUMP JUMPDEST SWAP2 POP DUP3 DUP3 DIV DUP5 EQ DUP4 ISZERO OR PUSH2 0x11E1 JUMPI PUSH2 0x11E0 PUSH2 0x1098 JUMP JUMPDEST JUMPDEST POP SWAP3 SWAP2 POP POP JUMP JUMPDEST PUSH32 0x4E487B7100000000000000000000000000000000000000000000000000000000 PUSH1 0x0 MSTORE PUSH1 0x12 PUSH1 0x4 MSTORE PUSH1 0x24 PUSH1 0x0 REVERT JUMPDEST PUSH1 0x0 PUSH2 0x1222 DUP3 PUSH2 0xD50 JUMP JUMPDEST SWAP2 POP PUSH2 0x122D DUP4 PUSH2 0xD50 JUMP JUMPDEST SWAP3 POP DUP3 PUSH2 0x123D JUMPI PUSH2 0x123C PUSH2 0x11E8 JUMP JUMPDEST JUMPDEST DUP3 DUP3 DIV SWAP1 POP SWAP3 SWAP2 POP POP JUMP INVALID LOG2 PUSH5 0x6970667358 0x22 SLT KECCAK256 MSTORE8 PUSH18 0x56B17DFA5E86914CEF30E564BB31D77A04E3 ORIGIN 0xD4 PREVRANDAO LOG4 0xDC 0xF9 0x26 0xFB LOG1 0xE5 0xAD 0xB0 PUSH5 0x736F6C6343 STOP ADDMOD SGT STOP CALLER "},"gasEstimates":{"creation":{"codeDepositCost":"820000","executionCost":"infinite","totalCost":"infinite"},"external":{"addEmployee(address,uint256,uint256,uint256)":"infinite","checkBalance()":"infinite","depositFunds()":"infinite","employeeManagement()":"infinite","financeManagement()":"infinite","getEmployeeDetails(address)":"infinite","getHistory(address)":"infinite","historyManagement()":"infinite","owner()":"2622","payAllEmployees()":"infinite","removeEmployee(address)":"infinite","totalSalaryToBePaid()":"infinite","updateEmployee(address,uint256,uint256,uint256)":"infinite"}},"methodIdentifiers":{"addEmployee(address,uint256,uint256,uint256)":"4a4247d9","checkBalance()":"c71daccb","depositFunds()":"e2c41dbc","employeeManagement()":"ccff137a","financeManagement()":"64ca0981","getEmployeeDetails(address)":"1caafcf1","getHistory(address)":"80396811","historyManagement()":"c0571ea5","owner()":"8da5cb5b","payAllEmployees()":"809e9ef5","removeEmployee(address)":"d108177a","totalSalaryToBePaid()":"a84cffd9","updateEmployee(address,uint256,uint256,uint256)":"df47a353"}},"storageLayout":{"storage":[{"astId":6,"contract":"BlockPay.sol:BlockPay","label":"owner","offset":0,"slot":"0","type":"t_address"},{"astId":9,"contract":"BlockPay.sol:BlockPay","label":"financeManagement","offset":0,"slot":"1","type":"t_contract(FinanceManagement)644"},{"astId":12,"contract":"BlockPay.sol:BlockPay","label":"employeeManagement","offset":0,"slot":"2","type":"t_contract(EmployeeManagement)555"},{"astId":15,"contract":"BlockPay.sol:BlockPay","label":"historyManagement","offset":0,"slot":"3","type":"t_contract(HistoryManagement)695"}],"types":{"t_address":{"encoding":"inplace","label":"address","numberOfBytes":"20"},"t_contract(EmployeeManagement)555":{"encoding":"inplace","label":"contract EmployeeManagement","numberOfBytes":"20"},"t_contract(FinanceManagement)644":{"encoding":"inplace","label":"contract FinanceManagement","numberOfBytes":"20"},"t_contract(HistoryManagement)695":{"encoding":"inplace","label":"contract HistoryManagement","numberOfBytes":"20"}}},"userdoc":{"kind":"user","methods":{},"version":1}}