{"abi":[{"inputs":[],"stateMutability":"nonpayable","type":"constructor"},{"inputs":[{"internalType":"address payable","name":"account","type":"address"},{"internalType":"uint256","name":"salary","type":"uint256"},{"internalType":"uint256","name":"payStartDate","type":"uint256"},{"internalType":"uint256","name":"payEndDate","type":"uint256"}],"name":"addEmployee","outputs":[],"stateMutability":"nonpayable","type":"function"},{"inputs":[],"name":"checkBalance","outputs":[{"internalType":"uint256","name":"","type":"uint256"}],"stateMutability":"view","type":"function"},{"inputs":[],"name":"depositFunds","outputs":[],"stateMutability":"payable","type":"function"},{"inputs":[],"name":"employeeManagement","outputs":[{"internalType":"contract EmployeeManagement","name":"","type":"address"}],"stateMutability":"view","type":"function"},{"inputs":[],"name":"financeManagement","outputs":[{"internalType":"contract FinanceManagement","name":"","type":"address"}],"stateMutability":"view","type":"function"},{"inputs":[{"internalType":"address","name":"account","type":"address"}],"name":"getEmployeeDetails","outputs":[{"internalType":"address","name":"","type":"address"},{"internalType":"uint256","name":"","type":"uint256"},{"internalType":"uint256","name":"","type":"uint256"},{"internalType":"uint256","name":"","type":"uint256"}],"stateMutability":"view","type":"function"},{"inputs":[],"name":"owner","outputs":[{"internalType":"address","name":"","type":"address"}],"stateMutability":"view","type":"function"},{"inputs":[],"name":"payAllEmployees","outputs":[],"stateMutability":"nonpayable","type":"function"},{"inputs":[{"internalType":"address","name":"account","type":"address"}],"name":"removeEmployee","outputs":[],"stateMutability":"nonpayable","type":"function"},{"inputs":[{"internalType":"address","name":"account","type":"address"},{"internalType":"uint256","name":"newSalary","type":"uint256"},{"internalType":"uint256","name":"newPayStartDate","type":"uint256"},{"internalType":"uint256","name":"newPayEndDate","type":"uint256"}],"name":"updateEmployee","outputs":[],"stateMutability":"nonpayable","type":"function"}],"devdoc":{"kind":"dev","methods":{},"version":1},"evm":{"assembly":"    /* \"BlockPay.sol\":127:1513  contract BlockPay {... */\n  mstore(0x40, 0x80)\n    /* \"BlockPay.sol\":276:450  constructor() {... */\n  callvalue\n  dup1\n  iszero\n  tag_1\n  jumpi\n  0x00\n  dup1\n  revert\ntag_1:\n  pop\n    /* \"BlockPay.sol\":308:318  msg.sender */\n  caller\n    /* \"BlockPay.sol\":300:305  owner */\n  0x00\n  dup1\n    /* \"BlockPay.sol\":300:318  owner = msg.sender */\n  0x0100\n  exp\n  dup2\n  sload\n  dup2\n  0xffffffffffffffffffffffffffffffffffffffff\n  mul\n  not\n  and\n  swap1\n  dup4\n  0xffffffffffffffffffffffffffffffffffffffff\n  and\n  mul\n  or\n  swap1\n  sstore\n  pop\n    /* \"BlockPay.sol\":348:371  new FinanceManagement() */\n  mload(0x40)\n  tag_4\n  swap1\n  tag_5\n  jump\t// in\ntag_4:\n  mload(0x40)\n  dup1\n  swap2\n  sub\n  swap1\n  0x00\n  create\n  dup1\n  iszero\n  dup1\n  iszero\n  tag_6\n  jumpi\n  returndatasize\n  0x00\n  dup1\n  returndatacopy\n  revert(0x00, returndatasize)\ntag_6:\n  pop\n    /* \"BlockPay.sol\":328:345  financeManagement */\n  0x01\n  0x00\n    /* \"BlockPay.sol\":328:371  financeManagement = new FinanceManagement() */\n  0x0100\n  exp\n  dup2\n  sload\n  dup2\n  0xffffffffffffffffffffffffffffffffffffffff\n  mul\n  not\n  and\n  swap1\n  dup4\n  0xffffffffffffffffffffffffffffffffffffffff\n  and\n  mul\n  or\n  swap1\n  sstore\n  pop\n    /* \"BlockPay.sol\":425:442  financeManagement */\n  0x01\n  0x00\n  swap1\n  sload\n  swap1\n  0x0100\n  exp\n  swap1\n  div\n  0xffffffffffffffffffffffffffffffffffffffff\n  and\n    /* \"BlockPay.sol\":402:443  new EmployeeManagement(financeManagement) */\n  mload(0x40)\n  tag_7\n  swap1\n  tag_8\n  jump\t// in\ntag_7:\n  tag_9\n  swap2\n  swap1\n  tag_10\n  jump\t// in\ntag_9:\n  mload(0x40)\n  dup1\n  swap2\n  sub\n  swap1\n  0x00\n  create\n  dup1\n  iszero\n  dup1\n  iszero\n  tag_11\n  jumpi\n  returndatasize\n  0x00\n  dup1\n  returndatacopy\n  revert(0x00, returndatasize)\ntag_11:\n  pop\n    /* \"BlockPay.sol\":381:399  employeeManagement */\n  0x02\n  0x00\n    /* \"BlockPay.sol\":381:443  employeeManagement = new EmployeeManagement(financeManagement) */\n  0x0100\n  exp\n  dup2\n  sload\n  dup2\n  0xffffffffffffffffffffffffffffffffffffffff\n  mul\n  not\n  and\n  swap1\n  dup4\n  0xffffffffffffffffffffffffffffffffffffffff\n  and\n  mul\n  or\n  swap1\n  sstore\n  pop\n    /* \"BlockPay.sol\":127:1513  contract BlockPay {... */\n  jump(tag_12)\ntag_5:\n  dataSize(sub_1)\n  dup1\n  dataOffset(sub_1)\n  dup4\n  codecopy\n  add\n  swap1\n  jump\t// out\ntag_8:\n  dataSize(sub_2)\n  dup1\n  dataOffset(sub_2)\n  dup4\n  codecopy\n  add\n  swap1\n  jump\t// out\n    /* \"#utility.yul\":7:133   */\ntag_13:\n    /* \"#utility.yul\":44:51   */\n  0x00\n    /* \"#utility.yul\":84:126   */\n  0xffffffffffffffffffffffffffffffffffffffff\n    /* \"#utility.yul\":77:82   */\n  dup3\n    /* \"#utility.yul\":73:127   */\n  and\n    /* \"#utility.yul\":62:127   */\n  swap1\n  pop\n    /* \"#utility.yul\":7:133   */\n  swap2\n  swap1\n  pop\n  jump\t// out\n    /* \"#utility.yul\":139:199   */\ntag_14:\n    /* \"#utility.yul\":167:170   */\n  0x00\n    /* \"#utility.yul\":188:193   */\n  dup2\n    /* \"#utility.yul\":181:193   */\n  swap1\n  pop\n    /* \"#utility.yul\":139:199   */\n  swap2\n  swap1\n  pop\n  jump\t// out\n    /* \"#utility.yul\":205:347   */\ntag_15:\n    /* \"#utility.yul\":255:264   */\n  0x00\n    /* \"#utility.yul\":288:341   */\n  tag_23\n    /* \"#utility.yul\":306:340   */\n  tag_24\n    /* \"#utility.yul\":315:339   */\n  tag_25\n    /* \"#utility.yul\":333:338   */\n  dup5\n    /* \"#utility.yul\":315:339   */\n  tag_13\n  jump\t// in\ntag_25:\n    /* \"#utility.yul\":306:340   */\n  tag_14\n  jump\t// in\ntag_24:\n    /* \"#utility.yul\":288:341   */\n  tag_13\n  jump\t// in\ntag_23:\n    /* \"#utility.yul\":275:341   */\n  swap1\n  pop\n    /* \"#utility.yul\":205:347   */\n  swap2\n  swap1\n  pop\n  jump\t// out\n    /* \"#utility.yul\":353:479   */\ntag_16:\n    /* \"#utility.yul\":403:412   */\n  0x00\n    /* \"#utility.yul\":436:473   */\n  tag_27\n    /* \"#utility.yul\":467:472   */\n  dup3\n    /* \"#utility.yul\":436:473   */\n  tag_15\n  jump\t// in\ntag_27:\n    /* \"#utility.yul\":423:473   */\n  swap1\n  pop\n    /* \"#utility.yul\":353:479   */\n  swap2\n  swap1\n  pop\n  jump\t// out\n    /* \"#utility.yul\":485:636   */\ntag_17:\n    /* \"#utility.yul\":560:569   */\n  0x00\n    /* \"#utility.yul\":593:630   */\n  tag_29\n    /* \"#utility.yul\":624:629   */\n  dup3\n    /* \"#utility.yul\":593:630   */\n  tag_16\n  jump\t// in\ntag_29:\n    /* \"#utility.yul\":580:630   */\n  swap1\n  pop\n    /* \"#utility.yul\":485:636   */\n  swap2\n  swap1\n  pop\n  jump\t// out\n    /* \"#utility.yul\":642:823   */\ntag_18:\n    /* \"#utility.yul\":754:816   */\n  tag_31\n    /* \"#utility.yul\":810:815   */\n  dup2\n    /* \"#utility.yul\":754:816   */\n  tag_17\n  jump\t// in\ntag_31:\n    /* \"#utility.yul\":749:752   */\n  dup3\n    /* \"#utility.yul\":742:817   */\n  mstore\n    /* \"#utility.yul\":642:823   */\n  pop\n  pop\n  jump\t// out\n    /* \"#utility.yul\":829:1101   */\ntag_10:\n    /* \"#utility.yul\":947:951   */\n  0x00\n    /* \"#utility.yul\":985:987   */\n  0x20\n    /* \"#utility.yul\":974:983   */\n  dup3\n    /* \"#utility.yul\":970:988   */\n  add\n    /* \"#utility.yul\":962:988   */\n  swap1\n  pop\n    /* \"#utility.yul\":998:1094   */\n  tag_33\n    /* \"#utility.yul\":1091:1092   */\n  0x00\n    /* \"#utility.yul\":1080:1089   */\n  dup4\n    /* \"#utility.yul\":1076:1093   */\n  add\n    /* \"#utility.yul\":1067:1073   */\n  dup5\n    /* \"#utility.yul\":998:1094   */\n  tag_18\n  jump\t// in\ntag_33:\n    /* \"#utility.yul\":829:1101   */\n  swap3\n  swap2\n  pop\n  pop\n  jump\t// out\n    /* \"BlockPay.sol\":127:1513  contract BlockPay {... */\ntag_12:\n  dataSize(sub_0)\n  dup1\n  dataOffset(sub_0)\n  0x00\n  codecopy\n  0x00\n  return\nstop\n\nsub_0: assembly {\n        /* \"BlockPay.sol\":127:1513  contract BlockPay {... */\n      mstore(0x40, 0x80)\n      jumpi(tag_1, lt(calldatasize, 0x04))\n      shr(0xe0, calldataload(0x00))\n      dup1\n      0xc71daccb\n      gt\n      tag_12\n      jumpi\n      dup1\n      0xc71daccb\n      eq\n      tag_7\n      jumpi\n      dup1\n      0xccff137a\n      eq\n      tag_8\n      jumpi\n      dup1\n      0xd108177a\n      eq\n      tag_9\n      jumpi\n      dup1\n      0xdf47a353\n      eq\n      tag_10\n      jumpi\n      dup1\n      0xe2c41dbc\n      eq\n      tag_11\n      jumpi\n      jump(tag_1)\n    tag_12:\n      dup1\n      0x1caafcf1\n      eq\n      tag_2\n      jumpi\n      dup1\n      0x4a4247d9\n      eq\n      tag_3\n      jumpi\n      dup1\n      0x64ca0981\n      eq\n      tag_4\n      jumpi\n      dup1\n      0x809e9ef5\n      eq\n      tag_5\n      jumpi\n      dup1\n      0x8da5cb5b\n      eq\n      tag_6\n      jumpi\n    tag_1:\n      0x00\n      dup1\n      revert\n        /* \"BlockPay.sol\":1254:1417  function getEmployeeDetails(address account) public view returns (address, uint, uint, uint) {... */\n    tag_2:\n      callvalue\n      dup1\n      iszero\n      tag_13\n      jumpi\n      0x00\n      dup1\n      revert\n    tag_13:\n      pop\n      tag_14\n      0x04\n      dup1\n      calldatasize\n      sub\n      dup2\n      add\n      swap1\n      tag_15\n      swap2\n      swap1\n      tag_16\n      jump\t// in\n    tag_15:\n      tag_17\n      jump\t// in\n    tag_14:\n      mload(0x40)\n      tag_18\n      swap5\n      swap4\n      swap3\n      swap2\n      swap1\n      tag_19\n      jump\t// in\n    tag_18:\n      mload(0x40)\n      dup1\n      swap2\n      sub\n      swap1\n      return\n        /* \"BlockPay.sol\":725:917  function addEmployee(address payable account, uint salary, uint payStartDate, uint payEndDate) public {... */\n    tag_3:\n      callvalue\n      dup1\n      iszero\n      tag_20\n      jumpi\n      0x00\n      dup1\n      revert\n    tag_20:\n      pop\n      tag_21\n      0x04\n      dup1\n      calldatasize\n      sub\n      dup2\n      add\n      swap1\n      tag_22\n      swap2\n      swap1\n      tag_23\n      jump\t// in\n    tag_22:\n      tag_24\n      jump\t// in\n    tag_21:\n      stop\n        /* \"BlockPay.sol\":177:219  FinanceManagement public financeManagement */\n    tag_4:\n      callvalue\n      dup1\n      iszero\n      tag_25\n      jumpi\n      0x00\n      dup1\n      revert\n    tag_25:\n      pop\n      tag_26\n      tag_27\n      jump\t// in\n    tag_26:\n      mload(0x40)\n      tag_28\n      swap2\n      swap1\n      tag_29\n      jump\t// in\n    tag_28:\n      mload(0x40)\n      dup1\n      swap2\n      sub\n      swap1\n      return\n        /* \"BlockPay.sol\":1423:1511  function payAllEmployees() public  {... */\n    tag_5:\n      callvalue\n      dup1\n      iszero\n      tag_30\n      jumpi\n      0x00\n      dup1\n      revert\n    tag_30:\n      pop\n      tag_31\n      tag_32\n      jump\t// in\n    tag_31:\n      stop\n        /* \"BlockPay.sol\":151:171  address public owner */\n    tag_6:\n      callvalue\n      dup1\n      iszero\n      tag_33\n      jumpi\n      0x00\n      dup1\n      revert\n    tag_33:\n      pop\n      tag_34\n      tag_35\n      jump\t// in\n    tag_34:\n      mload(0x40)\n      tag_36\n      swap2\n      swap1\n      tag_37\n      jump\t// in\n    tag_36:\n      mload(0x40)\n      dup1\n      swap2\n      sub\n      swap1\n      return\n        /* \"BlockPay.sol\":590:697  function checkBalance() public view returns (uint) {... */\n    tag_7:\n      callvalue\n      dup1\n      iszero\n      tag_38\n      jumpi\n      0x00\n      dup1\n      revert\n    tag_38:\n      pop\n      tag_39\n      tag_40\n      jump\t// in\n    tag_39:\n      mload(0x40)\n      tag_41\n      swap2\n      swap1\n      tag_42\n      jump\t// in\n    tag_41:\n      mload(0x40)\n      dup1\n      swap2\n      sub\n      swap1\n      return\n        /* \"BlockPay.sol\":225:269  EmployeeManagement public employeeManagement */\n    tag_8:\n      callvalue\n      dup1\n      iszero\n      tag_43\n      jumpi\n      0x00\n      dup1\n      revert\n    tag_43:\n      pop\n      tag_44\n      tag_45\n      jump\t// in\n    tag_44:\n      mload(0x40)\n      tag_46\n      swap2\n      swap1\n      tag_47\n      jump\t// in\n    tag_46:\n      mload(0x40)\n      dup1\n      swap2\n      sub\n      swap1\n      return\n        /* \"BlockPay.sol\":923:1030  function removeEmployee(address account) public {... */\n    tag_9:\n      callvalue\n      dup1\n      iszero\n      tag_48\n      jumpi\n      0x00\n      dup1\n      revert\n    tag_48:\n      pop\n      tag_49\n      0x04\n      dup1\n      calldatasize\n      sub\n      dup2\n      add\n      swap1\n      tag_50\n      swap2\n      swap1\n      tag_16\n      jump\t// in\n    tag_50:\n      tag_51\n      jump\t// in\n    tag_49:\n      stop\n        /* \"BlockPay.sol\":1040:1248  function updateEmployee(address account, uint newSalary, uint newPayStartDate, uint newPayEndDate) public {... */\n    tag_10:\n      callvalue\n      dup1\n      iszero\n      tag_52\n      jumpi\n      0x00\n      dup1\n      revert\n    tag_52:\n      pop\n      tag_53\n      0x04\n      dup1\n      calldatasize\n      sub\n      dup2\n      add\n      swap1\n      tag_54\n      swap2\n      swap1\n      tag_55\n      jump\t// in\n    tag_54:\n      tag_56\n      jump\t// in\n    tag_53:\n      stop\n        /* \"BlockPay.sol\":477:583  function depositFunds() public payable {... */\n    tag_11:\n      tag_57\n      tag_58\n      jump\t// in\n    tag_57:\n      stop\n        /* \"BlockPay.sol\":1254:1417  function getEmployeeDetails(address account) public view returns (address, uint, uint, uint) {... */\n    tag_17:\n        /* \"BlockPay.sol\":1320:1327  address */\n      0x00\n        /* \"BlockPay.sol\":1329:1333  uint */\n      dup1\n        /* \"BlockPay.sol\":1335:1339  uint */\n      0x00\n        /* \"BlockPay.sol\":1341:1345  uint */\n      dup1\n        /* \"BlockPay.sol\":1364:1382  employeeManagement */\n      0x02\n      0x00\n      swap1\n      sload\n      swap1\n      0x0100\n      exp\n      swap1\n      div\n      0xffffffffffffffffffffffffffffffffffffffff\n      and\n        /* \"BlockPay.sol\":1364:1401  employeeManagement.getEmployeeDetails */\n      0xffffffffffffffffffffffffffffffffffffffff\n      and\n      0x1caafcf1\n        /* \"BlockPay.sol\":1402:1409  account */\n      dup7\n        /* \"BlockPay.sol\":1364:1410  employeeManagement.getEmployeeDetails(account) */\n      mload(0x40)\n      dup3\n      0xffffffff\n      and\n      0xe0\n      shl\n      dup2\n      mstore\n      0x04\n      add\n      tag_60\n      swap2\n      swap1\n      tag_37\n      jump\t// in\n    tag_60:\n      0x80\n      mload(0x40)\n      dup1\n      dup4\n      sub\n      dup2\n      dup7\n      gas\n      staticcall\n      iszero\n      dup1\n      iszero\n      tag_62\n      jumpi\n      returndatasize\n      0x00\n      dup1\n      returndatacopy\n      revert(0x00, returndatasize)\n    tag_62:\n      pop\n      pop\n      pop\n      pop\n      mload(0x40)\n      returndatasize\n      not(0x1f)\n      0x1f\n      dup3\n      add\n      and\n      dup3\n      add\n      dup1\n      0x40\n      mstore\n      pop\n      dup2\n      add\n      swap1\n      tag_63\n      swap2\n      swap1\n      tag_64\n      jump\t// in\n    tag_63:\n        /* \"BlockPay.sol\":1357:1410  return employeeManagement.getEmployeeDetails(account) */\n      swap4\n      pop\n      swap4\n      pop\n      swap4\n      pop\n      swap4\n      pop\n        /* \"BlockPay.sol\":1254:1417  function getEmployeeDetails(address account) public view returns (address, uint, uint, uint) {... */\n      swap2\n      swap4\n      pop\n      swap2\n      swap4\n      jump\t// out\n        /* \"BlockPay.sol\":725:917  function addEmployee(address payable account, uint salary, uint payStartDate, uint payEndDate) public {... */\n    tag_24:\n        /* \"BlockPay.sol\":837:855  employeeManagement */\n      0x02\n      0x00\n      swap1\n      sload\n      swap1\n      0x0100\n      exp\n      swap1\n      div\n      0xffffffffffffffffffffffffffffffffffffffff\n      and\n        /* \"BlockPay.sol\":837:867  employeeManagement.addEmployee */\n      0xffffffffffffffffffffffffffffffffffffffff\n      and\n      0x4a4247d9\n        /* \"BlockPay.sol\":868:875  account */\n      dup6\n        /* \"BlockPay.sol\":877:883  salary */\n      dup6\n        /* \"BlockPay.sol\":885:897  payStartDate */\n      dup6\n        /* \"BlockPay.sol\":899:909  payEndDate */\n      dup6\n        /* \"BlockPay.sol\":837:910  employeeManagement.addEmployee(account, salary, payStartDate, payEndDate) */\n      mload(0x40)\n      dup6\n      0xffffffff\n      and\n      0xe0\n      shl\n      dup2\n      mstore\n      0x04\n      add\n      tag_66\n      swap5\n      swap4\n      swap3\n      swap2\n      swap1\n      tag_67\n      jump\t// in\n    tag_66:\n      0x00\n      mload(0x40)\n      dup1\n      dup4\n      sub\n      dup2\n      0x00\n      dup8\n      dup1\n      extcodesize\n      iszero\n      dup1\n      iszero\n      tag_68\n      jumpi\n      0x00\n      dup1\n      revert\n    tag_68:\n      pop\n      gas\n      call\n      iszero\n      dup1\n      iszero\n      tag_70\n      jumpi\n      returndatasize\n      0x00\n      dup1\n      returndatacopy\n      revert(0x00, returndatasize)\n    tag_70:\n      pop\n      pop\n      pop\n      pop\n        /* \"BlockPay.sol\":725:917  function addEmployee(address payable account, uint salary, uint payStartDate, uint payEndDate) public {... */\n      pop\n      pop\n      pop\n      pop\n      jump\t// out\n        /* \"BlockPay.sol\":177:219  FinanceManagement public financeManagement */\n    tag_27:\n      0x01\n      0x00\n      swap1\n      sload\n      swap1\n      0x0100\n      exp\n      swap1\n      div\n      0xffffffffffffffffffffffffffffffffffffffff\n      and\n      dup2\n      jump\t// out\n        /* \"BlockPay.sol\":1423:1511  function payAllEmployees() public  {... */\n    tag_32:\n        /* \"BlockPay.sol\":1468:1486  employeeManagement */\n      0x02\n      0x00\n      swap1\n      sload\n      swap1\n      0x0100\n      exp\n      swap1\n      div\n      0xffffffffffffffffffffffffffffffffffffffff\n      and\n        /* \"BlockPay.sol\":1468:1502  employeeManagement.payAllEmployees */\n      0xffffffffffffffffffffffffffffffffffffffff\n      and\n      0x809e9ef5\n        /* \"BlockPay.sol\":1468:1504  employeeManagement.payAllEmployees() */\n      mload(0x40)\n      dup2\n      0xffffffff\n      and\n      0xe0\n      shl\n      dup2\n      mstore\n      0x04\n      add\n      0x00\n      mload(0x40)\n      dup1\n      dup4\n      sub\n      dup2\n      0x00\n      dup8\n      dup1\n      extcodesize\n      iszero\n      dup1\n      iszero\n      tag_72\n      jumpi\n      0x00\n      dup1\n      revert\n    tag_72:\n      pop\n      gas\n      call\n      iszero\n      dup1\n      iszero\n      tag_74\n      jumpi\n      returndatasize\n      0x00\n      dup1\n      returndatacopy\n      revert(0x00, returndatasize)\n    tag_74:\n      pop\n      pop\n      pop\n      pop\n        /* \"BlockPay.sol\":1423:1511  function payAllEmployees() public  {... */\n      jump\t// out\n        /* \"BlockPay.sol\":151:171  address public owner */\n    tag_35:\n      0x00\n      dup1\n      sload\n      swap1\n      0x0100\n      exp\n      swap1\n      div\n      0xffffffffffffffffffffffffffffffffffffffff\n      and\n      dup2\n      jump\t// out\n        /* \"BlockPay.sol\":590:697  function checkBalance() public view returns (uint) {... */\n    tag_40:\n        /* \"BlockPay.sol\":635:639  uint */\n      0x00\n        /* \"BlockPay.sol\":658:675  financeManagement */\n      0x01\n      0x00\n      swap1\n      sload\n      swap1\n      0x0100\n      exp\n      swap1\n      div\n      0xffffffffffffffffffffffffffffffffffffffff\n      and\n        /* \"BlockPay.sol\":658:688  financeManagement.checkBalance */\n      0xffffffffffffffffffffffffffffffffffffffff\n      and\n      0xc71daccb\n        /* \"BlockPay.sol\":658:690  financeManagement.checkBalance() */\n      mload(0x40)\n      dup2\n      0xffffffff\n      and\n      0xe0\n      shl\n      dup2\n      mstore\n      0x04\n      add\n      0x20\n      mload(0x40)\n      dup1\n      dup4\n      sub\n      dup2\n      dup7\n      gas\n      staticcall\n      iszero\n      dup1\n      iszero\n      tag_77\n      jumpi\n      returndatasize\n      0x00\n      dup1\n      returndatacopy\n      revert(0x00, returndatasize)\n    tag_77:\n      pop\n      pop\n      pop\n      pop\n      mload(0x40)\n      returndatasize\n      not(0x1f)\n      0x1f\n      dup3\n      add\n      and\n      dup3\n      add\n      dup1\n      0x40\n      mstore\n      pop\n      dup2\n      add\n      swap1\n      tag_78\n      swap2\n      swap1\n      tag_79\n      jump\t// in\n    tag_78:\n        /* \"BlockPay.sol\":651:690  return financeManagement.checkBalance() */\n      swap1\n      pop\n        /* \"BlockPay.sol\":590:697  function checkBalance() public view returns (uint) {... */\n      swap1\n      jump\t// out\n        /* \"BlockPay.sol\":225:269  EmployeeManagement public employeeManagement */\n    tag_45:\n      0x02\n      0x00\n      swap1\n      sload\n      swap1\n      0x0100\n      exp\n      swap1\n      div\n      0xffffffffffffffffffffffffffffffffffffffff\n      and\n      dup2\n      jump\t// out\n        /* \"BlockPay.sol\":923:1030  function removeEmployee(address account) public {... */\n    tag_51:\n        /* \"BlockPay.sol\":981:999  employeeManagement */\n      0x02\n      0x00\n      swap1\n      sload\n      swap1\n      0x0100\n      exp\n      swap1\n      div\n      0xffffffffffffffffffffffffffffffffffffffff\n      and\n        /* \"BlockPay.sol\":981:1014  employeeManagement.removeEmployee */\n      0xffffffffffffffffffffffffffffffffffffffff\n      and\n      0xd108177a\n        /* \"BlockPay.sol\":1015:1022  account */\n      dup3\n        /* \"BlockPay.sol\":981:1023  employeeManagement.removeEmployee(account) */\n      mload(0x40)\n      dup3\n      0xffffffff\n      and\n      0xe0\n      shl\n      dup2\n      mstore\n      0x04\n      add\n      tag_81\n      swap2\n      swap1\n      tag_37\n      jump\t// in\n    tag_81:\n      0x00\n      mload(0x40)\n      dup1\n      dup4\n      sub\n      dup2\n      0x00\n      dup8\n      dup1\n      extcodesize\n      iszero\n      dup1\n      iszero\n      tag_82\n      jumpi\n      0x00\n      dup1\n      revert\n    tag_82:\n      pop\n      gas\n      call\n      iszero\n      dup1\n      iszero\n      tag_84\n      jumpi\n      returndatasize\n      0x00\n      dup1\n      returndatacopy\n      revert(0x00, returndatasize)\n    tag_84:\n      pop\n      pop\n      pop\n      pop\n        /* \"BlockPay.sol\":923:1030  function removeEmployee(address account) public {... */\n      pop\n      jump\t// out\n        /* \"BlockPay.sol\":1040:1248  function updateEmployee(address account, uint newSalary, uint newPayStartDate, uint newPayEndDate) public {... */\n    tag_56:\n        /* \"BlockPay.sol\":1156:1174  employeeManagement */\n      0x02\n      0x00\n      swap1\n      sload\n      swap1\n      0x0100\n      exp\n      swap1\n      div\n      0xffffffffffffffffffffffffffffffffffffffff\n      and\n        /* \"BlockPay.sol\":1156:1189  employeeManagement.updateEmployee */\n      0xffffffffffffffffffffffffffffffffffffffff\n      and\n      0xdf47a353\n        /* \"BlockPay.sol\":1190:1197  account */\n      dup6\n        /* \"BlockPay.sol\":1199:1208  newSalary */\n      dup6\n        /* \"BlockPay.sol\":1210:1225  newPayStartDate */\n      dup6\n        /* \"BlockPay.sol\":1227:1240  newPayEndDate */\n      dup6\n        /* \"BlockPay.sol\":1156:1241  employeeManagement.updateEmployee(account, newSalary, newPayStartDate, newPayEndDate) */\n      mload(0x40)\n      dup6\n      0xffffffff\n      and\n      0xe0\n      shl\n      dup2\n      mstore\n      0x04\n      add\n      tag_86\n      swap5\n      swap4\n      swap3\n      swap2\n      swap1\n      tag_19\n      jump\t// in\n    tag_86:\n      0x00\n      mload(0x40)\n      dup1\n      dup4\n      sub\n      dup2\n      0x00\n      dup8\n      dup1\n      extcodesize\n      iszero\n      dup1\n      iszero\n      tag_87\n      jumpi\n      0x00\n      dup1\n      revert\n    tag_87:\n      pop\n      gas\n      call\n      iszero\n      dup1\n      iszero\n      tag_89\n      jumpi\n      returndatasize\n      0x00\n      dup1\n      returndatacopy\n      revert(0x00, returndatasize)\n    tag_89:\n      pop\n      pop\n      pop\n      pop\n        /* \"BlockPay.sol\":1040:1248  function updateEmployee(address account, uint newSalary, uint newPayStartDate, uint newPayEndDate) public {... */\n      pop\n      pop\n      pop\n      pop\n      jump\t// out\n        /* \"BlockPay.sol\":477:583  function depositFunds() public payable {... */\n    tag_58:\n        /* \"BlockPay.sol\":526:543  financeManagement */\n      0x01\n      0x00\n      swap1\n      sload\n      swap1\n      0x0100\n      exp\n      swap1\n      div\n      0xffffffffffffffffffffffffffffffffffffffff\n      and\n        /* \"BlockPay.sol\":526:556  financeManagement.depositFunds */\n      0xffffffffffffffffffffffffffffffffffffffff\n      and\n      0xe2c41dbc\n        /* \"BlockPay.sol\":564:573  msg.value */\n      callvalue\n        /* \"BlockPay.sol\":526:576  financeManagement.depositFunds{value: msg.value}() */\n      mload(0x40)\n      dup3\n      0xffffffff\n      and\n      0xe0\n      shl\n      dup2\n      mstore\n      0x04\n      add\n      0x00\n      mload(0x40)\n      dup1\n      dup4\n      sub\n      dup2\n      dup6\n      dup9\n      dup1\n      extcodesize\n      iszero\n      dup1\n      iszero\n      tag_91\n      jumpi\n      0x00\n      dup1\n      revert\n    tag_91:\n      pop\n      gas\n      call\n      iszero\n      dup1\n      iszero\n      tag_93\n      jumpi\n      returndatasize\n      0x00\n      dup1\n      returndatacopy\n      revert(0x00, returndatasize)\n    tag_93:\n      pop\n      pop\n      pop\n      pop\n      pop\n        /* \"BlockPay.sol\":477:583  function depositFunds() public payable {... */\n      jump\t// out\n        /* \"#utility.yul\":88:205   */\n    tag_95:\n        /* \"#utility.yul\":197:198   */\n      0x00\n        /* \"#utility.yul\":194:195   */\n      dup1\n        /* \"#utility.yul\":187:199   */\n      revert\n        /* \"#utility.yul\":334:460   */\n    tag_97:\n        /* \"#utility.yul\":371:378   */\n      0x00\n        /* \"#utility.yul\":411:453   */\n      0xffffffffffffffffffffffffffffffffffffffff\n        /* \"#utility.yul\":404:409   */\n      dup3\n        /* \"#utility.yul\":400:454   */\n      and\n        /* \"#utility.yul\":389:454   */\n      swap1\n      pop\n        /* \"#utility.yul\":334:460   */\n      swap2\n      swap1\n      pop\n      jump\t// out\n        /* \"#utility.yul\":466:562   */\n    tag_98:\n        /* \"#utility.yul\":503:510   */\n      0x00\n        /* \"#utility.yul\":532:556   */\n      tag_125\n        /* \"#utility.yul\":550:555   */\n      dup3\n        /* \"#utility.yul\":532:556   */\n      tag_97\n      jump\t// in\n    tag_125:\n        /* \"#utility.yul\":521:556   */\n      swap1\n      pop\n        /* \"#utility.yul\":466:562   */\n      swap2\n      swap1\n      pop\n      jump\t// out\n        /* \"#utility.yul\":568:690   */\n    tag_99:\n        /* \"#utility.yul\":641:665   */\n      tag_127\n        /* \"#utility.yul\":659:664   */\n      dup2\n        /* \"#utility.yul\":641:665   */\n      tag_98\n      jump\t// in\n    tag_127:\n        /* \"#utility.yul\":634:639   */\n      dup2\n        /* \"#utility.yul\":631:666   */\n      eq\n        /* \"#utility.yul\":621:684   */\n      tag_128\n      jumpi\n        /* \"#utility.yul\":680:681   */\n      0x00\n        /* \"#utility.yul\":677:678   */\n      dup1\n        /* \"#utility.yul\":670:682   */\n      revert\n        /* \"#utility.yul\":621:684   */\n    tag_128:\n        /* \"#utility.yul\":568:690   */\n      pop\n      jump\t// out\n        /* \"#utility.yul\":696:835   */\n    tag_100:\n        /* \"#utility.yul\":742:747   */\n      0x00\n        /* \"#utility.yul\":780:786   */\n      dup2\n        /* \"#utility.yul\":767:787   */\n      calldataload\n        /* \"#utility.yul\":758:787   */\n      swap1\n      pop\n        /* \"#utility.yul\":796:829   */\n      tag_130\n        /* \"#utility.yul\":823:828   */\n      dup2\n        /* \"#utility.yul\":796:829   */\n      tag_99\n      jump\t// in\n    tag_130:\n        /* \"#utility.yul\":696:835   */\n      swap3\n      swap2\n      pop\n      pop\n      jump\t// out\n        /* \"#utility.yul\":841:1170   */\n    tag_16:\n        /* \"#utility.yul\":900:906   */\n      0x00\n        /* \"#utility.yul\":949:951   */\n      0x20\n        /* \"#utility.yul\":937:946   */\n      dup3\n        /* \"#utility.yul\":928:935   */\n      dup5\n        /* \"#utility.yul\":924:947   */\n      sub\n        /* \"#utility.yul\":920:952   */\n      slt\n        /* \"#utility.yul\":917:1036   */\n      iszero\n      tag_132\n      jumpi\n        /* \"#utility.yul\":955:1034   */\n      tag_133\n      tag_95\n      jump\t// in\n    tag_133:\n        /* \"#utility.yul\":917:1036   */\n    tag_132:\n        /* \"#utility.yul\":1075:1076   */\n      0x00\n        /* \"#utility.yul\":1100:1153   */\n      tag_134\n        /* \"#utility.yul\":1145:1152   */\n      dup5\n        /* \"#utility.yul\":1136:1142   */\n      dup3\n        /* \"#utility.yul\":1125:1134   */\n      dup6\n        /* \"#utility.yul\":1121:1143   */\n      add\n        /* \"#utility.yul\":1100:1153   */\n      tag_100\n      jump\t// in\n    tag_134:\n        /* \"#utility.yul\":1090:1153   */\n      swap2\n      pop\n        /* \"#utility.yul\":1046:1163   */\n      pop\n        /* \"#utility.yul\":841:1170   */\n      swap3\n      swap2\n      pop\n      pop\n      jump\t// out\n        /* \"#utility.yul\":1176:1294   */\n    tag_101:\n        /* \"#utility.yul\":1263:1287   */\n      tag_136\n        /* \"#utility.yul\":1281:1286   */\n      dup2\n        /* \"#utility.yul\":1263:1287   */\n      tag_98\n      jump\t// in\n    tag_136:\n        /* \"#utility.yul\":1258:1261   */\n      dup3\n        /* \"#utility.yul\":1251:1288   */\n      mstore\n        /* \"#utility.yul\":1176:1294   */\n      pop\n      pop\n      jump\t// out\n        /* \"#utility.yul\":1300:1377   */\n    tag_102:\n        /* \"#utility.yul\":1337:1344   */\n      0x00\n        /* \"#utility.yul\":1366:1371   */\n      dup2\n        /* \"#utility.yul\":1355:1371   */\n      swap1\n      pop\n        /* \"#utility.yul\":1300:1377   */\n      swap2\n      swap1\n      pop\n      jump\t// out\n        /* \"#utility.yul\":1383:1501   */\n    tag_103:\n        /* \"#utility.yul\":1470:1494   */\n      tag_139\n        /* \"#utility.yul\":1488:1493   */\n      dup2\n        /* \"#utility.yul\":1470:1494   */\n      tag_102\n      jump\t// in\n    tag_139:\n        /* \"#utility.yul\":1465:1468   */\n      dup3\n        /* \"#utility.yul\":1458:1495   */\n      mstore\n        /* \"#utility.yul\":1383:1501   */\n      pop\n      pop\n      jump\t// out\n        /* \"#utility.yul\":1507:2060   */\n    tag_19:\n        /* \"#utility.yul\":1684:1688   */\n      0x00\n        /* \"#utility.yul\":1722:1725   */\n      0x80\n        /* \"#utility.yul\":1711:1720   */\n      dup3\n        /* \"#utility.yul\":1707:1726   */\n      add\n        /* \"#utility.yul\":1699:1726   */\n      swap1\n      pop\n        /* \"#utility.yul\":1736:1807   */\n      tag_141\n        /* \"#utility.yul\":1804:1805   */\n      0x00\n        /* \"#utility.yul\":1793:1802   */\n      dup4\n        /* \"#utility.yul\":1789:1806   */\n      add\n        /* \"#utility.yul\":1780:1786   */\n      dup8\n        /* \"#utility.yul\":1736:1807   */\n      tag_101\n      jump\t// in\n    tag_141:\n        /* \"#utility.yul\":1817:1889   */\n      tag_142\n        /* \"#utility.yul\":1885:1887   */\n      0x20\n        /* \"#utility.yul\":1874:1883   */\n      dup4\n        /* \"#utility.yul\":1870:1888   */\n      add\n        /* \"#utility.yul\":1861:1867   */\n      dup7\n        /* \"#utility.yul\":1817:1889   */\n      tag_103\n      jump\t// in\n    tag_142:\n        /* \"#utility.yul\":1899:1971   */\n      tag_143\n        /* \"#utility.yul\":1967:1969   */\n      0x40\n        /* \"#utility.yul\":1956:1965   */\n      dup4\n        /* \"#utility.yul\":1952:1970   */\n      add\n        /* \"#utility.yul\":1943:1949   */\n      dup6\n        /* \"#utility.yul\":1899:1971   */\n      tag_103\n      jump\t// in\n    tag_143:\n        /* \"#utility.yul\":1981:2053   */\n      tag_144\n        /* \"#utility.yul\":2049:2051   */\n      0x60\n        /* \"#utility.yul\":2038:2047   */\n      dup4\n        /* \"#utility.yul\":2034:2052   */\n      add\n        /* \"#utility.yul\":2025:2031   */\n      dup5\n        /* \"#utility.yul\":1981:2053   */\n      tag_103\n      jump\t// in\n    tag_144:\n        /* \"#utility.yul\":1507:2060   */\n      swap6\n      swap5\n      pop\n      pop\n      pop\n      pop\n      pop\n      jump\t// out\n        /* \"#utility.yul\":2066:2170   */\n    tag_104:\n        /* \"#utility.yul\":2111:2118   */\n      0x00\n        /* \"#utility.yul\":2140:2164   */\n      tag_146\n        /* \"#utility.yul\":2158:2163   */\n      dup3\n        /* \"#utility.yul\":2140:2164   */\n      tag_97\n      jump\t// in\n    tag_146:\n        /* \"#utility.yul\":2129:2164   */\n      swap1\n      pop\n        /* \"#utility.yul\":2066:2170   */\n      swap2\n      swap1\n      pop\n      jump\t// out\n        /* \"#utility.yul\":2176:2314   */\n    tag_105:\n        /* \"#utility.yul\":2257:2289   */\n      tag_148\n        /* \"#utility.yul\":2283:2288   */\n      dup2\n        /* \"#utility.yul\":2257:2289   */\n      tag_104\n      jump\t// in\n    tag_148:\n        /* \"#utility.yul\":2250:2255   */\n      dup2\n        /* \"#utility.yul\":2247:2290   */\n      eq\n        /* \"#utility.yul\":2237:2308   */\n      tag_149\n      jumpi\n        /* \"#utility.yul\":2304:2305   */\n      0x00\n        /* \"#utility.yul\":2301:2302   */\n      dup1\n        /* \"#utility.yul\":2294:2306   */\n      revert\n        /* \"#utility.yul\":2237:2308   */\n    tag_149:\n        /* \"#utility.yul\":2176:2314   */\n      pop\n      jump\t// out\n        /* \"#utility.yul\":2320:2475   */\n    tag_106:\n        /* \"#utility.yul\":2374:2379   */\n      0x00\n        /* \"#utility.yul\":2412:2418   */\n      dup2\n        /* \"#utility.yul\":2399:2419   */\n      calldataload\n        /* \"#utility.yul\":2390:2419   */\n      swap1\n      pop\n        /* \"#utility.yul\":2428:2469   */\n      tag_151\n        /* \"#utility.yul\":2463:2468   */\n      dup2\n        /* \"#utility.yul\":2428:2469   */\n      tag_105\n      jump\t// in\n    tag_151:\n        /* \"#utility.yul\":2320:2475   */\n      swap3\n      swap2\n      pop\n      pop\n      jump\t// out\n        /* \"#utility.yul\":2481:2603   */\n    tag_107:\n        /* \"#utility.yul\":2554:2578   */\n      tag_153\n        /* \"#utility.yul\":2572:2577   */\n      dup2\n        /* \"#utility.yul\":2554:2578   */\n      tag_102\n      jump\t// in\n    tag_153:\n        /* \"#utility.yul\":2547:2552   */\n      dup2\n        /* \"#utility.yul\":2544:2579   */\n      eq\n        /* \"#utility.yul\":2534:2597   */\n      tag_154\n      jumpi\n        /* \"#utility.yul\":2593:2594   */\n      0x00\n        /* \"#utility.yul\":2590:2591   */\n      dup1\n        /* \"#utility.yul\":2583:2595   */\n      revert\n        /* \"#utility.yul\":2534:2597   */\n    tag_154:\n        /* \"#utility.yul\":2481:2603   */\n      pop\n      jump\t// out\n        /* \"#utility.yul\":2609:2748   */\n    tag_108:\n        /* \"#utility.yul\":2655:2660   */\n      0x00\n        /* \"#utility.yul\":2693:2699   */\n      dup2\n        /* \"#utility.yul\":2680:2700   */\n      calldataload\n        /* \"#utility.yul\":2671:2700   */\n      swap1\n      pop\n        /* \"#utility.yul\":2709:2742   */\n      tag_156\n        /* \"#utility.yul\":2736:2741   */\n      dup2\n        /* \"#utility.yul\":2709:2742   */\n      tag_107\n      jump\t// in\n    tag_156:\n        /* \"#utility.yul\":2609:2748   */\n      swap3\n      swap2\n      pop\n      pop\n      jump\t// out\n        /* \"#utility.yul\":2754:3535   */\n    tag_23:\n        /* \"#utility.yul\":2848:2854   */\n      0x00\n        /* \"#utility.yul\":2856:2862   */\n      dup1\n        /* \"#utility.yul\":2864:2870   */\n      0x00\n        /* \"#utility.yul\":2872:2878   */\n      dup1\n        /* \"#utility.yul\":2921:2924   */\n      0x80\n        /* \"#utility.yul\":2909:2918   */\n      dup6\n        /* \"#utility.yul\":2900:2907   */\n      dup8\n        /* \"#utility.yul\":2896:2919   */\n      sub\n        /* \"#utility.yul\":2892:2925   */\n      slt\n        /* \"#utility.yul\":2889:3009   */\n      iszero\n      tag_158\n      jumpi\n        /* \"#utility.yul\":2928:3007   */\n      tag_159\n      tag_95\n      jump\t// in\n    tag_159:\n        /* \"#utility.yul\":2889:3009   */\n    tag_158:\n        /* \"#utility.yul\":3048:3049   */\n      0x00\n        /* \"#utility.yul\":3073:3134   */\n      tag_160\n        /* \"#utility.yul\":3126:3133   */\n      dup8\n        /* \"#utility.yul\":3117:3123   */\n      dup3\n        /* \"#utility.yul\":3106:3115   */\n      dup9\n        /* \"#utility.yul\":3102:3124   */\n      add\n        /* \"#utility.yul\":3073:3134   */\n      tag_106\n      jump\t// in\n    tag_160:\n        /* \"#utility.yul\":3063:3134   */\n      swap5\n      pop\n        /* \"#utility.yul\":3019:3144   */\n      pop\n        /* \"#utility.yul\":3183:3185   */\n      0x20\n        /* \"#utility.yul\":3209:3262   */\n      tag_161\n        /* \"#utility.yul\":3254:3261   */\n      dup8\n        /* \"#utility.yul\":3245:3251   */\n      dup3\n        /* \"#utility.yul\":3234:3243   */\n      dup9\n        /* \"#utility.yul\":3230:3252   */\n      add\n        /* \"#utility.yul\":3209:3262   */\n      tag_108\n      jump\t// in\n    tag_161:\n        /* \"#utility.yul\":3199:3262   */\n      swap4\n      pop\n        /* \"#utility.yul\":3154:3272   */\n      pop\n        /* \"#utility.yul\":3311:3313   */\n      0x40\n        /* \"#utility.yul\":3337:3390   */\n      tag_162\n        /* \"#utility.yul\":3382:3389   */\n      dup8\n        /* \"#utility.yul\":3373:3379   */\n      dup3\n        /* \"#utility.yul\":3362:3371   */\n      dup9\n        /* \"#utility.yul\":3358:3380   */\n      add\n        /* \"#utility.yul\":3337:3390   */\n      tag_108\n      jump\t// in\n    tag_162:\n        /* \"#utility.yul\":3327:3390   */\n      swap3\n      pop\n        /* \"#utility.yul\":3282:3400   */\n      pop\n        /* \"#utility.yul\":3439:3441   */\n      0x60\n        /* \"#utility.yul\":3465:3518   */\n      tag_163\n        /* \"#utility.yul\":3510:3517   */\n      dup8\n        /* \"#utility.yul\":3501:3507   */\n      dup3\n        /* \"#utility.yul\":3490:3499   */\n      dup9\n        /* \"#utility.yul\":3486:3508   */\n      add\n        /* \"#utility.yul\":3465:3518   */\n      tag_108\n      jump\t// in\n    tag_163:\n        /* \"#utility.yul\":3455:3518   */\n      swap2\n      pop\n        /* \"#utility.yul\":3410:3528   */\n      pop\n        /* \"#utility.yul\":2754:3535   */\n      swap3\n      swap6\n      swap2\n      swap5\n      pop\n      swap3\n      pop\n      jump\t// out\n        /* \"#utility.yul\":3541:3601   */\n    tag_109:\n        /* \"#utility.yul\":3569:3572   */\n      0x00\n        /* \"#utility.yul\":3590:3595   */\n      dup2\n        /* \"#utility.yul\":3583:3595   */\n      swap1\n      pop\n        /* \"#utility.yul\":3541:3601   */\n      swap2\n      swap1\n      pop\n      jump\t// out\n        /* \"#utility.yul\":3607:3749   */\n    tag_110:\n        /* \"#utility.yul\":3657:3666   */\n      0x00\n        /* \"#utility.yul\":3690:3743   */\n      tag_166\n        /* \"#utility.yul\":3708:3742   */\n      tag_167\n        /* \"#utility.yul\":3717:3741   */\n      tag_168\n        /* \"#utility.yul\":3735:3740   */\n      dup5\n        /* \"#utility.yul\":3717:3741   */\n      tag_97\n      jump\t// in\n    tag_168:\n        /* \"#utility.yul\":3708:3742   */\n      tag_109\n      jump\t// in\n    tag_167:\n        /* \"#utility.yul\":3690:3743   */\n      tag_97\n      jump\t// in\n    tag_166:\n        /* \"#utility.yul\":3677:3743   */\n      swap1\n      pop\n        /* \"#utility.yul\":3607:3749   */\n      swap2\n      swap1\n      pop\n      jump\t// out\n        /* \"#utility.yul\":3755:3881   */\n    tag_111:\n        /* \"#utility.yul\":3805:3814   */\n      0x00\n        /* \"#utility.yul\":3838:3875   */\n      tag_170\n        /* \"#utility.yul\":3869:3874   */\n      dup3\n        /* \"#utility.yul\":3838:3875   */\n      tag_110\n      jump\t// in\n    tag_170:\n        /* \"#utility.yul\":3825:3875   */\n      swap1\n      pop\n        /* \"#utility.yul\":3755:3881   */\n      swap2\n      swap1\n      pop\n      jump\t// out\n        /* \"#utility.yul\":3887:4038   */\n    tag_112:\n        /* \"#utility.yul\":3962:3971   */\n      0x00\n        /* \"#utility.yul\":3995:4032   */\n      tag_172\n        /* \"#utility.yul\":4026:4031   */\n      dup3\n        /* \"#utility.yul\":3995:4032   */\n      tag_111\n      jump\t// in\n    tag_172:\n        /* \"#utility.yul\":3982:4032   */\n      swap1\n      pop\n        /* \"#utility.yul\":3887:4038   */\n      swap2\n      swap1\n      pop\n      jump\t// out\n        /* \"#utility.yul\":4044:4225   */\n    tag_113:\n        /* \"#utility.yul\":4156:4218   */\n      tag_174\n        /* \"#utility.yul\":4212:4217   */\n      dup2\n        /* \"#utility.yul\":4156:4218   */\n      tag_112\n      jump\t// in\n    tag_174:\n        /* \"#utility.yul\":4151:4154   */\n      dup3\n        /* \"#utility.yul\":4144:4219   */\n      mstore\n        /* \"#utility.yul\":4044:4225   */\n      pop\n      pop\n      jump\t// out\n        /* \"#utility.yul\":4231:4503   */\n    tag_29:\n        /* \"#utility.yul\":4349:4353   */\n      0x00\n        /* \"#utility.yul\":4387:4389   */\n      0x20\n        /* \"#utility.yul\":4376:4385   */\n      dup3\n        /* \"#utility.yul\":4372:4390   */\n      add\n        /* \"#utility.yul\":4364:4390   */\n      swap1\n      pop\n        /* \"#utility.yul\":4400:4496   */\n      tag_176\n        /* \"#utility.yul\":4493:4494   */\n      0x00\n        /* \"#utility.yul\":4482:4491   */\n      dup4\n        /* \"#utility.yul\":4478:4495   */\n      add\n        /* \"#utility.yul\":4469:4475   */\n      dup5\n        /* \"#utility.yul\":4400:4496   */\n      tag_113\n      jump\t// in\n    tag_176:\n        /* \"#utility.yul\":4231:4503   */\n      swap3\n      swap2\n      pop\n      pop\n      jump\t// out\n        /* \"#utility.yul\":4509:4731   */\n    tag_37:\n        /* \"#utility.yul\":4602:4606   */\n      0x00\n        /* \"#utility.yul\":4640:4642   */\n      0x20\n        /* \"#utility.yul\":4629:4638   */\n      dup3\n        /* \"#utility.yul\":4625:4643   */\n      add\n        /* \"#utility.yul\":4617:4643   */\n      swap1\n      pop\n        /* \"#utility.yul\":4653:4724   */\n      tag_178\n        /* \"#utility.yul\":4721:4722   */\n      0x00\n        /* \"#utility.yul\":4710:4719   */\n      dup4\n        /* \"#utility.yul\":4706:4723   */\n      add\n        /* \"#utility.yul\":4697:4703   */\n      dup5\n        /* \"#utility.yul\":4653:4724   */\n      tag_101\n      jump\t// in\n    tag_178:\n        /* \"#utility.yul\":4509:4731   */\n      swap3\n      swap2\n      pop\n      pop\n      jump\t// out\n        /* \"#utility.yul\":4737:4959   */\n    tag_42:\n        /* \"#utility.yul\":4830:4834   */\n      0x00\n        /* \"#utility.yul\":4868:4870   */\n      0x20\n        /* \"#utility.yul\":4857:4866   */\n      dup3\n        /* \"#utility.yul\":4853:4871   */\n      add\n        /* \"#utility.yul\":4845:4871   */\n      swap1\n      pop\n        /* \"#utility.yul\":4881:4952   */\n      tag_180\n        /* \"#utility.yul\":4949:4950   */\n      0x00\n        /* \"#utility.yul\":4938:4947   */\n      dup4\n        /* \"#utility.yul\":4934:4951   */\n      add\n        /* \"#utility.yul\":4925:4931   */\n      dup5\n        /* \"#utility.yul\":4881:4952   */\n      tag_103\n      jump\t// in\n    tag_180:\n        /* \"#utility.yul\":4737:4959   */\n      swap3\n      swap2\n      pop\n      pop\n      jump\t// out\n        /* \"#utility.yul\":4965:5117   */\n    tag_114:\n        /* \"#utility.yul\":5041:5050   */\n      0x00\n        /* \"#utility.yul\":5074:5111   */\n      tag_182\n        /* \"#utility.yul\":5105:5110   */\n      dup3\n        /* \"#utility.yul\":5074:5111   */\n      tag_111\n      jump\t// in\n    tag_182:\n        /* \"#utility.yul\":5061:5111   */\n      swap1\n      pop\n        /* \"#utility.yul\":4965:5117   */\n      swap2\n      swap1\n      pop\n      jump\t// out\n        /* \"#utility.yul\":5123:5306   */\n    tag_115:\n        /* \"#utility.yul\":5236:5299   */\n      tag_184\n        /* \"#utility.yul\":5293:5298   */\n      dup2\n        /* \"#utility.yul\":5236:5299   */\n      tag_114\n      jump\t// in\n    tag_184:\n        /* \"#utility.yul\":5231:5234   */\n      dup3\n        /* \"#utility.yul\":5224:5300   */\n      mstore\n        /* \"#utility.yul\":5123:5306   */\n      pop\n      pop\n      jump\t// out\n        /* \"#utility.yul\":5312:5586   */\n    tag_47:\n        /* \"#utility.yul\":5431:5435   */\n      0x00\n        /* \"#utility.yul\":5469:5471   */\n      0x20\n        /* \"#utility.yul\":5458:5467   */\n      dup3\n        /* \"#utility.yul\":5454:5472   */\n      add\n        /* \"#utility.yul\":5446:5472   */\n      swap1\n      pop\n        /* \"#utility.yul\":5482:5579   */\n      tag_186\n        /* \"#utility.yul\":5576:5577   */\n      0x00\n        /* \"#utility.yul\":5565:5574   */\n      dup4\n        /* \"#utility.yul\":5561:5578   */\n      add\n        /* \"#utility.yul\":5552:5558   */\n      dup5\n        /* \"#utility.yul\":5482:5579   */\n      tag_115\n      jump\t// in\n    tag_186:\n        /* \"#utility.yul\":5312:5586   */\n      swap3\n      swap2\n      pop\n      pop\n      jump\t// out\n        /* \"#utility.yul\":5592:6357   */\n    tag_55:\n        /* \"#utility.yul\":5678:5684   */\n      0x00\n        /* \"#utility.yul\":5686:5692   */\n      dup1\n        /* \"#utility.yul\":5694:5700   */\n      0x00\n        /* \"#utility.yul\":5702:5708   */\n      dup1\n        /* \"#utility.yul\":5751:5754   */\n      0x80\n        /* \"#utility.yul\":5739:5748   */\n      dup6\n        /* \"#utility.yul\":5730:5737   */\n      dup8\n        /* \"#utility.yul\":5726:5749   */\n      sub\n        /* \"#utility.yul\":5722:5755   */\n      slt\n        /* \"#utility.yul\":5719:5839   */\n      iszero\n      tag_188\n      jumpi\n        /* \"#utility.yul\":5758:5837   */\n      tag_189\n      tag_95\n      jump\t// in\n    tag_189:\n        /* \"#utility.yul\":5719:5839   */\n    tag_188:\n        /* \"#utility.yul\":5878:5879   */\n      0x00\n        /* \"#utility.yul\":5903:5956   */\n      tag_190\n        /* \"#utility.yul\":5948:5955   */\n      dup8\n        /* \"#utility.yul\":5939:5945   */\n      dup3\n        /* \"#utility.yul\":5928:5937   */\n      dup9\n        /* \"#utility.yul\":5924:5946   */\n      add\n        /* \"#utility.yul\":5903:5956   */\n      tag_100\n      jump\t// in\n    tag_190:\n        /* \"#utility.yul\":5893:5956   */\n      swap5\n      pop\n        /* \"#utility.yul\":5849:5966   */\n      pop\n        /* \"#utility.yul\":6005:6007   */\n      0x20\n        /* \"#utility.yul\":6031:6084   */\n      tag_191\n        /* \"#utility.yul\":6076:6083   */\n      dup8\n        /* \"#utility.yul\":6067:6073   */\n      dup3\n        /* \"#utility.yul\":6056:6065   */\n      dup9\n        /* \"#utility.yul\":6052:6074   */\n      add\n        /* \"#utility.yul\":6031:6084   */\n      tag_108\n      jump\t// in\n    tag_191:\n        /* \"#utility.yul\":6021:6084   */\n      swap4\n      pop\n        /* \"#utility.yul\":5976:6094   */\n      pop\n        /* \"#utility.yul\":6133:6135   */\n      0x40\n        /* \"#utility.yul\":6159:6212   */\n      tag_192\n        /* \"#utility.yul\":6204:6211   */\n      dup8\n        /* \"#utility.yul\":6195:6201   */\n      dup3\n        /* \"#utility.yul\":6184:6193   */\n      dup9\n        /* \"#utility.yul\":6180:6202   */\n      add\n        /* \"#utility.yul\":6159:6212   */\n      tag_108\n      jump\t// in\n    tag_192:\n        /* \"#utility.yul\":6149:6212   */\n      swap3\n      pop\n        /* \"#utility.yul\":6104:6222   */\n      pop\n        /* \"#utility.yul\":6261:6263   */\n      0x60\n        /* \"#utility.yul\":6287:6340   */\n      tag_193\n        /* \"#utility.yul\":6332:6339   */\n      dup8\n        /* \"#utility.yul\":6323:6329   */\n      dup3\n        /* \"#utility.yul\":6312:6321   */\n      dup9\n        /* \"#utility.yul\":6308:6330   */\n      add\n        /* \"#utility.yul\":6287:6340   */\n      tag_108\n      jump\t// in\n    tag_193:\n        /* \"#utility.yul\":6277:6340   */\n      swap2\n      pop\n        /* \"#utility.yul\":6232:6350   */\n      pop\n        /* \"#utility.yul\":5592:6357   */\n      swap3\n      swap6\n      swap2\n      swap5\n      pop\n      swap3\n      pop\n      jump\t// out\n        /* \"#utility.yul\":6363:6506   */\n    tag_116:\n        /* \"#utility.yul\":6420:6425   */\n      0x00\n        /* \"#utility.yul\":6451:6457   */\n      dup2\n        /* \"#utility.yul\":6445:6458   */\n      mload\n        /* \"#utility.yul\":6436:6458   */\n      swap1\n      pop\n        /* \"#utility.yul\":6467:6500   */\n      tag_195\n        /* \"#utility.yul\":6494:6499   */\n      dup2\n        /* \"#utility.yul\":6467:6500   */\n      tag_99\n      jump\t// in\n    tag_195:\n        /* \"#utility.yul\":6363:6506   */\n      swap3\n      swap2\n      pop\n      pop\n      jump\t// out\n        /* \"#utility.yul\":6512:6655   */\n    tag_117:\n        /* \"#utility.yul\":6569:6574   */\n      0x00\n        /* \"#utility.yul\":6600:6606   */\n      dup2\n        /* \"#utility.yul\":6594:6607   */\n      mload\n        /* \"#utility.yul\":6585:6607   */\n      swap1\n      pop\n        /* \"#utility.yul\":6616:6649   */\n      tag_197\n        /* \"#utility.yul\":6643:6648   */\n      dup2\n        /* \"#utility.yul\":6616:6649   */\n      tag_107\n      jump\t// in\n    tag_197:\n        /* \"#utility.yul\":6512:6655   */\n      swap3\n      swap2\n      pop\n      pop\n      jump\t// out\n        /* \"#utility.yul\":6661:7481   */\n    tag_64:\n        /* \"#utility.yul\":6758:6764   */\n      0x00\n        /* \"#utility.yul\":6766:6772   */\n      dup1\n        /* \"#utility.yul\":6774:6780   */\n      0x00\n        /* \"#utility.yul\":6782:6788   */\n      dup1\n        /* \"#utility.yul\":6831:6834   */\n      0x80\n        /* \"#utility.yul\":6819:6828   */\n      dup6\n        /* \"#utility.yul\":6810:6817   */\n      dup8\n        /* \"#utility.yul\":6806:6829   */\n      sub\n        /* \"#utility.yul\":6802:6835   */\n      slt\n        /* \"#utility.yul\":6799:6919   */\n      iszero\n      tag_199\n      jumpi\n        /* \"#utility.yul\":6838:6917   */\n      tag_200\n      tag_95\n      jump\t// in\n    tag_200:\n        /* \"#utility.yul\":6799:6919   */\n    tag_199:\n        /* \"#utility.yul\":6958:6959   */\n      0x00\n        /* \"#utility.yul\":6983:7047   */\n      tag_201\n        /* \"#utility.yul\":7039:7046   */\n      dup8\n        /* \"#utility.yul\":7030:7036   */\n      dup3\n        /* \"#utility.yul\":7019:7028   */\n      dup9\n        /* \"#utility.yul\":7015:7037   */\n      add\n        /* \"#utility.yul\":6983:7047   */\n      tag_116\n      jump\t// in\n    tag_201:\n        /* \"#utility.yul\":6973:7047   */\n      swap5\n      pop\n        /* \"#utility.yul\":6929:7057   */\n      pop\n        /* \"#utility.yul\":7096:7098   */\n      0x20\n        /* \"#utility.yul\":7122:7186   */\n      tag_202\n        /* \"#utility.yul\":7178:7185   */\n      dup8\n        /* \"#utility.yul\":7169:7175   */\n      dup3\n        /* \"#utility.yul\":7158:7167   */\n      dup9\n        /* \"#utility.yul\":7154:7176   */\n      add\n        /* \"#utility.yul\":7122:7186   */\n      tag_117\n      jump\t// in\n    tag_202:\n        /* \"#utility.yul\":7112:7186   */\n      swap4\n      pop\n        /* \"#utility.yul\":7067:7196   */\n      pop\n        /* \"#utility.yul\":7235:7237   */\n      0x40\n        /* \"#utility.yul\":7261:7325   */\n      tag_203\n        /* \"#utility.yul\":7317:7324   */\n      dup8\n        /* \"#utility.yul\":7308:7314   */\n      dup3\n        /* \"#utility.yul\":7297:7306   */\n      dup9\n        /* \"#utility.yul\":7293:7315   */\n      add\n        /* \"#utility.yul\":7261:7325   */\n      tag_117\n      jump\t// in\n    tag_203:\n        /* \"#utility.yul\":7251:7325   */\n      swap3\n      pop\n        /* \"#utility.yul\":7206:7335   */\n      pop\n        /* \"#utility.yul\":7374:7376   */\n      0x60\n        /* \"#utility.yul\":7400:7464   */\n      tag_204\n        /* \"#utility.yul\":7456:7463   */\n      dup8\n        /* \"#utility.yul\":7447:7453   */\n      dup3\n        /* \"#utility.yul\":7436:7445   */\n      dup9\n        /* \"#utility.yul\":7432:7454   */\n      add\n        /* \"#utility.yul\":7400:7464   */\n      tag_117\n      jump\t// in\n    tag_204:\n        /* \"#utility.yul\":7390:7464   */\n      swap2\n      pop\n        /* \"#utility.yul\":7345:7474   */\n      pop\n        /* \"#utility.yul\":6661:7481   */\n      swap3\n      swap6\n      swap2\n      swap5\n      pop\n      swap3\n      pop\n      jump\t// out\n        /* \"#utility.yul\":7487:7629   */\n    tag_118:\n        /* \"#utility.yul\":7590:7622   */\n      tag_206\n        /* \"#utility.yul\":7616:7621   */\n      dup2\n        /* \"#utility.yul\":7590:7622   */\n      tag_104\n      jump\t// in\n    tag_206:\n        /* \"#utility.yul\":7585:7588   */\n      dup3\n        /* \"#utility.yul\":7578:7623   */\n      mstore\n        /* \"#utility.yul\":7487:7629   */\n      pop\n      pop\n      jump\t// out\n        /* \"#utility.yul\":7635:8220   */\n    tag_67:\n        /* \"#utility.yul\":7828:7832   */\n      0x00\n        /* \"#utility.yul\":7866:7869   */\n      0x80\n        /* \"#utility.yul\":7855:7864   */\n      dup3\n        /* \"#utility.yul\":7851:7870   */\n      add\n        /* \"#utility.yul\":7843:7870   */\n      swap1\n      pop\n        /* \"#utility.yul\":7880:7967   */\n      tag_208\n        /* \"#utility.yul\":7964:7965   */\n      0x00\n        /* \"#utility.yul\":7953:7962   */\n      dup4\n        /* \"#utility.yul\":7949:7966   */\n      add\n        /* \"#utility.yul\":7940:7946   */\n      dup8\n        /* \"#utility.yul\":7880:7967   */\n      tag_118\n      jump\t// in\n    tag_208:\n        /* \"#utility.yul\":7977:8049   */\n      tag_209\n        /* \"#utility.yul\":8045:8047   */\n      0x20\n        /* \"#utility.yul\":8034:8043   */\n      dup4\n        /* \"#utility.yul\":8030:8048   */\n      add\n        /* \"#utility.yul\":8021:8027   */\n      dup7\n        /* \"#utility.yul\":7977:8049   */\n      tag_103\n      jump\t// in\n    tag_209:\n        /* \"#utility.yul\":8059:8131   */\n      tag_210\n        /* \"#utility.yul\":8127:8129   */\n      0x40\n        /* \"#utility.yul\":8116:8125   */\n      dup4\n        /* \"#utility.yul\":8112:8130   */\n      add\n        /* \"#utility.yul\":8103:8109   */\n      dup6\n        /* \"#utility.yul\":8059:8131   */\n      tag_103\n      jump\t// in\n    tag_210:\n        /* \"#utility.yul\":8141:8213   */\n      tag_211\n        /* \"#utility.yul\":8209:8211   */\n      0x60\n        /* \"#utility.yul\":8198:8207   */\n      dup4\n        /* \"#utility.yul\":8194:8212   */\n      add\n        /* \"#utility.yul\":8185:8191   */\n      dup5\n        /* \"#utility.yul\":8141:8213   */\n      tag_103\n      jump\t// in\n    tag_211:\n        /* \"#utility.yul\":7635:8220   */\n      swap6\n      swap5\n      pop\n      pop\n      pop\n      pop\n      pop\n      jump\t// out\n        /* \"#utility.yul\":8226:8577   */\n    tag_79:\n        /* \"#utility.yul\":8296:8302   */\n      0x00\n        /* \"#utility.yul\":8345:8347   */\n      0x20\n        /* \"#utility.yul\":8333:8342   */\n      dup3\n        /* \"#utility.yul\":8324:8331   */\n      dup5\n        /* \"#utility.yul\":8320:8343   */\n      sub\n        /* \"#utility.yul\":8316:8348   */\n      slt\n        /* \"#utility.yul\":8313:8432   */\n      iszero\n      tag_213\n      jumpi\n        /* \"#utility.yul\":8351:8430   */\n      tag_214\n      tag_95\n      jump\t// in\n    tag_214:\n        /* \"#utility.yul\":8313:8432   */\n    tag_213:\n        /* \"#utility.yul\":8471:8472   */\n      0x00\n        /* \"#utility.yul\":8496:8560   */\n      tag_215\n        /* \"#utility.yul\":8552:8559   */\n      dup5\n        /* \"#utility.yul\":8543:8549   */\n      dup3\n        /* \"#utility.yul\":8532:8541   */\n      dup6\n        /* \"#utility.yul\":8528:8550   */\n      add\n        /* \"#utility.yul\":8496:8560   */\n      tag_117\n      jump\t// in\n    tag_215:\n        /* \"#utility.yul\":8486:8560   */\n      swap2\n      pop\n        /* \"#utility.yul\":8442:8570   */\n      pop\n        /* \"#utility.yul\":8226:8577   */\n      swap3\n      swap2\n      pop\n      pop\n      jump\t// out\n\n    auxdata: 0xa26469706673582212209948040a6ae3614a472fc8cf251c27e123eb1568d953e270f459e98594ec247564736f6c63430008130033\n}\n\nsub_1: assembly {\n        /* \"FinanceManagement.sol\":58:826   */\n      mstore(0x40, 0x80)\n      callvalue\n      dup1\n      iszero\n      tag_1\n      jumpi\n      0x00\n      dup1\n      revert\n    tag_1:\n      pop\n      dataSize(sub_0)\n      dup1\n      dataOffset(sub_0)\n      0x00\n      codecopy\n      0x00\n      return\n    stop\n\n    sub_0: assembly {\n            /* \"FinanceManagement.sol\":58:826   */\n          mstore(0x40, 0x80)\n          jumpi(tag_1, lt(calldatasize, 0x04))\n          shr(0xe0, calldataload(0x00))\n          dup1\n          0x57d9989c\n          eq\n          tag_2\n          jumpi\n          dup1\n          0xc71daccb\n          eq\n          tag_3\n          jumpi\n          dup1\n          0xd7081e03\n          eq\n          tag_4\n          jumpi\n          dup1\n          0xe2c41dbc\n          eq\n          tag_5\n          jumpi\n        tag_1:\n          0x00\n          dup1\n          revert\n            /* \"FinanceManagement.sol\":388:632   */\n        tag_2:\n          callvalue\n          dup1\n          iszero\n          tag_6\n          jumpi\n          0x00\n          dup1\n          revert\n        tag_6:\n          pop\n          tag_7\n          0x04\n          dup1\n          calldatasize\n          sub\n          dup2\n          add\n          swap1\n          tag_8\n          swap2\n          swap1\n          tag_9\n          jump\t// in\n        tag_8:\n          tag_10\n          jump\t// in\n        tag_7:\n          stop\n            /* \"FinanceManagement.sol\":286:382   */\n        tag_3:\n          callvalue\n          dup1\n          iszero\n          tag_11\n          jumpi\n          0x00\n          dup1\n          revert\n        tag_11:\n          pop\n          tag_12\n          tag_13\n          jump\t// in\n        tag_12:\n          mload(0x40)\n          tag_14\n          swap2\n          swap1\n          tag_15\n          jump\t// in\n        tag_14:\n          mload(0x40)\n          dup1\n          swap2\n          sub\n          swap1\n          return\n            /* \"FinanceManagement.sol\":638:824   */\n        tag_4:\n          callvalue\n          dup1\n          iszero\n          tag_16\n          jumpi\n          0x00\n          dup1\n          revert\n        tag_16:\n          pop\n          tag_17\n          0x04\n          dup1\n          calldatasize\n          sub\n          dup2\n          add\n          swap1\n          tag_18\n          swap2\n          swap1\n          tag_9\n          jump\t// in\n        tag_18:\n          tag_19\n          jump\t// in\n        tag_17:\n          stop\n            /* \"FinanceManagement.sol\":194:280   */\n        tag_5:\n          tag_20\n          tag_21\n          jump\t// in\n        tag_20:\n          stop\n            /* \"FinanceManagement.sol\":388:632   */\n        tag_10:\n            /* \"FinanceManagement.sol\":492:513   */\n          selfbalance\n            /* \"FinanceManagement.sol\":482:488   */\n          dup2\n            /* \"FinanceManagement.sol\":482:513   */\n          gt\n          iszero\n            /* \"FinanceManagement.sol\":474:536   */\n          tag_23\n          jumpi\n          mload(0x40)\n          0x08c379a000000000000000000000000000000000000000000000000000000000\n          dup2\n          mstore\n          0x04\n          add\n          tag_24\n          swap1\n          tag_25\n          jump\t// in\n        tag_24:\n          mload(0x40)\n          dup1\n          swap2\n          sub\n          swap1\n          revert\n        tag_23:\n            /* \"FinanceManagement.sol\":546:555   */\n          dup2\n            /* \"FinanceManagement.sol\":546:564   */\n          0xffffffffffffffffffffffffffffffffffffffff\n          and\n            /* \"FinanceManagement.sol\":546:572   */\n          0x08fc\n            /* \"FinanceManagement.sol\":565:571   */\n          dup3\n            /* \"FinanceManagement.sol\":546:572   */\n          swap1\n          dup2\n          iszero\n          mul\n          swap1\n          mload(0x40)\n          0x00\n          mload(0x40)\n          dup1\n          dup4\n          sub\n          dup2\n          dup6\n          dup9\n          dup9\n          call\n          swap4\n          pop\n          pop\n          pop\n          pop\n          iszero\n          dup1\n          iszero\n          tag_27\n          jumpi\n          returndatasize\n          0x00\n          dup1\n          returndatacopy\n          revert(0x00, returndatasize)\n        tag_27:\n          pop\n            /* \"FinanceManagement.sol\":587:625   */\n          0x23d6711a1d031134a36921253c75aa59e967d38e369ac625992824315e204f20\n            /* \"FinanceManagement.sol\":607:616   */\n          dup3\n            /* \"FinanceManagement.sol\":618:624   */\n          dup3\n            /* \"FinanceManagement.sol\":587:625   */\n          mload(0x40)\n          tag_28\n          swap3\n          swap2\n          swap1\n          tag_29\n          jump\t// in\n        tag_28:\n          mload(0x40)\n          dup1\n          swap2\n          sub\n          swap1\n          log1\n            /* \"FinanceManagement.sol\":388:632   */\n          pop\n          pop\n          jump\t// out\n            /* \"FinanceManagement.sol\":286:382   */\n        tag_13:\n            /* \"FinanceManagement.sol\":331:335   */\n          0x00\n            /* \"FinanceManagement.sol\":354:375   */\n          selfbalance\n            /* \"FinanceManagement.sol\":347:375   */\n          swap1\n          pop\n            /* \"FinanceManagement.sol\":286:382   */\n          swap1\n          jump\t// out\n            /* \"FinanceManagement.sol\":638:824   */\n        tag_19:\n            /* \"FinanceManagement.sol\":737:758   */\n          selfbalance\n            /* \"FinanceManagement.sol\":727:733   */\n          dup2\n            /* \"FinanceManagement.sol\":727:758   */\n          gt\n          iszero\n            /* \"FinanceManagement.sol\":719:781   */\n          tag_32\n          jumpi\n          mload(0x40)\n          0x08c379a000000000000000000000000000000000000000000000000000000000\n          dup2\n          mstore\n          0x04\n          add\n          tag_33\n          swap1\n          tag_25\n          jump\t// in\n        tag_33:\n          mload(0x40)\n          dup1\n          swap2\n          sub\n          swap1\n          revert\n        tag_32:\n            /* \"FinanceManagement.sol\":791:800   */\n          dup2\n            /* \"FinanceManagement.sol\":791:809   */\n          0xffffffffffffffffffffffffffffffffffffffff\n          and\n            /* \"FinanceManagement.sol\":791:817   */\n          0x08fc\n            /* \"FinanceManagement.sol\":810:816   */\n          dup3\n            /* \"FinanceManagement.sol\":791:817   */\n          swap1\n          dup2\n          iszero\n          mul\n          swap1\n          mload(0x40)\n          0x00\n          mload(0x40)\n          dup1\n          dup4\n          sub\n          dup2\n          dup6\n          dup9\n          dup9\n          call\n          swap4\n          pop\n          pop\n          pop\n          pop\n          iszero\n          dup1\n          iszero\n          tag_35\n          jumpi\n          returndatasize\n          0x00\n          dup1\n          returndatacopy\n          revert(0x00, returndatasize)\n        tag_35:\n          pop\n            /* \"FinanceManagement.sol\":638:824   */\n          pop\n          pop\n          jump\t// out\n            /* \"FinanceManagement.sol\":194:280   */\n        tag_21:\n            /* \"FinanceManagement.sol\":248:273   */\n          0x7cb5d45c1071f219bd2da1ea101758715bd52f23f2a707f2d9a0387dea18d906\n            /* \"FinanceManagement.sol\":263:272   */\n          callvalue\n            /* \"FinanceManagement.sol\":248:273   */\n          mload(0x40)\n          tag_37\n          swap2\n          swap1\n          tag_15\n          jump\t// in\n        tag_37:\n          mload(0x40)\n          dup1\n          swap2\n          sub\n          swap1\n          log1\n            /* \"FinanceManagement.sol\":194:280   */\n          jump\t// out\n            /* \"#utility.yul\":88:205   */\n        tag_39:\n            /* \"#utility.yul\":197:198   */\n          0x00\n            /* \"#utility.yul\":194:195   */\n          dup1\n            /* \"#utility.yul\":187:199   */\n          revert\n            /* \"#utility.yul\":334:460   */\n        tag_41:\n            /* \"#utility.yul\":371:378   */\n          0x00\n            /* \"#utility.yul\":411:453   */\n          0xffffffffffffffffffffffffffffffffffffffff\n            /* \"#utility.yul\":404:409   */\n          dup3\n            /* \"#utility.yul\":400:454   */\n          and\n            /* \"#utility.yul\":389:454   */\n          swap1\n          pop\n            /* \"#utility.yul\":334:460   */\n          swap2\n          swap1\n          pop\n          jump\t// out\n            /* \"#utility.yul\":466:570   */\n        tag_42:\n            /* \"#utility.yul\":511:518   */\n          0x00\n            /* \"#utility.yul\":540:564   */\n          tag_63\n            /* \"#utility.yul\":558:563   */\n          dup3\n            /* \"#utility.yul\":540:564   */\n          tag_41\n          jump\t// in\n        tag_63:\n            /* \"#utility.yul\":529:564   */\n          swap1\n          pop\n            /* \"#utility.yul\":466:570   */\n          swap2\n          swap1\n          pop\n          jump\t// out\n            /* \"#utility.yul\":576:714   */\n        tag_43:\n            /* \"#utility.yul\":657:689   */\n          tag_65\n            /* \"#utility.yul\":683:688   */\n          dup2\n            /* \"#utility.yul\":657:689   */\n          tag_42\n          jump\t// in\n        tag_65:\n            /* \"#utility.yul\":650:655   */\n          dup2\n            /* \"#utility.yul\":647:690   */\n          eq\n            /* \"#utility.yul\":637:708   */\n          tag_66\n          jumpi\n            /* \"#utility.yul\":704:705   */\n          0x00\n            /* \"#utility.yul\":701:702   */\n          dup1\n            /* \"#utility.yul\":694:706   */\n          revert\n            /* \"#utility.yul\":637:708   */\n        tag_66:\n            /* \"#utility.yul\":576:714   */\n          pop\n          jump\t// out\n            /* \"#utility.yul\":720:875   */\n        tag_44:\n            /* \"#utility.yul\":774:779   */\n          0x00\n            /* \"#utility.yul\":812:818   */\n          dup2\n            /* \"#utility.yul\":799:819   */\n          calldataload\n            /* \"#utility.yul\":790:819   */\n          swap1\n          pop\n            /* \"#utility.yul\":828:869   */\n          tag_68\n            /* \"#utility.yul\":863:868   */\n          dup2\n            /* \"#utility.yul\":828:869   */\n          tag_43\n          jump\t// in\n        tag_68:\n            /* \"#utility.yul\":720:875   */\n          swap3\n          swap2\n          pop\n          pop\n          jump\t// out\n            /* \"#utility.yul\":881:958   */\n        tag_45:\n            /* \"#utility.yul\":918:925   */\n          0x00\n            /* \"#utility.yul\":947:952   */\n          dup2\n            /* \"#utility.yul\":936:952   */\n          swap1\n          pop\n            /* \"#utility.yul\":881:958   */\n          swap2\n          swap1\n          pop\n          jump\t// out\n            /* \"#utility.yul\":964:1086   */\n        tag_46:\n            /* \"#utility.yul\":1037:1061   */\n          tag_71\n            /* \"#utility.yul\":1055:1060   */\n          dup2\n            /* \"#utility.yul\":1037:1061   */\n          tag_45\n          jump\t// in\n        tag_71:\n            /* \"#utility.yul\":1030:1035   */\n          dup2\n            /* \"#utility.yul\":1027:1062   */\n          eq\n            /* \"#utility.yul\":1017:1080   */\n          tag_72\n          jumpi\n            /* \"#utility.yul\":1076:1077   */\n          0x00\n            /* \"#utility.yul\":1073:1074   */\n          dup1\n            /* \"#utility.yul\":1066:1078   */\n          revert\n            /* \"#utility.yul\":1017:1080   */\n        tag_72:\n            /* \"#utility.yul\":964:1086   */\n          pop\n          jump\t// out\n            /* \"#utility.yul\":1092:1231   */\n        tag_47:\n            /* \"#utility.yul\":1138:1143   */\n          0x00\n            /* \"#utility.yul\":1176:1182   */\n          dup2\n            /* \"#utility.yul\":1163:1183   */\n          calldataload\n            /* \"#utility.yul\":1154:1183   */\n          swap1\n          pop\n            /* \"#utility.yul\":1192:1225   */\n          tag_74\n            /* \"#utility.yul\":1219:1224   */\n          dup2\n            /* \"#utility.yul\":1192:1225   */\n          tag_46\n          jump\t// in\n        tag_74:\n            /* \"#utility.yul\":1092:1231   */\n          swap3\n          swap2\n          pop\n          pop\n          jump\t// out\n            /* \"#utility.yul\":1237:1727   */\n        tag_9:\n            /* \"#utility.yul\":1313:1319   */\n          0x00\n            /* \"#utility.yul\":1321:1327   */\n          dup1\n            /* \"#utility.yul\":1370:1372   */\n          0x40\n            /* \"#utility.yul\":1358:1367   */\n          dup4\n            /* \"#utility.yul\":1349:1356   */\n          dup6\n            /* \"#utility.yul\":1345:1368   */\n          sub\n            /* \"#utility.yul\":1341:1373   */\n          slt\n            /* \"#utility.yul\":1338:1457   */\n          iszero\n          tag_76\n          jumpi\n            /* \"#utility.yul\":1376:1455   */\n          tag_77\n          tag_39\n          jump\t// in\n        tag_77:\n            /* \"#utility.yul\":1338:1457   */\n        tag_76:\n            /* \"#utility.yul\":1496:1497   */\n          0x00\n            /* \"#utility.yul\":1521:1582   */\n          tag_78\n            /* \"#utility.yul\":1574:1581   */\n          dup6\n            /* \"#utility.yul\":1565:1571   */\n          dup3\n            /* \"#utility.yul\":1554:1563   */\n          dup7\n            /* \"#utility.yul\":1550:1572   */\n          add\n            /* \"#utility.yul\":1521:1582   */\n          tag_44\n          jump\t// in\n        tag_78:\n            /* \"#utility.yul\":1511:1582   */\n          swap3\n          pop\n            /* \"#utility.yul\":1467:1592   */\n          pop\n            /* \"#utility.yul\":1631:1633   */\n          0x20\n            /* \"#utility.yul\":1657:1710   */\n          tag_79\n            /* \"#utility.yul\":1702:1709   */\n          dup6\n            /* \"#utility.yul\":1693:1699   */\n          dup3\n            /* \"#utility.yul\":1682:1691   */\n          dup7\n            /* \"#utility.yul\":1678:1700   */\n          add\n            /* \"#utility.yul\":1657:1710   */\n          tag_47\n          jump\t// in\n        tag_79:\n            /* \"#utility.yul\":1647:1710   */\n          swap2\n          pop\n            /* \"#utility.yul\":1602:1720   */\n          pop\n            /* \"#utility.yul\":1237:1727   */\n          swap3\n          pop\n          swap3\n          swap1\n          pop\n          jump\t// out\n            /* \"#utility.yul\":1733:1851   */\n        tag_48:\n            /* \"#utility.yul\":1820:1844   */\n          tag_81\n            /* \"#utility.yul\":1838:1843   */\n          dup2\n            /* \"#utility.yul\":1820:1844   */\n          tag_45\n          jump\t// in\n        tag_81:\n            /* \"#utility.yul\":1815:1818   */\n          dup3\n            /* \"#utility.yul\":1808:1845   */\n          mstore\n            /* \"#utility.yul\":1733:1851   */\n          pop\n          pop\n          jump\t// out\n            /* \"#utility.yul\":1857:2079   */\n        tag_15:\n            /* \"#utility.yul\":1950:1954   */\n          0x00\n            /* \"#utility.yul\":1988:1990   */\n          0x20\n            /* \"#utility.yul\":1977:1986   */\n          dup3\n            /* \"#utility.yul\":1973:1991   */\n          add\n            /* \"#utility.yul\":1965:1991   */\n          swap1\n          pop\n            /* \"#utility.yul\":2001:2072   */\n          tag_83\n            /* \"#utility.yul\":2069:2070   */\n          0x00\n            /* \"#utility.yul\":2058:2067   */\n          dup4\n            /* \"#utility.yul\":2054:2071   */\n          add\n            /* \"#utility.yul\":2045:2051   */\n          dup5\n            /* \"#utility.yul\":2001:2072   */\n          tag_48\n          jump\t// in\n        tag_83:\n            /* \"#utility.yul\":1857:2079   */\n          swap3\n          swap2\n          pop\n          pop\n          jump\t// out\n            /* \"#utility.yul\":2085:2254   */\n        tag_49:\n            /* \"#utility.yul\":2169:2180   */\n          0x00\n            /* \"#utility.yul\":2203:2209   */\n          dup3\n            /* \"#utility.yul\":2198:2201   */\n          dup3\n            /* \"#utility.yul\":2191:2210   */\n          mstore\n            /* \"#utility.yul\":2243:2247   */\n          0x20\n            /* \"#utility.yul\":2238:2241   */\n          dup3\n            /* \"#utility.yul\":2234:2248   */\n          add\n            /* \"#utility.yul\":2219:2248   */\n          swap1\n          pop\n            /* \"#utility.yul\":2085:2254   */\n          swap3\n          swap2\n          pop\n          pop\n          jump\t// out\n            /* \"#utility.yul\":2260:2428   */\n        tag_50:\n            /* \"#utility.yul\":2400:2420   */\n          0x496e73756666696369656e742066756e64730000000000000000000000000000\n            /* \"#utility.yul\":2396:2397   */\n          0x00\n            /* \"#utility.yul\":2388:2394   */\n          dup3\n            /* \"#utility.yul\":2384:2398   */\n          add\n            /* \"#utility.yul\":2377:2421   */\n          mstore\n            /* \"#utility.yul\":2260:2428   */\n          pop\n          jump\t// out\n            /* \"#utility.yul\":2434:2800   */\n        tag_51:\n            /* \"#utility.yul\":2576:2579   */\n          0x00\n            /* \"#utility.yul\":2597:2664   */\n          tag_87\n            /* \"#utility.yul\":2661:2663   */\n          0x12\n            /* \"#utility.yul\":2656:2659   */\n          dup4\n            /* \"#utility.yul\":2597:2664   */\n          tag_49\n          jump\t// in\n        tag_87:\n            /* \"#utility.yul\":2590:2664   */\n          swap2\n          pop\n            /* \"#utility.yul\":2673:2766   */\n          tag_88\n            /* \"#utility.yul\":2762:2765   */\n          dup3\n            /* \"#utility.yul\":2673:2766   */\n          tag_50\n          jump\t// in\n        tag_88:\n            /* \"#utility.yul\":2791:2793   */\n          0x20\n            /* \"#utility.yul\":2786:2789   */\n          dup3\n            /* \"#utility.yul\":2782:2794   */\n          add\n            /* \"#utility.yul\":2775:2794   */\n          swap1\n          pop\n            /* \"#utility.yul\":2434:2800   */\n          swap2\n          swap1\n          pop\n          jump\t// out\n            /* \"#utility.yul\":2806:3225   */\n        tag_25:\n            /* \"#utility.yul\":2972:2976   */\n          0x00\n            /* \"#utility.yul\":3010:3012   */\n          0x20\n            /* \"#utility.yul\":2999:3008   */\n          dup3\n            /* \"#utility.yul\":2995:3013   */\n          add\n            /* \"#utility.yul\":2987:3013   */\n          swap1\n          pop\n            /* \"#utility.yul\":3059:3068   */\n          dup2\n            /* \"#utility.yul\":3053:3057   */\n          dup2\n            /* \"#utility.yul\":3049:3069   */\n          sub\n            /* \"#utility.yul\":3045:3046   */\n          0x00\n            /* \"#utility.yul\":3034:3043   */\n          dup4\n            /* \"#utility.yul\":3030:3047   */\n          add\n            /* \"#utility.yul\":3023:3070   */\n          mstore\n            /* \"#utility.yul\":3087:3218   */\n          tag_90\n            /* \"#utility.yul\":3213:3217   */\n          dup2\n            /* \"#utility.yul\":3087:3218   */\n          tag_51\n          jump\t// in\n        tag_90:\n            /* \"#utility.yul\":3079:3218   */\n          swap1\n          pop\n            /* \"#utility.yul\":2806:3225   */\n          swap2\n          swap1\n          pop\n          jump\t// out\n            /* \"#utility.yul\":3231:3291   */\n        tag_52:\n            /* \"#utility.yul\":3259:3262   */\n          0x00\n            /* \"#utility.yul\":3280:3285   */\n          dup2\n            /* \"#utility.yul\":3273:3285   */\n          swap1\n          pop\n            /* \"#utility.yul\":3231:3291   */\n          swap2\n          swap1\n          pop\n          jump\t// out\n            /* \"#utility.yul\":3297:3439   */\n        tag_53:\n            /* \"#utility.yul\":3347:3356   */\n          0x00\n            /* \"#utility.yul\":3380:3433   */\n          tag_93\n            /* \"#utility.yul\":3398:3432   */\n          tag_94\n            /* \"#utility.yul\":3407:3431   */\n          tag_95\n            /* \"#utility.yul\":3425:3430   */\n          dup5\n            /* \"#utility.yul\":3407:3431   */\n          tag_41\n          jump\t// in\n        tag_95:\n            /* \"#utility.yul\":3398:3432   */\n          tag_52\n          jump\t// in\n        tag_94:\n            /* \"#utility.yul\":3380:3433   */\n          tag_41\n          jump\t// in\n        tag_93:\n            /* \"#utility.yul\":3367:3433   */\n          swap1\n          pop\n            /* \"#utility.yul\":3297:3439   */\n          swap2\n          swap1\n          pop\n          jump\t// out\n            /* \"#utility.yul\":3445:3571   */\n        tag_54:\n            /* \"#utility.yul\":3495:3504   */\n          0x00\n            /* \"#utility.yul\":3528:3565   */\n          tag_97\n            /* \"#utility.yul\":3559:3564   */\n          dup3\n            /* \"#utility.yul\":3528:3565   */\n          tag_53\n          jump\t// in\n        tag_97:\n            /* \"#utility.yul\":3515:3565   */\n          swap1\n          pop\n            /* \"#utility.yul\":3445:3571   */\n          swap2\n          swap1\n          pop\n          jump\t// out\n            /* \"#utility.yul\":3577:3711   */\n        tag_55:\n            /* \"#utility.yul\":3635:3644   */\n          0x00\n            /* \"#utility.yul\":3668:3705   */\n          tag_99\n            /* \"#utility.yul\":3699:3704   */\n          dup3\n            /* \"#utility.yul\":3668:3705   */\n          tag_54\n          jump\t// in\n        tag_99:\n            /* \"#utility.yul\":3655:3705   */\n          swap1\n          pop\n            /* \"#utility.yul\":3577:3711   */\n          swap2\n          swap1\n          pop\n          jump\t// out\n            /* \"#utility.yul\":3717:3864   */\n        tag_56:\n            /* \"#utility.yul\":3812:3857   */\n          tag_101\n            /* \"#utility.yul\":3851:3856   */\n          dup2\n            /* \"#utility.yul\":3812:3857   */\n          tag_55\n          jump\t// in\n        tag_101:\n            /* \"#utility.yul\":3807:3810   */\n          dup3\n            /* \"#utility.yul\":3800:3858   */\n          mstore\n            /* \"#utility.yul\":3717:3864   */\n          pop\n          pop\n          jump\t// out\n            /* \"#utility.yul\":3870:4218   */\n        tag_29:\n            /* \"#utility.yul\":3999:4003   */\n          0x00\n            /* \"#utility.yul\":4037:4039   */\n          0x40\n            /* \"#utility.yul\":4026:4035   */\n          dup3\n            /* \"#utility.yul\":4022:4040   */\n          add\n            /* \"#utility.yul\":4014:4040   */\n          swap1\n          pop\n            /* \"#utility.yul\":4050:4129   */\n          tag_103\n            /* \"#utility.yul\":4126:4127   */\n          0x00\n            /* \"#utility.yul\":4115:4124   */\n          dup4\n            /* \"#utility.yul\":4111:4128   */\n          add\n            /* \"#utility.yul\":4102:4108   */\n          dup6\n            /* \"#utility.yul\":4050:4129   */\n          tag_56\n          jump\t// in\n        tag_103:\n            /* \"#utility.yul\":4139:4211   */\n          tag_104\n            /* \"#utility.yul\":4207:4209   */\n          0x20\n            /* \"#utility.yul\":4196:4205   */\n          dup4\n            /* \"#utility.yul\":4192:4210   */\n          add\n            /* \"#utility.yul\":4183:4189   */\n          dup5\n            /* \"#utility.yul\":4139:4211   */\n          tag_48\n          jump\t// in\n        tag_104:\n            /* \"#utility.yul\":3870:4218   */\n          swap4\n          swap3\n          pop\n          pop\n          pop\n          jump\t// out\n\n        auxdata: 0xa264697066735822122012a8104adc02479ed6f02f267401ac3b441b74a5355642902d06a4349bd9f0ff64736f6c63430008130033\n    }\n}\n\nsub_2: assembly {\n        /* \"EmployeeManagement.sol\":92:2810   */\n      mstore(0x40, 0x80)\n        /* \"EmployeeManagement.sol\":168:273   */\n      callvalue\n      dup1\n      iszero\n      tag_1\n      jumpi\n      0x00\n      dup1\n      revert\n    tag_1:\n      pop\n      mload(0x40)\n      sub(codesize, bytecodeSize)\n      dup1\n      bytecodeSize\n      dup4\n      codecopy\n      dup2\n      dup2\n      add\n      0x40\n      mstore\n      dup2\n      add\n      swap1\n      tag_2\n      swap2\n      swap1\n      tag_3\n      jump\t// in\n    tag_2:\n        /* \"EmployeeManagement.sol\":248:266   */\n      dup1\n        /* \"EmployeeManagement.sol\":228:245   */\n      0x00\n      dup1\n        /* \"EmployeeManagement.sol\":228:266   */\n      0x0100\n      exp\n      dup2\n      sload\n      dup2\n      0xffffffffffffffffffffffffffffffffffffffff\n      mul\n      not\n      and\n      swap1\n      dup4\n      0xffffffffffffffffffffffffffffffffffffffff\n      and\n      mul\n      or\n      swap1\n      sstore\n      pop\n        /* \"EmployeeManagement.sol\":168:273   */\n      pop\n        /* \"EmployeeManagement.sol\":92:2810   */\n      jump(tag_6)\n        /* \"#utility.yul\":88:205   */\n    tag_8:\n        /* \"#utility.yul\":197:198   */\n      0x00\n        /* \"#utility.yul\":194:195   */\n      dup1\n        /* \"#utility.yul\":187:199   */\n      revert\n        /* \"#utility.yul\":334:460   */\n    tag_10:\n        /* \"#utility.yul\":371:378   */\n      0x00\n        /* \"#utility.yul\":411:453   */\n      0xffffffffffffffffffffffffffffffffffffffff\n        /* \"#utility.yul\":404:409   */\n      dup3\n        /* \"#utility.yul\":400:454   */\n      and\n        /* \"#utility.yul\":389:454   */\n      swap1\n      pop\n        /* \"#utility.yul\":334:460   */\n      swap2\n      swap1\n      pop\n      jump\t// out\n        /* \"#utility.yul\":466:562   */\n    tag_11:\n        /* \"#utility.yul\":503:510   */\n      0x00\n        /* \"#utility.yul\":532:556   */\n      tag_21\n        /* \"#utility.yul\":550:555   */\n      dup3\n        /* \"#utility.yul\":532:556   */\n      tag_10\n      jump\t// in\n    tag_21:\n        /* \"#utility.yul\":521:556   */\n      swap1\n      pop\n        /* \"#utility.yul\":466:562   */\n      swap2\n      swap1\n      pop\n      jump\t// out\n        /* \"#utility.yul\":568:689   */\n    tag_12:\n        /* \"#utility.yul\":630:637   */\n      0x00\n        /* \"#utility.yul\":659:683   */\n      tag_23\n        /* \"#utility.yul\":677:682   */\n      dup3\n        /* \"#utility.yul\":659:683   */\n      tag_11\n      jump\t// in\n    tag_23:\n        /* \"#utility.yul\":648:683   */\n      swap1\n      pop\n        /* \"#utility.yul\":568:689   */\n      swap2\n      swap1\n      pop\n      jump\t// out\n        /* \"#utility.yul\":695:867   */\n    tag_13:\n        /* \"#utility.yul\":793:842   */\n      tag_25\n        /* \"#utility.yul\":836:841   */\n      dup2\n        /* \"#utility.yul\":793:842   */\n      tag_12\n      jump\t// in\n    tag_25:\n        /* \"#utility.yul\":786:791   */\n      dup2\n        /* \"#utility.yul\":783:843   */\n      eq\n        /* \"#utility.yul\":773:861   */\n      tag_26\n      jumpi\n        /* \"#utility.yul\":857:858   */\n      0x00\n        /* \"#utility.yul\":854:855   */\n      dup1\n        /* \"#utility.yul\":847:859   */\n      revert\n        /* \"#utility.yul\":773:861   */\n    tag_26:\n        /* \"#utility.yul\":695:867   */\n      pop\n      jump\t// out\n        /* \"#utility.yul\":873:1066   */\n    tag_14:\n        /* \"#utility.yul\":955:960   */\n      0x00\n        /* \"#utility.yul\":986:992   */\n      dup2\n        /* \"#utility.yul\":980:993   */\n      mload\n        /* \"#utility.yul\":971:993   */\n      swap1\n      pop\n        /* \"#utility.yul\":1002:1060   */\n      tag_28\n        /* \"#utility.yul\":1054:1059   */\n      dup2\n        /* \"#utility.yul\":1002:1060   */\n      tag_13\n      jump\t// in\n    tag_28:\n        /* \"#utility.yul\":873:1066   */\n      swap3\n      swap2\n      pop\n      pop\n      jump\t// out\n        /* \"#utility.yul\":1072:1473   */\n    tag_3:\n        /* \"#utility.yul\":1167:1173   */\n      0x00\n        /* \"#utility.yul\":1216:1218   */\n      0x20\n        /* \"#utility.yul\":1204:1213   */\n      dup3\n        /* \"#utility.yul\":1195:1202   */\n      dup5\n        /* \"#utility.yul\":1191:1214   */\n      sub\n        /* \"#utility.yul\":1187:1219   */\n      slt\n        /* \"#utility.yul\":1184:1303   */\n      iszero\n      tag_30\n      jumpi\n        /* \"#utility.yul\":1222:1301   */\n      tag_31\n      tag_8\n      jump\t// in\n    tag_31:\n        /* \"#utility.yul\":1184:1303   */\n    tag_30:\n        /* \"#utility.yul\":1342:1343   */\n      0x00\n        /* \"#utility.yul\":1367:1456   */\n      tag_32\n        /* \"#utility.yul\":1448:1455   */\n      dup5\n        /* \"#utility.yul\":1439:1445   */\n      dup3\n        /* \"#utility.yul\":1428:1437   */\n      dup6\n        /* \"#utility.yul\":1424:1446   */\n      add\n        /* \"#utility.yul\":1367:1456   */\n      tag_14\n      jump\t// in\n    tag_32:\n        /* \"#utility.yul\":1357:1456   */\n      swap2\n      pop\n        /* \"#utility.yul\":1313:1466   */\n      pop\n        /* \"#utility.yul\":1072:1473   */\n      swap3\n      swap2\n      pop\n      pop\n      jump\t// out\n        /* \"EmployeeManagement.sol\":92:2810   */\n    tag_6:\n      dataSize(sub_0)\n      dup1\n      dataOffset(sub_0)\n      0x00\n      codecopy\n      0x00\n      return\n    stop\n\n    sub_0: assembly {\n            /* \"EmployeeManagement.sol\":92:2810   */\n          mstore(0x40, 0x80)\n          callvalue\n          dup1\n          iszero\n          tag_1\n          jumpi\n          0x00\n          dup1\n          revert\n        tag_1:\n          pop\n          jumpi(tag_2, lt(calldatasize, 0x04))\n          shr(0xe0, calldataload(0x00))\n          dup1\n          0xbe0e0da4\n          gt\n          tag_10\n          jumpi\n          dup1\n          0xbe0e0da4\n          eq\n          tag_6\n          jumpi\n          dup1\n          0xd0678947\n          eq\n          tag_7\n          jumpi\n          dup1\n          0xd108177a\n          eq\n          tag_8\n          jumpi\n          dup1\n          0xdf47a353\n          eq\n          tag_9\n          jumpi\n          jump(tag_2)\n        tag_10:\n          dup1\n          0x1caafcf1\n          eq\n          tag_3\n          jumpi\n          dup1\n          0x4a4247d9\n          eq\n          tag_4\n          jumpi\n          dup1\n          0x809e9ef5\n          eq\n          tag_5\n          jumpi\n        tag_2:\n          0x00\n          dup1\n          revert\n            /* \"EmployeeManagement.sol\":1887:2113   */\n        tag_3:\n          tag_11\n          0x04\n          dup1\n          calldatasize\n          sub\n          dup2\n          add\n          swap1\n          tag_12\n          swap2\n          swap1\n          tag_13\n          jump\t// in\n        tag_12:\n          tag_14\n          jump\t// in\n        tag_11:\n          mload(0x40)\n          tag_15\n          swap5\n          swap4\n          swap3\n          swap2\n          swap1\n          tag_16\n          jump\t// in\n        tag_15:\n          mload(0x40)\n          dup1\n          swap2\n          sub\n          swap1\n          return\n            /* \"EmployeeManagement.sol\":638:905   */\n        tag_4:\n          tag_17\n          0x04\n          dup1\n          calldatasize\n          sub\n          dup2\n          add\n          swap1\n          tag_18\n          swap2\n          swap1\n          tag_19\n          jump\t// in\n        tag_18:\n          tag_20\n          jump\t// in\n        tag_17:\n          stop\n            /* \"EmployeeManagement.sol\":2385:2808   */\n        tag_5:\n          tag_21\n          tag_22\n          jump\t// in\n        tag_21:\n          stop\n            /* \"EmployeeManagement.sol\":465:497   */\n        tag_6:\n          tag_23\n          0x04\n          dup1\n          calldatasize\n          sub\n          dup2\n          add\n          swap1\n          tag_24\n          swap2\n          swap1\n          tag_25\n          jump\t// in\n        tag_24:\n          tag_26\n          jump\t// in\n        tag_23:\n          mload(0x40)\n          tag_27\n          swap2\n          swap1\n          tag_28\n          jump\t// in\n        tag_27:\n          mload(0x40)\n          dup1\n          swap2\n          sub\n          swap1\n          return\n            /* \"EmployeeManagement.sol\":414:459   */\n        tag_7:\n          tag_29\n          0x04\n          dup1\n          calldatasize\n          sub\n          dup2\n          add\n          swap1\n          tag_30\n          swap2\n          swap1\n          tag_13\n          jump\t// in\n        tag_30:\n          tag_31\n          jump\t// in\n        tag_29:\n          mload(0x40)\n          tag_32\n          swap5\n          swap4\n          swap3\n          swap2\n          swap1\n          tag_33\n          jump\t// in\n        tag_32:\n          mload(0x40)\n          dup1\n          swap2\n          sub\n          swap1\n          return\n            /* \"EmployeeManagement.sol\":911:1257   */\n        tag_8:\n          tag_34\n          0x04\n          dup1\n          calldatasize\n          sub\n          dup2\n          add\n          swap1\n          tag_35\n          swap2\n          swap1\n          tag_13\n          jump\t// in\n        tag_35:\n          tag_36\n          jump\t// in\n        tag_34:\n          stop\n            /* \"EmployeeManagement.sol\":1542:1881   */\n        tag_9:\n          tag_37\n          0x04\n          dup1\n          calldatasize\n          sub\n          dup2\n          add\n          swap1\n          tag_38\n          swap2\n          swap1\n          tag_39\n          jump\t// in\n        tag_38:\n          tag_40\n          jump\t// in\n        tag_37:\n          stop\n            /* \"EmployeeManagement.sol\":1887:2113   */\n        tag_14:\n            /* \"EmployeeManagement.sol\":1953:1960   */\n          0x00\n            /* \"EmployeeManagement.sol\":1962:1966   */\n          dup1\n            /* \"EmployeeManagement.sol\":1968:1972   */\n          0x00\n            /* \"EmployeeManagement.sol\":1974:1978   */\n          dup1\n            /* \"EmployeeManagement.sol\":1990:2009   */\n          0x00\n            /* \"EmployeeManagement.sol\":2012:2021   */\n          0x01\n            /* \"EmployeeManagement.sol\":2012:2030   */\n          0x00\n            /* \"EmployeeManagement.sol\":2022:2029   */\n          dup8\n            /* \"EmployeeManagement.sol\":2012:2030   */\n          0xffffffffffffffffffffffffffffffffffffffff\n          and\n          0xffffffffffffffffffffffffffffffffffffffff\n          and\n          dup2\n          mstore\n          0x20\n          add\n          swap1\n          dup2\n          mstore\n          0x20\n          add\n          0x00\n          keccak256\n            /* \"EmployeeManagement.sol\":1990:2030   */\n          mload(0x40)\n          dup1\n          0x80\n          add\n          0x40\n          mstore\n          swap1\n          dup2\n          0x00\n          dup3\n          add\n          0x00\n          swap1\n          sload\n          swap1\n          0x0100\n          exp\n          swap1\n          div\n          0xffffffffffffffffffffffffffffffffffffffff\n          and\n          0xffffffffffffffffffffffffffffffffffffffff\n          and\n          0xffffffffffffffffffffffffffffffffffffffff\n          and\n          dup2\n          mstore\n          0x20\n          add\n          0x01\n          dup3\n          add\n          sload\n          dup2\n          mstore\n          0x20\n          add\n          0x02\n          dup3\n          add\n          sload\n          dup2\n          mstore\n          0x20\n          add\n          0x03\n          dup3\n          add\n          sload\n          dup2\n          mstore\n          pop\n          pop\n          swap1\n          pop\n            /* \"EmployeeManagement.sol\":2048:2051   */\n          dup1\n            /* \"EmployeeManagement.sol\":2048:2059   */\n          0x00\n          add\n          mload\n            /* \"EmployeeManagement.sol\":2061:2064   */\n          dup2\n            /* \"EmployeeManagement.sol\":2061:2071   */\n          0x20\n          add\n          mload\n            /* \"EmployeeManagement.sol\":2073:2076   */\n          dup3\n            /* \"EmployeeManagement.sol\":2073:2089   */\n          0x40\n          add\n          mload\n            /* \"EmployeeManagement.sol\":2091:2094   */\n          dup4\n            /* \"EmployeeManagement.sol\":2091:2105   */\n          0x60\n          add\n          mload\n            /* \"EmployeeManagement.sol\":2040:2106   */\n          swap5\n          pop\n          swap5\n          pop\n          swap5\n          pop\n          swap5\n          pop\n          pop\n            /* \"EmployeeManagement.sol\":1887:2113   */\n          swap2\n          swap4\n          pop\n          swap2\n          swap4\n          jump\t// out\n            /* \"EmployeeManagement.sol\":638:905   */\n        tag_20:\n            /* \"EmployeeManagement.sol\":771:822   */\n          mload(0x40)\n          dup1\n          0x80\n          add\n          0x40\n          mstore\n          dup1\n            /* \"EmployeeManagement.sol\":780:787   */\n          dup6\n            /* \"EmployeeManagement.sol\":771:822   */\n          0xffffffffffffffffffffffffffffffffffffffff\n          and\n          dup2\n          mstore\n          0x20\n          add\n            /* \"EmployeeManagement.sol\":789:795   */\n          dup5\n            /* \"EmployeeManagement.sol\":771:822   */\n          dup2\n          mstore\n          0x20\n          add\n            /* \"EmployeeManagement.sol\":797:809   */\n          dup4\n            /* \"EmployeeManagement.sol\":771:822   */\n          dup2\n          mstore\n          0x20\n          add\n            /* \"EmployeeManagement.sol\":811:821   */\n          dup3\n            /* \"EmployeeManagement.sol\":771:822   */\n          dup2\n          mstore\n          pop\n            /* \"EmployeeManagement.sol\":750:759   */\n          0x01\n            /* \"EmployeeManagement.sol\":750:768   */\n          0x00\n            /* \"EmployeeManagement.sol\":760:767   */\n          dup7\n            /* \"EmployeeManagement.sol\":750:768   */\n          0xffffffffffffffffffffffffffffffffffffffff\n          and\n          0xffffffffffffffffffffffffffffffffffffffff\n          and\n          dup2\n          mstore\n          0x20\n          add\n          swap1\n          dup2\n          mstore\n          0x20\n          add\n          0x00\n          keccak256\n            /* \"EmployeeManagement.sol\":750:822   */\n          0x00\n          dup3\n          add\n          mload\n          dup2\n          0x00\n          add\n          exp(0x0100, 0x00)\n          dup2\n          sload\n          dup2\n          0xffffffffffffffffffffffffffffffffffffffff\n          mul\n          not\n          and\n          swap1\n          dup4\n          0xffffffffffffffffffffffffffffffffffffffff\n          and\n          mul\n          or\n          swap1\n          sstore\n          pop\n          0x20\n          dup3\n          add\n          mload\n          dup2\n          0x01\n          add\n          sstore\n          0x40\n          dup3\n          add\n          mload\n          dup2\n          0x02\n          add\n          sstore\n          0x60\n          dup3\n          add\n          mload\n          dup2\n          0x03\n          add\n          sstore\n          swap1\n          pop\n          pop\n            /* \"EmployeeManagement.sol\":832:847   */\n          0x02\n            /* \"EmployeeManagement.sol\":853:860   */\n          dup5\n            /* \"EmployeeManagement.sol\":832:861   */\n          swap1\n          dup1\n          0x01\n          dup2\n          sload\n          add\n          dup1\n          dup3\n          sstore\n          dup1\n          swap2\n          pop\n          pop\n          0x01\n          swap1\n          sub\n          swap1\n          0x00\n          mstore\n          keccak256(0x00, 0x20)\n          add\n          0x00\n          swap1\n          swap2\n          swap1\n          swap2\n          swap1\n          swap2\n          0x0100\n          exp\n          dup2\n          sload\n          dup2\n          0xffffffffffffffffffffffffffffffffffffffff\n          mul\n          not\n          and\n          swap1\n          dup4\n          0xffffffffffffffffffffffffffffffffffffffff\n          and\n          mul\n          or\n          swap1\n          sstore\n          pop\n            /* \"EmployeeManagement.sol\":876:898   */\n          0x041109cfe10cfa549abb66b986d0a294ecc6c9ad39000abcb9c2afd422c8bd64\n            /* \"EmployeeManagement.sol\":890:897   */\n          dup5\n            /* \"EmployeeManagement.sol\":876:898   */\n          mload(0x40)\n          tag_44\n          swap2\n          swap1\n          tag_45\n          jump\t// in\n        tag_44:\n          mload(0x40)\n          dup1\n          swap2\n          sub\n          swap1\n          log1\n            /* \"EmployeeManagement.sol\":638:905   */\n          pop\n          pop\n          pop\n          pop\n          jump\t// out\n            /* \"EmployeeManagement.sol\":2385:2808   */\n        tag_22:\n            /* \"EmployeeManagement.sol\":2434:2440   */\n          0x00\n            /* \"EmployeeManagement.sol\":2430:2802   */\n        tag_47:\n            /* \"EmployeeManagement.sol\":2451:2466   */\n          0x02\n            /* \"EmployeeManagement.sol\":2451:2473   */\n          dup1\n          sload\n          swap1\n          pop\n            /* \"EmployeeManagement.sol\":2447:2448   */\n          dup2\n            /* \"EmployeeManagement.sol\":2447:2473   */\n          lt\n            /* \"EmployeeManagement.sol\":2430:2802   */\n          iszero\n          tag_48\n          jumpi\n            /* \"EmployeeManagement.sol\":2495:2521   */\n          0x00\n            /* \"EmployeeManagement.sol\":2532:2547   */\n          0x02\n            /* \"EmployeeManagement.sol\":2548:2549   */\n          dup3\n            /* \"EmployeeManagement.sol\":2532:2550   */\n          dup2\n          sload\n          dup2\n          lt\n          tag_50\n          jumpi\n          tag_51\n          tag_52\n          jump\t// in\n        tag_51:\n        tag_50:\n          swap1\n          0x00\n          mstore\n          keccak256(0x00, 0x20)\n          add\n          0x00\n          swap1\n          sload\n          swap1\n          0x0100\n          exp\n          swap1\n          div\n          0xffffffffffffffffffffffffffffffffffffffff\n          and\n            /* \"EmployeeManagement.sol\":2495:2551   */\n          swap1\n          pop\n            /* \"EmployeeManagement.sol\":2565:2579   */\n          0x00\n            /* \"EmployeeManagement.sol\":2582:2617   */\n          tag_54\n            /* \"EmployeeManagement.sol\":2595:2604   */\n          0x01\n            /* \"EmployeeManagement.sol\":2595:2616   */\n          0x00\n            /* \"EmployeeManagement.sol\":2605:2615   */\n          dup5\n            /* \"EmployeeManagement.sol\":2595:2616   */\n          0xffffffffffffffffffffffffffffffffffffffff\n          and\n          0xffffffffffffffffffffffffffffffffffffffff\n          and\n          dup2\n          mstore\n          0x20\n          add\n          swap1\n          dup2\n          mstore\n          0x20\n          add\n          0x00\n          keccak256\n            /* \"EmployeeManagement.sol\":2582:2617   */\n          mload(0x40)\n          dup1\n          0x80\n          add\n          0x40\n          mstore\n          swap1\n          dup2\n          0x00\n          dup3\n          add\n          0x00\n          swap1\n          sload\n          swap1\n          0x0100\n          exp\n          swap1\n          div\n          0xffffffffffffffffffffffffffffffffffffffff\n          and\n          0xffffffffffffffffffffffffffffffffffffffff\n          and\n          0xffffffffffffffffffffffffffffffffffffffff\n          and\n          dup2\n          mstore\n          0x20\n          add\n          0x01\n          dup3\n          add\n          sload\n          dup2\n          mstore\n          0x20\n          add\n          0x02\n          dup3\n          add\n          sload\n          dup2\n          mstore\n          0x20\n          add\n          0x03\n          dup3\n          add\n          sload\n          dup2\n          mstore\n          pop\n          pop\n            /* \"EmployeeManagement.sol\":2582:2594   */\n          tag_55\n            /* \"EmployeeManagement.sol\":2582:2617   */\n          jump\t// in\n        tag_54:\n            /* \"EmployeeManagement.sol\":2565:2617   */\n          swap1\n          pop\n            /* \"EmployeeManagement.sol\":2631:2648   */\n          0x00\n          dup1\n          sload\n          swap1\n          0x0100\n          exp\n          swap1\n          div\n          0xffffffffffffffffffffffffffffffffffffffff\n          and\n            /* \"EmployeeManagement.sol\":2631:2663   */\n          0xffffffffffffffffffffffffffffffffffffffff\n          and\n          0xd7081e03\n            /* \"EmployeeManagement.sol\":2664:2674   */\n          dup4\n            /* \"EmployeeManagement.sol\":2676:2685   */\n          dup4\n            /* \"EmployeeManagement.sol\":2631:2686   */\n          mload(0x40)\n          dup4\n          0xffffffff\n          and\n          0xe0\n          shl\n          dup2\n          mstore\n          0x04\n          add\n          tag_56\n          swap3\n          swap2\n          swap1\n          tag_57\n          jump\t// in\n        tag_56:\n          0x00\n          mload(0x40)\n          dup1\n          dup4\n          sub\n          dup2\n          0x00\n          dup8\n          dup1\n          extcodesize\n          iszero\n          dup1\n          iszero\n          tag_58\n          jumpi\n          0x00\n          dup1\n          revert\n        tag_58:\n          pop\n          gas\n          call\n          iszero\n          dup1\n          iszero\n          tag_60\n          jumpi\n          returndatasize\n          0x00\n          dup1\n          returndatacopy\n          revert(0x00, returndatasize)\n        tag_60:\n          pop\n          pop\n          pop\n          pop\n            /* \"EmployeeManagement.sol\":2790:2791   */\n          0x01\n            /* \"EmployeeManagement.sol\":2753:2762   */\n          dup1\n            /* \"EmployeeManagement.sol\":2753:2774   */\n          0x00\n            /* \"EmployeeManagement.sol\":2763:2773   */\n          dup5\n            /* \"EmployeeManagement.sol\":2753:2774   */\n          0xffffffffffffffffffffffffffffffffffffffff\n          and\n          0xffffffffffffffffffffffffffffffffffffffff\n          and\n          dup2\n          mstore\n          0x20\n          add\n          swap1\n          dup2\n          mstore\n          0x20\n          add\n          0x00\n          keccak256\n            /* \"EmployeeManagement.sol\":2753:2787   */\n          0x02\n          add\n            /* \"EmployeeManagement.sol\":2753:2791   */\n          dup2\n          swap1\n          sstore\n          pop\n            /* \"EmployeeManagement.sol\":2481:2802   */\n          pop\n          pop\n            /* \"EmployeeManagement.sol\":2476:2479   */\n          dup1\n          dup1\n          tag_61\n          swap1\n          tag_62\n          jump\t// in\n        tag_61:\n          swap2\n          pop\n          pop\n            /* \"EmployeeManagement.sol\":2430:2802   */\n          jump(tag_47)\n        tag_48:\n          pop\n            /* \"EmployeeManagement.sol\":2385:2808   */\n          jump\t// out\n            /* \"EmployeeManagement.sol\":465:497   */\n        tag_26:\n          0x02\n          dup2\n          dup2\n          sload\n          dup2\n          lt\n          tag_63\n          jumpi\n          0x00\n          dup1\n          revert\n        tag_63:\n          swap1\n          0x00\n          mstore\n          keccak256(0x00, 0x20)\n          add\n          0x00\n          swap2\n          pop\n          sload\n          swap1\n          0x0100\n          exp\n          swap1\n          div\n          0xffffffffffffffffffffffffffffffffffffffff\n          and\n          dup2\n          jump\t// out\n            /* \"EmployeeManagement.sol\":414:459   */\n        tag_31:\n          mstore(0x20, 0x01)\n          dup1\n          0x00\n          mstore\n          keccak256(0x00, 0x40)\n          0x00\n          swap2\n          pop\n          swap1\n          pop\n          dup1\n          0x00\n          add\n          0x00\n          swap1\n          sload\n          swap1\n          0x0100\n          exp\n          swap1\n          div\n          0xffffffffffffffffffffffffffffffffffffffff\n          and\n          swap1\n          dup1\n          0x01\n          add\n          sload\n          swap1\n          dup1\n          0x02\n          add\n          sload\n          swap1\n          dup1\n          0x03\n          add\n          sload\n          swap1\n          pop\n          dup5\n          jump\t// out\n            /* \"EmployeeManagement.sol\":911:1257   */\n        tag_36:\n            /* \"EmployeeManagement.sol\":976:985   */\n          0x01\n            /* \"EmployeeManagement.sol\":976:994   */\n          0x00\n            /* \"EmployeeManagement.sol\":986:993   */\n          dup3\n            /* \"EmployeeManagement.sol\":976:994   */\n          0xffffffffffffffffffffffffffffffffffffffff\n          and\n          0xffffffffffffffffffffffffffffffffffffffff\n          and\n          dup2\n          mstore\n          0x20\n          add\n          swap1\n          dup2\n          mstore\n          0x20\n          add\n          0x00\n          keccak256\n          0x00\n            /* \"EmployeeManagement.sol\":969:994   */\n          dup1\n          dup3\n          add\n          exp(0x0100, 0x00)\n          dup2\n          sload\n          swap1\n          0xffffffffffffffffffffffffffffffffffffffff\n          mul\n          not\n          and\n          swap1\n          sstore\n          0x01\n          dup3\n          add\n          0x00\n          swap1\n          sstore\n          0x02\n          dup3\n          add\n          0x00\n          swap1\n          sstore\n          0x03\n          dup3\n          add\n          0x00\n          swap1\n          sstore\n          pop\n          pop\n            /* \"EmployeeManagement.sol\":1005:1015   */\n          0x00\n            /* \"EmployeeManagement.sol\":1018:1036   */\n          tag_66\n            /* \"EmployeeManagement.sol\":1028:1035   */\n          dup3\n            /* \"EmployeeManagement.sol\":1018:1027   */\n          tag_67\n            /* \"EmployeeManagement.sol\":1018:1036   */\n          jump\t// in\n        tag_66:\n            /* \"EmployeeManagement.sol\":1005:1036   */\n          swap1\n          pop\n            /* \"EmployeeManagement.sol\":1059:1074   */\n          0x02\n            /* \"EmployeeManagement.sol\":1059:1081   */\n          dup1\n          sload\n          swap1\n          pop\n            /* \"EmployeeManagement.sol\":1051:1056   */\n          dup2\n            /* \"EmployeeManagement.sol\":1051:1081   */\n          lt\n            /* \"EmployeeManagement.sol\":1047:1211   */\n          iszero\n          tag_68\n          jumpi\n            /* \"EmployeeManagement.sol\":1122:1137   */\n          0x02\n            /* \"EmployeeManagement.sol\":1163:1164   */\n          0x01\n            /* \"EmployeeManagement.sol\":1138:1153   */\n          0x02\n            /* \"EmployeeManagement.sol\":1138:1160   */\n          dup1\n          sload\n          swap1\n          pop\n            /* \"EmployeeManagement.sol\":1138:1164   */\n          tag_69\n          swap2\n          swap1\n          tag_70\n          jump\t// in\n        tag_69:\n            /* \"EmployeeManagement.sol\":1122:1165   */\n          dup2\n          sload\n          dup2\n          lt\n          tag_71\n          jumpi\n          tag_72\n          tag_52\n          jump\t// in\n        tag_72:\n        tag_71:\n          swap1\n          0x00\n          mstore\n          keccak256(0x00, 0x20)\n          add\n          0x00\n          swap1\n          sload\n          swap1\n          0x0100\n          exp\n          swap1\n          div\n          0xffffffffffffffffffffffffffffffffffffffff\n          and\n            /* \"EmployeeManagement.sol\":1097:1112   */\n          0x02\n            /* \"EmployeeManagement.sol\":1113:1118   */\n          dup3\n            /* \"EmployeeManagement.sol\":1097:1119   */\n          dup2\n          sload\n          dup2\n          lt\n          tag_74\n          jumpi\n          tag_75\n          tag_52\n          jump\t// in\n        tag_75:\n        tag_74:\n          swap1\n          0x00\n          mstore\n          keccak256(0x00, 0x20)\n          add\n          0x00\n            /* \"EmployeeManagement.sol\":1097:1165   */\n          0x0100\n          exp\n          dup2\n          sload\n          dup2\n          0xffffffffffffffffffffffffffffffffffffffff\n          mul\n          not\n          and\n          swap1\n          dup4\n          0xffffffffffffffffffffffffffffffffffffffff\n          and\n          mul\n          or\n          swap1\n          sstore\n          pop\n            /* \"EmployeeManagement.sol\":1179:1194   */\n          0x02\n            /* \"EmployeeManagement.sol\":1179:1200   */\n          dup1\n          sload\n          dup1\n          tag_77\n          jumpi\n          tag_78\n          tag_79\n          jump\t// in\n        tag_78:\n        tag_77:\n          0x01\n          swap1\n          sub\n          dup2\n          dup2\n          swap1\n          0x00\n          mstore\n          keccak256(0x00, 0x20)\n          add\n          exp(0x0100, 0x00)\n          dup2\n          sload\n          swap1\n          0xffffffffffffffffffffffffffffffffffffffff\n          mul\n          not\n          and\n          swap1\n          sstore\n          swap1\n          sstore\n            /* \"EmployeeManagement.sol\":1047:1211   */\n        tag_68:\n            /* \"EmployeeManagement.sol\":1226:1250   */\n          0xabae6e64cb4315875c29d42347a312f5e9fce4ab564e9722b43dd78d0751135a\n            /* \"EmployeeManagement.sol\":1242:1249   */\n          dup3\n            /* \"EmployeeManagement.sol\":1226:1250   */\n          mload(0x40)\n          tag_81\n          swap2\n          swap1\n          tag_28\n          jump\t// in\n        tag_81:\n          mload(0x40)\n          dup1\n          swap2\n          sub\n          swap1\n          log1\n            /* \"EmployeeManagement.sol\":959:1257   */\n          pop\n            /* \"EmployeeManagement.sol\":911:1257   */\n          pop\n          jump\t// out\n            /* \"EmployeeManagement.sol\":1542:1881   */\n        tag_40:\n            /* \"EmployeeManagement.sol\":1658:1683   */\n          0x00\n            /* \"EmployeeManagement.sol\":1686:1695   */\n          0x01\n            /* \"EmployeeManagement.sol\":1686:1704   */\n          0x00\n            /* \"EmployeeManagement.sol\":1696:1703   */\n          dup7\n            /* \"EmployeeManagement.sol\":1686:1704   */\n          0xffffffffffffffffffffffffffffffffffffffff\n          and\n          0xffffffffffffffffffffffffffffffffffffffff\n          and\n          dup2\n          mstore\n          0x20\n          add\n          swap1\n          dup2\n          mstore\n          0x20\n          add\n          0x00\n          keccak256\n            /* \"EmployeeManagement.sol\":1658:1704   */\n          swap1\n          pop\n            /* \"EmployeeManagement.sol\":1732:1741   */\n          dup4\n            /* \"EmployeeManagement.sol\":1714:1722   */\n          dup2\n            /* \"EmployeeManagement.sol\":1714:1729   */\n          0x01\n          add\n            /* \"EmployeeManagement.sol\":1714:1741   */\n          dup2\n          swap1\n          sstore\n          pop\n            /* \"EmployeeManagement.sol\":1775:1790   */\n          dup3\n            /* \"EmployeeManagement.sol\":1751:1759   */\n          dup2\n            /* \"EmployeeManagement.sol\":1751:1772   */\n          0x02\n          add\n            /* \"EmployeeManagement.sol\":1751:1790   */\n          dup2\n          swap1\n          sstore\n          pop\n            /* \"EmployeeManagement.sol\":1822:1835   */\n          dup2\n            /* \"EmployeeManagement.sol\":1800:1808   */\n          dup2\n            /* \"EmployeeManagement.sol\":1800:1819   */\n          0x03\n          add\n            /* \"EmployeeManagement.sol\":1800:1835   */\n          dup2\n          swap1\n          sstore\n          pop\n            /* \"EmployeeManagement.sol\":1850:1874   */\n          0x99d48556be6117b7da7d33c0afce92eb9789b36c8ff5bb604695008834534796\n            /* \"EmployeeManagement.sol\":1866:1873   */\n          dup6\n            /* \"EmployeeManagement.sol\":1850:1874   */\n          mload(0x40)\n          tag_83\n          swap2\n          swap1\n          tag_28\n          jump\t// in\n        tag_83:\n          mload(0x40)\n          dup1\n          swap2\n          sub\n          swap1\n          log1\n            /* \"EmployeeManagement.sol\":1648:1881   */\n          pop\n            /* \"EmployeeManagement.sol\":1542:1881   */\n          pop\n          pop\n          pop\n          pop\n          jump\t// out\n            /* \"EmployeeManagement.sol\":2119:2379   */\n        tag_55:\n            /* \"EmployeeManagement.sol\":2184:2188   */\n          0x00\n            /* \"EmployeeManagement.sol\":2200:2216   */\n          dup1\n            /* \"EmployeeManagement.sol\":2255:2256   */\n          0x01\n            /* \"EmployeeManagement.sol\":2236:2239   */\n          dup4\n            /* \"EmployeeManagement.sol\":2236:2252   */\n          0x40\n          add\n          mload\n            /* \"EmployeeManagement.sol\":2219:2222   */\n          dup5\n            /* \"EmployeeManagement.sol\":2219:2233   */\n          0x60\n          add\n          mload\n            /* \"EmployeeManagement.sol\":2219:2252   */\n          tag_85\n          swap2\n          swap1\n          tag_70\n          jump\t// in\n        tag_85:\n            /* \"EmployeeManagement.sol\":2219:2256   */\n          tag_86\n          swap2\n          swap1\n          tag_87\n          jump\t// in\n        tag_86:\n            /* \"EmployeeManagement.sol\":2200:2256   */\n          swap1\n          pop\n            /* \"EmployeeManagement.sol\":2266:2276   */\n          0x00\n            /* \"EmployeeManagement.sol\":2279:2285   */\n          0x0de0b6b3a7640000\n            /* \"EmployeeManagement.sol\":2266:2285   */\n          swap1\n          pop\n            /* \"EmployeeManagement.sol\":2295:2306   */\n          0x00\n            /* \"EmployeeManagement.sol\":2345:2347   */\n          0x1e\n            /* \"EmployeeManagement.sol\":2332:2335   */\n          dup6\n            /* \"EmployeeManagement.sol\":2332:2342   */\n          0x20\n          add\n          mload\n            /* \"EmployeeManagement.sol\":2324:2329   */\n          dup4\n            /* \"EmployeeManagement.sol\":2310:2321   */\n          dup6\n            /* \"EmployeeManagement.sol\":2310:2329   */\n          tag_88\n          swap2\n          swap1\n          tag_89\n          jump\t// in\n        tag_88:\n            /* \"EmployeeManagement.sol\":2310:2342   */\n          tag_90\n          swap2\n          swap1\n          tag_89\n          jump\t// in\n        tag_90:\n            /* \"EmployeeManagement.sol\":2310:2347   */\n          tag_91\n          swap2\n          swap1\n          tag_92\n          jump\t// in\n        tag_91:\n            /* \"EmployeeManagement.sol\":2295:2348   */\n          swap1\n          pop\n            /* \"EmployeeManagement.sol\":2366:2372   */\n          dup1\n            /* \"EmployeeManagement.sol\":2359:2372   */\n          swap4\n          pop\n          pop\n          pop\n          pop\n            /* \"EmployeeManagement.sol\":2119:2379   */\n          swap2\n          swap1\n          pop\n          jump\t// out\n            /* \"EmployeeManagement.sol\":1263:1535   */\n        tag_67:\n            /* \"EmployeeManagement.sol\":1321:1325   */\n          0x00\n            /* \"EmployeeManagement.sol\":1342:1348   */\n          dup1\n            /* \"EmployeeManagement.sol\":1351:1352   */\n          0x00\n            /* \"EmployeeManagement.sol\":1342:1352   */\n          swap1\n          pop\n            /* \"EmployeeManagement.sol\":1337:1489   */\n        tag_94:\n            /* \"EmployeeManagement.sol\":1359:1374   */\n          0x02\n            /* \"EmployeeManagement.sol\":1359:1381   */\n          dup1\n          sload\n          swap1\n          pop\n            /* \"EmployeeManagement.sol\":1355:1356   */\n          dup2\n            /* \"EmployeeManagement.sol\":1355:1381   */\n          lt\n            /* \"EmployeeManagement.sol\":1337:1489   */\n          iszero\n          tag_95\n          jumpi\n            /* \"EmployeeManagement.sol\":1429:1436   */\n          dup3\n            /* \"EmployeeManagement.sol\":1407:1436   */\n          0xffffffffffffffffffffffffffffffffffffffff\n          and\n            /* \"EmployeeManagement.sol\":1407:1422   */\n          0x02\n            /* \"EmployeeManagement.sol\":1423:1424   */\n          dup3\n            /* \"EmployeeManagement.sol\":1407:1425   */\n          dup2\n          sload\n          dup2\n          lt\n          tag_97\n          jumpi\n          tag_98\n          tag_52\n          jump\t// in\n        tag_98:\n        tag_97:\n          swap1\n          0x00\n          mstore\n          keccak256(0x00, 0x20)\n          add\n          0x00\n          swap1\n          sload\n          swap1\n          0x0100\n          exp\n          swap1\n          div\n          0xffffffffffffffffffffffffffffffffffffffff\n          and\n            /* \"EmployeeManagement.sol\":1407:1436   */\n          0xffffffffffffffffffffffffffffffffffffffff\n          and\n          sub\n            /* \"EmployeeManagement.sol\":1403:1479   */\n          tag_100\n          jumpi\n            /* \"EmployeeManagement.sol\":1463:1464   */\n          dup1\n            /* \"EmployeeManagement.sol\":1456:1464   */\n          swap2\n          pop\n          pop\n          jump(tag_93)\n            /* \"EmployeeManagement.sol\":1403:1479   */\n        tag_100:\n            /* \"EmployeeManagement.sol\":1384:1387   */\n          dup1\n          dup1\n          tag_101\n          swap1\n          tag_62\n          jump\t// in\n        tag_101:\n          swap2\n          pop\n          pop\n            /* \"EmployeeManagement.sol\":1337:1489   */\n          jump(tag_94)\n        tag_95:\n          pop\n            /* \"EmployeeManagement.sol\":1506:1521   */\n          0x02\n            /* \"EmployeeManagement.sol\":1506:1528   */\n          dup1\n          sload\n          swap1\n          pop\n            /* \"EmployeeManagement.sol\":1499:1528   */\n          swap1\n          pop\n            /* \"EmployeeManagement.sol\":1263:1535   */\n        tag_93:\n          swap2\n          swap1\n          pop\n          jump\t// out\n            /* \"#utility.yul\":88:205   */\n        tag_103:\n            /* \"#utility.yul\":197:198   */\n          0x00\n            /* \"#utility.yul\":194:195   */\n          dup1\n            /* \"#utility.yul\":187:199   */\n          revert\n            /* \"#utility.yul\":334:460   */\n        tag_105:\n            /* \"#utility.yul\":371:378   */\n          0x00\n            /* \"#utility.yul\":411:453   */\n          0xffffffffffffffffffffffffffffffffffffffff\n            /* \"#utility.yul\":404:409   */\n          dup3\n            /* \"#utility.yul\":400:454   */\n          and\n            /* \"#utility.yul\":389:454   */\n          swap1\n          pop\n            /* \"#utility.yul\":334:460   */\n          swap2\n          swap1\n          pop\n          jump\t// out\n            /* \"#utility.yul\":466:562   */\n        tag_106:\n            /* \"#utility.yul\":503:510   */\n          0x00\n            /* \"#utility.yul\":532:556   */\n          tag_131\n            /* \"#utility.yul\":550:555   */\n          dup3\n            /* \"#utility.yul\":532:556   */\n          tag_105\n          jump\t// in\n        tag_131:\n            /* \"#utility.yul\":521:556   */\n          swap1\n          pop\n            /* \"#utility.yul\":466:562   */\n          swap2\n          swap1\n          pop\n          jump\t// out\n            /* \"#utility.yul\":568:690   */\n        tag_107:\n            /* \"#utility.yul\":641:665   */\n          tag_133\n            /* \"#utility.yul\":659:664   */\n          dup2\n            /* \"#utility.yul\":641:665   */\n          tag_106\n          jump\t// in\n        tag_133:\n            /* \"#utility.yul\":634:639   */\n          dup2\n            /* \"#utility.yul\":631:666   */\n          eq\n            /* \"#utility.yul\":621:684   */\n          tag_134\n          jumpi\n            /* \"#utility.yul\":680:681   */\n          0x00\n            /* \"#utility.yul\":677:678   */\n          dup1\n            /* \"#utility.yul\":670:682   */\n          revert\n            /* \"#utility.yul\":621:684   */\n        tag_134:\n            /* \"#utility.yul\":568:690   */\n          pop\n          jump\t// out\n            /* \"#utility.yul\":696:835   */\n        tag_108:\n            /* \"#utility.yul\":742:747   */\n          0x00\n            /* \"#utility.yul\":780:786   */\n          dup2\n            /* \"#utility.yul\":767:787   */\n          calldataload\n            /* \"#utility.yul\":758:787   */\n          swap1\n          pop\n            /* \"#utility.yul\":796:829   */\n          tag_136\n            /* \"#utility.yul\":823:828   */\n          dup2\n            /* \"#utility.yul\":796:829   */\n          tag_107\n          jump\t// in\n        tag_136:\n            /* \"#utility.yul\":696:835   */\n          swap3\n          swap2\n          pop\n          pop\n          jump\t// out\n            /* \"#utility.yul\":841:1170   */\n        tag_13:\n            /* \"#utility.yul\":900:906   */\n          0x00\n            /* \"#utility.yul\":949:951   */\n          0x20\n            /* \"#utility.yul\":937:946   */\n          dup3\n            /* \"#utility.yul\":928:935   */\n          dup5\n            /* \"#utility.yul\":924:947   */\n          sub\n            /* \"#utility.yul\":920:952   */\n          slt\n            /* \"#utility.yul\":917:1036   */\n          iszero\n          tag_138\n          jumpi\n            /* \"#utility.yul\":955:1034   */\n          tag_139\n          tag_103\n          jump\t// in\n        tag_139:\n            /* \"#utility.yul\":917:1036   */\n        tag_138:\n            /* \"#utility.yul\":1075:1076   */\n          0x00\n            /* \"#utility.yul\":1100:1153   */\n          tag_140\n            /* \"#utility.yul\":1145:1152   */\n          dup5\n            /* \"#utility.yul\":1136:1142   */\n          dup3\n            /* \"#utility.yul\":1125:1134   */\n          dup6\n            /* \"#utility.yul\":1121:1143   */\n          add\n            /* \"#utility.yul\":1100:1153   */\n          tag_108\n          jump\t// in\n        tag_140:\n            /* \"#utility.yul\":1090:1153   */\n          swap2\n          pop\n            /* \"#utility.yul\":1046:1163   */\n          pop\n            /* \"#utility.yul\":841:1170   */\n          swap3\n          swap2\n          pop\n          pop\n          jump\t// out\n            /* \"#utility.yul\":1176:1294   */\n        tag_109:\n            /* \"#utility.yul\":1263:1287   */\n          tag_142\n            /* \"#utility.yul\":1281:1286   */\n          dup2\n            /* \"#utility.yul\":1263:1287   */\n          tag_106\n          jump\t// in\n        tag_142:\n            /* \"#utility.yul\":1258:1261   */\n          dup3\n            /* \"#utility.yul\":1251:1288   */\n          mstore\n            /* \"#utility.yul\":1176:1294   */\n          pop\n          pop\n          jump\t// out\n            /* \"#utility.yul\":1300:1377   */\n        tag_110:\n            /* \"#utility.yul\":1337:1344   */\n          0x00\n            /* \"#utility.yul\":1366:1371   */\n          dup2\n            /* \"#utility.yul\":1355:1371   */\n          swap1\n          pop\n            /* \"#utility.yul\":1300:1377   */\n          swap2\n          swap1\n          pop\n          jump\t// out\n            /* \"#utility.yul\":1383:1501   */\n        tag_111:\n            /* \"#utility.yul\":1470:1494   */\n          tag_145\n            /* \"#utility.yul\":1488:1493   */\n          dup2\n            /* \"#utility.yul\":1470:1494   */\n          tag_110\n          jump\t// in\n        tag_145:\n            /* \"#utility.yul\":1465:1468   */\n          dup3\n            /* \"#utility.yul\":1458:1495   */\n          mstore\n            /* \"#utility.yul\":1383:1501   */\n          pop\n          pop\n          jump\t// out\n            /* \"#utility.yul\":1507:2060   */\n        tag_16:\n            /* \"#utility.yul\":1684:1688   */\n          0x00\n            /* \"#utility.yul\":1722:1725   */\n          0x80\n            /* \"#utility.yul\":1711:1720   */\n          dup3\n            /* \"#utility.yul\":1707:1726   */\n          add\n            /* \"#utility.yul\":1699:1726   */\n          swap1\n          pop\n            /* \"#utility.yul\":1736:1807   */\n          tag_147\n            /* \"#utility.yul\":1804:1805   */\n          0x00\n            /* \"#utility.yul\":1793:1802   */\n          dup4\n            /* \"#utility.yul\":1789:1806   */\n          add\n            /* \"#utility.yul\":1780:1786   */\n          dup8\n            /* \"#utility.yul\":1736:1807   */\n          tag_109\n          jump\t// in\n        tag_147:\n            /* \"#utility.yul\":1817:1889   */\n          tag_148\n            /* \"#utility.yul\":1885:1887   */\n          0x20\n            /* \"#utility.yul\":1874:1883   */\n          dup4\n            /* \"#utility.yul\":1870:1888   */\n          add\n            /* \"#utility.yul\":1861:1867   */\n          dup7\n            /* \"#utility.yul\":1817:1889   */\n          tag_111\n          jump\t// in\n        tag_148:\n            /* \"#utility.yul\":1899:1971   */\n          tag_149\n            /* \"#utility.yul\":1967:1969   */\n          0x40\n            /* \"#utility.yul\":1956:1965   */\n          dup4\n            /* \"#utility.yul\":1952:1970   */\n          add\n            /* \"#utility.yul\":1943:1949   */\n          dup6\n            /* \"#utility.yul\":1899:1971   */\n          tag_111\n          jump\t// in\n        tag_149:\n            /* \"#utility.yul\":1981:2053   */\n          tag_150\n            /* \"#utility.yul\":2049:2051   */\n          0x60\n            /* \"#utility.yul\":2038:2047   */\n          dup4\n            /* \"#utility.yul\":2034:2052   */\n          add\n            /* \"#utility.yul\":2025:2031   */\n          dup5\n            /* \"#utility.yul\":1981:2053   */\n          tag_111\n          jump\t// in\n        tag_150:\n            /* \"#utility.yul\":1507:2060   */\n          swap6\n          swap5\n          pop\n          pop\n          pop\n          pop\n          pop\n          jump\t// out\n            /* \"#utility.yul\":2066:2170   */\n        tag_112:\n            /* \"#utility.yul\":2111:2118   */\n          0x00\n            /* \"#utility.yul\":2140:2164   */\n          tag_152\n            /* \"#utility.yul\":2158:2163   */\n          dup3\n            /* \"#utility.yul\":2140:2164   */\n          tag_105\n          jump\t// in\n        tag_152:\n            /* \"#utility.yul\":2129:2164   */\n          swap1\n          pop\n            /* \"#utility.yul\":2066:2170   */\n          swap2\n          swap1\n          pop\n          jump\t// out\n            /* \"#utility.yul\":2176:2314   */\n        tag_113:\n            /* \"#utility.yul\":2257:2289   */\n          tag_154\n            /* \"#utility.yul\":2283:2288   */\n          dup2\n            /* \"#utility.yul\":2257:2289   */\n          tag_112\n          jump\t// in\n        tag_154:\n            /* \"#utility.yul\":2250:2255   */\n          dup2\n            /* \"#utility.yul\":2247:2290   */\n          eq\n            /* \"#utility.yul\":2237:2308   */\n          tag_155\n          jumpi\n            /* \"#utility.yul\":2304:2305   */\n          0x00\n            /* \"#utility.yul\":2301:2302   */\n          dup1\n            /* \"#utility.yul\":2294:2306   */\n          revert\n            /* \"#utility.yul\":2237:2308   */\n        tag_155:\n            /* \"#utility.yul\":2176:2314   */\n          pop\n          jump\t// out\n            /* \"#utility.yul\":2320:2475   */\n        tag_114:\n            /* \"#utility.yul\":2374:2379   */\n          0x00\n            /* \"#utility.yul\":2412:2418   */\n          dup2\n            /* \"#utility.yul\":2399:2419   */\n          calldataload\n            /* \"#utility.yul\":2390:2419   */\n          swap1\n          pop\n            /* \"#utility.yul\":2428:2469   */\n          tag_157\n            /* \"#utility.yul\":2463:2468   */\n          dup2\n            /* \"#utility.yul\":2428:2469   */\n          tag_113\n          jump\t// in\n        tag_157:\n            /* \"#utility.yul\":2320:2475   */\n          swap3\n          swap2\n          pop\n          pop\n          jump\t// out\n            /* \"#utility.yul\":2481:2603   */\n        tag_115:\n            /* \"#utility.yul\":2554:2578   */\n          tag_159\n            /* \"#utility.yul\":2572:2577   */\n          dup2\n            /* \"#utility.yul\":2554:2578   */\n          tag_110\n          jump\t// in\n        tag_159:\n            /* \"#utility.yul\":2547:2552   */\n          dup2\n            /* \"#utility.yul\":2544:2579   */\n          eq\n            /* \"#utility.yul\":2534:2597   */\n          tag_160\n          jumpi\n            /* \"#utility.yul\":2593:2594   */\n          0x00\n            /* \"#utility.yul\":2590:2591   */\n          dup1\n            /* \"#utility.yul\":2583:2595   */\n          revert\n            /* \"#utility.yul\":2534:2597   */\n        tag_160:\n            /* \"#utility.yul\":2481:2603   */\n          pop\n          jump\t// out\n            /* \"#utility.yul\":2609:2748   */\n        tag_116:\n            /* \"#utility.yul\":2655:2660   */\n          0x00\n            /* \"#utility.yul\":2693:2699   */\n          dup2\n            /* \"#utility.yul\":2680:2700   */\n          calldataload\n            /* \"#utility.yul\":2671:2700   */\n          swap1\n          pop\n            /* \"#utility.yul\":2709:2742   */\n          tag_162\n            /* \"#utility.yul\":2736:2741   */\n          dup2\n            /* \"#utility.yul\":2709:2742   */\n          tag_115\n          jump\t// in\n        tag_162:\n            /* \"#utility.yul\":2609:2748   */\n          swap3\n          swap2\n          pop\n          pop\n          jump\t// out\n            /* \"#utility.yul\":2754:3535   */\n        tag_19:\n            /* \"#utility.yul\":2848:2854   */\n          0x00\n            /* \"#utility.yul\":2856:2862   */\n          dup1\n            /* \"#utility.yul\":2864:2870   */\n          0x00\n            /* \"#utility.yul\":2872:2878   */\n          dup1\n            /* \"#utility.yul\":2921:2924   */\n          0x80\n            /* \"#utility.yul\":2909:2918   */\n          dup6\n            /* \"#utility.yul\":2900:2907   */\n          dup8\n            /* \"#utility.yul\":2896:2919   */\n          sub\n            /* \"#utility.yul\":2892:2925   */\n          slt\n            /* \"#utility.yul\":2889:3009   */\n          iszero\n          tag_164\n          jumpi\n            /* \"#utility.yul\":2928:3007   */\n          tag_165\n          tag_103\n          jump\t// in\n        tag_165:\n            /* \"#utility.yul\":2889:3009   */\n        tag_164:\n            /* \"#utility.yul\":3048:3049   */\n          0x00\n            /* \"#utility.yul\":3073:3134   */\n          tag_166\n            /* \"#utility.yul\":3126:3133   */\n          dup8\n            /* \"#utility.yul\":3117:3123   */\n          dup3\n            /* \"#utility.yul\":3106:3115   */\n          dup9\n            /* \"#utility.yul\":3102:3124   */\n          add\n            /* \"#utility.yul\":3073:3134   */\n          tag_114\n          jump\t// in\n        tag_166:\n            /* \"#utility.yul\":3063:3134   */\n          swap5\n          pop\n            /* \"#utility.yul\":3019:3144   */\n          pop\n            /* \"#utility.yul\":3183:3185   */\n          0x20\n            /* \"#utility.yul\":3209:3262   */\n          tag_167\n            /* \"#utility.yul\":3254:3261   */\n          dup8\n            /* \"#utility.yul\":3245:3251   */\n          dup3\n            /* \"#utility.yul\":3234:3243   */\n          dup9\n            /* \"#utility.yul\":3230:3252   */\n          add\n            /* \"#utility.yul\":3209:3262   */\n          tag_116\n          jump\t// in\n        tag_167:\n            /* \"#utility.yul\":3199:3262   */\n          swap4\n          pop\n            /* \"#utility.yul\":3154:3272   */\n          pop\n            /* \"#utility.yul\":3311:3313   */\n          0x40\n            /* \"#utility.yul\":3337:3390   */\n          tag_168\n            /* \"#utility.yul\":3382:3389   */\n          dup8\n            /* \"#utility.yul\":3373:3379   */\n          dup3\n            /* \"#utility.yul\":3362:3371   */\n          dup9\n            /* \"#utility.yul\":3358:3380   */\n          add\n            /* \"#utility.yul\":3337:3390   */\n          tag_116\n          jump\t// in\n        tag_168:\n            /* \"#utility.yul\":3327:3390   */\n          swap3\n          pop\n            /* \"#utility.yul\":3282:3400   */\n          pop\n            /* \"#utility.yul\":3439:3441   */\n          0x60\n            /* \"#utility.yul\":3465:3518   */\n          tag_169\n            /* \"#utility.yul\":3510:3517   */\n          dup8\n            /* \"#utility.yul\":3501:3507   */\n          dup3\n            /* \"#utility.yul\":3490:3499   */\n          dup9\n            /* \"#utility.yul\":3486:3508   */\n          add\n            /* \"#utility.yul\":3465:3518   */\n          tag_116\n          jump\t// in\n        tag_169:\n            /* \"#utility.yul\":3455:3518   */\n          swap2\n          pop\n            /* \"#utility.yul\":3410:3528   */\n          pop\n            /* \"#utility.yul\":2754:3535   */\n          swap3\n          swap6\n          swap2\n          swap5\n          pop\n          swap3\n          pop\n          jump\t// out\n            /* \"#utility.yul\":3541:3870   */\n        tag_25:\n            /* \"#utility.yul\":3600:3606   */\n          0x00\n            /* \"#utility.yul\":3649:3651   */\n          0x20\n            /* \"#utility.yul\":3637:3646   */\n          dup3\n            /* \"#utility.yul\":3628:3635   */\n          dup5\n            /* \"#utility.yul\":3624:3647   */\n          sub\n            /* \"#utility.yul\":3620:3652   */\n          slt\n            /* \"#utility.yul\":3617:3736   */\n          iszero\n          tag_171\n          jumpi\n            /* \"#utility.yul\":3655:3734   */\n          tag_172\n          tag_103\n          jump\t// in\n        tag_172:\n            /* \"#utility.yul\":3617:3736   */\n        tag_171:\n            /* \"#utility.yul\":3775:3776   */\n          0x00\n            /* \"#utility.yul\":3800:3853   */\n          tag_173\n            /* \"#utility.yul\":3845:3852   */\n          dup5\n            /* \"#utility.yul\":3836:3842   */\n          dup3\n            /* \"#utility.yul\":3825:3834   */\n          dup6\n            /* \"#utility.yul\":3821:3843   */\n          add\n            /* \"#utility.yul\":3800:3853   */\n          tag_116\n          jump\t// in\n        tag_173:\n            /* \"#utility.yul\":3790:3853   */\n          swap2\n          pop\n            /* \"#utility.yul\":3746:3863   */\n          pop\n            /* \"#utility.yul\":3541:3870   */\n          swap3\n          swap2\n          pop\n          pop\n          jump\t// out\n            /* \"#utility.yul\":3876:4098   */\n        tag_28:\n            /* \"#utility.yul\":3969:3973   */\n          0x00\n            /* \"#utility.yul\":4007:4009   */\n          0x20\n            /* \"#utility.yul\":3996:4005   */\n          dup3\n            /* \"#utility.yul\":3992:4010   */\n          add\n            /* \"#utility.yul\":3984:4010   */\n          swap1\n          pop\n            /* \"#utility.yul\":4020:4091   */\n          tag_175\n            /* \"#utility.yul\":4088:4089   */\n          0x00\n            /* \"#utility.yul\":4077:4086   */\n          dup4\n            /* \"#utility.yul\":4073:4090   */\n          add\n            /* \"#utility.yul\":4064:4070   */\n          dup5\n            /* \"#utility.yul\":4020:4091   */\n          tag_109\n          jump\t// in\n        tag_175:\n            /* \"#utility.yul\":3876:4098   */\n          swap3\n          swap2\n          pop\n          pop\n          jump\t// out\n            /* \"#utility.yul\":4104:4246   */\n        tag_117:\n            /* \"#utility.yul\":4207:4239   */\n          tag_177\n            /* \"#utility.yul\":4233:4238   */\n          dup2\n            /* \"#utility.yul\":4207:4239   */\n          tag_112\n          jump\t// in\n        tag_177:\n            /* \"#utility.yul\":4202:4205   */\n          dup3\n            /* \"#utility.yul\":4195:4240   */\n          mstore\n            /* \"#utility.yul\":4104:4246   */\n          pop\n          pop\n          jump\t// out\n            /* \"#utility.yul\":4252:4837   */\n        tag_33:\n            /* \"#utility.yul\":4445:4449   */\n          0x00\n            /* \"#utility.yul\":4483:4486   */\n          0x80\n            /* \"#utility.yul\":4472:4481   */\n          dup3\n            /* \"#utility.yul\":4468:4487   */\n          add\n            /* \"#utility.yul\":4460:4487   */\n          swap1\n          pop\n            /* \"#utility.yul\":4497:4584   */\n          tag_179\n            /* \"#utility.yul\":4581:4582   */\n          0x00\n            /* \"#utility.yul\":4570:4579   */\n          dup4\n            /* \"#utility.yul\":4566:4583   */\n          add\n            /* \"#utility.yul\":4557:4563   */\n          dup8\n            /* \"#utility.yul\":4497:4584   */\n          tag_117\n          jump\t// in\n        tag_179:\n            /* \"#utility.yul\":4594:4666   */\n          tag_180\n            /* \"#utility.yul\":4662:4664   */\n          0x20\n            /* \"#utility.yul\":4651:4660   */\n          dup4\n            /* \"#utility.yul\":4647:4665   */\n          add\n            /* \"#utility.yul\":4638:4644   */\n          dup7\n            /* \"#utility.yul\":4594:4666   */\n          tag_111\n          jump\t// in\n        tag_180:\n            /* \"#utility.yul\":4676:4748   */\n          tag_181\n            /* \"#utility.yul\":4744:4746   */\n          0x40\n            /* \"#utility.yul\":4733:4742   */\n          dup4\n            /* \"#utility.yul\":4729:4747   */\n          add\n            /* \"#utility.yul\":4720:4726   */\n          dup6\n            /* \"#utility.yul\":4676:4748   */\n          tag_111\n          jump\t// in\n        tag_181:\n            /* \"#utility.yul\":4758:4830   */\n          tag_182\n            /* \"#utility.yul\":4826:4828   */\n          0x60\n            /* \"#utility.yul\":4815:4824   */\n          dup4\n            /* \"#utility.yul\":4811:4829   */\n          add\n            /* \"#utility.yul\":4802:4808   */\n          dup5\n            /* \"#utility.yul\":4758:4830   */\n          tag_111\n          jump\t// in\n        tag_182:\n            /* \"#utility.yul\":4252:4837   */\n          swap6\n          swap5\n          pop\n          pop\n          pop\n          pop\n          pop\n          jump\t// out\n            /* \"#utility.yul\":4843:5608   */\n        tag_39:\n            /* \"#utility.yul\":4929:4935   */\n          0x00\n            /* \"#utility.yul\":4937:4943   */\n          dup1\n            /* \"#utility.yul\":4945:4951   */\n          0x00\n            /* \"#utility.yul\":4953:4959   */\n          dup1\n            /* \"#utility.yul\":5002:5005   */\n          0x80\n            /* \"#utility.yul\":4990:4999   */\n          dup6\n            /* \"#utility.yul\":4981:4988   */\n          dup8\n            /* \"#utility.yul\":4977:5000   */\n          sub\n            /* \"#utility.yul\":4973:5006   */\n          slt\n            /* \"#utility.yul\":4970:5090   */\n          iszero\n          tag_184\n          jumpi\n            /* \"#utility.yul\":5009:5088   */\n          tag_185\n          tag_103\n          jump\t// in\n        tag_185:\n            /* \"#utility.yul\":4970:5090   */\n        tag_184:\n            /* \"#utility.yul\":5129:5130   */\n          0x00\n            /* \"#utility.yul\":5154:5207   */\n          tag_186\n            /* \"#utility.yul\":5199:5206   */\n          dup8\n            /* \"#utility.yul\":5190:5196   */\n          dup3\n            /* \"#utility.yul\":5179:5188   */\n          dup9\n            /* \"#utility.yul\":5175:5197   */\n          add\n            /* \"#utility.yul\":5154:5207   */\n          tag_108\n          jump\t// in\n        tag_186:\n            /* \"#utility.yul\":5144:5207   */\n          swap5\n          pop\n            /* \"#utility.yul\":5100:5217   */\n          pop\n            /* \"#utility.yul\":5256:5258   */\n          0x20\n            /* \"#utility.yul\":5282:5335   */\n          tag_187\n            /* \"#utility.yul\":5327:5334   */\n          dup8\n            /* \"#utility.yul\":5318:5324   */\n          dup3\n            /* \"#utility.yul\":5307:5316   */\n          dup9\n            /* \"#utility.yul\":5303:5325   */\n          add\n            /* \"#utility.yul\":5282:5335   */\n          tag_116\n          jump\t// in\n        tag_187:\n            /* \"#utility.yul\":5272:5335   */\n          swap4\n          pop\n            /* \"#utility.yul\":5227:5345   */\n          pop\n            /* \"#utility.yul\":5384:5386   */\n          0x40\n            /* \"#utility.yul\":5410:5463   */\n          tag_188\n            /* \"#utility.yul\":5455:5462   */\n          dup8\n            /* \"#utility.yul\":5446:5452   */\n          dup3\n            /* \"#utility.yul\":5435:5444   */\n          dup9\n            /* \"#utility.yul\":5431:5453   */\n          add\n            /* \"#utility.yul\":5410:5463   */\n          tag_116\n          jump\t// in\n        tag_188:\n            /* \"#utility.yul\":5400:5463   */\n          swap3\n          pop\n            /* \"#utility.yul\":5355:5473   */\n          pop\n            /* \"#utility.yul\":5512:5514   */\n          0x60\n            /* \"#utility.yul\":5538:5591   */\n          tag_189\n            /* \"#utility.yul\":5583:5590   */\n          dup8\n            /* \"#utility.yul\":5574:5580   */\n          dup3\n            /* \"#utility.yul\":5563:5572   */\n          dup9\n            /* \"#utility.yul\":5559:5581   */\n          add\n            /* \"#utility.yul\":5538:5591   */\n          tag_116\n          jump\t// in\n        tag_189:\n            /* \"#utility.yul\":5528:5591   */\n          swap2\n          pop\n            /* \"#utility.yul\":5483:5601   */\n          pop\n            /* \"#utility.yul\":4843:5608   */\n          swap3\n          swap6\n          swap2\n          swap5\n          pop\n          swap3\n          pop\n          jump\t// out\n            /* \"#utility.yul\":5614:5674   */\n        tag_118:\n            /* \"#utility.yul\":5642:5645   */\n          0x00\n            /* \"#utility.yul\":5663:5668   */\n          dup2\n            /* \"#utility.yul\":5656:5668   */\n          swap1\n          pop\n            /* \"#utility.yul\":5614:5674   */\n          swap2\n          swap1\n          pop\n          jump\t// out\n            /* \"#utility.yul\":5680:5822   */\n        tag_119:\n            /* \"#utility.yul\":5730:5739   */\n          0x00\n            /* \"#utility.yul\":5763:5816   */\n          tag_192\n            /* \"#utility.yul\":5781:5815   */\n          tag_193\n            /* \"#utility.yul\":5790:5814   */\n          tag_194\n            /* \"#utility.yul\":5808:5813   */\n          dup5\n            /* \"#utility.yul\":5790:5814   */\n          tag_105\n          jump\t// in\n        tag_194:\n            /* \"#utility.yul\":5781:5815   */\n          tag_118\n          jump\t// in\n        tag_193:\n            /* \"#utility.yul\":5763:5816   */\n          tag_105\n          jump\t// in\n        tag_192:\n            /* \"#utility.yul\":5750:5816   */\n          swap1\n          pop\n            /* \"#utility.yul\":5680:5822   */\n          swap2\n          swap1\n          pop\n          jump\t// out\n            /* \"#utility.yul\":5828:5954   */\n        tag_120:\n            /* \"#utility.yul\":5878:5887   */\n          0x00\n            /* \"#utility.yul\":5911:5948   */\n          tag_196\n            /* \"#utility.yul\":5942:5947   */\n          dup3\n            /* \"#utility.yul\":5911:5948   */\n          tag_119\n          jump\t// in\n        tag_196:\n            /* \"#utility.yul\":5898:5948   */\n          swap1\n          pop\n            /* \"#utility.yul\":5828:5954   */\n          swap2\n          swap1\n          pop\n          jump\t// out\n            /* \"#utility.yul\":5960:6094   */\n        tag_121:\n            /* \"#utility.yul\":6018:6027   */\n          0x00\n            /* \"#utility.yul\":6051:6088   */\n          tag_198\n            /* \"#utility.yul\":6082:6087   */\n          dup3\n            /* \"#utility.yul\":6051:6088   */\n          tag_120\n          jump\t// in\n        tag_198:\n            /* \"#utility.yul\":6038:6088   */\n          swap1\n          pop\n            /* \"#utility.yul\":5960:6094   */\n          swap2\n          swap1\n          pop\n          jump\t// out\n            /* \"#utility.yul\":6100:6247   */\n        tag_122:\n            /* \"#utility.yul\":6195:6240   */\n          tag_200\n            /* \"#utility.yul\":6234:6239   */\n          dup2\n            /* \"#utility.yul\":6195:6240   */\n          tag_121\n          jump\t// in\n        tag_200:\n            /* \"#utility.yul\":6190:6193   */\n          dup3\n            /* \"#utility.yul\":6183:6241   */\n          mstore\n            /* \"#utility.yul\":6100:6247   */\n          pop\n          pop\n          jump\t// out\n            /* \"#utility.yul\":6253:6491   */\n        tag_45:\n            /* \"#utility.yul\":6354:6358   */\n          0x00\n            /* \"#utility.yul\":6392:6394   */\n          0x20\n            /* \"#utility.yul\":6381:6390   */\n          dup3\n            /* \"#utility.yul\":6377:6395   */\n          add\n            /* \"#utility.yul\":6369:6395   */\n          swap1\n          pop\n            /* \"#utility.yul\":6405:6484   */\n          tag_202\n            /* \"#utility.yul\":6481:6482   */\n          0x00\n            /* \"#utility.yul\":6470:6479   */\n          dup4\n            /* \"#utility.yul\":6466:6483   */\n          add\n            /* \"#utility.yul\":6457:6463   */\n          dup5\n            /* \"#utility.yul\":6405:6484   */\n          tag_122\n          jump\t// in\n        tag_202:\n            /* \"#utility.yul\":6253:6491   */\n          swap3\n          swap2\n          pop\n          pop\n          jump\t// out\n            /* \"#utility.yul\":6497:6677   */\n        tag_52:\n            /* \"#utility.yul\":6545:6622   */\n          0x4e487b7100000000000000000000000000000000000000000000000000000000\n            /* \"#utility.yul\":6542:6543   */\n          0x00\n            /* \"#utility.yul\":6535:6623   */\n          mstore\n            /* \"#utility.yul\":6642:6646   */\n          0x32\n            /* \"#utility.yul\":6639:6640   */\n          0x04\n            /* \"#utility.yul\":6632:6647   */\n          mstore\n            /* \"#utility.yul\":6666:6670   */\n          0x24\n            /* \"#utility.yul\":6663:6664   */\n          0x00\n            /* \"#utility.yul\":6656:6671   */\n          revert\n            /* \"#utility.yul\":6683:7047   */\n        tag_57:\n            /* \"#utility.yul\":6820:6824   */\n          0x00\n            /* \"#utility.yul\":6858:6860   */\n          0x40\n            /* \"#utility.yul\":6847:6856   */\n          dup3\n            /* \"#utility.yul\":6843:6861   */\n          add\n            /* \"#utility.yul\":6835:6861   */\n          swap1\n          pop\n            /* \"#utility.yul\":6871:6958   */\n          tag_205\n            /* \"#utility.yul\":6955:6956   */\n          0x00\n            /* \"#utility.yul\":6944:6953   */\n          dup4\n            /* \"#utility.yul\":6940:6957   */\n          add\n            /* \"#utility.yul\":6931:6937   */\n          dup6\n            /* \"#utility.yul\":6871:6958   */\n          tag_117\n          jump\t// in\n        tag_205:\n            /* \"#utility.yul\":6968:7040   */\n          tag_206\n            /* \"#utility.yul\":7036:7038   */\n          0x20\n            /* \"#utility.yul\":7025:7034   */\n          dup4\n            /* \"#utility.yul\":7021:7039   */\n          add\n            /* \"#utility.yul\":7012:7018   */\n          dup5\n            /* \"#utility.yul\":6968:7040   */\n          tag_111\n          jump\t// in\n        tag_206:\n            /* \"#utility.yul\":6683:7047   */\n          swap4\n          swap3\n          pop\n          pop\n          pop\n          jump\t// out\n            /* \"#utility.yul\":7053:7233   */\n        tag_123:\n            /* \"#utility.yul\":7101:7178   */\n          0x4e487b7100000000000000000000000000000000000000000000000000000000\n            /* \"#utility.yul\":7098:7099   */\n          0x00\n            /* \"#utility.yul\":7091:7179   */\n          mstore\n            /* \"#utility.yul\":7198:7202   */\n          0x11\n            /* \"#utility.yul\":7195:7196   */\n          0x04\n            /* \"#utility.yul\":7188:7203   */\n          mstore\n            /* \"#utility.yul\":7222:7226   */\n          0x24\n            /* \"#utility.yul\":7219:7220   */\n          0x00\n            /* \"#utility.yul\":7212:7227   */\n          revert\n            /* \"#utility.yul\":7239:7472   */\n        tag_62:\n            /* \"#utility.yul\":7278:7281   */\n          0x00\n            /* \"#utility.yul\":7301:7325   */\n          tag_209\n            /* \"#utility.yul\":7319:7324   */\n          dup3\n            /* \"#utility.yul\":7301:7325   */\n          tag_110\n          jump\t// in\n        tag_209:\n            /* \"#utility.yul\":7292:7325   */\n          swap2\n          pop\n            /* \"#utility.yul\":7347:7413   */\n          0xffffffffffffffffffffffffffffffffffffffffffffffffffffffffffffffff\n            /* \"#utility.yul\":7340:7345   */\n          dup3\n            /* \"#utility.yul\":7337:7414   */\n          sub\n            /* \"#utility.yul\":7334:7437   */\n          tag_210\n          jumpi\n            /* \"#utility.yul\":7417:7435   */\n          tag_211\n          tag_123\n          jump\t// in\n        tag_211:\n            /* \"#utility.yul\":7334:7437   */\n        tag_210:\n            /* \"#utility.yul\":7464:7465   */\n          0x01\n            /* \"#utility.yul\":7457:7462   */\n          dup3\n            /* \"#utility.yul\":7453:7466   */\n          add\n            /* \"#utility.yul\":7446:7466   */\n          swap1\n          pop\n            /* \"#utility.yul\":7239:7472   */\n          swap2\n          swap1\n          pop\n          jump\t// out\n            /* \"#utility.yul\":7478:7672   */\n        tag_70:\n            /* \"#utility.yul\":7518:7522   */\n          0x00\n            /* \"#utility.yul\":7538:7558   */\n          tag_213\n            /* \"#utility.yul\":7556:7557   */\n          dup3\n            /* \"#utility.yul\":7538:7558   */\n          tag_110\n          jump\t// in\n        tag_213:\n            /* \"#utility.yul\":7533:7558   */\n          swap2\n          pop\n            /* \"#utility.yul\":7572:7592   */\n          tag_214\n            /* \"#utility.yul\":7590:7591   */\n          dup4\n            /* \"#utility.yul\":7572:7592   */\n          tag_110\n          jump\t// in\n        tag_214:\n            /* \"#utility.yul\":7567:7592   */\n          swap3\n          pop\n            /* \"#utility.yul\":7616:7617   */\n          dup3\n            /* \"#utility.yul\":7613:7614   */\n          dup3\n            /* \"#utility.yul\":7609:7618   */\n          sub\n            /* \"#utility.yul\":7601:7618   */\n          swap1\n          pop\n            /* \"#utility.yul\":7640:7641   */\n          dup2\n            /* \"#utility.yul\":7634:7638   */\n          dup2\n            /* \"#utility.yul\":7631:7642   */\n          gt\n            /* \"#utility.yul\":7628:7665   */\n          iszero\n          tag_215\n          jumpi\n            /* \"#utility.yul\":7645:7663   */\n          tag_216\n          tag_123\n          jump\t// in\n        tag_216:\n            /* \"#utility.yul\":7628:7665   */\n        tag_215:\n            /* \"#utility.yul\":7478:7672   */\n          swap3\n          swap2\n          pop\n          pop\n          jump\t// out\n            /* \"#utility.yul\":7678:7858   */\n        tag_79:\n            /* \"#utility.yul\":7726:7803   */\n          0x4e487b7100000000000000000000000000000000000000000000000000000000\n            /* \"#utility.yul\":7723:7724   */\n          0x00\n            /* \"#utility.yul\":7716:7804   */\n          mstore\n            /* \"#utility.yul\":7823:7827   */\n          0x31\n            /* \"#utility.yul\":7820:7821   */\n          0x04\n            /* \"#utility.yul\":7813:7828   */\n          mstore\n            /* \"#utility.yul\":7847:7851   */\n          0x24\n            /* \"#utility.yul\":7844:7845   */\n          0x00\n            /* \"#utility.yul\":7837:7852   */\n          revert\n            /* \"#utility.yul\":7864:8055   */\n        tag_87:\n            /* \"#utility.yul\":7904:7907   */\n          0x00\n            /* \"#utility.yul\":7923:7943   */\n          tag_219\n            /* \"#utility.yul\":7941:7942   */\n          dup3\n            /* \"#utility.yul\":7923:7943   */\n          tag_110\n          jump\t// in\n        tag_219:\n            /* \"#utility.yul\":7918:7943   */\n          swap2\n          pop\n            /* \"#utility.yul\":7957:7977   */\n          tag_220\n            /* \"#utility.yul\":7975:7976   */\n          dup4\n            /* \"#utility.yul\":7957:7977   */\n          tag_110\n          jump\t// in\n        tag_220:\n            /* \"#utility.yul\":7952:7977   */\n          swap3\n          pop\n            /* \"#utility.yul\":8000:8001   */\n          dup3\n            /* \"#utility.yul\":7997:7998   */\n          dup3\n            /* \"#utility.yul\":7993:8002   */\n          add\n            /* \"#utility.yul\":7986:8002   */\n          swap1\n          pop\n            /* \"#utility.yul\":8021:8024   */\n          dup1\n            /* \"#utility.yul\":8018:8019   */\n          dup3\n            /* \"#utility.yul\":8015:8025   */\n          gt\n            /* \"#utility.yul\":8012:8048   */\n          iszero\n          tag_221\n          jumpi\n            /* \"#utility.yul\":8028:8046   */\n          tag_222\n          tag_123\n          jump\t// in\n        tag_222:\n            /* \"#utility.yul\":8012:8048   */\n        tag_221:\n            /* \"#utility.yul\":7864:8055   */\n          swap3\n          swap2\n          pop\n          pop\n          jump\t// out\n            /* \"#utility.yul\":8061:8471   */\n        tag_89:\n            /* \"#utility.yul\":8101:8108   */\n          0x00\n            /* \"#utility.yul\":8124:8144   */\n          tag_224\n            /* \"#utility.yul\":8142:8143   */\n          dup3\n            /* \"#utility.yul\":8124:8144   */\n          tag_110\n          jump\t// in\n        tag_224:\n            /* \"#utility.yul\":8119:8144   */\n          swap2\n          pop\n            /* \"#utility.yul\":8158:8178   */\n          tag_225\n            /* \"#utility.yul\":8176:8177   */\n          dup4\n            /* \"#utility.yul\":8158:8178   */\n          tag_110\n          jump\t// in\n        tag_225:\n            /* \"#utility.yul\":8153:8178   */\n          swap3\n          pop\n            /* \"#utility.yul\":8213:8214   */\n          dup3\n            /* \"#utility.yul\":8210:8211   */\n          dup3\n            /* \"#utility.yul\":8206:8215   */\n          mul\n            /* \"#utility.yul\":8235:8265   */\n          tag_226\n            /* \"#utility.yul\":8253:8264   */\n          dup2\n            /* \"#utility.yul\":8235:8265   */\n          tag_110\n          jump\t// in\n        tag_226:\n            /* \"#utility.yul\":8224:8265   */\n          swap2\n          pop\n            /* \"#utility.yul\":8414:8415   */\n          dup3\n            /* \"#utility.yul\":8405:8412   */\n          dup3\n            /* \"#utility.yul\":8401:8416   */\n          div\n            /* \"#utility.yul\":8398:8399   */\n          dup5\n            /* \"#utility.yul\":8395:8417   */\n          eq\n            /* \"#utility.yul\":8375:8376   */\n          dup4\n            /* \"#utility.yul\":8368:8377   */\n          iszero\n            /* \"#utility.yul\":8348:8431   */\n          or\n            /* \"#utility.yul\":8325:8464   */\n          tag_227\n          jumpi\n            /* \"#utility.yul\":8444:8462   */\n          tag_228\n          tag_123\n          jump\t// in\n        tag_228:\n            /* \"#utility.yul\":8325:8464   */\n        tag_227:\n            /* \"#utility.yul\":8109:8471   */\n          pop\n            /* \"#utility.yul\":8061:8471   */\n          swap3\n          swap2\n          pop\n          pop\n          jump\t// out\n            /* \"#utility.yul\":8477:8657   */\n        tag_124:\n            /* \"#utility.yul\":8525:8602   */\n          0x4e487b7100000000000000000000000000000000000000000000000000000000\n            /* \"#utility.yul\":8522:8523   */\n          0x00\n            /* \"#utility.yul\":8515:8603   */\n          mstore\n            /* \"#utility.yul\":8622:8626   */\n          0x12\n            /* \"#utility.yul\":8619:8620   */\n          0x04\n            /* \"#utility.yul\":8612:8627   */\n          mstore\n            /* \"#utility.yul\":8646:8650   */\n          0x24\n            /* \"#utility.yul\":8643:8644   */\n          0x00\n            /* \"#utility.yul\":8636:8651   */\n          revert\n            /* \"#utility.yul\":8663:8848   */\n        tag_92:\n            /* \"#utility.yul\":8703:8704   */\n          0x00\n            /* \"#utility.yul\":8720:8740   */\n          tag_231\n            /* \"#utility.yul\":8738:8739   */\n          dup3\n            /* \"#utility.yul\":8720:8740   */\n          tag_110\n          jump\t// in\n        tag_231:\n            /* \"#utility.yul\":8715:8740   */\n          swap2\n          pop\n            /* \"#utility.yul\":8754:8774   */\n          tag_232\n            /* \"#utility.yul\":8772:8773   */\n          dup4\n            /* \"#utility.yul\":8754:8774   */\n          tag_110\n          jump\t// in\n        tag_232:\n            /* \"#utility.yul\":8749:8774   */\n          swap3\n          pop\n            /* \"#utility.yul\":8793:8794   */\n          dup3\n            /* \"#utility.yul\":8783:8818   */\n          tag_233\n          jumpi\n            /* \"#utility.yul\":8798:8816   */\n          tag_234\n          tag_124\n          jump\t// in\n        tag_234:\n            /* \"#utility.yul\":8783:8818   */\n        tag_233:\n            /* \"#utility.yul\":8840:8841   */\n          dup3\n            /* \"#utility.yul\":8837:8838   */\n          dup3\n            /* \"#utility.yul\":8833:8842   */\n          div\n            /* \"#utility.yul\":8828:8842   */\n          swap1\n          pop\n            /* \"#utility.yul\":8663:8848   */\n          swap3\n          swap2\n          pop\n          pop\n          jump\t// out\n\n        auxdata: 0xa264697066735822122094091ce72a23f3416b6eb14b72ae43a46411e65c57e5aa0ecef03d9cb7d93c6a64736f6c63430008130033\n    }\n}\n","bytecode":{"linkReferences":{},"object":"60806040523480156200001157600080fd5b50336000806101000a81548173ffffffffffffffffffffffffffffffffffffffff021916908373ffffffffffffffffffffffffffffffffffffffff16021790555060405162000060906200015f565b604051809103906000f0801580156200007d573d6000803e3d6000fd5b50600160006101000a81548173ffffffffffffffffffffffffffffffffffffffff021916908373ffffffffffffffffffffffffffffffffffffffff160217905550600160009054906101000a900473ffffffffffffffffffffffffffffffffffffffff16604051620000ef906200016d565b620000fb919062000206565b604051809103906000f08015801562000118573d6000803e3d6000fd5b50600260006101000a81548173ffffffffffffffffffffffffffffffffffffffff021916908373ffffffffffffffffffffffffffffffffffffffff16021790555062000223565b6104bf8062000d3e83390190565b6110be80620011fd83390190565b600073ffffffffffffffffffffffffffffffffffffffff82169050919050565b6000819050919050565b6000620001c6620001c0620001ba846200017b565b6200019b565b6200017b565b9050919050565b6000620001da82620001a5565b9050919050565b6000620001ee82620001cd565b9050919050565b6200020081620001e1565b82525050565b60006020820190506200021d6000830184620001f5565b92915050565b610b0b80620002336000396000f3fe6080604052600436106100915760003560e01c8063c71daccb11610059578063c71daccb1461016c578063ccff137a14610197578063d108177a146101c2578063df47a353146101eb578063e2c41dbc1461021457610091565b80631caafcf1146100965780634a4247d9146100d657806364ca0981146100ff578063809e9ef51461012a5780638da5cb5b14610141575b600080fd5b3480156100a257600080fd5b506100bd60048036038101906100b89190610705565b61021e565b6040516100cd949392919061075a565b60405180910390f35b3480156100e257600080fd5b506100fd60048036038101906100f89190610809565b6102cf565b005b34801561010b57600080fd5b50610114610368565b60405161012191906108cf565b60405180910390f35b34801561013657600080fd5b5061013f61038e565b005b34801561014d57600080fd5b50610156610412565b60405161016391906108ea565b60405180910390f35b34801561017857600080fd5b50610181610436565b60405161018e9190610905565b60405180910390f35b3480156101a357600080fd5b506101ac6104ce565b6040516101b99190610941565b60405180910390f35b3480156101ce57600080fd5b506101e960048036038101906101e49190610705565b6104f4565b005b3480156101f757600080fd5b50610212600480360381019061020d919061095c565b610584565b005b61021c61061d565b005b600080600080600260009054906101000a900473ffffffffffffffffffffffffffffffffffffffff1673ffffffffffffffffffffffffffffffffffffffff16631caafcf1866040518263ffffffff1660e01b815260040161027f91906108ea565b608060405180830381865afa15801561029c573d6000803e3d6000fd5b505050506040513d601f19601f820116820180604052508101906102c091906109ed565b93509350935093509193509193565b600260009054906101000a900473ffffffffffffffffffffffffffffffffffffffff1673ffffffffffffffffffffffffffffffffffffffff16634a4247d9858585856040518563ffffffff1660e01b81526004016103309493929190610a63565b600060405180830381600087803b15801561034a57600080fd5b505af115801561035e573d6000803e3d6000fd5b5050505050505050565b600160009054906101000a900473ffffffffffffffffffffffffffffffffffffffff1681565b600260009054906101000a900473ffffffffffffffffffffffffffffffffffffffff1673ffffffffffffffffffffffffffffffffffffffff1663809e9ef56040518163ffffffff1660e01b8152600401600060405180830381600087803b1580156103f857600080fd5b505af115801561040c573d6000803e3d6000fd5b50505050565b60008054906101000a900473ffffffffffffffffffffffffffffffffffffffff1681565b6000600160009054906101000a900473ffffffffffffffffffffffffffffffffffffffff1673ffffffffffffffffffffffffffffffffffffffff1663c71daccb6040518163ffffffff1660e01b8152600401602060405180830381865afa1580156104a5573d6000803e3d6000fd5b505050506040513d601f19601f820116820180604052508101906104c99190610aa8565b905090565b600260009054906101000a900473ffffffffffffffffffffffffffffffffffffffff1681565b600260009054906101000a900473ffffffffffffffffffffffffffffffffffffffff1673ffffffffffffffffffffffffffffffffffffffff1663d108177a826040518263ffffffff1660e01b815260040161054f91906108ea565b600060405180830381600087803b15801561056957600080fd5b505af115801561057d573d6000803e3d6000fd5b5050505050565b600260009054906101000a900473ffffffffffffffffffffffffffffffffffffffff1673ffffffffffffffffffffffffffffffffffffffff1663df47a353858585856040518563ffffffff1660e01b81526004016105e5949392919061075a565b600060405180830381600087803b1580156105ff57600080fd5b505af1158015610613573d6000803e3d6000fd5b5050505050505050565b600160009054906101000a900473ffffffffffffffffffffffffffffffffffffffff1673ffffffffffffffffffffffffffffffffffffffff1663e2c41dbc346040518263ffffffff1660e01b81526004016000604051808303818588803b15801561068757600080fd5b505af115801561069b573d6000803e3d6000fd5b5050505050565b600080fd5b600073ffffffffffffffffffffffffffffffffffffffff82169050919050565b60006106d2826106a7565b9050919050565b6106e2816106c7565b81146106ed57600080fd5b50565b6000813590506106ff816106d9565b92915050565b60006020828403121561071b5761071a6106a2565b5b6000610729848285016106f0565b91505092915050565b61073b816106c7565b82525050565b6000819050919050565b61075481610741565b82525050565b600060808201905061076f6000830187610732565b61077c602083018661074b565b610789604083018561074b565b610796606083018461074b565b95945050505050565b60006107aa826106a7565b9050919050565b6107ba8161079f565b81146107c557600080fd5b50565b6000813590506107d7816107b1565b92915050565b6107e681610741565b81146107f157600080fd5b50565b600081359050610803816107dd565b92915050565b60008060008060808587031215610823576108226106a2565b5b6000610831878288016107c8565b9450506020610842878288016107f4565b9350506040610853878288016107f4565b9250506060610864878288016107f4565b91505092959194509250565b6000819050919050565b600061089561089061088b846106a7565b610870565b6106a7565b9050919050565b60006108a78261087a565b9050919050565b60006108b98261089c565b9050919050565b6108c9816108ae565b82525050565b60006020820190506108e460008301846108c0565b92915050565b60006020820190506108ff6000830184610732565b92915050565b600060208201905061091a600083018461074b565b92915050565b600061092b8261089c565b9050919050565b61093b81610920565b82525050565b60006020820190506109566000830184610932565b92915050565b60008060008060808587031215610976576109756106a2565b5b6000610984878288016106f0565b9450506020610995878288016107f4565b93505060406109a6878288016107f4565b92505060606109b7878288016107f4565b91505092959194509250565b6000815190506109d2816106d9565b92915050565b6000815190506109e7816107dd565b92915050565b60008060008060808587031215610a0757610a066106a2565b5b6000610a15878288016109c3565b9450506020610a26878288016109d8565b9350506040610a37878288016109d8565b9250506060610a48878288016109d8565b91505092959194509250565b610a5d8161079f565b82525050565b6000608082019050610a786000830187610a54565b610a85602083018661074b565b610a92604083018561074b565b610a9f606083018461074b565b95945050505050565b600060208284031215610abe57610abd6106a2565b5b6000610acc848285016109d8565b9150509291505056fea26469706673582212209948040a6ae3614a472fc8cf251c27e123eb1568d953e270f459e98594ec247564736f6c63430008130033608060405234801561001057600080fd5b5061049f806100206000396000f3fe60806040526004361061003f5760003560e01c806357d9989c14610044578063c71daccb1461006d578063d7081e0314610098578063e2c41dbc146100c1575b600080fd5b34801561005057600080fd5b5061006b600480360381019061006691906102fa565b6100cb565b005b34801561007957600080fd5b50610082610192565b60405161008f9190610349565b60405180910390f35b3480156100a457600080fd5b506100bf60048036038101906100ba91906102fa565b61019a565b005b6100c9610228565b005b4781111561010e576040517f08c379a0000000000000000000000000000000000000000000000000000000008152600401610105906103c1565b60405180910390fd5b8173ffffffffffffffffffffffffffffffffffffffff166108fc829081150290604051600060405180830381858888f19350505050158015610154573d6000803e3d6000fd5b507f23d6711a1d031134a36921253c75aa59e967d38e369ac625992824315e204f208282604051610186929190610440565b60405180910390a15050565b600047905090565b478111156101dd576040517f08c379a00000000000000000000000000000000000000000000000000000000081526004016101d4906103c1565b60405180910390fd5b8173ffffffffffffffffffffffffffffffffffffffff166108fc829081150290604051600060405180830381858888f19350505050158015610223573d6000803e3d6000fd5b505050565b7f7cb5d45c1071f219bd2da1ea101758715bd52f23f2a707f2d9a0387dea18d906346040516102579190610349565b60405180910390a1565b600080fd5b600073ffffffffffffffffffffffffffffffffffffffff82169050919050565b600061029182610266565b9050919050565b6102a181610286565b81146102ac57600080fd5b50565b6000813590506102be81610298565b92915050565b6000819050919050565b6102d7816102c4565b81146102e257600080fd5b50565b6000813590506102f4816102ce565b92915050565b6000806040838503121561031157610310610261565b5b600061031f858286016102af565b9250506020610330858286016102e5565b9150509250929050565b610343816102c4565b82525050565b600060208201905061035e600083018461033a565b92915050565b600082825260208201905092915050565b7f496e73756666696369656e742066756e64730000000000000000000000000000600082015250565b60006103ab601283610364565b91506103b682610375565b602082019050919050565b600060208201905081810360008301526103da8161039e565b9050919050565b6000819050919050565b60006104066104016103fc84610266565b6103e1565b610266565b9050919050565b6000610418826103eb565b9050919050565b600061042a8261040d565b9050919050565b61043a8161041f565b82525050565b60006040820190506104556000830185610431565b610462602083018461033a565b939250505056fea264697066735822122012a8104adc02479ed6f02f267401ac3b441b74a5355642902d06a4349bd9f0ff64736f6c6343000813003360806040523480156200001157600080fd5b50604051620010be380380620010be8339818101604052810190620000379190620000fc565b806000806101000a81548173ffffffffffffffffffffffffffffffffffffffff021916908373ffffffffffffffffffffffffffffffffffffffff160217905550506200012e565b600080fd5b600073ffffffffffffffffffffffffffffffffffffffff82169050919050565b6000620000b08262000083565b9050919050565b6000620000c482620000a3565b9050919050565b620000d681620000b7565b8114620000e257600080fd5b50565b600081519050620000f681620000cb565b92915050565b6000602082840312156200011557620001146200007e565b5b60006200012584828501620000e5565b91505092915050565b610f80806200013e6000396000f3fe608060405234801561001057600080fd5b506004361061007d5760003560e01c8063be0e0da41161005b578063be0e0da4146100db578063d06789471461010b578063d108177a1461013e578063df47a3531461015a5761007d565b80631caafcf1146100825780634a4247d9146100b5578063809e9ef5146100d1575b600080fd5b61009c60048036038101906100979190610a5a565b610176565b6040516100ac9493929190610aaf565b60405180910390f35b6100cf60048036038101906100ca9190610b5e565b610262565b005b6100d96103e0565b005b6100f560048036038101906100f09190610bc5565b6105e9565b6040516101029190610bf2565b60405180910390f35b61012560048036038101906101209190610a5a565b610628565b6040516101359493929190610c1c565b60405180910390f35b61015860048036038101906101539190610a5a565b610678565b005b610174600480360381019061016f9190610c61565b610842565b005b6000806000806000600160008773ffffffffffffffffffffffffffffffffffffffff1673ffffffffffffffffffffffffffffffffffffffff1681526020019081526020016000206040518060800160405290816000820160009054906101000a900473ffffffffffffffffffffffffffffffffffffffff1673ffffffffffffffffffffffffffffffffffffffff1673ffffffffffffffffffffffffffffffffffffffff1681526020016001820154815260200160028201548152602001600382015481525050905080600001518160200151826040015183606001519450945094509450509193509193565b60405180608001604052808573ffffffffffffffffffffffffffffffffffffffff16815260200184815260200183815260200182815250600160008673ffffffffffffffffffffffffffffffffffffffff1673ffffffffffffffffffffffffffffffffffffffff16815260200190815260200160002060008201518160000160006101000a81548173ffffffffffffffffffffffffffffffffffffffff021916908373ffffffffffffffffffffffffffffffffffffffff1602179055506020820151816001015560408201518160020155606082015181600301559050506002849080600181540180825580915050600190039060005260206000200160009091909190916101000a81548173ffffffffffffffffffffffffffffffffffffffff021916908373ffffffffffffffffffffffffffffffffffffffff1602179055507f041109cfe10cfa549abb66b986d0a294ecc6c9ad39000abcb9c2afd422c8bd64846040516103d29190610d27565b60405180910390a150505050565b60005b6002805490508110156105e65760006002828154811061040657610405610d42565b5b9060005260206000200160009054906101000a900473ffffffffffffffffffffffffffffffffffffffff16905060006104fb600160008473ffffffffffffffffffffffffffffffffffffffff1673ffffffffffffffffffffffffffffffffffffffff1681526020019081526020016000206040518060800160405290816000820160009054906101000a900473ffffffffffffffffffffffffffffffffffffffff1673ffffffffffffffffffffffffffffffffffffffff1673ffffffffffffffffffffffffffffffffffffffff16815260200160018201548152602001600282015481526020016003820154815250506108de565b905060008054906101000a900473ffffffffffffffffffffffffffffffffffffffff1673ffffffffffffffffffffffffffffffffffffffff1663d7081e0383836040518363ffffffff1660e01b8152600401610558929190610d71565b600060405180830381600087803b15801561057257600080fd5b505af1158015610586573d6000803e3d6000fd5b5050505060018060008473ffffffffffffffffffffffffffffffffffffffff1673ffffffffffffffffffffffffffffffffffffffff16815260200190815260200160002060020181905550505080806105de90610dc9565b9150506103e3565b50565b600281815481106105f957600080fd5b906000526020600020016000915054906101000a900473ffffffffffffffffffffffffffffffffffffffff1681565b60016020528060005260406000206000915090508060000160009054906101000a900473ffffffffffffffffffffffffffffffffffffffff16908060010154908060020154908060030154905084565b600160008273ffffffffffffffffffffffffffffffffffffffff1673ffffffffffffffffffffffffffffffffffffffff168152602001908152602001600020600080820160006101000a81549073ffffffffffffffffffffffffffffffffffffffff02191690556001820160009055600282016000905560038201600090555050600061070482610946565b905060028054905081101561080757600260016002805490506107279190610e11565b8154811061073857610737610d42565b5b9060005260206000200160009054906101000a900473ffffffffffffffffffffffffffffffffffffffff166002828154811061077757610776610d42565b5b9060005260206000200160006101000a81548173ffffffffffffffffffffffffffffffffffffffff021916908373ffffffffffffffffffffffffffffffffffffffff16021790555060028054806107d1576107d0610e45565b5b6001900381819060005260206000200160006101000a81549073ffffffffffffffffffffffffffffffffffffffff021916905590555b7fabae6e64cb4315875c29d42347a312f5e9fce4ab564e9722b43dd78d0751135a826040516108369190610bf2565b60405180910390a15050565b6000600160008673ffffffffffffffffffffffffffffffffffffffff1673ffffffffffffffffffffffffffffffffffffffff16815260200190815260200160002090508381600101819055508281600201819055508181600301819055507f99d48556be6117b7da7d33c0afce92eb9789b36c8ff5bb604695008834534796856040516108cf9190610bf2565b60405180910390a15050505050565b6000806001836040015184606001516108f79190610e11565b6109019190610e74565b90506000670de0b6b3a764000090506000601e856020015183856109259190610ea8565b61092f9190610ea8565b6109399190610f19565b9050809350505050919050565b600080600090505b6002805490508110156109e8578273ffffffffffffffffffffffffffffffffffffffff166002828154811061098657610985610d42565b5b9060005260206000200160009054906101000a900473ffffffffffffffffffffffffffffffffffffffff1673ffffffffffffffffffffffffffffffffffffffff16036109d557809150506109f2565b80806109e090610dc9565b91505061094e565b5060028054905090505b919050565b600080fd5b600073ffffffffffffffffffffffffffffffffffffffff82169050919050565b6000610a27826109fc565b9050919050565b610a3781610a1c565b8114610a4257600080fd5b50565b600081359050610a5481610a2e565b92915050565b600060208284031215610a7057610a6f6109f7565b5b6000610a7e84828501610a45565b91505092915050565b610a9081610a1c565b82525050565b6000819050919050565b610aa981610a96565b82525050565b6000608082019050610ac46000830187610a87565b610ad16020830186610aa0565b610ade6040830185610aa0565b610aeb6060830184610aa0565b95945050505050565b6000610aff826109fc565b9050919050565b610b0f81610af4565b8114610b1a57600080fd5b50565b600081359050610b2c81610b06565b92915050565b610b3b81610a96565b8114610b4657600080fd5b50565b600081359050610b5881610b32565b92915050565b60008060008060808587031215610b7857610b776109f7565b5b6000610b8687828801610b1d565b9450506020610b9787828801610b49565b9350506040610ba887828801610b49565b9250506060610bb987828801610b49565b91505092959194509250565b600060208284031215610bdb57610bda6109f7565b5b6000610be984828501610b49565b91505092915050565b6000602082019050610c076000830184610a87565b92915050565b610c1681610af4565b82525050565b6000608082019050610c316000830187610c0d565b610c3e6020830186610aa0565b610c4b6040830185610aa0565b610c586060830184610aa0565b95945050505050565b60008060008060808587031215610c7b57610c7a6109f7565b5b6000610c8987828801610a45565b9450506020610c9a87828801610b49565b9350506040610cab87828801610b49565b9250506060610cbc87828801610b49565b91505092959194509250565b6000819050919050565b6000610ced610ce8610ce3846109fc565b610cc8565b6109fc565b9050919050565b6000610cff82610cd2565b9050919050565b6000610d1182610cf4565b9050919050565b610d2181610d06565b82525050565b6000602082019050610d3c6000830184610d18565b92915050565b7f4e487b7100000000000000000000000000000000000000000000000000000000600052603260045260246000fd5b6000604082019050610d866000830185610c0d565b610d936020830184610aa0565b9392505050565b7f4e487b7100000000000000000000000000000000000000000000000000000000600052601160045260246000fd5b6000610dd482610a96565b91507fffffffffffffffffffffffffffffffffffffffffffffffffffffffffffffffff8203610e0657610e05610d9a565b5b600182019050919050565b6000610e1c82610a96565b9150610e2783610a96565b9250828203905081811115610e3f57610e3e610d9a565b5b92915050565b7f4e487b7100000000000000000000000000000000000000000000000000000000600052603160045260246000fd5b6000610e7f82610a96565b9150610e8a83610a96565b9250828201905080821115610ea257610ea1610d9a565b5b92915050565b6000610eb382610a96565b9150610ebe83610a96565b9250828202610ecc81610a96565b91508282048414831517610ee357610ee2610d9a565b5b5092915050565b7f4e487b7100000000000000000000000000000000000000000000000000000000600052601260045260246000fd5b6000610f2482610a96565b9150610f2f83610a96565b925082610f3f57610f3e610eea565b5b82820490509291505056fea264697066735822122094091ce72a23f3416b6eb14b72ae43a46411e65c57e5aa0ecef03d9cb7d93c6a64736f6c63430008130033","opcodes":"PUSH1 0x80 PUSH1 0x40 MSTORE CALLVALUE DUP1 ISZERO PUSH3 0x11 JUMPI PUSH1 0x0 DUP1 REVERT JUMPDEST POP CALLER PUSH1 0x0 DUP1 PUSH2 0x100 EXP DUP2 SLOAD DUP2 PUSH20 0xFFFFFFFFFFFFFFFFFFFFFFFFFFFFFFFFFFFFFFFF MUL NOT AND SWAP1 DUP4 PUSH20 0xFFFFFFFFFFFFFFFFFFFFFFFFFFFFFFFFFFFFFFFF AND MUL OR SWAP1 SSTORE POP PUSH1 0x40 MLOAD PUSH3 0x60 SWAP1 PUSH3 0x15F JUMP JUMPDEST PUSH1 0x40 MLOAD DUP1 SWAP2 SUB SWAP1 PUSH1 0x0 CREATE DUP1 ISZERO DUP1 ISZERO PUSH3 0x7D JUMPI RETURNDATASIZE PUSH1 0x0 DUP1 RETURNDATACOPY RETURNDATASIZE PUSH1 0x0 REVERT JUMPDEST POP PUSH1 0x1 PUSH1 0x0 PUSH2 0x100 EXP DUP2 SLOAD DUP2 PUSH20 0xFFFFFFFFFFFFFFFFFFFFFFFFFFFFFFFFFFFFFFFF MUL NOT AND SWAP1 DUP4 PUSH20 0xFFFFFFFFFFFFFFFFFFFFFFFFFFFFFFFFFFFFFFFF AND MUL OR SWAP1 SSTORE POP PUSH1 0x1 PUSH1 0x0 SWAP1 SLOAD SWAP1 PUSH2 0x100 EXP SWAP1 DIV PUSH20 0xFFFFFFFFFFFFFFFFFFFFFFFFFFFFFFFFFFFFFFFF AND PUSH1 0x40 MLOAD PUSH3 0xEF SWAP1 PUSH3 0x16D JUMP JUMPDEST PUSH3 0xFB SWAP2 SWAP1 PUSH3 0x206 JUMP JUMPDEST PUSH1 0x40 MLOAD DUP1 SWAP2 SUB SWAP1 PUSH1 0x0 CREATE DUP1 ISZERO DUP1 ISZERO PUSH3 0x118 JUMPI RETURNDATASIZE PUSH1 0x0 DUP1 RETURNDATACOPY RETURNDATASIZE PUSH1 0x0 REVERT JUMPDEST POP PUSH1 0x2 PUSH1 0x0 PUSH2 0x100 EXP DUP2 SLOAD DUP2 PUSH20 0xFFFFFFFFFFFFFFFFFFFFFFFFFFFFFFFFFFFFFFFF MUL NOT AND SWAP1 DUP4 PUSH20 0xFFFFFFFFFFFFFFFFFFFFFFFFFFFFFFFFFFFFFFFF AND MUL OR SWAP1 SSTORE POP PUSH3 0x223 JUMP JUMPDEST PUSH2 0x4BF DUP1 PUSH3 0xD3E DUP4 CODECOPY ADD SWAP1 JUMP JUMPDEST PUSH2 0x10BE DUP1 PUSH3 0x11FD DUP4 CODECOPY ADD SWAP1 JUMP JUMPDEST PUSH1 0x0 PUSH20 0xFFFFFFFFFFFFFFFFFFFFFFFFFFFFFFFFFFFFFFFF DUP3 AND SWAP1 POP SWAP2 SWAP1 POP JUMP JUMPDEST PUSH1 0x0 DUP2 SWAP1 POP SWAP2 SWAP1 POP JUMP JUMPDEST PUSH1 0x0 PUSH3 0x1C6 PUSH3 0x1C0 PUSH3 0x1BA DUP5 PUSH3 0x17B JUMP JUMPDEST PUSH3 0x19B JUMP JUMPDEST PUSH3 0x17B JUMP JUMPDEST SWAP1 POP SWAP2 SWAP1 POP JUMP JUMPDEST PUSH1 0x0 PUSH3 0x1DA DUP3 PUSH3 0x1A5 JUMP JUMPDEST SWAP1 POP SWAP2 SWAP1 POP JUMP JUMPDEST PUSH1 0x0 PUSH3 0x1EE DUP3 PUSH3 0x1CD JUMP JUMPDEST SWAP1 POP SWAP2 SWAP1 POP JUMP JUMPDEST PUSH3 0x200 DUP2 PUSH3 0x1E1 JUMP JUMPDEST DUP3 MSTORE POP POP JUMP JUMPDEST PUSH1 0x0 PUSH1 0x20 DUP3 ADD SWAP1 POP PUSH3 0x21D PUSH1 0x0 DUP4 ADD DUP5 PUSH3 0x1F5 JUMP JUMPDEST SWAP3 SWAP2 POP POP JUMP JUMPDEST PUSH2 0xB0B DUP1 PUSH3 0x233 PUSH1 0x0 CODECOPY PUSH1 0x0 RETURN INVALID PUSH1 0x80 PUSH1 0x40 MSTORE PUSH1 0x4 CALLDATASIZE LT PUSH2 0x91 JUMPI PUSH1 0x0 CALLDATALOAD PUSH1 0xE0 SHR DUP1 PUSH4 0xC71DACCB GT PUSH2 0x59 JUMPI DUP1 PUSH4 0xC71DACCB EQ PUSH2 0x16C JUMPI DUP1 PUSH4 0xCCFF137A EQ PUSH2 0x197 JUMPI DUP1 PUSH4 0xD108177A EQ PUSH2 0x1C2 JUMPI DUP1 PUSH4 0xDF47A353 EQ PUSH2 0x1EB JUMPI DUP1 PUSH4 0xE2C41DBC EQ PUSH2 0x214 JUMPI PUSH2 0x91 JUMP JUMPDEST DUP1 PUSH4 0x1CAAFCF1 EQ PUSH2 0x96 JUMPI DUP1 PUSH4 0x4A4247D9 EQ PUSH2 0xD6 JUMPI DUP1 PUSH4 0x64CA0981 EQ PUSH2 0xFF JUMPI DUP1 PUSH4 0x809E9EF5 EQ PUSH2 0x12A JUMPI DUP1 PUSH4 0x8DA5CB5B EQ PUSH2 0x141 JUMPI JUMPDEST PUSH1 0x0 DUP1 REVERT JUMPDEST CALLVALUE DUP1 ISZERO PUSH2 0xA2 JUMPI PUSH1 0x0 DUP1 REVERT JUMPDEST POP PUSH2 0xBD PUSH1 0x4 DUP1 CALLDATASIZE SUB DUP2 ADD SWAP1 PUSH2 0xB8 SWAP2 SWAP1 PUSH2 0x705 JUMP JUMPDEST PUSH2 0x21E JUMP JUMPDEST PUSH1 0x40 MLOAD PUSH2 0xCD SWAP5 SWAP4 SWAP3 SWAP2 SWAP1 PUSH2 0x75A JUMP JUMPDEST PUSH1 0x40 MLOAD DUP1 SWAP2 SUB SWAP1 RETURN JUMPDEST CALLVALUE DUP1 ISZERO PUSH2 0xE2 JUMPI PUSH1 0x0 DUP1 REVERT JUMPDEST POP PUSH2 0xFD PUSH1 0x4 DUP1 CALLDATASIZE SUB DUP2 ADD SWAP1 PUSH2 0xF8 SWAP2 SWAP1 PUSH2 0x809 JUMP JUMPDEST PUSH2 0x2CF JUMP JUMPDEST STOP JUMPDEST CALLVALUE DUP1 ISZERO PUSH2 0x10B JUMPI PUSH1 0x0 DUP1 REVERT JUMPDEST POP PUSH2 0x114 PUSH2 0x368 JUMP JUMPDEST PUSH1 0x40 MLOAD PUSH2 0x121 SWAP2 SWAP1 PUSH2 0x8CF JUMP JUMPDEST PUSH1 0x40 MLOAD DUP1 SWAP2 SUB SWAP1 RETURN JUMPDEST CALLVALUE DUP1 ISZERO PUSH2 0x136 JUMPI PUSH1 0x0 DUP1 REVERT JUMPDEST POP PUSH2 0x13F PUSH2 0x38E JUMP JUMPDEST STOP JUMPDEST CALLVALUE DUP1 ISZERO PUSH2 0x14D JUMPI PUSH1 0x0 DUP1 REVERT JUMPDEST POP PUSH2 0x156 PUSH2 0x412 JUMP JUMPDEST PUSH1 0x40 MLOAD PUSH2 0x163 SWAP2 SWAP1 PUSH2 0x8EA JUMP JUMPDEST PUSH1 0x40 MLOAD DUP1 SWAP2 SUB SWAP1 RETURN JUMPDEST CALLVALUE DUP1 ISZERO PUSH2 0x178 JUMPI PUSH1 0x0 DUP1 REVERT JUMPDEST POP PUSH2 0x181 PUSH2 0x436 JUMP JUMPDEST PUSH1 0x40 MLOAD PUSH2 0x18E SWAP2 SWAP1 PUSH2 0x905 JUMP JUMPDEST PUSH1 0x40 MLOAD DUP1 SWAP2 SUB SWAP1 RETURN JUMPDEST CALLVALUE DUP1 ISZERO PUSH2 0x1A3 JUMPI PUSH1 0x0 DUP1 REVERT JUMPDEST POP PUSH2 0x1AC PUSH2 0x4CE JUMP JUMPDEST PUSH1 0x40 MLOAD PUSH2 0x1B9 SWAP2 SWAP1 PUSH2 0x941 JUMP JUMPDEST PUSH1 0x40 MLOAD DUP1 SWAP2 SUB SWAP1 RETURN JUMPDEST CALLVALUE DUP1 ISZERO PUSH2 0x1CE JUMPI PUSH1 0x0 DUP1 REVERT JUMPDEST POP PUSH2 0x1E9 PUSH1 0x4 DUP1 CALLDATASIZE SUB DUP2 ADD SWAP1 PUSH2 0x1E4 SWAP2 SWAP1 PUSH2 0x705 JUMP JUMPDEST PUSH2 0x4F4 JUMP JUMPDEST STOP JUMPDEST CALLVALUE DUP1 ISZERO PUSH2 0x1F7 JUMPI PUSH1 0x0 DUP1 REVERT JUMPDEST POP PUSH2 0x212 PUSH1 0x4 DUP1 CALLDATASIZE SUB DUP2 ADD SWAP1 PUSH2 0x20D SWAP2 SWAP1 PUSH2 0x95C JUMP JUMPDEST PUSH2 0x584 JUMP JUMPDEST STOP JUMPDEST PUSH2 0x21C PUSH2 0x61D JUMP JUMPDEST STOP JUMPDEST PUSH1 0x0 DUP1 PUSH1 0x0 DUP1 PUSH1 0x2 PUSH1 0x0 SWAP1 SLOAD SWAP1 PUSH2 0x100 EXP SWAP1 DIV PUSH20 0xFFFFFFFFFFFFFFFFFFFFFFFFFFFFFFFFFFFFFFFF AND PUSH20 0xFFFFFFFFFFFFFFFFFFFFFFFFFFFFFFFFFFFFFFFF AND PUSH4 0x1CAAFCF1 DUP7 PUSH1 0x40 MLOAD DUP3 PUSH4 0xFFFFFFFF AND PUSH1 0xE0 SHL DUP2 MSTORE PUSH1 0x4 ADD PUSH2 0x27F SWAP2 SWAP1 PUSH2 0x8EA JUMP JUMPDEST PUSH1 0x80 PUSH1 0x40 MLOAD DUP1 DUP4 SUB DUP2 DUP7 GAS STATICCALL ISZERO DUP1 ISZERO PUSH2 0x29C JUMPI RETURNDATASIZE PUSH1 0x0 DUP1 RETURNDATACOPY RETURNDATASIZE PUSH1 0x0 REVERT JUMPDEST POP POP POP POP PUSH1 0x40 MLOAD RETURNDATASIZE PUSH1 0x1F NOT PUSH1 0x1F DUP3 ADD AND DUP3 ADD DUP1 PUSH1 0x40 MSTORE POP DUP2 ADD SWAP1 PUSH2 0x2C0 SWAP2 SWAP1 PUSH2 0x9ED JUMP JUMPDEST SWAP4 POP SWAP4 POP SWAP4 POP SWAP4 POP SWAP2 SWAP4 POP SWAP2 SWAP4 JUMP JUMPDEST PUSH1 0x2 PUSH1 0x0 SWAP1 SLOAD SWAP1 PUSH2 0x100 EXP SWAP1 DIV PUSH20 0xFFFFFFFFFFFFFFFFFFFFFFFFFFFFFFFFFFFFFFFF AND PUSH20 0xFFFFFFFFFFFFFFFFFFFFFFFFFFFFFFFFFFFFFFFF AND PUSH4 0x4A4247D9 DUP6 DUP6 DUP6 DUP6 PUSH1 0x40 MLOAD DUP6 PUSH4 0xFFFFFFFF AND PUSH1 0xE0 SHL DUP2 MSTORE PUSH1 0x4 ADD PUSH2 0x330 SWAP5 SWAP4 SWAP3 SWAP2 SWAP1 PUSH2 0xA63 JUMP JUMPDEST PUSH1 0x0 PUSH1 0x40 MLOAD DUP1 DUP4 SUB DUP2 PUSH1 0x0 DUP8 DUP1 EXTCODESIZE ISZERO DUP1 ISZERO PUSH2 0x34A JUMPI PUSH1 0x0 DUP1 REVERT JUMPDEST POP GAS CALL ISZERO DUP1 ISZERO PUSH2 0x35E JUMPI RETURNDATASIZE PUSH1 0x0 DUP1 RETURNDATACOPY RETURNDATASIZE PUSH1 0x0 REVERT JUMPDEST POP POP POP POP POP POP POP POP JUMP JUMPDEST PUSH1 0x1 PUSH1 0x0 SWAP1 SLOAD SWAP1 PUSH2 0x100 EXP SWAP1 DIV PUSH20 0xFFFFFFFFFFFFFFFFFFFFFFFFFFFFFFFFFFFFFFFF AND DUP2 JUMP JUMPDEST PUSH1 0x2 PUSH1 0x0 SWAP1 SLOAD SWAP1 PUSH2 0x100 EXP SWAP1 DIV PUSH20 0xFFFFFFFFFFFFFFFFFFFFFFFFFFFFFFFFFFFFFFFF AND PUSH20 0xFFFFFFFFFFFFFFFFFFFFFFFFFFFFFFFFFFFFFFFF AND PUSH4 0x809E9EF5 PUSH1 0x40 MLOAD DUP2 PUSH4 0xFFFFFFFF AND PUSH1 0xE0 SHL DUP2 MSTORE PUSH1 0x4 ADD PUSH1 0x0 PUSH1 0x40 MLOAD DUP1 DUP4 SUB DUP2 PUSH1 0x0 DUP8 DUP1 EXTCODESIZE ISZERO DUP1 ISZERO PUSH2 0x3F8 JUMPI PUSH1 0x0 DUP1 REVERT JUMPDEST POP GAS CALL ISZERO DUP1 ISZERO PUSH2 0x40C JUMPI RETURNDATASIZE PUSH1 0x0 DUP1 RETURNDATACOPY RETURNDATASIZE PUSH1 0x0 REVERT JUMPDEST POP POP POP POP JUMP JUMPDEST PUSH1 0x0 DUP1 SLOAD SWAP1 PUSH2 0x100 EXP SWAP1 DIV PUSH20 0xFFFFFFFFFFFFFFFFFFFFFFFFFFFFFFFFFFFFFFFF AND DUP2 JUMP JUMPDEST PUSH1 0x0 PUSH1 0x1 PUSH1 0x0 SWAP1 SLOAD SWAP1 PUSH2 0x100 EXP SWAP1 DIV PUSH20 0xFFFFFFFFFFFFFFFFFFFFFFFFFFFFFFFFFFFFFFFF AND PUSH20 0xFFFFFFFFFFFFFFFFFFFFFFFFFFFFFFFFFFFFFFFF AND PUSH4 0xC71DACCB PUSH1 0x40 MLOAD DUP2 PUSH4 0xFFFFFFFF AND PUSH1 0xE0 SHL DUP2 MSTORE PUSH1 0x4 ADD PUSH1 0x20 PUSH1 0x40 MLOAD DUP1 DUP4 SUB DUP2 DUP7 GAS STATICCALL ISZERO DUP1 ISZERO PUSH2 0x4A5 JUMPI RETURNDATASIZE PUSH1 0x0 DUP1 RETURNDATACOPY RETURNDATASIZE PUSH1 0x0 REVERT JUMPDEST POP POP POP POP PUSH1 0x40 MLOAD RETURNDATASIZE PUSH1 0x1F NOT PUSH1 0x1F DUP3 ADD AND DUP3 ADD DUP1 PUSH1 0x40 MSTORE POP DUP2 ADD SWAP1 PUSH2 0x4C9 SWAP2 SWAP1 PUSH2 0xAA8 JUMP JUMPDEST SWAP1 POP SWAP1 JUMP JUMPDEST PUSH1 0x2 PUSH1 0x0 SWAP1 SLOAD SWAP1 PUSH2 0x100 EXP SWAP1 DIV PUSH20 0xFFFFFFFFFFFFFFFFFFFFFFFFFFFFFFFFFFFFFFFF AND DUP2 JUMP JUMPDEST PUSH1 0x2 PUSH1 0x0 SWAP1 SLOAD SWAP1 PUSH2 0x100 EXP SWAP1 DIV PUSH20 0xFFFFFFFFFFFFFFFFFFFFFFFFFFFFFFFFFFFFFFFF AND PUSH20 0xFFFFFFFFFFFFFFFFFFFFFFFFFFFFFFFFFFFFFFFF AND PUSH4 0xD108177A DUP3 PUSH1 0x40 MLOAD DUP3 PUSH4 0xFFFFFFFF AND PUSH1 0xE0 SHL DUP2 MSTORE PUSH1 0x4 ADD PUSH2 0x54F SWAP2 SWAP1 PUSH2 0x8EA JUMP JUMPDEST PUSH1 0x0 PUSH1 0x40 MLOAD DUP1 DUP4 SUB DUP2 PUSH1 0x0 DUP8 DUP1 EXTCODESIZE ISZERO DUP1 ISZERO PUSH2 0x569 JUMPI PUSH1 0x0 DUP1 REVERT JUMPDEST POP GAS CALL ISZERO DUP1 ISZERO PUSH2 0x57D JUMPI RETURNDATASIZE PUSH1 0x0 DUP1 RETURNDATACOPY RETURNDATASIZE PUSH1 0x0 REVERT JUMPDEST POP POP POP POP POP JUMP JUMPDEST PUSH1 0x2 PUSH1 0x0 SWAP1 SLOAD SWAP1 PUSH2 0x100 EXP SWAP1 DIV PUSH20 0xFFFFFFFFFFFFFFFFFFFFFFFFFFFFFFFFFFFFFFFF AND PUSH20 0xFFFFFFFFFFFFFFFFFFFFFFFFFFFFFFFFFFFFFFFF AND PUSH4 0xDF47A353 DUP6 DUP6 DUP6 DUP6 PUSH1 0x40 MLOAD DUP6 PUSH4 0xFFFFFFFF AND PUSH1 0xE0 SHL DUP2 MSTORE PUSH1 0x4 ADD PUSH2 0x5E5 SWAP5 SWAP4 SWAP3 SWAP2 SWAP1 PUSH2 0x75A JUMP JUMPDEST PUSH1 0x0 PUSH1 0x40 MLOAD DUP1 DUP4 SUB DUP2 PUSH1 0x0 DUP8 DUP1 EXTCODESIZE ISZERO DUP1 ISZERO PUSH2 0x5FF JUMPI PUSH1 0x0 DUP1 REVERT JUMPDEST POP GAS CALL ISZERO DUP1 ISZERO PUSH2 0x613 JUMPI RETURNDATASIZE PUSH1 0x0 DUP1 RETURNDATACOPY RETURNDATASIZE PUSH1 0x0 REVERT JUMPDEST POP POP POP POP POP POP POP POP JUMP JUMPDEST PUSH1 0x1 PUSH1 0x0 SWAP1 SLOAD SWAP1 PUSH2 0x100 EXP SWAP1 DIV PUSH20 0xFFFFFFFFFFFFFFFFFFFFFFFFFFFFFFFFFFFFFFFF AND PUSH20 0xFFFFFFFFFFFFFFFFFFFFFFFFFFFFFFFFFFFFFFFF AND PUSH4 0xE2C41DBC CALLVALUE PUSH1 0x40 MLOAD DUP3 PUSH4 0xFFFFFFFF AND PUSH1 0xE0 SHL DUP2 MSTORE PUSH1 0x4 ADD PUSH1 0x0 PUSH1 0x40 MLOAD DUP1 DUP4 SUB DUP2 DUP6 DUP9 DUP1 EXTCODESIZE ISZERO DUP1 ISZERO PUSH2 0x687 JUMPI PUSH1 0x0 DUP1 REVERT JUMPDEST POP GAS CALL ISZERO DUP1 ISZERO PUSH2 0x69B JUMPI RETURNDATASIZE PUSH1 0x0 DUP1 RETURNDATACOPY RETURNDATASIZE PUSH1 0x0 REVERT JUMPDEST POP POP POP POP POP JUMP JUMPDEST PUSH1 0x0 DUP1 REVERT JUMPDEST PUSH1 0x0 PUSH20 0xFFFFFFFFFFFFFFFFFFFFFFFFFFFFFFFFFFFFFFFF DUP3 AND SWAP1 POP SWAP2 SWAP1 POP JUMP JUMPDEST PUSH1 0x0 PUSH2 0x6D2 DUP3 PUSH2 0x6A7 JUMP JUMPDEST SWAP1 POP SWAP2 SWAP1 POP JUMP JUMPDEST PUSH2 0x6E2 DUP2 PUSH2 0x6C7 JUMP JUMPDEST DUP2 EQ PUSH2 0x6ED JUMPI PUSH1 0x0 DUP1 REVERT JUMPDEST POP JUMP JUMPDEST PUSH1 0x0 DUP2 CALLDATALOAD SWAP1 POP PUSH2 0x6FF DUP2 PUSH2 0x6D9 JUMP JUMPDEST SWAP3 SWAP2 POP POP JUMP JUMPDEST PUSH1 0x0 PUSH1 0x20 DUP3 DUP5 SUB SLT ISZERO PUSH2 0x71B JUMPI PUSH2 0x71A PUSH2 0x6A2 JUMP JUMPDEST JUMPDEST PUSH1 0x0 PUSH2 0x729 DUP5 DUP3 DUP6 ADD PUSH2 0x6F0 JUMP JUMPDEST SWAP2 POP POP SWAP3 SWAP2 POP POP JUMP JUMPDEST PUSH2 0x73B DUP2 PUSH2 0x6C7 JUMP JUMPDEST DUP3 MSTORE POP POP JUMP JUMPDEST PUSH1 0x0 DUP2 SWAP1 POP SWAP2 SWAP1 POP JUMP JUMPDEST PUSH2 0x754 DUP2 PUSH2 0x741 JUMP JUMPDEST DUP3 MSTORE POP POP JUMP JUMPDEST PUSH1 0x0 PUSH1 0x80 DUP3 ADD SWAP1 POP PUSH2 0x76F PUSH1 0x0 DUP4 ADD DUP8 PUSH2 0x732 JUMP JUMPDEST PUSH2 0x77C PUSH1 0x20 DUP4 ADD DUP7 PUSH2 0x74B JUMP JUMPDEST PUSH2 0x789 PUSH1 0x40 DUP4 ADD DUP6 PUSH2 0x74B JUMP JUMPDEST PUSH2 0x796 PUSH1 0x60 DUP4 ADD DUP5 PUSH2 0x74B JUMP JUMPDEST SWAP6 SWAP5 POP POP POP POP POP JUMP JUMPDEST PUSH1 0x0 PUSH2 0x7AA DUP3 PUSH2 0x6A7 JUMP JUMPDEST SWAP1 POP SWAP2 SWAP1 POP JUMP JUMPDEST PUSH2 0x7BA DUP2 PUSH2 0x79F JUMP JUMPDEST DUP2 EQ PUSH2 0x7C5 JUMPI PUSH1 0x0 DUP1 REVERT JUMPDEST POP JUMP JUMPDEST PUSH1 0x0 DUP2 CALLDATALOAD SWAP1 POP PUSH2 0x7D7 DUP2 PUSH2 0x7B1 JUMP JUMPDEST SWAP3 SWAP2 POP POP JUMP JUMPDEST PUSH2 0x7E6 DUP2 PUSH2 0x741 JUMP JUMPDEST DUP2 EQ PUSH2 0x7F1 JUMPI PUSH1 0x0 DUP1 REVERT JUMPDEST POP JUMP JUMPDEST PUSH1 0x0 DUP2 CALLDATALOAD SWAP1 POP PUSH2 0x803 DUP2 PUSH2 0x7DD JUMP JUMPDEST SWAP3 SWAP2 POP POP JUMP JUMPDEST PUSH1 0x0 DUP1 PUSH1 0x0 DUP1 PUSH1 0x80 DUP6 DUP8 SUB SLT ISZERO PUSH2 0x823 JUMPI PUSH2 0x822 PUSH2 0x6A2 JUMP JUMPDEST JUMPDEST PUSH1 0x0 PUSH2 0x831 DUP8 DUP3 DUP9 ADD PUSH2 0x7C8 JUMP JUMPDEST SWAP5 POP POP PUSH1 0x20 PUSH2 0x842 DUP8 DUP3 DUP9 ADD PUSH2 0x7F4 JUMP JUMPDEST SWAP4 POP POP PUSH1 0x40 PUSH2 0x853 DUP8 DUP3 DUP9 ADD PUSH2 0x7F4 JUMP JUMPDEST SWAP3 POP POP PUSH1 0x60 PUSH2 0x864 DUP8 DUP3 DUP9 ADD PUSH2 0x7F4 JUMP JUMPDEST SWAP2 POP POP SWAP3 SWAP6 SWAP2 SWAP5 POP SWAP3 POP JUMP JUMPDEST PUSH1 0x0 DUP2 SWAP1 POP SWAP2 SWAP1 POP JUMP JUMPDEST PUSH1 0x0 PUSH2 0x895 PUSH2 0x890 PUSH2 0x88B DUP5 PUSH2 0x6A7 JUMP JUMPDEST PUSH2 0x870 JUMP JUMPDEST PUSH2 0x6A7 JUMP JUMPDEST SWAP1 POP SWAP2 SWAP1 POP JUMP JUMPDEST PUSH1 0x0 PUSH2 0x8A7 DUP3 PUSH2 0x87A JUMP JUMPDEST SWAP1 POP SWAP2 SWAP1 POP JUMP JUMPDEST PUSH1 0x0 PUSH2 0x8B9 DUP3 PUSH2 0x89C JUMP JUMPDEST SWAP1 POP SWAP2 SWAP1 POP JUMP JUMPDEST PUSH2 0x8C9 DUP2 PUSH2 0x8AE JUMP JUMPDEST DUP3 MSTORE POP POP JUMP JUMPDEST PUSH1 0x0 PUSH1 0x20 DUP3 ADD SWAP1 POP PUSH2 0x8E4 PUSH1 0x0 DUP4 ADD DUP5 PUSH2 0x8C0 JUMP JUMPDEST SWAP3 SWAP2 POP POP JUMP JUMPDEST PUSH1 0x0 PUSH1 0x20 DUP3 ADD SWAP1 POP PUSH2 0x8FF PUSH1 0x0 DUP4 ADD DUP5 PUSH2 0x732 JUMP JUMPDEST SWAP3 SWAP2 POP POP JUMP JUMPDEST PUSH1 0x0 PUSH1 0x20 DUP3 ADD SWAP1 POP PUSH2 0x91A PUSH1 0x0 DUP4 ADD DUP5 PUSH2 0x74B JUMP JUMPDEST SWAP3 SWAP2 POP POP JUMP JUMPDEST PUSH1 0x0 PUSH2 0x92B DUP3 PUSH2 0x89C JUMP JUMPDEST SWAP1 POP SWAP2 SWAP1 POP JUMP JUMPDEST PUSH2 0x93B DUP2 PUSH2 0x920 JUMP JUMPDEST DUP3 MSTORE POP POP JUMP JUMPDEST PUSH1 0x0 PUSH1 0x20 DUP3 ADD SWAP1 POP PUSH2 0x956 PUSH1 0x0 DUP4 ADD DUP5 PUSH2 0x932 JUMP JUMPDEST SWAP3 SWAP2 POP POP JUMP JUMPDEST PUSH1 0x0 DUP1 PUSH1 0x0 DUP1 PUSH1 0x80 DUP6 DUP8 SUB SLT ISZERO PUSH2 0x976 JUMPI PUSH2 0x975 PUSH2 0x6A2 JUMP JUMPDEST JUMPDEST PUSH1 0x0 PUSH2 0x984 DUP8 DUP3 DUP9 ADD PUSH2 0x6F0 JUMP JUMPDEST SWAP5 POP POP PUSH1 0x20 PUSH2 0x995 DUP8 DUP3 DUP9 ADD PUSH2 0x7F4 JUMP JUMPDEST SWAP4 POP POP PUSH1 0x40 PUSH2 0x9A6 DUP8 DUP3 DUP9 ADD PUSH2 0x7F4 JUMP JUMPDEST SWAP3 POP POP PUSH1 0x60 PUSH2 0x9B7 DUP8 DUP3 DUP9 ADD PUSH2 0x7F4 JUMP JUMPDEST SWAP2 POP POP SWAP3 SWAP6 SWAP2 SWAP5 POP SWAP3 POP JUMP JUMPDEST PUSH1 0x0 DUP2 MLOAD SWAP1 POP PUSH2 0x9D2 DUP2 PUSH2 0x6D9 JUMP JUMPDEST SWAP3 SWAP2 POP POP JUMP JUMPDEST PUSH1 0x0 DUP2 MLOAD SWAP1 POP PUSH2 0x9E7 DUP2 PUSH2 0x7DD JUMP JUMPDEST SWAP3 SWAP2 POP POP JUMP JUMPDEST PUSH1 0x0 DUP1 PUSH1 0x0 DUP1 PUSH1 0x80 DUP6 DUP8 SUB SLT ISZERO PUSH2 0xA07 JUMPI PUSH2 0xA06 PUSH2 0x6A2 JUMP JUMPDEST JUMPDEST PUSH1 0x0 PUSH2 0xA15 DUP8 DUP3 DUP9 ADD PUSH2 0x9C3 JUMP JUMPDEST SWAP5 POP POP PUSH1 0x20 PUSH2 0xA26 DUP8 DUP3 DUP9 ADD PUSH2 0x9D8 JUMP JUMPDEST SWAP4 POP POP PUSH1 0x40 PUSH2 0xA37 DUP8 DUP3 DUP9 ADD PUSH2 0x9D8 JUMP JUMPDEST SWAP3 POP POP PUSH1 0x60 PUSH2 0xA48 DUP8 DUP3 DUP9 ADD PUSH2 0x9D8 JUMP JUMPDEST SWAP2 POP POP SWAP3 SWAP6 SWAP2 SWAP5 POP SWAP3 POP JUMP JUMPDEST PUSH2 0xA5D DUP2 PUSH2 0x79F JUMP JUMPDEST DUP3 MSTORE POP POP JUMP JUMPDEST PUSH1 0x0 PUSH1 0x80 DUP3 ADD SWAP1 POP PUSH2 0xA78 PUSH1 0x0 DUP4 ADD DUP8 PUSH2 0xA54 JUMP JUMPDEST PUSH2 0xA85 PUSH1 0x20 DUP4 ADD DUP7 PUSH2 0x74B JUMP JUMPDEST PUSH2 0xA92 PUSH1 0x40 DUP4 ADD DUP6 PUSH2 0x74B JUMP JUMPDEST PUSH2 0xA9F PUSH1 0x60 DUP4 ADD DUP5 PUSH2 0x74B JUMP JUMPDEST SWAP6 SWAP5 POP POP POP POP POP JUMP JUMPDEST PUSH1 0x0 PUSH1 0x20 DUP3 DUP5 SUB SLT ISZERO PUSH2 0xABE JUMPI PUSH2 0xABD PUSH2 0x6A2 JUMP JUMPDEST JUMPDEST PUSH1 0x0 PUSH2 0xACC DUP5 DUP3 DUP6 ADD PUSH2 0x9D8 JUMP JUMPDEST SWAP2 POP POP SWAP3 SWAP2 POP POP JUMP INVALID LOG2 PUSH5 0x6970667358 0x22 SLT KECCAK256 SWAP10 BASEFEE DIV EXP PUSH11 0xE3614A472FC8CF251C27E1 0x23 0xEB ISZERO PUSH9 0xD953E270F459E98594 0xEC 0x24 PUSH22 0x64736F6C634300081300336080604052348015610010 JUMPI PUSH1 0x0 DUP1 REVERT JUMPDEST POP PUSH2 0x49F DUP1 PUSH2 0x20 PUSH1 0x0 CODECOPY PUSH1 0x0 RETURN INVALID PUSH1 0x80 PUSH1 0x40 MSTORE PUSH1 0x4 CALLDATASIZE LT PUSH2 0x3F JUMPI PUSH1 0x0 CALLDATALOAD PUSH1 0xE0 SHR DUP1 PUSH4 0x57D9989C EQ PUSH2 0x44 JUMPI DUP1 PUSH4 0xC71DACCB EQ PUSH2 0x6D JUMPI DUP1 PUSH4 0xD7081E03 EQ PUSH2 0x98 JUMPI DUP1 PUSH4 0xE2C41DBC EQ PUSH2 0xC1 JUMPI JUMPDEST PUSH1 0x0 DUP1 REVERT JUMPDEST CALLVALUE DUP1 ISZERO PUSH2 0x50 JUMPI PUSH1 0x0 DUP1 REVERT JUMPDEST POP PUSH2 0x6B PUSH1 0x4 DUP1 CALLDATASIZE SUB DUP2 ADD SWAP1 PUSH2 0x66 SWAP2 SWAP1 PUSH2 0x2FA JUMP JUMPDEST PUSH2 0xCB JUMP JUMPDEST STOP JUMPDEST CALLVALUE DUP1 ISZERO PUSH2 0x79 JUMPI PUSH1 0x0 DUP1 REVERT JUMPDEST POP PUSH2 0x82 PUSH2 0x192 JUMP JUMPDEST PUSH1 0x40 MLOAD PUSH2 0x8F SWAP2 SWAP1 PUSH2 0x349 JUMP JUMPDEST PUSH1 0x40 MLOAD DUP1 SWAP2 SUB SWAP1 RETURN JUMPDEST CALLVALUE DUP1 ISZERO PUSH2 0xA4 JUMPI PUSH1 0x0 DUP1 REVERT JUMPDEST POP PUSH2 0xBF PUSH1 0x4 DUP1 CALLDATASIZE SUB DUP2 ADD SWAP1 PUSH2 0xBA SWAP2 SWAP1 PUSH2 0x2FA JUMP JUMPDEST PUSH2 0x19A JUMP JUMPDEST STOP JUMPDEST PUSH2 0xC9 PUSH2 0x228 JUMP JUMPDEST STOP JUMPDEST SELFBALANCE DUP2 GT ISZERO PUSH2 0x10E JUMPI PUSH1 0x40 MLOAD PUSH32 0x8C379A000000000000000000000000000000000000000000000000000000000 DUP2 MSTORE PUSH1 0x4 ADD PUSH2 0x105 SWAP1 PUSH2 0x3C1 JUMP JUMPDEST PUSH1 0x40 MLOAD DUP1 SWAP2 SUB SWAP1 REVERT JUMPDEST DUP2 PUSH20 0xFFFFFFFFFFFFFFFFFFFFFFFFFFFFFFFFFFFFFFFF AND PUSH2 0x8FC DUP3 SWAP1 DUP2 ISZERO MUL SWAP1 PUSH1 0x40 MLOAD PUSH1 0x0 PUSH1 0x40 MLOAD DUP1 DUP4 SUB DUP2 DUP6 DUP9 DUP9 CALL SWAP4 POP POP POP POP ISZERO DUP1 ISZERO PUSH2 0x154 JUMPI RETURNDATASIZE PUSH1 0x0 DUP1 RETURNDATACOPY RETURNDATASIZE PUSH1 0x0 REVERT JUMPDEST POP PUSH32 0x23D6711A1D031134A36921253C75AA59E967D38E369AC625992824315E204F20 DUP3 DUP3 PUSH1 0x40 MLOAD PUSH2 0x186 SWAP3 SWAP2 SWAP1 PUSH2 0x440 JUMP JUMPDEST PUSH1 0x40 MLOAD DUP1 SWAP2 SUB SWAP1 LOG1 POP POP JUMP JUMPDEST PUSH1 0x0 SELFBALANCE SWAP1 POP SWAP1 JUMP JUMPDEST SELFBALANCE DUP2 GT ISZERO PUSH2 0x1DD JUMPI PUSH1 0x40 MLOAD PUSH32 0x8C379A000000000000000000000000000000000000000000000000000000000 DUP2 MSTORE PUSH1 0x4 ADD PUSH2 0x1D4 SWAP1 PUSH2 0x3C1 JUMP JUMPDEST PUSH1 0x40 MLOAD DUP1 SWAP2 SUB SWAP1 REVERT JUMPDEST DUP2 PUSH20 0xFFFFFFFFFFFFFFFFFFFFFFFFFFFFFFFFFFFFFFFF AND PUSH2 0x8FC DUP3 SWAP1 DUP2 ISZERO MUL SWAP1 PUSH1 0x40 MLOAD PUSH1 0x0 PUSH1 0x40 MLOAD DUP1 DUP4 SUB DUP2 DUP6 DUP9 DUP9 CALL SWAP4 POP POP POP POP ISZERO DUP1 ISZERO PUSH2 0x223 JUMPI RETURNDATASIZE PUSH1 0x0 DUP1 RETURNDATACOPY RETURNDATASIZE PUSH1 0x0 REVERT JUMPDEST POP POP POP JUMP JUMPDEST PUSH32 0x7CB5D45C1071F219BD2DA1EA101758715BD52F23F2A707F2D9A0387DEA18D906 CALLVALUE PUSH1 0x40 MLOAD PUSH2 0x257 SWAP2 SWAP1 PUSH2 0x349 JUMP JUMPDEST PUSH1 0x40 MLOAD DUP1 SWAP2 SUB SWAP1 LOG1 JUMP JUMPDEST PUSH1 0x0 DUP1 REVERT JUMPDEST PUSH1 0x0 PUSH20 0xFFFFFFFFFFFFFFFFFFFFFFFFFFFFFFFFFFFFFFFF DUP3 AND SWAP1 POP SWAP2 SWAP1 POP JUMP JUMPDEST PUSH1 0x0 PUSH2 0x291 DUP3 PUSH2 0x266 JUMP JUMPDEST SWAP1 POP SWAP2 SWAP1 POP JUMP JUMPDEST PUSH2 0x2A1 DUP2 PUSH2 0x286 JUMP JUMPDEST DUP2 EQ PUSH2 0x2AC JUMPI PUSH1 0x0 DUP1 REVERT JUMPDEST POP JUMP JUMPDEST PUSH1 0x0 DUP2 CALLDATALOAD SWAP1 POP PUSH2 0x2BE DUP2 PUSH2 0x298 JUMP JUMPDEST SWAP3 SWAP2 POP POP JUMP JUMPDEST PUSH1 0x0 DUP2 SWAP1 POP SWAP2 SWAP1 POP JUMP JUMPDEST PUSH2 0x2D7 DUP2 PUSH2 0x2C4 JUMP JUMPDEST DUP2 EQ PUSH2 0x2E2 JUMPI PUSH1 0x0 DUP1 REVERT JUMPDEST POP JUMP JUMPDEST PUSH1 0x0 DUP2 CALLDATALOAD SWAP1 POP PUSH2 0x2F4 DUP2 PUSH2 0x2CE JUMP JUMPDEST SWAP3 SWAP2 POP POP JUMP JUMPDEST PUSH1 0x0 DUP1 PUSH1 0x40 DUP4 DUP6 SUB SLT ISZERO PUSH2 0x311 JUMPI PUSH2 0x310 PUSH2 0x261 JUMP JUMPDEST JUMPDEST PUSH1 0x0 PUSH2 0x31F DUP6 DUP3 DUP7 ADD PUSH2 0x2AF JUMP JUMPDEST SWAP3 POP POP PUSH1 0x20 PUSH2 0x330 DUP6 DUP3 DUP7 ADD PUSH2 0x2E5 JUMP JUMPDEST SWAP2 POP POP SWAP3 POP SWAP3 SWAP1 POP JUMP JUMPDEST PUSH2 0x343 DUP2 PUSH2 0x2C4 JUMP JUMPDEST DUP3 MSTORE POP POP JUMP JUMPDEST PUSH1 0x0 PUSH1 0x20 DUP3 ADD SWAP1 POP PUSH2 0x35E PUSH1 0x0 DUP4 ADD DUP5 PUSH2 0x33A JUMP JUMPDEST SWAP3 SWAP2 POP POP JUMP JUMPDEST PUSH1 0x0 DUP3 DUP3 MSTORE PUSH1 0x20 DUP3 ADD SWAP1 POP SWAP3 SWAP2 POP POP JUMP JUMPDEST PUSH32 0x496E73756666696369656E742066756E64730000000000000000000000000000 PUSH1 0x0 DUP3 ADD MSTORE POP JUMP JUMPDEST PUSH1 0x0 PUSH2 0x3AB PUSH1 0x12 DUP4 PUSH2 0x364 JUMP JUMPDEST SWAP2 POP PUSH2 0x3B6 DUP3 PUSH2 0x375 JUMP JUMPDEST PUSH1 0x20 DUP3 ADD SWAP1 POP SWAP2 SWAP1 POP JUMP JUMPDEST PUSH1 0x0 PUSH1 0x20 DUP3 ADD SWAP1 POP DUP2 DUP2 SUB PUSH1 0x0 DUP4 ADD MSTORE PUSH2 0x3DA DUP2 PUSH2 0x39E JUMP JUMPDEST SWAP1 POP SWAP2 SWAP1 POP JUMP JUMPDEST PUSH1 0x0 DUP2 SWAP1 POP SWAP2 SWAP1 POP JUMP JUMPDEST PUSH1 0x0 PUSH2 0x406 PUSH2 0x401 PUSH2 0x3FC DUP5 PUSH2 0x266 JUMP JUMPDEST PUSH2 0x3E1 JUMP JUMPDEST PUSH2 0x266 JUMP JUMPDEST SWAP1 POP SWAP2 SWAP1 POP JUMP JUMPDEST PUSH1 0x0 PUSH2 0x418 DUP3 PUSH2 0x3EB JUMP JUMPDEST SWAP1 POP SWAP2 SWAP1 POP JUMP JUMPDEST PUSH1 0x0 PUSH2 0x42A DUP3 PUSH2 0x40D JUMP JUMPDEST SWAP1 POP SWAP2 SWAP1 POP JUMP JUMPDEST PUSH2 0x43A DUP2 PUSH2 0x41F JUMP JUMPDEST DUP3 MSTORE POP POP JUMP JUMPDEST PUSH1 0x0 PUSH1 0x40 DUP3 ADD SWAP1 POP PUSH2 0x455 PUSH1 0x0 DUP4 ADD DUP6 PUSH2 0x431 JUMP JUMPDEST PUSH2 0x462 PUSH1 0x20 DUP4 ADD DUP5 PUSH2 0x33A JUMP JUMPDEST SWAP4 SWAP3 POP POP POP JUMP INVALID LOG2 PUSH5 0x6970667358 0x22 SLT KECCAK256 SLT 0xA8 LT 0x4A 0xDC MUL SELFBALANCE SWAP15 0xD6 CREATE 0x2F 0x26 PUSH21 0x1AC3B441B74A5355642902D06A4349BD9F0FF6473 PUSH16 0x6C634300081300336080604052348015 PUSH3 0x11 JUMPI PUSH1 0x0 DUP1 REVERT JUMPDEST POP PUSH1 0x40 MLOAD PUSH3 0x10BE CODESIZE SUB DUP1 PUSH3 0x10BE DUP4 CODECOPY DUP2 DUP2 ADD PUSH1 0x40 MSTORE DUP2 ADD SWAP1 PUSH3 0x37 SWAP2 SWAP1 PUSH3 0xFC JUMP JUMPDEST DUP1 PUSH1 0x0 DUP1 PUSH2 0x100 EXP DUP2 SLOAD DUP2 PUSH20 0xFFFFFFFFFFFFFFFFFFFFFFFFFFFFFFFFFFFFFFFF MUL NOT AND SWAP1 DUP4 PUSH20 0xFFFFFFFFFFFFFFFFFFFFFFFFFFFFFFFFFFFFFFFF AND MUL OR SWAP1 SSTORE POP POP PUSH3 0x12E JUMP JUMPDEST PUSH1 0x0 DUP1 REVERT JUMPDEST PUSH1 0x0 PUSH20 0xFFFFFFFFFFFFFFFFFFFFFFFFFFFFFFFFFFFFFFFF DUP3 AND SWAP1 POP SWAP2 SWAP1 POP JUMP JUMPDEST PUSH1 0x0 PUSH3 0xB0 DUP3 PUSH3 0x83 JUMP JUMPDEST SWAP1 POP SWAP2 SWAP1 POP JUMP JUMPDEST PUSH1 0x0 PUSH3 0xC4 DUP3 PUSH3 0xA3 JUMP JUMPDEST SWAP1 POP SWAP2 SWAP1 POP JUMP JUMPDEST PUSH3 0xD6 DUP2 PUSH3 0xB7 JUMP JUMPDEST DUP2 EQ PUSH3 0xE2 JUMPI PUSH1 0x0 DUP1 REVERT JUMPDEST POP JUMP JUMPDEST PUSH1 0x0 DUP2 MLOAD SWAP1 POP PUSH3 0xF6 DUP2 PUSH3 0xCB JUMP JUMPDEST SWAP3 SWAP2 POP POP JUMP JUMPDEST PUSH1 0x0 PUSH1 0x20 DUP3 DUP5 SUB SLT ISZERO PUSH3 0x115 JUMPI PUSH3 0x114 PUSH3 0x7E JUMP JUMPDEST JUMPDEST PUSH1 0x0 PUSH3 0x125 DUP5 DUP3 DUP6 ADD PUSH3 0xE5 JUMP JUMPDEST SWAP2 POP POP SWAP3 SWAP2 POP POP JUMP JUMPDEST PUSH2 0xF80 DUP1 PUSH3 0x13E PUSH1 0x0 CODECOPY PUSH1 0x0 RETURN INVALID PUSH1 0x80 PUSH1 0x40 MSTORE CALLVALUE DUP1 ISZERO PUSH2 0x10 JUMPI PUSH1 0x0 DUP1 REVERT JUMPDEST POP PUSH1 0x4 CALLDATASIZE LT PUSH2 0x7D JUMPI PUSH1 0x0 CALLDATALOAD PUSH1 0xE0 SHR DUP1 PUSH4 0xBE0E0DA4 GT PUSH2 0x5B JUMPI DUP1 PUSH4 0xBE0E0DA4 EQ PUSH2 0xDB JUMPI DUP1 PUSH4 0xD0678947 EQ PUSH2 0x10B JUMPI DUP1 PUSH4 0xD108177A EQ PUSH2 0x13E JUMPI DUP1 PUSH4 0xDF47A353 EQ PUSH2 0x15A JUMPI PUSH2 0x7D JUMP JUMPDEST DUP1 PUSH4 0x1CAAFCF1 EQ PUSH2 0x82 JUMPI DUP1 PUSH4 0x4A4247D9 EQ PUSH2 0xB5 JUMPI DUP1 PUSH4 0x809E9EF5 EQ PUSH2 0xD1 JUMPI JUMPDEST PUSH1 0x0 DUP1 REVERT JUMPDEST PUSH2 0x9C PUSH1 0x4 DUP1 CALLDATASIZE SUB DUP2 ADD SWAP1 PUSH2 0x97 SWAP2 SWAP1 PUSH2 0xA5A JUMP JUMPDEST PUSH2 0x176 JUMP JUMPDEST PUSH1 0x40 MLOAD PUSH2 0xAC SWAP5 SWAP4 SWAP3 SWAP2 SWAP1 PUSH2 0xAAF JUMP JUMPDEST PUSH1 0x40 MLOAD DUP1 SWAP2 SUB SWAP1 RETURN JUMPDEST PUSH2 0xCF PUSH1 0x4 DUP1 CALLDATASIZE SUB DUP2 ADD SWAP1 PUSH2 0xCA SWAP2 SWAP1 PUSH2 0xB5E JUMP JUMPDEST PUSH2 0x262 JUMP JUMPDEST STOP JUMPDEST PUSH2 0xD9 PUSH2 0x3E0 JUMP JUMPDEST STOP JUMPDEST PUSH2 0xF5 PUSH1 0x4 DUP1 CALLDATASIZE SUB DUP2 ADD SWAP1 PUSH2 0xF0 SWAP2 SWAP1 PUSH2 0xBC5 JUMP JUMPDEST PUSH2 0x5E9 JUMP JUMPDEST PUSH1 0x40 MLOAD PUSH2 0x102 SWAP2 SWAP1 PUSH2 0xBF2 JUMP JUMPDEST PUSH1 0x40 MLOAD DUP1 SWAP2 SUB SWAP1 RETURN JUMPDEST PUSH2 0x125 PUSH1 0x4 DUP1 CALLDATASIZE SUB DUP2 ADD SWAP1 PUSH2 0x120 SWAP2 SWAP1 PUSH2 0xA5A JUMP JUMPDEST PUSH2 0x628 JUMP JUMPDEST PUSH1 0x40 MLOAD PUSH2 0x135 SWAP5 SWAP4 SWAP3 SWAP2 SWAP1 PUSH2 0xC1C JUMP JUMPDEST PUSH1 0x40 MLOAD DUP1 SWAP2 SUB SWAP1 RETURN JUMPDEST PUSH2 0x158 PUSH1 0x4 DUP1 CALLDATASIZE SUB DUP2 ADD SWAP1 PUSH2 0x153 SWAP2 SWAP1 PUSH2 0xA5A JUMP JUMPDEST PUSH2 0x678 JUMP JUMPDEST STOP JUMPDEST PUSH2 0x174 PUSH1 0x4 DUP1 CALLDATASIZE SUB DUP2 ADD SWAP1 PUSH2 0x16F SWAP2 SWAP1 PUSH2 0xC61 JUMP JUMPDEST PUSH2 0x842 JUMP JUMPDEST STOP JUMPDEST PUSH1 0x0 DUP1 PUSH1 0x0 DUP1 PUSH1 0x0 PUSH1 0x1 PUSH1 0x0 DUP8 PUSH20 0xFFFFFFFFFFFFFFFFFFFFFFFFFFFFFFFFFFFFFFFF AND PUSH20 0xFFFFFFFFFFFFFFFFFFFFFFFFFFFFFFFFFFFFFFFF AND DUP2 MSTORE PUSH1 0x20 ADD SWAP1 DUP2 MSTORE PUSH1 0x20 ADD PUSH1 0x0 KECCAK256 PUSH1 0x40 MLOAD DUP1 PUSH1 0x80 ADD PUSH1 0x40 MSTORE SWAP1 DUP2 PUSH1 0x0 DUP3 ADD PUSH1 0x0 SWAP1 SLOAD SWAP1 PUSH2 0x100 EXP SWAP1 DIV PUSH20 0xFFFFFFFFFFFFFFFFFFFFFFFFFFFFFFFFFFFFFFFF AND PUSH20 0xFFFFFFFFFFFFFFFFFFFFFFFFFFFFFFFFFFFFFFFF AND PUSH20 0xFFFFFFFFFFFFFFFFFFFFFFFFFFFFFFFFFFFFFFFF AND DUP2 MSTORE PUSH1 0x20 ADD PUSH1 0x1 DUP3 ADD SLOAD DUP2 MSTORE PUSH1 0x20 ADD PUSH1 0x2 DUP3 ADD SLOAD DUP2 MSTORE PUSH1 0x20 ADD PUSH1 0x3 DUP3 ADD SLOAD DUP2 MSTORE POP POP SWAP1 POP DUP1 PUSH1 0x0 ADD MLOAD DUP2 PUSH1 0x20 ADD MLOAD DUP3 PUSH1 0x40 ADD MLOAD DUP4 PUSH1 0x60 ADD MLOAD SWAP5 POP SWAP5 POP SWAP5 POP SWAP5 POP POP SWAP2 SWAP4 POP SWAP2 SWAP4 JUMP JUMPDEST PUSH1 0x40 MLOAD DUP1 PUSH1 0x80 ADD PUSH1 0x40 MSTORE DUP1 DUP6 PUSH20 0xFFFFFFFFFFFFFFFFFFFFFFFFFFFFFFFFFFFFFFFF AND DUP2 MSTORE PUSH1 0x20 ADD DUP5 DUP2 MSTORE PUSH1 0x20 ADD DUP4 DUP2 MSTORE PUSH1 0x20 ADD DUP3 DUP2 MSTORE POP PUSH1 0x1 PUSH1 0x0 DUP7 PUSH20 0xFFFFFFFFFFFFFFFFFFFFFFFFFFFFFFFFFFFFFFFF AND PUSH20 0xFFFFFFFFFFFFFFFFFFFFFFFFFFFFFFFFFFFFFFFF AND DUP2 MSTORE PUSH1 0x20 ADD SWAP1 DUP2 MSTORE PUSH1 0x20 ADD PUSH1 0x0 KECCAK256 PUSH1 0x0 DUP3 ADD MLOAD DUP2 PUSH1 0x0 ADD PUSH1 0x0 PUSH2 0x100 EXP DUP2 SLOAD DUP2 PUSH20 0xFFFFFFFFFFFFFFFFFFFFFFFFFFFFFFFFFFFFFFFF MUL NOT AND SWAP1 DUP4 PUSH20 0xFFFFFFFFFFFFFFFFFFFFFFFFFFFFFFFFFFFFFFFF AND MUL OR SWAP1 SSTORE POP PUSH1 0x20 DUP3 ADD MLOAD DUP2 PUSH1 0x1 ADD SSTORE PUSH1 0x40 DUP3 ADD MLOAD DUP2 PUSH1 0x2 ADD SSTORE PUSH1 0x60 DUP3 ADD MLOAD DUP2 PUSH1 0x3 ADD SSTORE SWAP1 POP POP PUSH1 0x2 DUP5 SWAP1 DUP1 PUSH1 0x1 DUP2 SLOAD ADD DUP1 DUP3 SSTORE DUP1 SWAP2 POP POP PUSH1 0x1 SWAP1 SUB SWAP1 PUSH1 0x0 MSTORE PUSH1 0x20 PUSH1 0x0 KECCAK256 ADD PUSH1 0x0 SWAP1 SWAP2 SWAP1 SWAP2 SWAP1 SWAP2 PUSH2 0x100 EXP DUP2 SLOAD DUP2 PUSH20 0xFFFFFFFFFFFFFFFFFFFFFFFFFFFFFFFFFFFFFFFF MUL NOT AND SWAP1 DUP4 PUSH20 0xFFFFFFFFFFFFFFFFFFFFFFFFFFFFFFFFFFFFFFFF AND MUL OR SWAP1 SSTORE POP PUSH32 0x41109CFE10CFA549ABB66B986D0A294ECC6C9AD39000ABCB9C2AFD422C8BD64 DUP5 PUSH1 0x40 MLOAD PUSH2 0x3D2 SWAP2 SWAP1 PUSH2 0xD27 JUMP JUMPDEST PUSH1 0x40 MLOAD DUP1 SWAP2 SUB SWAP1 LOG1 POP POP POP POP JUMP JUMPDEST PUSH1 0x0 JUMPDEST PUSH1 0x2 DUP1 SLOAD SWAP1 POP DUP2 LT ISZERO PUSH2 0x5E6 JUMPI PUSH1 0x0 PUSH1 0x2 DUP3 DUP2 SLOAD DUP2 LT PUSH2 0x406 JUMPI PUSH2 0x405 PUSH2 0xD42 JUMP JUMPDEST JUMPDEST SWAP1 PUSH1 0x0 MSTORE PUSH1 0x20 PUSH1 0x0 KECCAK256 ADD PUSH1 0x0 SWAP1 SLOAD SWAP1 PUSH2 0x100 EXP SWAP1 DIV PUSH20 0xFFFFFFFFFFFFFFFFFFFFFFFFFFFFFFFFFFFFFFFF AND SWAP1 POP PUSH1 0x0 PUSH2 0x4FB PUSH1 0x1 PUSH1 0x0 DUP5 PUSH20 0xFFFFFFFFFFFFFFFFFFFFFFFFFFFFFFFFFFFFFFFF AND PUSH20 0xFFFFFFFFFFFFFFFFFFFFFFFFFFFFFFFFFFFFFFFF AND DUP2 MSTORE PUSH1 0x20 ADD SWAP1 DUP2 MSTORE PUSH1 0x20 ADD PUSH1 0x0 KECCAK256 PUSH1 0x40 MLOAD DUP1 PUSH1 0x80 ADD PUSH1 0x40 MSTORE SWAP1 DUP2 PUSH1 0x0 DUP3 ADD PUSH1 0x0 SWAP1 SLOAD SWAP1 PUSH2 0x100 EXP SWAP1 DIV PUSH20 0xFFFFFFFFFFFFFFFFFFFFFFFFFFFFFFFFFFFFFFFF AND PUSH20 0xFFFFFFFFFFFFFFFFFFFFFFFFFFFFFFFFFFFFFFFF AND PUSH20 0xFFFFFFFFFFFFFFFFFFFFFFFFFFFFFFFFFFFFFFFF AND DUP2 MSTORE PUSH1 0x20 ADD PUSH1 0x1 DUP3 ADD SLOAD DUP2 MSTORE PUSH1 0x20 ADD PUSH1 0x2 DUP3 ADD SLOAD DUP2 MSTORE PUSH1 0x20 ADD PUSH1 0x3 DUP3 ADD SLOAD DUP2 MSTORE POP POP PUSH2 0x8DE JUMP JUMPDEST SWAP1 POP PUSH1 0x0 DUP1 SLOAD SWAP1 PUSH2 0x100 EXP SWAP1 DIV PUSH20 0xFFFFFFFFFFFFFFFFFFFFFFFFFFFFFFFFFFFFFFFF AND PUSH20 0xFFFFFFFFFFFFFFFFFFFFFFFFFFFFFFFFFFFFFFFF AND PUSH4 0xD7081E03 DUP4 DUP4 PUSH1 0x40 MLOAD DUP4 PUSH4 0xFFFFFFFF AND PUSH1 0xE0 SHL DUP2 MSTORE PUSH1 0x4 ADD PUSH2 0x558 SWAP3 SWAP2 SWAP1 PUSH2 0xD71 JUMP JUMPDEST PUSH1 0x0 PUSH1 0x40 MLOAD DUP1 DUP4 SUB DUP2 PUSH1 0x0 DUP8 DUP1 EXTCODESIZE ISZERO DUP1 ISZERO PUSH2 0x572 JUMPI PUSH1 0x0 DUP1 REVERT JUMPDEST POP GAS CALL ISZERO DUP1 ISZERO PUSH2 0x586 JUMPI RETURNDATASIZE PUSH1 0x0 DUP1 RETURNDATACOPY RETURNDATASIZE PUSH1 0x0 REVERT JUMPDEST POP POP POP POP PUSH1 0x1 DUP1 PUSH1 0x0 DUP5 PUSH20 0xFFFFFFFFFFFFFFFFFFFFFFFFFFFFFFFFFFFFFFFF AND PUSH20 0xFFFFFFFFFFFFFFFFFFFFFFFFFFFFFFFFFFFFFFFF AND DUP2 MSTORE PUSH1 0x20 ADD SWAP1 DUP2 MSTORE PUSH1 0x20 ADD PUSH1 0x0 KECCAK256 PUSH1 0x2 ADD DUP2 SWAP1 SSTORE POP POP POP DUP1 DUP1 PUSH2 0x5DE SWAP1 PUSH2 0xDC9 JUMP JUMPDEST SWAP2 POP POP PUSH2 0x3E3 JUMP JUMPDEST POP JUMP JUMPDEST PUSH1 0x2 DUP2 DUP2 SLOAD DUP2 LT PUSH2 0x5F9 JUMPI PUSH1 0x0 DUP1 REVERT JUMPDEST SWAP1 PUSH1 0x0 MSTORE PUSH1 0x20 PUSH1 0x0 KECCAK256 ADD PUSH1 0x0 SWAP2 POP SLOAD SWAP1 PUSH2 0x100 EXP SWAP1 DIV PUSH20 0xFFFFFFFFFFFFFFFFFFFFFFFFFFFFFFFFFFFFFFFF AND DUP2 JUMP JUMPDEST PUSH1 0x1 PUSH1 0x20 MSTORE DUP1 PUSH1 0x0 MSTORE PUSH1 0x40 PUSH1 0x0 KECCAK256 PUSH1 0x0 SWAP2 POP SWAP1 POP DUP1 PUSH1 0x0 ADD PUSH1 0x0 SWAP1 SLOAD SWAP1 PUSH2 0x100 EXP SWAP1 DIV PUSH20 0xFFFFFFFFFFFFFFFFFFFFFFFFFFFFFFFFFFFFFFFF AND SWAP1 DUP1 PUSH1 0x1 ADD SLOAD SWAP1 DUP1 PUSH1 0x2 ADD SLOAD SWAP1 DUP1 PUSH1 0x3 ADD SLOAD SWAP1 POP DUP5 JUMP JUMPDEST PUSH1 0x1 PUSH1 0x0 DUP3 PUSH20 0xFFFFFFFFFFFFFFFFFFFFFFFFFFFFFFFFFFFFFFFF AND PUSH20 0xFFFFFFFFFFFFFFFFFFFFFFFFFFFFFFFFFFFFFFFF AND DUP2 MSTORE PUSH1 0x20 ADD SWAP1 DUP2 MSTORE PUSH1 0x20 ADD PUSH1 0x0 KECCAK256 PUSH1 0x0 DUP1 DUP3 ADD PUSH1 0x0 PUSH2 0x100 EXP DUP2 SLOAD SWAP1 PUSH20 0xFFFFFFFFFFFFFFFFFFFFFFFFFFFFFFFFFFFFFFFF MUL NOT AND SWAP1 SSTORE PUSH1 0x1 DUP3 ADD PUSH1 0x0 SWAP1 SSTORE PUSH1 0x2 DUP3 ADD PUSH1 0x0 SWAP1 SSTORE PUSH1 0x3 DUP3 ADD PUSH1 0x0 SWAP1 SSTORE POP POP PUSH1 0x0 PUSH2 0x704 DUP3 PUSH2 0x946 JUMP JUMPDEST SWAP1 POP PUSH1 0x2 DUP1 SLOAD SWAP1 POP DUP2 LT ISZERO PUSH2 0x807 JUMPI PUSH1 0x2 PUSH1 0x1 PUSH1 0x2 DUP1 SLOAD SWAP1 POP PUSH2 0x727 SWAP2 SWAP1 PUSH2 0xE11 JUMP JUMPDEST DUP2 SLOAD DUP2 LT PUSH2 0x738 JUMPI PUSH2 0x737 PUSH2 0xD42 JUMP JUMPDEST JUMPDEST SWAP1 PUSH1 0x0 MSTORE PUSH1 0x20 PUSH1 0x0 KECCAK256 ADD PUSH1 0x0 SWAP1 SLOAD SWAP1 PUSH2 0x100 EXP SWAP1 DIV PUSH20 0xFFFFFFFFFFFFFFFFFFFFFFFFFFFFFFFFFFFFFFFF AND PUSH1 0x2 DUP3 DUP2 SLOAD DUP2 LT PUSH2 0x777 JUMPI PUSH2 0x776 PUSH2 0xD42 JUMP JUMPDEST JUMPDEST SWAP1 PUSH1 0x0 MSTORE PUSH1 0x20 PUSH1 0x0 KECCAK256 ADD PUSH1 0x0 PUSH2 0x100 EXP DUP2 SLOAD DUP2 PUSH20 0xFFFFFFFFFFFFFFFFFFFFFFFFFFFFFFFFFFFFFFFF MUL NOT AND SWAP1 DUP4 PUSH20 0xFFFFFFFFFFFFFFFFFFFFFFFFFFFFFFFFFFFFFFFF AND MUL OR SWAP1 SSTORE POP PUSH1 0x2 DUP1 SLOAD DUP1 PUSH2 0x7D1 JUMPI PUSH2 0x7D0 PUSH2 0xE45 JUMP JUMPDEST JUMPDEST PUSH1 0x1 SWAP1 SUB DUP2 DUP2 SWAP1 PUSH1 0x0 MSTORE PUSH1 0x20 PUSH1 0x0 KECCAK256 ADD PUSH1 0x0 PUSH2 0x100 EXP DUP2 SLOAD SWAP1 PUSH20 0xFFFFFFFFFFFFFFFFFFFFFFFFFFFFFFFFFFFFFFFF MUL NOT AND SWAP1 SSTORE SWAP1 SSTORE JUMPDEST PUSH32 0xABAE6E64CB4315875C29D42347A312F5E9FCE4AB564E9722B43DD78D0751135A DUP3 PUSH1 0x40 MLOAD PUSH2 0x836 SWAP2 SWAP1 PUSH2 0xBF2 JUMP JUMPDEST PUSH1 0x40 MLOAD DUP1 SWAP2 SUB SWAP1 LOG1 POP POP JUMP JUMPDEST PUSH1 0x0 PUSH1 0x1 PUSH1 0x0 DUP7 PUSH20 0xFFFFFFFFFFFFFFFFFFFFFFFFFFFFFFFFFFFFFFFF AND PUSH20 0xFFFFFFFFFFFFFFFFFFFFFFFFFFFFFFFFFFFFFFFF AND DUP2 MSTORE PUSH1 0x20 ADD SWAP1 DUP2 MSTORE PUSH1 0x20 ADD PUSH1 0x0 KECCAK256 SWAP1 POP DUP4 DUP2 PUSH1 0x1 ADD DUP2 SWAP1 SSTORE POP DUP3 DUP2 PUSH1 0x2 ADD DUP2 SWAP1 SSTORE POP DUP2 DUP2 PUSH1 0x3 ADD DUP2 SWAP1 SSTORE POP PUSH32 0x99D48556BE6117B7DA7D33C0AFCE92EB9789B36C8FF5BB604695008834534796 DUP6 PUSH1 0x40 MLOAD PUSH2 0x8CF SWAP2 SWAP1 PUSH2 0xBF2 JUMP JUMPDEST PUSH1 0x40 MLOAD DUP1 SWAP2 SUB SWAP1 LOG1 POP POP POP POP POP JUMP JUMPDEST PUSH1 0x0 DUP1 PUSH1 0x1 DUP4 PUSH1 0x40 ADD MLOAD DUP5 PUSH1 0x60 ADD MLOAD PUSH2 0x8F7 SWAP2 SWAP1 PUSH2 0xE11 JUMP JUMPDEST PUSH2 0x901 SWAP2 SWAP1 PUSH2 0xE74 JUMP JUMPDEST SWAP1 POP PUSH1 0x0 PUSH8 0xDE0B6B3A7640000 SWAP1 POP PUSH1 0x0 PUSH1 0x1E DUP6 PUSH1 0x20 ADD MLOAD DUP4 DUP6 PUSH2 0x925 SWAP2 SWAP1 PUSH2 0xEA8 JUMP JUMPDEST PUSH2 0x92F SWAP2 SWAP1 PUSH2 0xEA8 JUMP JUMPDEST PUSH2 0x939 SWAP2 SWAP1 PUSH2 0xF19 JUMP JUMPDEST SWAP1 POP DUP1 SWAP4 POP POP POP POP SWAP2 SWAP1 POP JUMP JUMPDEST PUSH1 0x0 DUP1 PUSH1 0x0 SWAP1 POP JUMPDEST PUSH1 0x2 DUP1 SLOAD SWAP1 POP DUP2 LT ISZERO PUSH2 0x9E8 JUMPI DUP3 PUSH20 0xFFFFFFFFFFFFFFFFFFFFFFFFFFFFFFFFFFFFFFFF AND PUSH1 0x2 DUP3 DUP2 SLOAD DUP2 LT PUSH2 0x986 JUMPI PUSH2 0x985 PUSH2 0xD42 JUMP JUMPDEST JUMPDEST SWAP1 PUSH1 0x0 MSTORE PUSH1 0x20 PUSH1 0x0 KECCAK256 ADD PUSH1 0x0 SWAP1 SLOAD SWAP1 PUSH2 0x100 EXP SWAP1 DIV PUSH20 0xFFFFFFFFFFFFFFFFFFFFFFFFFFFFFFFFFFFFFFFF AND PUSH20 0xFFFFFFFFFFFFFFFFFFFFFFFFFFFFFFFFFFFFFFFF AND SUB PUSH2 0x9D5 JUMPI DUP1 SWAP2 POP POP PUSH2 0x9F2 JUMP JUMPDEST DUP1 DUP1 PUSH2 0x9E0 SWAP1 PUSH2 0xDC9 JUMP JUMPDEST SWAP2 POP POP PUSH2 0x94E JUMP JUMPDEST POP PUSH1 0x2 DUP1 SLOAD SWAP1 POP SWAP1 POP JUMPDEST SWAP2 SWAP1 POP JUMP JUMPDEST PUSH1 0x0 DUP1 REVERT JUMPDEST PUSH1 0x0 PUSH20 0xFFFFFFFFFFFFFFFFFFFFFFFFFFFFFFFFFFFFFFFF DUP3 AND SWAP1 POP SWAP2 SWAP1 POP JUMP JUMPDEST PUSH1 0x0 PUSH2 0xA27 DUP3 PUSH2 0x9FC JUMP JUMPDEST SWAP1 POP SWAP2 SWAP1 POP JUMP JUMPDEST PUSH2 0xA37 DUP2 PUSH2 0xA1C JUMP JUMPDEST DUP2 EQ PUSH2 0xA42 JUMPI PUSH1 0x0 DUP1 REVERT JUMPDEST POP JUMP JUMPDEST PUSH1 0x0 DUP2 CALLDATALOAD SWAP1 POP PUSH2 0xA54 DUP2 PUSH2 0xA2E JUMP JUMPDEST SWAP3 SWAP2 POP POP JUMP JUMPDEST PUSH1 0x0 PUSH1 0x20 DUP3 DUP5 SUB SLT ISZERO PUSH2 0xA70 JUMPI PUSH2 0xA6F PUSH2 0x9F7 JUMP JUMPDEST JUMPDEST PUSH1 0x0 PUSH2 0xA7E DUP5 DUP3 DUP6 ADD PUSH2 0xA45 JUMP JUMPDEST SWAP2 POP POP SWAP3 SWAP2 POP POP JUMP JUMPDEST PUSH2 0xA90 DUP2 PUSH2 0xA1C JUMP JUMPDEST DUP3 MSTORE POP POP JUMP JUMPDEST PUSH1 0x0 DUP2 SWAP1 POP SWAP2 SWAP1 POP JUMP JUMPDEST PUSH2 0xAA9 DUP2 PUSH2 0xA96 JUMP JUMPDEST DUP3 MSTORE POP POP JUMP JUMPDEST PUSH1 0x0 PUSH1 0x80 DUP3 ADD SWAP1 POP PUSH2 0xAC4 PUSH1 0x0 DUP4 ADD DUP8 PUSH2 0xA87 JUMP JUMPDEST PUSH2 0xAD1 PUSH1 0x20 DUP4 ADD DUP7 PUSH2 0xAA0 JUMP JUMPDEST PUSH2 0xADE PUSH1 0x40 DUP4 ADD DUP6 PUSH2 0xAA0 JUMP JUMPDEST PUSH2 0xAEB PUSH1 0x60 DUP4 ADD DUP5 PUSH2 0xAA0 JUMP JUMPDEST SWAP6 SWAP5 POP POP POP POP POP JUMP JUMPDEST PUSH1 0x0 PUSH2 0xAFF DUP3 PUSH2 0x9FC JUMP JUMPDEST SWAP1 POP SWAP2 SWAP1 POP JUMP JUMPDEST PUSH2 0xB0F DUP2 PUSH2 0xAF4 JUMP JUMPDEST DUP2 EQ PUSH2 0xB1A JUMPI PUSH1 0x0 DUP1 REVERT JUMPDEST POP JUMP JUMPDEST PUSH1 0x0 DUP2 CALLDATALOAD SWAP1 POP PUSH2 0xB2C DUP2 PUSH2 0xB06 JUMP JUMPDEST SWAP3 SWAP2 POP POP JUMP JUMPDEST PUSH2 0xB3B DUP2 PUSH2 0xA96 JUMP JUMPDEST DUP2 EQ PUSH2 0xB46 JUMPI PUSH1 0x0 DUP1 REVERT JUMPDEST POP JUMP JUMPDEST PUSH1 0x0 DUP2 CALLDATALOAD SWAP1 POP PUSH2 0xB58 DUP2 PUSH2 0xB32 JUMP JUMPDEST SWAP3 SWAP2 POP POP JUMP JUMPDEST PUSH1 0x0 DUP1 PUSH1 0x0 DUP1 PUSH1 0x80 DUP6 DUP8 SUB SLT ISZERO PUSH2 0xB78 JUMPI PUSH2 0xB77 PUSH2 0x9F7 JUMP JUMPDEST JUMPDEST PUSH1 0x0 PUSH2 0xB86 DUP8 DUP3 DUP9 ADD PUSH2 0xB1D JUMP JUMPDEST SWAP5 POP POP PUSH1 0x20 PUSH2 0xB97 DUP8 DUP3 DUP9 ADD PUSH2 0xB49 JUMP JUMPDEST SWAP4 POP POP PUSH1 0x40 PUSH2 0xBA8 DUP8 DUP3 DUP9 ADD PUSH2 0xB49 JUMP JUMPDEST SWAP3 POP POP PUSH1 0x60 PUSH2 0xBB9 DUP8 DUP3 DUP9 ADD PUSH2 0xB49 JUMP JUMPDEST SWAP2 POP POP SWAP3 SWAP6 SWAP2 SWAP5 POP SWAP3 POP JUMP JUMPDEST PUSH1 0x0 PUSH1 0x20 DUP3 DUP5 SUB SLT ISZERO PUSH2 0xBDB JUMPI PUSH2 0xBDA PUSH2 0x9F7 JUMP JUMPDEST JUMPDEST PUSH1 0x0 PUSH2 0xBE9 DUP5 DUP3 DUP6 ADD PUSH2 0xB49 JUMP JUMPDEST SWAP2 POP POP SWAP3 SWAP2 POP POP JUMP JUMPDEST PUSH1 0x0 PUSH1 0x20 DUP3 ADD SWAP1 POP PUSH2 0xC07 PUSH1 0x0 DUP4 ADD DUP5 PUSH2 0xA87 JUMP JUMPDEST SWAP3 SWAP2 POP POP JUMP JUMPDEST PUSH2 0xC16 DUP2 PUSH2 0xAF4 JUMP JUMPDEST DUP3 MSTORE POP POP JUMP JUMPDEST PUSH1 0x0 PUSH1 0x80 DUP3 ADD SWAP1 POP PUSH2 0xC31 PUSH1 0x0 DUP4 ADD DUP8 PUSH2 0xC0D JUMP JUMPDEST PUSH2 0xC3E PUSH1 0x20 DUP4 ADD DUP7 PUSH2 0xAA0 JUMP JUMPDEST PUSH2 0xC4B PUSH1 0x40 DUP4 ADD DUP6 PUSH2 0xAA0 JUMP JUMPDEST PUSH2 0xC58 PUSH1 0x60 DUP4 ADD DUP5 PUSH2 0xAA0 JUMP JUMPDEST SWAP6 SWAP5 POP POP POP POP POP JUMP JUMPDEST PUSH1 0x0 DUP1 PUSH1 0x0 DUP1 PUSH1 0x80 DUP6 DUP8 SUB SLT ISZERO PUSH2 0xC7B JUMPI PUSH2 0xC7A PUSH2 0x9F7 JUMP JUMPDEST JUMPDEST PUSH1 0x0 PUSH2 0xC89 DUP8 DUP3 DUP9 ADD PUSH2 0xA45 JUMP JUMPDEST SWAP5 POP POP PUSH1 0x20 PUSH2 0xC9A DUP8 DUP3 DUP9 ADD PUSH2 0xB49 JUMP JUMPDEST SWAP4 POP POP PUSH1 0x40 PUSH2 0xCAB DUP8 DUP3 DUP9 ADD PUSH2 0xB49 JUMP JUMPDEST SWAP3 POP POP PUSH1 0x60 PUSH2 0xCBC DUP8 DUP3 DUP9 ADD PUSH2 0xB49 JUMP JUMPDEST SWAP2 POP POP SWAP3 SWAP6 SWAP2 SWAP5 POP SWAP3 POP JUMP JUMPDEST PUSH1 0x0 DUP2 SWAP1 POP SWAP2 SWAP1 POP JUMP JUMPDEST PUSH1 0x0 PUSH2 0xCED PUSH2 0xCE8 PUSH2 0xCE3 DUP5 PUSH2 0x9FC JUMP JUMPDEST PUSH2 0xCC8 JUMP JUMPDEST PUSH2 0x9FC JUMP JUMPDEST SWAP1 POP SWAP2 SWAP1 POP JUMP JUMPDEST PUSH1 0x0 PUSH2 0xCFF DUP3 PUSH2 0xCD2 JUMP JUMPDEST SWAP1 POP SWAP2 SWAP1 POP JUMP JUMPDEST PUSH1 0x0 PUSH2 0xD11 DUP3 PUSH2 0xCF4 JUMP JUMPDEST SWAP1 POP SWAP2 SWAP1 POP JUMP JUMPDEST PUSH2 0xD21 DUP2 PUSH2 0xD06 JUMP JUMPDEST DUP3 MSTORE POP POP JUMP JUMPDEST PUSH1 0x0 PUSH1 0x20 DUP3 ADD SWAP1 POP PUSH2 0xD3C PUSH1 0x0 DUP4 ADD DUP5 PUSH2 0xD18 JUMP JUMPDEST SWAP3 SWAP2 POP POP JUMP JUMPDEST PUSH32 0x4E487B7100000000000000000000000000000000000000000000000000000000 PUSH1 0x0 MSTORE PUSH1 0x32 PUSH1 0x4 MSTORE PUSH1 0x24 PUSH1 0x0 REVERT JUMPDEST PUSH1 0x0 PUSH1 0x40 DUP3 ADD SWAP1 POP PUSH2 0xD86 PUSH1 0x0 DUP4 ADD DUP6 PUSH2 0xC0D JUMP JUMPDEST PUSH2 0xD93 PUSH1 0x20 DUP4 ADD DUP5 PUSH2 0xAA0 JUMP JUMPDEST SWAP4 SWAP3 POP POP POP JUMP JUMPDEST PUSH32 0x4E487B7100000000000000000000000000000000000000000000000000000000 PUSH1 0x0 MSTORE PUSH1 0x11 PUSH1 0x4 MSTORE PUSH1 0x24 PUSH1 0x0 REVERT JUMPDEST PUSH1 0x0 PUSH2 0xDD4 DUP3 PUSH2 0xA96 JUMP JUMPDEST SWAP2 POP PUSH32 0xFFFFFFFFFFFFFFFFFFFFFFFFFFFFFFFFFFFFFFFFFFFFFFFFFFFFFFFFFFFFFFFF DUP3 SUB PUSH2 0xE06 JUMPI PUSH2 0xE05 PUSH2 0xD9A JUMP JUMPDEST JUMPDEST PUSH1 0x1 DUP3 ADD SWAP1 POP SWAP2 SWAP1 POP JUMP JUMPDEST PUSH1 0x0 PUSH2 0xE1C DUP3 PUSH2 0xA96 JUMP JUMPDEST SWAP2 POP PUSH2 0xE27 DUP4 PUSH2 0xA96 JUMP JUMPDEST SWAP3 POP DUP3 DUP3 SUB SWAP1 POP DUP2 DUP2 GT ISZERO PUSH2 0xE3F JUMPI PUSH2 0xE3E PUSH2 0xD9A JUMP JUMPDEST JUMPDEST SWAP3 SWAP2 POP POP JUMP JUMPDEST PUSH32 0x4E487B7100000000000000000000000000000000000000000000000000000000 PUSH1 0x0 MSTORE PUSH1 0x31 PUSH1 0x4 MSTORE PUSH1 0x24 PUSH1 0x0 REVERT JUMPDEST PUSH1 0x0 PUSH2 0xE7F DUP3 PUSH2 0xA96 JUMP JUMPDEST SWAP2 POP PUSH2 0xE8A DUP4 PUSH2 0xA96 JUMP JUMPDEST SWAP3 POP DUP3 DUP3 ADD SWAP1 POP DUP1 DUP3 GT ISZERO PUSH2 0xEA2 JUMPI PUSH2 0xEA1 PUSH2 0xD9A JUMP JUMPDEST JUMPDEST SWAP3 SWAP2 POP POP JUMP JUMPDEST PUSH1 0x0 PUSH2 0xEB3 DUP3 PUSH2 0xA96 JUMP JUMPDEST SWAP2 POP PUSH2 0xEBE DUP4 PUSH2 0xA96 JUMP JUMPDEST SWAP3 POP DUP3 DUP3 MUL PUSH2 0xECC DUP2 PUSH2 0xA96 JUMP JUMPDEST SWAP2 POP DUP3 DUP3 DIV DUP5 EQ DUP4 ISZERO OR PUSH2 0xEE3 JUMPI PUSH2 0xEE2 PUSH2 0xD9A JUMP JUMPDEST JUMPDEST POP SWAP3 SWAP2 POP POP JUMP JUMPDEST PUSH32 0x4E487B7100000000000000000000000000000000000000000000000000000000 PUSH1 0x0 MSTORE PUSH1 0x12 PUSH1 0x4 MSTORE PUSH1 0x24 PUSH1 0x0 REVERT JUMPDEST PUSH1 0x0 PUSH2 0xF24 DUP3 PUSH2 0xA96 JUMP JUMPDEST SWAP2 POP PUSH2 0xF2F DUP4 PUSH2 0xA96 JUMP JUMPDEST SWAP3 POP DUP3 PUSH2 0xF3F JUMPI PUSH2 0xF3E PUSH2 0xEEA JUMP JUMPDEST JUMPDEST DUP3 DUP3 DIV SWAP1 POP SWAP3 SWAP2 POP POP JUMP INVALID LOG2 PUSH5 0x6970667358 0x22 SLT KECCAK256 SWAP5 MULMOD SHR 0xE7 0x2A 0x23 RETURN COINBASE PUSH12 0x6EB14B72AE43A46411E65C57 0xE5 0xAA 0xE 0xCE CREATE RETURNDATASIZE SWAP13 0xB7 0xD9 EXTCODECOPY PUSH11 0x64736F6C63430008130033 "},"gasEstimates":{"creation":{"codeDepositCost":"565400","executionCost":"infinite","totalCost":"infinite"},"external":{"addEmployee(address,uint256,uint256,uint256)":"infinite","checkBalance()":"infinite","depositFunds()":"infinite","employeeManagement()":"infinite","financeManagement()":"infinite","getEmployeeDetails(address)":"infinite","owner()":"2600","payAllEmployees()":"infinite","removeEmployee(address)":"infinite","updateEmployee(address,uint256,uint256,uint256)":"infinite"}},"methodIdentifiers":{"addEmployee(address,uint256,uint256,uint256)":"4a4247d9","checkBalance()":"c71daccb","depositFunds()":"e2c41dbc","employeeManagement()":"ccff137a","financeManagement()":"64ca0981","getEmployeeDetails(address)":"1caafcf1","owner()":"8da5cb5b","payAllEmployees()":"809e9ef5","removeEmployee(address)":"d108177a","updateEmployee(address,uint256,uint256,uint256)":"df47a353"}},"storageLayout":{"storage":[{"astId":5,"contract":"BlockPay.sol:BlockPay","label":"owner","offset":0,"slot":"0","type":"t_address"},{"astId":8,"contract":"BlockPay.sol:BlockPay","label":"financeManagement","offset":0,"slot":"1","type":"t_contract(FinanceManagement)544"},{"astId":11,"contract":"BlockPay.sol:BlockPay","label":"employeeManagement","offset":0,"slot":"2","type":"t_contract(EmployeeManagement)455"}],"types":{"t_address":{"encoding":"inplace","label":"address","numberOfBytes":"20"},"t_contract(EmployeeManagement)455":{"encoding":"inplace","label":"contract EmployeeManagement","numberOfBytes":"20"},"t_contract(FinanceManagement)544":{"encoding":"inplace","label":"contract FinanceManagement","numberOfBytes":"20"}}},"userdoc":{"kind":"user","methods":{},"version":1}}